:020000040800F2
:10000000B8BB0220C10100089F1B00089D1A000810
:100010009D1B0008470300089932000800000000FB
:100020000000000000000000000000002D1D00087E
:10003000E5030008000000002B1D00082F1D00082C
:10004000DB010008DB010008DB010008DB01000820
:10005000DB010008DB010008DB010008DB01000810
:10006000DB010008DB010008DB010008DB01000800
:10007000DB010008DB010008DB010008DB010008F0
:10008000DB010008DB010008DB010008DB010008E0
:10009000DB010008DB010008DB010008DB010008D0
:1000A000DB010008DB010008DB010008DB010008C0
:1000B000DB010008DB010008DB010008DB010008B0
:1000C000DB010008DB010008DB010008DB010008A0
:1000D000DB010008DB010008DB010008DB01000890
:1000E000DB010008DB010008DB010008DB01000880
:1000F000DB010008DB010008DB010008DB01000870
:10010000DB010008DB010008DB010008DB0100085F
:10011000DB010008DB010008DB010008DB0100084F
:10012000DB010008DB010008DB010008DB0100083F
:10013000DB010008DB010008DB010008DB0100082F
:10014000DB010008DB010008DB010008DB0100081F
:10015000DB010008DB010008DB010008DB0100080F
:10016000DB010008DB010008DB010008DB010008FF
:10017000DB010008A11B0008DB01000800000000F3
:10018000DB010008DB010008DB010008DB010008DF
:10019000DB010008DB010008DB010008DB010008CF
:1001A000DB010008DB010008DB010008DFF80CD0F0
:1001B00000F08CF800480047153E0008B8BB02204C
:1001C0000648804706480047FEE7FEE7FEE7FEE7F1
:1001D000FEE7FEE7FEE7FEE7FEE7FEE7BD1D0008DF
:1001E000AD0100082DE9F05F0546002092469B46D0
:1001F00088460646814640241BE02846414647463D
:10020000224600F053F853465A46C01A914110D383
:1002100011461846224600F03AF82D1A67EB0108FD
:100220004F4622460120002100F031F817EB00096B
:100230004E41201EA4F10104DFDC484631462A4627
:100240004346BDE8F09F40EA01039B0703D009E065
:1002500008C9121F08C0042AFAD203E011F8013BB2
:1002600000F8013B521EF9D27047D2B201E000F80B
:10027000012B491EFBD270470022F6E710B513464A
:100280000A4604461946FFF7F0FF204610BD202A13
:1002900004DB203A00FA02F1002070479140C2F1DD
:1002A000200320FA03F3194390407047202A04DB0F
:1002B000203A21FA02F00021704721FA02F3D040DF
:1002C000C2F120029140084319467047064C074D81
:1002D00006E0E06840F0010394E807009847103416
:1002E000AC42F6D3FFF766FFBC3E0008DC3E0008D8
:1002F00070B58C1810F8015B15F0070301D110F8E8
:10030000013B2A1106D110F8012B03E010F8016B14
:1003100001F8016B5B1EF9D12B0705D40023521E97
:100320000DD401F8013BFAE710F8013BCB1A921CFF
:1003300003E013F8015B01F8015B521EF9D5A142FD
:10034000D8D3002070BDFEE770B504464FF6FF70AD
:1003500000234AF201050EE014F8012B5040002260
:10036000C6074FEA500000D06840521CD2B2082A9B
:10037000F6D35B1CDBB28B42EED370BD30B5447854
:100380000546A01EC1B22846FFF7DEFF291980B23C
:1003900011F8012C11F8021C01EB022189B28842EC
:1003A00001D1002030BD012030BD00207047002069
:1003B0007047000010B50848084C0949D0F81822C9
:1003C0000020135C23540B78401C5B1CC0B20B70E4
:1003D0004028F6D3002010BD68A902207801002033
:1003E0000000002070477047002229B101291DD06C
:1003F00002291ED04FF440720B2800D9001D0E496F
:100400000B6823F440730B600B6813430B600A689E
:1004100022F0F8020A600A68022303EBC0000243DC
:100420000A60086840F48030086070474FF48072BA
:10043000E2E74FF40072DFE7103C02401348016826
:1004400089050FD5016821F400710160016841F44C
:1004500000610160016821F400610160016841F4FC
:1004600000710160016849050FD5016821F48061C0
:100470000160016841F480510160016821F48051FC
:100480000160016841F4806101607047003C0240F6
:100490000E4A136823F44073136003290DD0012919
:1004A00011680FD041F40041116011684FF480339E
:1004B00043EA0020014311607047116848F20403C9
:1004C0001943F1E741F00401EEE70000103C02405F
:1004D000064A136823F440731360136813601368AB
:1004E00043F001031360017070470000103C0240AC
:1004F000084910B50C6824F440740C600C6844F48E
:1005000040740C600C6844F001040C6002604360AD
:1005100010BD0000103C0240074A136823F44073EA
:100520001360136843F480731360136843F001038E
:100530001360018070470000103C0240074A1368B6
:1005400023F440731360136843F40073136013685B
:1005500043F001031360016070470000103C02404B
:100560001C490868C2061C4805D5C26942F0100241
:10057000C26110220A600A68920605D5C26942F07B
:100580000802C26120220A600A68520605D5C269C3
:1005900042F00402C26140220A600A68120605D5D0
:1005A000C26942F00202C26180220A600A68D20572
:1005B00006D5C26942F00102C2614FF480720A603E
:1005C0000A68920705D5C26942F02002C261022082
:1005D000086070470C3C024094B1022070B511498C
:1005E00004460020C86100F0E5F906460E4D09E01A
:1005F000601C07D024B100F0DDF9801BA04201D9B6
:10060000032070BD2868C003F2D42868C00701D059
:1006100001202860286810F4F970F2D0FFF7A0FFDD
:10062000012070BD94B102200C3C02400B4A10B571
:100630004FF0FF30106000211160121D106011603A
:10064000064A103A10601160121D10601160121DF0
:100650001060116000F0F6F9002010BD2038024053
:1006600070B5044600F0A6F90546601C02D00448A7
:100670000078044400F09EF9401BA042FAD370BDFC
:100680009C0000202DE9F047044623480F46017ED8
:1006900001290AD00121804601764CF250394846A2
:1006A000FFF79CFF020003D030E00220BDE8F08796
:1006B0004FF0FF3038602068184D012801D0A6683F
:1006C0001DE0207C6168FFF7E3FE4846FFF786FFE8
:1006D0000246286848F204018843286014E0217C1F
:1006E0003046FFF781FE4846FFF778FF0200286892
:1006F00020F0FA00286001D03E6005E0761CD4E9C5
:1007000002100844B042EAD8FFF798FE002188F8AA
:1007100018101046CAE7000094B10220103C0240B5
:100720000348016841F0004101600020704700006B
:10073000103C02402DE9F0471B4E05461446307E22
:100740001F468946012808D0012030764CF25038E7
:100750004046FFF743FF18B114E00220BDE8F087E0
:100760009DB1012D16D0022D19D022463B46484698
:10077000FFF7BEFE4046FFF731FF0C490A6822F042
:1007800001020A6000213176E8E7E1B24846FFF74E
:100790009FFEEFE7A1B24846FFF7BEFEEAE721461B
:1007A0004846FFF7CBFEE5E794B10220103C02403B
:1007B000074900200A68002A09DA054A054B0C3A65
:1007C0001360054B13600968002900DA01207047A7
:1007D000103C024023016745AB89EFCD2DE9F84F6E
:1007E000DFF890B100224FF001084FF0030A4FF0FC
:1007F0000F090BF1040E00BF0B6808FA02F4234046
:10080000A3426ED14D68022D01D0122D0ED1D50814
:1008100000EB850CDCF820505607F70E09FA07F6B6
:10082000B5430E69BE402E43CCF8206006685500E3
:100830000F790AFA05FC07F0030726EA0C06AF4019
:10084000374307604E68012E05D0022E03D0112ECB
:1008500001D0122E0ED18768CE6827EA0C07AE4071
:100860003E4386604668A6430C79C4F30014944066
:1008700034434460C4688E6824EA0C04AE402643C6
:10088000C6604C68E4006FD53B4C256845F4804554
:100890002560246822F0030504F480440094374C5A
:1008A0002E19D6F8084895072F0F09FA07F5AC431B
:1008B000334DA84201D100252EE0324DA84201D18E
:1008C000012529E0304DA84201D1022524E02F4D19
:1008D000A84201D103251FE02D4DA84202D10425D5
:1008E0001AE041E02B4DA84201D1052514E02A4D24
:1008F000A84201D106250FE0284DA84201D10725C5
:100900000AE0274DA84201D1082505E0254DA8425F
:1009100001D1092500E00A25BD402543C6F8085845
:10092000DBF800405D464E689C43F60300D51C434F
:100930002C60DEF8004075464E689C43B60300D537
:100940001C432C600B4D08352C684E689C43F60206
:1009500000D51C432C60074D0C352C684E689C4319
:10096000B60200D51C432C60521C102AFFF444AF81
:10097000BDE8F88F003C014044380240003001409F
:10098000000002400004024000080240000C024047
:10099000001002400014024000180240001C0240F7
:1009A00000200240002402400AB18161704709041E
:1009B000FBE7000001488068704700009C000020B1
:1009C0000248816802781144816070479C000020D1
:1009D0000B4810B5016841F400710160016841F4F1
:1009E00080610160016841F480710160032000F0C2
:1009F00081F8002000F006F800F026F8002010BD75
:100A0000003C024070B50D4D04464FF47A712878D1
:100A1000B1FBF0F00A490968B1FBF0F001F02AF8E7
:100A200048B9102C07D200222146501E00F042F88F
:100A300000206C6070BD012070BD00009C00002093
:100A4000A8000020704700000A4808B5016841F47A
:100A500080410160006800F4804000900548001F5C
:100A6000016841F080510160006800F08050009002
:100A700008BD00004438024000280DDB00F01F02D2
:100A8000012191404009800000F1E020C0F8801170
:100A9000BFF34F8FBFF36F8F7047002809DB00F063
:100AA0001F02012191404009800000F1E020C0F8C0
:100AB00000117047F0B40E4B1B680C46C3F30223C1
:100AC000C3F10705042D00D90425191D072901D2FA
:100AD000002300E0DB1E012606FA05F1491E214035
:100AE00099409E40761E16403143F0BC02F0E6BBB2
:100AF0000CED00E0064900F0070208684FF6FF031E
:100B0000184040EA0220034A104308607047000082
:100B10000CED00E00000FA0570470068416200201B
:100B20007047F0B50368586A39B19C6A4FF4827611
:100B300000EB144400204D1E0AE040EA0240986297
:100B40000FE006EB8007DF59401C04EB1744C0B2EE
:100B5000A842F6D344EA02404FF4807202EB8101CE
:100B600058500020F0BDD0F8040401F052BCC1EB95
:100B7000C10200EB8202D0F80404926C01F0BFBB0A
:100B8000C1EBC10200EB8202D0F80404D2F80822C3
:100B900001F00ABCD0F8040401F03DBC70B5044675
:100BA0000B0601F00F00C0EBC00104EB81014FF018
:100BB00001024FF0000503D581F83D203C3103E0F0
:100BC00081F8FD5101F5FE71087094F8BC0301280D
:100BD00008D084F8BC23206801F02AFF84F8BC53B5
:100BE000002070BD022070BD70B5044601F00F00FA
:100BF0006268904201D9012070BD0B0601F00F011F
:100C0000C1EBC10104EB81014FF001024FF000057F
:100C100003D581F83D203C3103E081F8FD5101F519
:100C2000FE718D70087094F8BC03012808D084F818
:100C3000BC23206802F0D2F884F8BC53002070BDB9
:100C4000022070BD2DE9F04104460F0601F00F00AF
:100C5000C0EBC00104EB81014FF001064FF000052D
:100C600003D581F83D603C3103E081F8FD5101F589
:100C7000FE7108708A60CB704A7802B1C880022B7E
:100C800000D10D7194F8BC03012809D084F8BC632D
:100C9000206801F01DFE284684F8BC53BDE8F081B1
:100CA0000220FBE770B50C4601F00F05C5EBC5014E
:100CB00000EB8101C1F81032C1F808220023C1F80D
:100CC000143281F8FD3181F8FC51036901F5FE71A0
:100CD000012B00D10A612207027C006803D002F0D8
:100CE000D5F8002070BD01F0C7FFFAE770B50446E3
:100CF0000D4601F00F006168884201D9012070BDE6
:100D000029064FF000064FF0010207D5C0EBC001E5
:100D100004EB810181F83D203C3107E0C5EBC501C2
:100D200004EB810181F8FD6101F5FE718A700870A4
:100D300094F8BC03012807D084F8BC23206802F093
:100D400079F8280702D007E0022070BD217C04F565
:100D50007172206802F016F884F8BC63002070BD40
:100D600070B50C4601F00F05C5EBC50100EB810124
:100D70000B658A6400234B65012381F83D3001F83F
:100D80003C5F0369012B00D10A612207027C0068E5
:100D900003D002F07BF8002070BD01F06DFFFAE790
:100DA0002DE9FC5F04460068002681464D4602F0AE
:100DB00086F900287ED1206802F0ADF9002879D0AC
:100DC000206802F0A8F9800704D52068416901F085
:100DD00002014161206802F09EF9010304F571707F
:100DE0004FF0010B009076D5206802F073F90746AA
:100DF000DFF810A46DE0F80769D0F1B2206802F0C6
:100E000082F98046C00707D005EB4611C1F808BB40
:100E10003146204600F0CAFE5FEA087033D52068EC
:100E2000016C00EB46100191D0F8081B2269012AE1
:100E3000019A0FD0F44B9A4214D1090403D54FF410
:100E40000041C0F8081B204600F0C4FA20690128C0
:100E50000FD013E0524505D9090403D54FF40041E2
:100E6000C0F8081B204600F0B5FA01985045EDD8AF
:100E700004E020680121009A01F084FF05EB46118F
:100E80000820C1F8080B5FEAC86004D505EB4611DD
:100E90001020C1F8080B5FEA88600FD5206901288F
:100EA00004D120680121009A01F06CFF202005EB9D
:100EB000461101E0A4E10EE0C1F8080B5FEA8840AA
:100EC00005D505EB46114FF40050C1F8080B7F081B
:100ED000761C002F8FD1206802F01DF940034FF0DF
:100EE000000A60D5206802F0EEF80746002658E0B8
:100EF000F80754D0F1B2206802F0F3F88046C0073A
:100F000026D006F00F020BFA02F0D5F834288243FF
:100F1000C5F8342805EB4610C0F808B92069012847
:100F200007D1C6EBC60004EB8000D0E911211144C3
:100F30008164F1B22046FFF71AFE2069012807D12B
:100F400036B9206D20B920680121009A01F01AFFFE
:100F50005FEA087004D505EB46110820C1F80809BE
:100F60005FEAC86004D505EB46111020C1F80809F6
:100F70005FEA486004D505EB46114020C1F8080936
:100F80005FEA887004D505EB46110220C1F8080914
:100F90005FEA086003D53146204600F075FE7F0801
:100FA000761C002FA4D1206802F0B5F8002811DAD1
:100FB000D5F8040820F00100C5F8040894F8F403FB
:100FC00001282BD0204600F0E9F92068416901F0A2
:100FD00000414161206802F09EF800050BD5D5F86C
:100FE0000808C00702D0204600F01CFA20684169BA
:100FF00001F400614161206802F08DF8C0045DD504
:10100000D5F8040820F00100C5F804081021206874
:1010100002F036F800214FF67F321AE084F8F4A38C
:1010200000212046FFF778FDCFE700BF05EB411018
:10103000C0F80829D0F8003923F40013C0F80039AB
:10104000C0F8082BD0F8003B23F40013C0F8003B95
:10105000491C60688842E9D8D5F81C0840F00110A6
:10106000C5F81C08206B60B1D5F8840840F00B006F
:10107000C5F88408D5F8440840F00B00C5F84408CA
:101080000CE0D5F8140842F22B010843C5F8140807
:10109000D5F8100840F00B00C5F81008D5F8000886
:1010A00020F4FE60C5F80008217C2068009A01F059
:1010B00069FE2068416901F480514161206802F0B5
:1010C0002AF8800418D5206801F042FC206801F05D
:1010D000E9FF60B30320E06000F006FB23680146EF
:1010E000227B184602F052F8204600F041F92068B1
:1010F000416901F400514161206802F00CF8C0061A
:1011000038D52068816921F010018161D9F82070FB
:1011100007F00F00C0EBC00004EB8005C7F34340AD
:1011200005F5FE75022805D0062814D01DE0C4F888
:101130000CA0D1E747F6F0710F4216D0C7F30A12A0
:1011400017464846E96801F0EAFFE8683844E86075
:10115000A869384408E008224846009901F0DFFFFA
:10116000A869C7F30A110844A8612068816941F0A1
:1011700010018161206801F0CEFF000707D52046ED
:1011800000F010F92068416901F008014161206810
:1011900001F0C1FFC00208D5F1B2204600F036F8D8
:1011A0002068416901F480114161206801F0B3FFBA
:1011B000800208D5F1B2204600F02CF82068416981
:1011C00001F400114161206801F0A5FF400007D53E
:1011D0002046FFF7C8FC2068416901F08041416169
:1011E000206801F098FF40070AD520684568680725
:1011F00002D52046FFF7CEFC2068416829434160B4
:10120000BDE8FC9F0A30544F0A31544FD0F8040413
:1012100001F050B9D0F8040401F04EB92DE9F041C5
:101220008AB0040004D094F8BD03002520B108E082
:1012300001200AB0BDE8F08184F8BC53204600F0DC
:101240005BF8032084F8BD03206801F00FFD04F172
:101250001001282288466846FEF7F5FF94E80F0043
:1012600001F090FB0226D0BB0021206801F065FF51
:10127000002001270FE000BFC0EBC00104EB81019B
:1012800081F83D7001F83C0FC880CD708D60CD6055
:10129000401CC0B24D6161688142EDD8002011E070
:1012A000C0EBC00104EB810181F8FD5181F8FC0124
:1012B00081F8FF51C1F80452C1F80852401CC0B275
:1012C000C1F8105261688142EAD828224146684636
:1012D000FEF7B9FF94E80F0001F002FC10B184F8AA
:1012E000BD63A5E784F8385084F8BD73206801F029
:1012F000EBFB00209DE7000010B586B004461421EA
:101300006846FEF7B9FF17492068884227D1164C76
:101310000020216841F002012160216801F00201F2
:1013200005914FF4404100910221CDE901100320C5
:1013300003900C20049069460C48FFF74FFA206890
:1013400040F0005020602068002200F0005005901E
:101350000F214D20FFF7AEFB4D20FFF79EFB06B09F
:1013600010BD00000000044030380240000402407C
:1013700070B50446C068012570B1022801D0FFF79E
:1013800032F82946D4F8040401F0DEF8D4F8040455
:10139000BDE8704001F0A7B80025F2E7D0F80404DA
:1013A00001F0C0B8D0F8040401F0C2B810B504468A
:1013B00090F8BC0301280BD0012084F8BC0384F80A
:1013C0003810206801F0D0FE002084F8BC0310BD66
:1013D000022010BDD0F8042400F57171104601F010
:1013E000BFB810B50446006894F8BC13012906D0B4
:1013F000012184F8BC13A16A012902D008E002206F
:1014000010BDA169012903D0816B41F48031816352
:10141000206801F04DFB206801F01CFE002084F8DC
:10142000BC0310BD10B50446D0F8040401F0D7F891
:101430002068D0F8001E41F00101C0F8001E206AAB
:10144000002804D00248016841F00601016010BD87
:1014500010ED00E02DE9F0470E46050065D0DFF8FD
:101460001481D8F80000F7B200F00F00B04207D2A4
:1014700088F80070D8F8000000F00F00B04254D196
:1014800028683D4C810712D5400703D5206840F4F9
:10149000E05020602878000703D5206840F46040C1
:1014A00020602068A96820F0F000084320602878B8
:1014B000C0072DD0304968680839012812D00228A9
:1014C00013D0032811D00968890700292DDA216873
:1014D00021F0030101432160FFF76CFA814641F2DC
:1014E000883A0EE009688903EFE709688901ECE7AB
:1014F000FFF760FAA0EB0901514502D90320BDE8CE
:10150000F0872068696800F00C00B0EB810FEFD124
:10151000D8F80010404601F00F01B14207D907701A
:10152000006800F00F00B04201D00120E7E7287802
:10153000400705D52068E96820F4E05008432060A2
:101540002878000706D52068296920F4604040EA21
:10155000C100206000F0CEF82168084AC1F30311F1
:10156000515CC840064908600020FFF74BFA002094
:10157000C5E70000003C024008380240AC3E0008CD
:10158000A80000202DE9F041FFF714FA514C054660
:10159000206840F00100206005E000BFFFF70AFA74
:1015A000401B022857D820688007F7D5206840F0F4
:1015B00080002060FFF7FEF90546464E0020083601
:1015C000306041F2883704E0FFF7F4F9401BB8427D
:1015D00041D8306810F00C0FF6D1FFF7EBF9054653
:1015E000206820F45020206005E000BFFFF7E2F9FA
:1015F000401B64282FD820688003F7D4FFF7DAF95E
:101600000546206820F08070206004E0FFF7D2F9E2
:10161000401B02281FD820688001F7D4FFF7CAF9C1
:101620000546206820F08060206004E0FFF7C2F9E2
:10163000401B02280FD820680001F7D4FFF7BAF941
:101640000546206820F08050206007E0FFF7B2F9DF
:10165000401B022802D90320BDE8F08120688000E9
:10166000F4D41C491C48091D08601A491B488431E0
:101670000860091D086017480C30016821F4F85112
:101680000160016821F400510160016821F480418A
:101690000160016841F41F010160016841F400111B
:1016A0000160016841F4800101600A4874300168FA
:1016B00021F001010160016841F080710160094978
:1016C000074808600020FFF79DF90028C4D00120DA
:1016D000C2E700000038024010300004003000244F
:1016E0000024F400A80000200148006870470000B2
:1016F000A8000020154810B5006810F00C0214482E
:1017000013D01449042A0FD0082A0ED10F4C241FDD
:101710002268236802F03F025B0207D52068C0F30D
:101720008810A0FB010106E0084610BD2168C1F346
:101730008811A1FB00010023FEF754FD2168C1F3CD
:101740000141491C4900B0FBF1F010BD08380240CE
:101750000024F40040787D012DE9F84F050076D093
:101760002878DFF8F8B2BE4CC00749D0DBF800108B
:101770005846C1F38101012908D00068C0F38100F7
:1017800002280AD1201D0068400206D52068800387
:1017900036D568680028E2D032E06868B0F5803F4E
:1017A00010D0B0F5A02F206810D020F48030206039
:1017B000206820F4802020606868A0B1FFF7FAF864
:1017C00006460CE0206840F48030F4E740F48020C6
:1017D0002060F7E7FFF7EEF8801B642873D82068D5
:1017E0008003F7D50CE0FFF7E5F8064605E000BFFB
:1017F000FFF7E0F8801B6428F0D820688003F7D456
:101800002878DFF8608280074FF000093ED5DBF8CA
:101810000010584611F00C0F09D00068C0F3810089
:1018200002280BD18D48001F0068400206D42068B2
:10183000800715D5E868012809D111E0E868B8B13A
:101840000120C8F80000FFF7B5F8064605E002E100
:10185000FFF7B0F8801B0228C0D820688007F7D5B2
:101860002068296920F0F80040EAC10020600DE0FE
:10187000C8F80090FFF79EF8064604E0FFF79AF8D4
:10188000801B02281FD820688007F7D4287800071B
:1018900022D5724E744869696C3671B101210160BC
:1018A000FFF788F8074604E0FFF784F8C01B02281A
:1018B00009D830688007F7D50EE0C0F80090FFF730
:1018C00079F8074605E083E0FFF774F8C01B0228AB
:1018D0007ED830688007F7D42878400768D5DFF8CD
:1018E0007CA100270AF1380ADAF80000C0000BD406
:1018F000DAF8001041F08051CAF80010DAF8000060
:10190000012700F080500090584E3068C00510D478
:10191000306840F480703060FFF74CF8009005E0CC
:10192000FFF748F80099401A022851D83068C005DE
:10193000F6D54A4EA868683601280FD005283068C9
:1019400010D020F001003060306820F004003060DA
:10195000A868B8B1FFF72EF800900FE0306840F0AB
:101960000100F4E740F004003060F7E7FFF722F8E9
:101970000099411A41F28830814264D8306880076A
:10198000F4D50EE0FFF716F8009007E0FFF712F825
:101990000099411A41F28830814254D8306880075A
:1019A000F4D42FB1DAF8001021F08051CAF80010F9
:1019B000A869C0B3DBF80010C1F3810102294AD045
:1019C0000228484607D0C8F86000FEF7F3FF00E0A1
:1019D00039E005463AE04746C8F86000FEF7EAFFFE
:1019E000064604E0FEF7E6FF801B02282BD820689D
:1019F0008001F7D4D5E907010843A96A1C4A4908C0
:101A000002EB01416A6A41EA8211084395F82C1001
:101A100040EA01611148001F016001203866FEF7AD
:101A2000C9FF054605E014E0FEF7C4FF401B02288D
:101A300009D820688001F7D50BE000BFFEF7BAFF98
:101A4000401B022802D90320BDE8F88F20688001DE
:101A5000F4D40020F8E70120F6E70000083802403F
:101A60000038024000004742800E474200700040AC
:101A70000000FFFF10B5401EB0F1807F01D30120B0
:101A800010BD4FF0E02460610F21601701F016FCDB
:101A90000020A06107202061002010BDFEE70000AB
:101AA000F0B500230A24302537261F4611E000BF79
:101AB000B4EB107F02D905EB107C01E006EB107C43
:101AC00001F813C001EB430C00015B1C8CF80170A2
:101AD000DBB29342ECD3F0BD70B586B014216846FA
:101AE000FEF7CAFB16480024016841F0800101603E
:101AF000016801F080010591016841F00201016077
:101B0000016801F002010591016841F008010160DE
:101B100000680C4E00F008004FF48055059000223C
:101B200029463046FEF740FF01200095CDE901042B
:101B3000694630460394FEF751FE06B070BD0000C2
:101B400030380240000C024010B501220F49104805
:101B500000F0AEFB08B1FEF746FC0E490C4800F061
:101B600064FD08B1FEF73FFC0B49094800F0C6F9D7
:101B700008B1FEF738FC064800F0A4FD002803D0A9
:101B8000BDE81040FEF72FBC10BD0000180000207B
:101B900068A90220B00000208C000020FEE77047FA
:101BA0000148FFF7FDB800008CAB02202DE9F041A1
:101BB000044600680E46016C00EB4615D5F8080B8C
:101BC000276920234FF40042012F08D02C4FB9423F
:101BD0004FD1010449D500BFC5F8082B4DE0DFF80F
:101BE000A4C05FEA007E04F5717711D5614503D981
:101BF000000401D5C5F8082B2046FFF7EBFB3A4659
:101C00000121206801F0BEF80820C5F8080B34E077
:101C10005FEA806E02D5C5F8083B2EE010F0280F71
:101C20002BD1614501D90004D6D4C6EBC60004EB24
:101C30008000D5F8102BD0F80412C2F312028A1AD1
:101C4000C0F81422D0F808221144C0F80812F1B2EA
:101C50002046FEF795FF86B9D4F8100268B93A46D7
:101C60000121206801F08EF807E0800601D5C5F853
:101C7000083BF1B22046FEF783FF0020BDE8F0816B
:101C80000A31544F0A30544F2DE9F84F0E46C1EB3C
:101C9000C60100EB810481460568D4E914103C3488
:101CA000884202D90120BDE8F88F081AA168814254
:101CB00000D20846C01C870805EB46181BE000BF91
:101CC000A0EB010AA068504500D282460AF1030049
:101CD000870899F8100000901FFA8AF3F2B228469C
:101CE000E16801F0C7FAE16801EB0A00E060A16970
:101CF00001EB0A00A061D8F8180980B2B84205D3F8
:101D0000D4E90501814201D20028D9D1D4E90501E5
:101D1000884208D806F00F0101208840D5F8341811
:101D20008143C5F834180020BDE770477047FEF7BF
:101D300047BE000030B593B030216846FEF79CFAEC
:101D400014210CA8FEF798FA1A480025016841F002
:101D500080510160006800F08050119016480168C1
:101D600041F4404101600068022400F440401190B9
:101D700001200090000401908001CDE90640192067
:101D800008904FF4A870CDE9090407200B9068462D
:101D9000FFF7E2FC0CA90F2081E831004FF4A050BE
:101DA0000F90E002109005210CA8FFF753FB13B031
:101DB00030BD00004038024000700040104801680B
:101DC00041F4700101600F48016841F001010160B8
:101DD0000C4A00210832116002680B4B1A40026065
:101DE000031D0A4A1A60026822F480220260054834
:101DF0000C300160024958068039086070470000C5
:101E000088ED00E000380240FFFFF6FE10300024AD
:101E1000D0F81802002180F850100846704770B5BD
:101E20000546D0F81842D5F81C226178D26820788F
:101E30009047402322460121284600F04BFB00201A
:101E400070BD10B50446812100F050FA01212046F2
:101E500000F04CFAD4F8180250B1D4F81C0204F582
:101E6000067480688047206801F0CEFC0020206066
:101E7000002010BD10B5D0F81842E16C012908D13E
:101E8000D0F81C0223786178C26818469047002079
:101E9000E064002010BD0000292101800048704747
:101EA000E80000200A21018000487047200100203E
:101EB00070B50646002540230322812100F0FEFA7A
:101EC000402303220121304600F0F8FA542001F0AB
:101ED000B7FFC6F8180278B10446002084F8500015
:101EE000D6F81C0240688047402322460121304634
:101EF00000F0F0FA284670BD0125FBE702460220FB
:101F0000002902D00020C2F81C12704710B51346F9
:101F100090F8FC41D0F81822032C09D192F85040D7
:101F200034B9012482F850400A46812100F060FB58
:101F3000002010BD70B500220D78D0F8183214467C
:101F400015F0600526D0202D4CD14A78921E0A2A21
:101F50001CD2DFE802F010081B1B1B1B1B140C0516
:101F6000887818643EE0012203F1400131E048889E
:101F7000000A586436E0012203F1440129E00122FD
:101F8000DA648A79194600F053F82BE000F045F83E
:101F9000022070BD4D78062D04D00A2D1CD00B2DCB
:101FA00020D11DE04B882225B5EB132F07D1CA881D
:101FB000222A00D92222D0F81C120C6808E0212520
:101FC000B5EB132F04D1CA88074C092A00D909227E
:101FD000214600F047F805E0012203F14801F8E747
:101FE00088789864002070BD1401002010B5D0F8E6
:101FF000142252689047002010BD134610B50A46BF
:10200000002100F067FA002010BD134610B50A4603
:10201000002100F0EDFA002010BD10B5044680212B
:1020200000F0CBFA2046BDE81040002100F0C5BA10
:1020300010B50323C0F80821C0F8F431C0F80C2112
:1020400013460A46002100F045FA002010BD10B5E5
:1020500005210023C0F8F4111A46194600F03AFA97
:10206000002010BD10B502238261C0F8F431C261B6
:1020700013460A46002100F0BBFA002010BD10B53F
:1020800004210023C0F8F4111A46194600F0B0FAF2
:10209000002010BDF8B5044648880D46010A0829FD
:1020A0004BD2DFE801F04A0409174A4A4048D4F805
:1020B0001012207C0A6832E0207C02260028D4F826
:1020C000140205D0C16A684688470146467041E05F
:1020D000816AF8E7C0B206282FD2DFE800F00308D3
:1020E0000D12171CD4F81012207C4A6817E0D4F89F
:1020F0001012207C8A6812E0D4F81012207CCA6882
:102100000DE0D4F81012207C0A6908E0D4F810120F
:10211000207C4A6903E0D4F81012207C8A69694661
:102120009047014616E0207C38B9D4F81402416B80
:1021300068468847F5E7207C20B129462046FFF70E
:102140006CFFF8BDD4F81402016B6846884701465D
:1021500007204870BDF800000028F2D0EA88002A65
:10216000EFD0824200D90246ADF800202046FFF7AA
:1021700079FFF8BD70B5002300281DD00446002566
:1021800002E06D1CEDB2641C2678002EF9D1022409
:1021900004EB45041480CC545B1C0322CA54002475
:1021A0005B1C06E0CA545B1CDAB28C54521CD3B2DE
:1021B000401C0278002AF5D170BD01004FF00000EC
:1021C00004D0012901D0022901D00220704701204A
:1021D0007047000010B50A46024903A0FFF7CAFF86
:1021E000004810BD94AF0220437573746F6D204892
:1021F000494420436F6E6669670000001220088022
:10220000004870473800002010B50A46024903A074
:10221000FFF7B0FF004810BD94AF02204375737400
:102220006F6D2048494420496E746572666163652C
:10223000000000000420088000487047340000209F
:1022400010B50A46024903A0FFF794FF004810BDED
:1022500094AF02206562660010B50A46024903A0E9
:10226000FFF788FF004810BD94AF02206562665FEB
:10227000663432395F76310010B51A2008800A487A
:102280000168001D0468001D0068081809D00822B4
:102290000649FFF705FC0549042210312046FFF7E7
:1022A000FFFB0248801E10BD107AFF1F4E00002069
:1022B00010B580B1D0F8143213B10023C0F8143235
:1022C00009B1C0F81012012180F8FC11027000F071
:1022D000ADF8002010BD022010BD10B5D0F82002CE
:1022E000FEF782FCBDE81040FFF767BF10B5D0F8DD
:1022F0002002FEF753FCBDE81040FFF75EBF2DE95A
:10230000F0411746044641B1D4F8140242698AB339
:1023100094F8FC01032842D043E0D4F8F4110025DE
:1023200004F11400022933D1D0E902639E4207D997
:10233000F31A83609AB239462046FFF766FE12E030
:102340004068B0FBF3F103FB1101A1B9984212D32D
:10235000D4F8F81188420ED2002211462046FFF729
:1023600054FEC4F8F85100231A461946204600F0DE
:10237000B1F80DE012E0D4F81402C16829B194F864
:10238000FC01032801D1204688472046FFF75FFE65
:1023900094F80002012804D184F8005201E020469C
:1023A00090470020BDE8F08170B51546044641B164
:1023B000D4F8140282693AB394F8FC01032824D0BB
:1023C00025E0D4F8F41104F5827003291FD1D0E977
:1023D00002218A420BD9531A83600846834200D3F4
:1023E00003469AB229462046FFF707FE0FE0D4F8CD
:1023F0001402016929B194F8FC01032801D1204697
:1024000088472046FFF73BFE01E02046904700202A
:1024100070BD0020704710B5012180F8FC11D0F884
:102420001422017952689047002010BD10B5017840
:10243000012929D115490222C1F80404C0F820124B
:1024400013480860062048600020C1E90320C1E964
:10245000062008624862C862086348630846FEF7BF
:10246000DDFE08B1FDF7BFFF4FF400710748FEF72E
:1024700054FB802200210548FEF753FB4FF4BA724B
:1024800001210248FEF74DFB002010BD8CAB02205D
:10249000000004400A0601F07F01D0F82002C1EBE1
:1024A000C10100EB810002D590F83E00704790F822
:1024B000FE017047002070470020704710B51C4691
:1024C0001346D0F820022246FEF7BCFBBDE81040C0
:1024D000FFF773BE10B5D0F82002FEF7E3FBBDE8AE
:1024E0001040FFF76ABE70B5002204464023114633
:1024F000FFF7E4FF40252B46002280212046C4F848
:102500001051FFF7DBFF0120256284F8FC01D4F8AD
:10251000180228B1D4F81402217942682046904765
:10252000002070BD90F8FD1180F8FC11002070476C
:1025300010B590F8FC11032904D1D0F81412C96920
:1025400001B18847002010BD01740020704710B50C
:10255000D0F82002FEF72AFFBDE81040FFF72DBE9D
:1025600070B5044600F50270054600F04AF80120F7
:10257000C4F8F401B4F80E02C4F8F80194F80802A3
:1025800010F01F010AD001290DD0022910D000F04F
:102590008001204600F011F8002070BD2946204639
:1025A00000F095F8F8E72946204600F077F9F3E7C0
:1025B0002946204600F004F9EEE710B5D0F82002D5
:1025C000FEF794FBBDE81040FFF7F7BD10B5D0F85B
:1025D0002002FEF706FFBDE81040FFF7EEBD90F8C1
:1025E000FC1180F8FD11042180F8FC1100207047D7
:1025F00010B5D0F82002FEF7B3FBBDE81040FFF79E
:10260000DCBD0A7802704A7842708A78CB7802EB97
:10261000032242800A794B7902EB032282808A7975
:10262000C97902EB0121C18070470246002011B137
:10263000C2F8141270470220704710B5D0F8142267
:1026400002241AB11268904700B90024204610BD38
:1026500070B50E461A4D897804462970012928D88C
:1026600094F8FC01022802D0032822D105E099B198
:102670000320616084F8FC0109E091B16068884240
:102680000AD0C1B22046FFF7B1FC2978616020462C
:10269000FFF7D3FF02280CD02046BDE87040FFF7BB
:1026A000EEBC022084F8FC0120466160FFF79EFC2E
:1026B000F2E731462046BDE87040FFF7AEBC0000AF
:1026C000AC00002010B5FFF781FF002010BD2DE900
:1026D000F04100264B78012532460A2B43D2DFE831
:1026E00003F03C584251420805422A27FFF7D2FC2A
:1026F00063E004468888C8B9C888B8B9887800F00B
:102700007F0794F8FC01032810D084F8FE71394645
:102710002046FFF71CFF2046FFF7B1FC1FB1022047
:1027200084F8FC0149E084F8FC5146E020461AE0B8
:10273000FFF78EFF41E0CB88012B14D190F8FC31DC
:10274000022B02D0032B0ED104E08260012200F1A3
:10275000080114E00122011D11E090F8FC21022A79
:1027600004D0032A02D0FFF758FC26E0C560D0F859
:10277000041209B10321C160022200F10C01FFF72C
:1027800071FC1AE004464888012816D1C4F80452A6
:102790000BE0044690F8FC01022801D00328C5D1C3
:1027A0004888012809D1C4F80422D4F814028268A8
:1027B000204690472046FFF762FC3046BDE8F08196
:1027C00070B50D460446287800260979C0F34110FB
:1027D000012806D06878A0B301281FD003283FD174
:1027E00007E0D4F81402294682682046904700206A
:1027F00070BD94F8FC01022817D003282CD16888FA
:1028000028B921B1802902D02046FFF7D6FED4F89E
:102810001402294682682046904713E094F8FC0190
:10282000022802D0032817D103E0C9B180291BD1A7
:1028300016E06888A0B9480604D02046FFF74DFD91
:10284000E5E703E02046FFF71AFC09E094F8FC01F5
:10285000022807D003280BD029462046FFF7DDFBCE
:10286000304670BD4806FBD02046FFF7A6FEF7E7CE
:10287000080601F07F0004EB001501D5143501E0D6
:1028800005F582752046FFF705FE00B1012028609E
:10289000022229462046FFF7E5FBE1E770B5054631
:1028A00090F8FC010C4603280DD1207901280AD8A4
:1028B000D5F81402826828469047E08830B9284647
:1028C000FFF7DDFB02E02846FFF7A7FB002070BD05
:1028D00070B50A78012302F00F054E78AB401B4C0F
:1028E000D0F81C58012E17D045EA0343C0F81C3815
:1028F00000EB4210D0F8002B12040BD4D0F8002BC0
:102900000B89C978C3F30A031A4344EA81410A4395
:10291000C0F8002B002070BD9BB21D43C0F81C58AE
:1029200000EB4210D0F800391B04F3D4D0F8003982
:102930000D89C978C5F30A0589042B4341EA825100
:102940000B432343C0F80039E4E700000080001087
:10295000D0F800196FF30A01C0F80019D0F8081870
:10296000C1F34101022905D1D0F8001941F003015A
:10297000C0F80019D0F8041841F48071C0F80418A8
:102980000020704770B5044606990A9E049D0D9874
:10299000012916D0E06840F04000E060204600F0D9
:1029A0002BF8A16B1EB321F48031A163012D07D157
:1029B000A16841F00601A160A16841F02001A16079
:1029C00070BDA16B21F48031A163E168094A114017
:1029D000E160E16821F44011E160012803D1E06881
:1029E00040F48010E060204600F006F8DEE741F495
:1029F0008031DAE7BFFFBDFF01220C4902E0521C23
:102A00008A420BD80369002BF9DA026942F001020D
:102A10000261012204E0521C8A4201D9032070475E
:102A20000369DB07F7D1002070470000400D030069
:102A300030B50B784D78012203F00F0402FA04F44C
:102A4000012DD0F83C5817D025EA0444C0F83C4882
:102A5000D0F81C48097801F00F018A4024EA0241AD
:102A6000C0F81C1800EB4310D0F8001B0E4A1140B0
:102A7000C0F8001B002030BDA4B2A543C0F83C58EC
:102A8000D0F81C48097801F00F018A4091B28C43BC
:102A9000C0F81C4800EB4310D0F80019034A11405D
:102AA000C0F80019E6E700000078F3EF007833EC97
:102AB00010B5D0F8041821F00201C0F80418032062
:102AC000FDF7CEFD002010BD10B5D0F8041841F080
:102AD0000201C0F804180320FDF7C2FD002010BD5C
:102AE0002DE9F04F0025DDE90BCB0E460446DDF85D
:102AF0004090099F2846294604EB8002C2F8041141
:102B0000401C0F28F8D3B9F1000F204618D00068F8
:102B100020F400122260A06B40F40022A263084659
:102B20008846C4F8000ED4F800182046C4F80018EF
:102B3000BCF1010F10D0D0F8001841F0030110E0F3
:102B4000806B40F40012A263A06B20F40022A26309
:102B5000A06B20F48022E1E7D0F800180BB141F01F
:102B60000101C0F80018102100F08AFA00B1012517
:102B7000204600F075FA00B101254046C4F81088DF
:102B8000C4F81488C4F81C8800214FF000634FF08B
:102B900090484FF67F3A14E004EB4112D2F800C996
:102BA000BCF1000F06DA11B1C2F8008904E0C4F8E4
:102BB000003901E0C2F80009C2F81009C2F808A9FA
:102BC000491C8E42E8D8002115E000BF04EB4112F9
:102BD000D2F800CBBCF1000F06DA11B1C2F8008BBD
:102BE00004E0C4F8003B01E0C2F8000BC2F8100B8F
:102BF000C2F808AB491C8E42E8D8D4F8101821F46A
:102C000080722146C4F81028012F08D1134AC1F858
:102C10003028D1F83018124A1143C4F83018A06196
:102C20006FF0804060611FB9A06940F01000A061A2
:102C3000A0690C490843A061BBF1000F03D0A06953
:102C400040F00800A061B9F1010F03D1A069064965
:102C50000843A0612846BDE8F08F00000001800015
:102C60000300010000383C8004000040816821F02E
:102C7000010181600020704770B50D784E78404C9E
:102C8000EBB200EB4313012E1FD0D3F8100B6FF300
:102C90001200C3F8100BD3F8100B2040C3F8100B30
:102CA000486908B188684861D3F8100B40F40020E7
:102CB000C3F8100BD3F8100B8C68C4F31204204334
:102CC000C3F8100B012A4ED051E04E69002ED3F804
:102CD000106932D06FF31206C3F81069D3F8106987
:102CE0002640C3F810694E698C68A64200D94C6131
:102CF000D3F8104944F40024C3F81049D3F810491C
:102D00004E69C6F312063443C3F81049012A22D093
:102D10004A694AB1D0F83428097801F00F0301213B
:102D200099400A43C0F8342800EB4510D0F8001948
:102D300041F00441C0F800191FE02640C3F81069B3
:102D4000D3F8104944F40024C3F81049D3F81049CB
:102D50006FF31204D8E709690029E5D000EB4512AA
:102D6000C2F81419E0E7C86808B1C3F8140BD3F827
:102D7000000B40F00440C3F8000B002070BD0000C1
:102D8000FFFF07E010B5036C134CA34203D9D0F842
:102D9000003B002B1EDB0023C0F8103BD0F8103B9B
:102DA00043F40023C0F8103BD0F8103B43F0180365
:102DB000C0F8103BD0F8103B43F0C043C0F8103BC4
:102DC000012907D1C0F8142BD0F8001B41F0802155
:102DD000C0F8001B002010BD0A30544F4A780B7811
:102DE000012A00EB43100BD0D0F8002B22F4001284
:102DF000C0F8002BC978032914D0022912D017E09B
:102E0000D0F8002922F40012C0F80029C97803295B
:102E100001D002290CD1D0F8001941F08051C0F83E
:102E2000001905E0D0F8001B41F08051C0F8001BEC
:102E3000002070470A784B78D1B200EB4110012B8B
:102E400012D0D0F8001B002906DB2AB1D0F8001BF5
:102E500021F08041C0F8001BD0F8001B41F40011A4
:102E6000C0F8001B00207047D0F80019002906DBCD
:102E70002AB1D0F8001921F08041C0F80019D0F82B
:102E8000001941F40011C0F80019EBE7F8B50C780F
:102E90004F786F4DE3B26FF0604600EB4313012FA4
:102EA00026D0D3F8104B6FF31204C3F8104BD3F8AD
:102EB000104B2C40C3F8104B4C69002C6FD08D6820
:102EC0002C44641EB4FBF5F4D3F8105BA4B206EAFC
:102ED000C4463543C3F8105BD3F8105B8E68664375
:102EE000C6F312042543C3F8105B012A7ED096E096
:102EF0004F691FB3D3F810796FF31207C3F8107935
:102F0000D3F810792F40C3F810794F698D682F449A
:102F10007F1EB7FBF5F506EAC545D3F810693543C2
:102F2000C3F81059D3F810594E69C6F31206354349
:102F3000C3F81059CD78012D10D01BE0D3F81069DB
:102F40002E40C3F81069D3F8105945F40025C3F892
:102F50001059D3F810596FF3120509E0D3F810593E
:102F600025F0C045C3F81059D3F8105945F0005565
:102F7000C3F81059012A13D0CB78012B18D04B6914
:102F80002BB3D0F834380D7805F00F060125B54085
:102F90002B43C0F83438CB78012B09D017E02BE055
:102FA0000B69002BF7D000EB4415C5F81439F2E794
:102FB000D0F80838DB0500EB4413D3F8005902D4ED
:102FC00045F0005501E045F08055C3F8005900EB8D
:102FD0004413D3F8004944F00444C3F80049CB78C3
:102FE000012B32D100928A8A93B200E013E00A7872
:102FF000C96800F03FF928E0D3F8104B8D68C5F39D
:1030000012052C43C3F8104BD3F8104B44F40024A2
:10301000C3F8104B69E7CA680AB1C3F8142BC97822
:1030200001290CD1D0F80808C005D3F8000B02D450
:1030300040F0005001E040F08050C3F8000BD3F89E
:10304000000B40F00440C3F8000B0020F8BD000066
:10305000FFFF07E0816841F00101816000207047B7
:10306000002110220261054A491C914201D9032026
:1030700070470369DB06F7D400207047400D03005A
:103080000022202343EA811101610549521C8A4232
:1030900001D90320704703699B06F7D400207047CD
:1030A000400D0300D0F8080810F0060004D00228F4
:1030B00003D0062801D000207047032070474069E4
:1030C00000F001007047D0F81818D0F81C0808402C
:1030D00080B27047D0F81818D0F81C080840000CCF
:1030E000704710B5D0F81038D0F8342801F00F042C
:1030F00000EB4110E24002F00102D0F8080943EA77
:10310000C212104010BD00EB4111D1F8081BD0F8DD
:103110001408084070474169806908407047D21C14
:1031200010B59308002200F5805002E00468521C9C
:1031300010C19A42FAD3084610BD10B5C26822F0F9
:10314000C042C260012902D029B1012010BDC1686E
:1031500041F0005102E0C16841F08041C16032207D
:10316000FDF77EFA002010BDD0F8002822F4FE62A0
:10317000C0F80028D0F800284FF4FE6303EA0111DC
:103180000A43C0F80028002070470000032A3ED1FF
:10319000264A274B0A449A4201D20F2138E0254A99
:1031A000254B0A449A4201D20E2131E0234A244B96
:1031B0000A449A4201D20D212AE0224A224B0A44B3
:1031C0009A4201D20C2123E0204A214B0A449A4220
:1031D00001D20B211CE01F4A1F4B0A449A4201D224
:1031E0000A2115E01D4A1E4B0A449A420FD31D4A7C
:1031F0001D4B0A449A4201D2082109E01B4A11449E
:103200001B4A914201D2072102E0062100E0092178
:10321000C26822F47052C260C2684FF4705303EA6D
:1032200081210A43C260002070470000405327FFFD
:1032300000350C00401E1BFF40420F0000DC0BFF5E
:10324000804F1200808CF9FE20D6130060B6E5FE98
:1032500060E3160000D3CEFE40771B00C05BB3FED8
:10326000C091210000CA91FE20753800E05459FE3B
:10327000E09C410010B5029C64B9DB1C9C0800EB8B
:103280000230002300F5805002E004C902605B1C9C
:10329000A342FAD3002010BDFEE700000FB4054B97
:1032A00010B503A9044A029800F028F810BC5DF894
:1032B00014FB0000053800082C0100200907090E46
:1032C000002804DB00F1E02080F80014704700F0D3
:1032D0000F0000F1E02080F8141D704702E008C8DC
:1032E000121F08C1002AFAD170477047002001E080
:1032F00001C1121F002AFBD1704700002DE9FF4FCA
:103300008DB00F460546002606E025280BD0DDE9E6
:103310000F1290476D1C761C28780028F5D111B04B
:103320003046BDE8F08F0024A246A1460122EC49B8
:1033300000E0044315F8013F203B02FA03F0084285
:10334000F7D128782A2810D06FF02F022878A0F122
:103350003001092914D80AEB8A0102EB410144F03B
:10336000020400EB010A6D1CF0E701CF5FEA000ADE
:1033700003D544F40054CAF1000A44F002046D1C61
:1033800028782E2817D115F8010F44F004042A28B4
:103390000ED06FF02F022878A0F1300109290AD849
:1033A00009EB890102EB410100EB01096D1CF2E719
:1033B00057F8049B6D1C28786C280FD006DC4C282D
:1033C00017D068280DD06A2814D104E0742810D0D2
:1033D0007A280FD10DE044F400140AE044F480147C
:1033E00001E044F440146978814202D104F580146C
:1033F0006D1C6D1C2A786E2A1FD00CDC632A31D01C
:1034000004DC002A8BD0582A11D1A3E0642A68D0AA
:10341000692A0CD165E0732A2ED004DC6F2A73D0A0
:10342000702A04D19BE0752A6FD0782A6ED010469E
:10343000DDE90F129047761C50E1C4F302500228D8
:1034400006D0032809D0042801CF09D0066045E141
:1034500001CFF117C0E9006140E101CF06803DE1F5
:1034600006703BE117F8040B8DF8000000208DF882
:103470000100EB46012003E057F804BB4FF0FF309A
:1034800061074FF0000102D40DE008F10101884608
:1034900049450FDA8045F8DB1BF808100029F4D104
:1034A00008E008F1010188468142FADB1BF80810A8
:1034B0000029F6D1DDE90F23AAEB08008146214659
:1034C00000F036F9304400EB080604E0DDE90F12A5
:1034D0001BF8010B9047B8F10108F7D22146484686
:1034E000F7E00A21C4F302534FF0000B0891022BBE
:1034F00004D001CFC117032B09D00AE0FF1D27F02C
:103500000707F7E8020108E032E01FE020E000B220
:10351000C117042B01D140B2C117031E71F1000382
:1035200007DA4FF0000CD0EB0C006CEB01012D23FF
:1035300002E0230504D52B238DF82430012303E07A
:10354000E30701D02023F7E7984658E00A2110E06E
:1035500010210EE010204FF0000B08900CE010211D
:103560004FF0000B44F004044FF00809089103E009
:1035700008214FF0000B0891C4F30253022B04D032
:1035800001CF0021032B06D006E0FF1D27F007071F
:10359000F7E8020103E080B2042B00D1C0B24FF083
:1035A000000823072BD5702A07D0DDF820C08CF047
:1035B000100C5CEA0B0C05D00EE040238DF8243093
:1035C000012308E050EA010306D030238DF82430AF
:1035D0008DF8252002239846DDF820C08CF0080CD9
:1035E0005CEA0B0C0BD150EA010301D1630706D54D
:1035F00030238DF824304FF00108A9F10109582A31
:1036000004D038A20B9208AA0A920BE03AA2F9E77A
:103610005B46089AFCF7E6FD0B9B9B5C0A9A521EE0
:103620000A92137050EA0102F2D10A98ADEB000041
:1036300000F1200B600702D524F4803401E04FF044
:103640000109D94502DDA9EB0B0000E0002000EBE9
:103650000B0141440890AAEB010AE00306D4DDE91E
:103660000F232146504600F063F806444FF000094E
:1036700008E009A911F80900DDE90F12904709F1E6
:103680000109761CC145F4DBE0030CD5DDE90F230D
:103690002146504600F04CF8064404E0DDE90F12E4
:1036A00030209047761C0899481E08900029F5DCC8
:1036B00008E00A980A990078491C0A91DDE90F127E
:1036C0009047761CBBF10001ABF1010BF1DC214608
:1036D0005046DDE90F2300F019F806446D1C1BE687
:1036E00009280100303132333435363738396162D8
:1036F000636465660000000030313233343536379C
:103700003839414243444546000000002DE9F0416C
:10371000044600251E461746880404D405E03946B1
:103720002020B0476D1C641EF9D52846BDE8F08105
:103730002DE9F041044600251E469046C80301D5F8
:10374000302700E02027880404D505E041463846AC
:10375000B0476D1C641EF9D52846BDE8F081000015
:103760001C49884201D2002070471B49884201D27F
:10377000012070471949884201D202207047184938
:10378000884201D2032070471649884201D20420A2
:1037900070471549884201D2052070471349884275
:1037A00001D2062070471249884201D20720704793
:1037B0001049884201D2082070470F49884201D23F
:1037C000092070470D49884201D20A2070470B201A
:1037D00070470000004000080080000800C000089A
:1037E00000000108000002080000040800000608AC
:1037F0000000080800000A0800000C0800000E087D
:10380000006870477047000010B5002821D0114BA8
:103810000022001F196803E0814203D80A46496864
:103820000029F9D152B11368841A9C4204D100686E
:1038300018441060104602E0506000E0186039B192
:1038400002680B1A934203D10B681A44026049685C
:10385000416010BD300100202DE9F04387B0164CC7
:10386000002504EB80060595FCF7A2FF4CF25039C9
:1038700001274FF0020815E02046FFF7C1FF401C6A
:103880000CD020460095FFF76BFF02AA05A982E83D
:1038900081016846FCF7F6FE30B900E0241D484679
:1038A000FCF79CFEB442E7D34846FCF797FEFCF7D2
:1038B00037FF07B0BDE8F0830000010870B5164679
:1038C0000C460546B1F1006F15D3A00713D1FCF7E4
:1038D0006FFF04EB860608E00023214602202A68D9
:1038E000FCF728FF18B9241D2D1DB442F4D3BDE800
:1038F0007040FCF715BF70BDAEB000263746FEF72E
:1039000023F9DFF82094DFF818B4A9F10205B246D4
:103910006C1C9BF800205846402A7CD3C188D846AE
:103920001144C180FF498BF800A040224031684615
:10393000FCF789FC9DF80000AA2826D0CC28E8D105
:10394000002FE6D040226946F648FCF77CFC68462A
:10395000FCF714FD0028DCD19DF803009DF802104F
:10396000B8F9042001EB002080B2821A012AD0D1DC
:10397000A8F804009DF80120B61F9119921FC346B4
:103980008EB2C00778D03A2177E000270120FCF7FB
:1039900067FE6846FCF7F2FC0028BAD19DF80300E8
:1039A0009DF8022044F2342102EB002080B2A8F8F6
:1039B000020088421CD9002051464A461154401C3E
:1039C0004028FBD3112089F80000062089F8010067
:1039D00089F8021089F80310C8460421D148FCF781
:1039E000B3FC98F801104855010A98F80100F6E078
:1039F000CDA0FFF753FCB8F802103A204143CDA008
:103A0000FFF74CFCB8F802003A2148438008FFF762
:103A100023FFCCA000E003E1FFF740FC88F801A001
:103A20004FF0FF31A8F80410C948C8F81000BB20B7
:103A300089F80000062089F801009DF8020089F845
:103A400002009DF8030089F8030056464F46042102
:103A5000B448FCF779FC797848557978000A012751
:103A60000855C8F80860C8F80C600026742110A832
:103A7000FCF702FCB4E0FFE700210DF1400801EB88
:103A8000080001A9FCF7DFFBBBF90400002803DDF7
:103A9000C2435946D2070CD0BBF80220D3074CD002
:103AA000521E904249DB9DF801300020C6469B1F04
:103AB00066E09C4B0020C64680331EE00EEB000102
:103AC000DBF80C2091F803C091F802804FEA0C6CEF
:103AD00049784CEA084C4CEA01211EF800C04CEA37
:103AE000010C43F822C0521CCBF80C20DBF8082054
:103AF0005946521C001DCBF80820B042DED3CA68DC
:103B00004AF6EC118A4217D3DBF808005E46B0FB98
:103B1000F1F0891048438F4901EB80018EA0FFF737
:103B2000BDFB8048D6E903218030FFF7C7FE9448EB
:103B300031690144C6E903A1002639E00EEB00011A
:103B4000DBF80C2091F803C091F802804FEA0C6C6E
:103B500049784CEA084C4CEA0121DFF8C8C11EF84C
:103B600000800CF1800C48EA01084CF82280521CBD
:103B7000CBF80C20DBF80820521C001DCBF80820E5
:103B80008342DBD8DBE903217EA0FFF787FB654892
:103B9000DBE903218030FFF791FEDBE9030101EB54
:103BA0008001CBE903A182A0DBF80810FFF776FBC8
:103BB000BBF80200BBF90410401E814216DADD2179
:103BC00089F8001099F80100801EC1B25548FCF731
:103BD000BBFB99F801104855010A99F801000155FD
:103BE000402250497748FEF791F992E6EE2189F894
:103BF000001099F80100801EC1B24A48FCF7A4FBEE
:103C000099F8011040224855010A99F80100015520
:103C100044496C48FEF77AF901218BF8011078E6E7
:103C200041780029E1D0DBF80C20D84662B166A0CB
:103C3000D8F81010FFF732FB3A48D8E9032180305A
:103C4000FFF73CFEC8F80CA04148016869480140F4
:103C5000B1F1005F36D00027791EC8F808A0A8F897
:103C600004103048A8F802A03E4645498030FCF7D1
:103C700003FB742110A8FCF7FFFA0220FCF7F0FC0C
:103C800040212848FCF7F8FA112089F800000620A6
:103C900089F8010089F802A089F803A004212148CD
:103CA000FCF752FB99F8011040224855010A99F897
:103CB000010001551B494348FEF728F90A20FCF78B
:103CC000CFFC26E60220FCF7CBFC40211548FCF790
:103CD000D3FAFF2189F80010062089F8010089F83D
:103CE00002A089F803A004210E48FCF72DFB99F8E7
:103CF000011040224855010A99F80100015509496F
:103D00003048FEF703F90A20FCF7AAFCFCF78EFC0A
:103D1000FDF738FC4320FCF7AFFE4FF0FF306BE0BF
:103D20000000002038010020B2C1B3FDC9C8C7F8A7
:103D30000D0A0000B9CCBCFEB4F3D0A13A25640D45
:103D40000A000000B2C1B3FDCDEAB3C90D0A0000FC
:103D50000000010814560008B3A3B9E6D0B4C8EBBC
:103D60002CD0B4C8EBB5D8D6B73A3058253038582F
:103D70002020D0B4C8EBB3A4B6C83A25640D0A001D
:103D8000B0A70200C6E6CAFDB0FCD0B4C8EB2CD088
:103D9000B4C8EBB5D8D6B73A3058253038582020BB
:103DA000D0B4C8EBB3A4B6C83A25640D0A0000002D
:103DB0004669726D776172655F436F756E743A25FF
:103DC000640D0A0068A90220B7C7B6D4C6EBB0FCE0
:103DD000D0B4C8EB2CD0B4C8EBB5D8D6B73A30586D
:103DE000253038582020D0B4C8EBB3A4B6C83A2543
:103DF000640D0A000000F02FFCF73EFE0448416805
:103E0000C8F81410006880F30888884781E500002E
:103E10000000010890B0FCF7DBFDFDF78BFFFDF71C
:103E20005BFE012211030548FCF7BEFDFFF764FDB0
:103E300040216846FCF720FAFEE70000000C024033
:103E4000F0B50B30154D20F007010024144A0FE0A7
:103E500003688B420BD38B4205D95E1A431847681F
:103E6000C3E9006700E04368136002C004E0021D7C
:103E700010680028ECD12046002802D1286808B13B
:103E80000020F0BD064A07481060074A121A22F0C7
:103E90000702C0E9002401202860D7E73401002090
:103EA00030010020BCB10220B8B7022000000000A1
:103EB000000000000102030406070809DC3E0008B8
:103EC0000000002038010000F0020008903F0008C8
:103ED0003801002080BA0200EC320008410312FFD2
:103EE000FF13FD21140835221B0841041A59041A36
:103EF00079041AD5141A09081704030904120132A7
:103F000002164083045057260201020301031A1AC5
:103F10000312061009FF0901A1010901151326FF6B
:103F20009F9540750881020D249102C022681420DB
:103F3000AF031B08AB041AB50419531182105324A4
:103F4000F413B11E1B08430413351F42081A750CE5
:103F50001A11041A1F04C11A991069041AA504142D
:103F600009022913010125C03209042A02A91509F1
:103F7000211101140122221607058103402D01079A
:103F8000050107A91A314B0A06E82918C1000000EB
:04000005080001AD41
:00000001FF
