:020000040801F1
:1000000010040020C10101084B0B0108D50A0108AA
:10001000490B0108CD020108310C01080000000065
:100020000000000000000000000000004F0B01086D
:10003000CF020108000000004D0B0108510B010820
:10004000DB010108DB010108DB010108DB0101081C
:10005000DB010108DB010108DB010108DB0101080C
:10006000DB010108DB010108DB010108DB010108FC
:10007000DB010108DB010108DB010108DB010108EC
:10008000DB010108DB010108DB010108DB010108DC
:10009000DB010108DB010108DB010108DB010108CC
:1000A000DB010108DB010108DB010108DB010108BC
:1000B000DB010108DB010108DB010108DB010108AC
:1000C000DB010108DB010108DB010108DB0101089C
:1000D000DB010108DB010108DB010108DB0101088C
:1000E000DB010108DB010108DB010108DB0101087C
:1000F000DB010108DB010108DB010108DB0101086C
:10010000DB010108DB010108DB010108DB0101085B
:10011000DB010108DB010108DB010108DB0101084B
:10012000DB010108DB010108DB010108DB0101083B
:10013000DB010108DB010108DB010108DB0101082B
:10014000DB010108DB010108DB010108DB0101081B
:10015000DB010108DB010108DB010108DB0101080B
:10016000DB010108DB010108DB010108DB010108FB
:10017000DB010108DB010108DB01010800000000D0
:10018000DB010108DB010108DB010108DB010108DB
:10019000DB010108DB010108DB010108DB010108CB
:1001A000DB010108DB010108DB010108DFF80CD0ED
:1001B00000F07AF800480047710C01081004002094
:1001C0000648804706480047FEE7FEE7FEE7FEE7F1
:1001D000FEE7FEE7FEE7FEE7FEE7FEE7DD0B0108D0
:1001E000AD0101082DE9F05F0546002092469B46CF
:1001F00088460646814640241BE02846414647463D
:10020000224600F041F853465A46C01A914110D395
:1002100011461846224600F028F82D1A67EB01080F
:100220004F4622460120002100F01FF817EB00097D
:100230004E41201EA4F10104DFDC484631462A4627
:100240004346BDE8F09FD2B201E000F8012B491E01
:10025000FBD270470022F6E710B513460A46044663
:100260001946FFF7F0FF204610BD202A04DB203A94
:1002700000FA02F1002070479140C2F1200320FAF9
:1002800003F3194390407047202A04DB203A21FAF7
:1002900002F00021704721FA02F3D040C2F120029F
:1002A0009140084319467047064C074D06E0E06848
:1002B00040F0010394E8070098471034AC42F6D3AD
:1002C000FFF778FF5CF60F087CF60F08FEE7704733
:1002D00070B5044600F000F90546601C02D00448E1
:1002E0000078044400F0F8F8401BA042FAD370BD37
:1002F000000000202DE9F84FDFF890B100224FF008
:1003000001084FF0030A4FF00F090BF1040E00BF74
:100310000B6808FA02F42340A3426ED14D68022D07
:1003200001D0122D0ED1D50800EB850CDCF8205041
:100330005607F70E09FA07F6B5430E69BE402E437D
:10034000CCF82060066855000F790AFA05FC07F022
:10035000030726EA0C06AF40374307604E68012EBC
:1003600005D0022E03D0112E01D0122E0ED1876897
:10037000CE6827EA0C07AE403E4386604668A64337
:100380000C79C4F30014944034434460C4688E680C
:1003900024EA0C04AE402643C6604C68E4006FD5E6
:1003A0003B4C256845F480452560246822F0030510
:1003B00004F480440094374C2E19D6F80848950769
:1003C0002F0F09FA07F5AC43334DA84201D10025A0
:1003D0002EE0324DA84201D1012529E0304DA8423E
:1003E00001D1022524E02F4DA84201D103251FE0B1
:1003F0002D4DA84202D104251AE041E02B4DA84220
:1004000001D1052514E02A4DA84201D106250FE0AF
:10041000284DA84201D107250AE0274DA84201D165
:10042000082505E0254DA84201D1092500E00A254F
:10043000BD402543C6F80858DBF800405D464E68CD
:100440009C43F60300D51C432C60DEF80040754643
:100450004E689C43B60300D51C432C600B4D0835F9
:100460002C684E689C43F60200D51C432C60074D57
:100470000C352C684E689C43B60200D51C432C609A
:10048000521C102AFFF444AFBDE8F88F003C014035
:1004900044380240003001400000024000040240A5
:1004A00000080240000C024000100240001402400C
:1004B00000180240001C02400020024000240240BC
:1004C000426931EA020200D10904816170470AB130
:1004D000816170470904FBE70148806870470000AC
:1004E0000000002002488168027811448160704752
:1004F000000000200B4810B5016841F40071016054
:10050000016841F480610160016841F4807101601B
:10051000032000F061F8002000F006F800F024F855
:10052000002010BD003C024070B50D4D04464FF454
:100530007A712878B1FBF0F00A490968B1FBF0F054
:1005400000F0B4FA48B9102C07D200222146501E00
:1005500000F022F800206C6070BD012070BD00002A
:10056000000000200C0000200A4808B5016841F492
:1005700080410160006800F4804000900548001F41
:10058000016841F080510160006800F080500090E7
:1005900008BD000044380240F0B40E4B1B680C4606
:1005A000C3F30223C3F10705042D00D90425191D47
:1005B000072901D2002300E0DB1E012606FA05F11F
:1005C000491E214099409E40761E16403143F0BCA2
:1005D00000F02FBB0CED00E0064900F007020868B0
:1005E0004FF6FF03184040EA0220034A1043086018
:1005F000704700000CED00E00000FA052DE9F0471F
:100600000E46050065D0DFF81481D8F80000F7B277
:1006100000F00F00B04207D288F80070D8F8000050
:1006200000F00F00B04254D128683D4C810712D52C
:10063000400703D5206840F4E05020602878000788
:1006400003D5206840F4604020602068A96820F04D
:10065000F000084320602878C0072DD03049686832
:100660000839012812D0022813D0032811D00968B4
:10067000890700292DDA216821F003010143216057
:10068000FFF72AFF814641F2883A0EE009688903A4
:10069000EFE709688901ECE7FFF71EFFA0EB09010E
:1006A000514502D90320BDE8F0872068696800F051
:1006B0000C00B0EB810FEFD1D8F80010404601F0EC
:1006C0000F01B14207D90770006800F00F00B04277
:1006D00001D00120E7E72878400705D52068E968C0
:1006E00020F4E050084320602878000706D52068F1
:1006F000296920F4604040EAC100206000F016F84B
:100700002168084AC1F30311515CC84006490860DA
:100710000020FFF709FF0020C5E70000003C024071
:10072000083802404CF60F080C000020154810B5A0
:10073000006810F00C02144813D01449042A0FD09A
:10074000082A0ED10F4C241F2268236802F03F02B2
:100750005B0207D52068C0F38810A0FB010106E00A
:10076000084610BD2168C1F38811A1FB00010023D8
:10077000FFF738FD2168C1F30141491C4900B0FB76
:10078000F1F010BD083802400024F40040787D01EB
:100790002DE9F84F050076D02878DFF8F8B2BE4C86
:1007A000C00749D0DBF800105846C1F38101012988
:1007B00008D00068C0F3810002280AD1201D00681B
:1007C000400206D52068800336D568680028E2D04C
:1007D00032E06868B0F5803F10D0B0F5A02F2068F7
:1007E00010D020F480302060206820F48020206029
:1007F0006868A0B1FFF770FE06460CE0206840F480
:100800008030F4E740F480202060F7E7FFF764FED3
:10081000801B642873D820688003F7D50CE0FFF7AD
:100820005BFE064605E000BFFFF756FE801B64280E
:10083000F0D820688003F7D42878DFF8608280073A
:100840004FF000093ED5DBF80010584611F00C0FB0
:1008500009D00068C0F3810002280BD18D48001F29
:100860000068400206D42068800715D5E868012892
:1008700009D111E0E868B8B10120C8F80000FFF71D
:100880002BFE064605E002E1FFF726FE801B02284C
:10089000C0D820688007F7D52068296920F0F800C3
:1008A00040EAC10020600DE0C8F80090FFF714FE98
:1008B000064604E0FFF710FE801B02281FD82068C0
:1008C0008007F7D42878000722D5724E74486969EA
:1008D0006C3671B101210160FFF7FEFD074604E0AF
:1008E000FFF7FAFDC01B022809D830688007F7D54A
:1008F0000EE0C0F80090FFF7EFFD074605E083E04B
:10090000FFF7EAFDC01B02287ED830688007F7D4C5
:100910002878400768D5DFF87CA100270AF1380A5B
:10092000DAF80000C0000BD4DAF8001041F0805172
:10093000CAF80010DAF80000012700F0805000909B
:10094000584E3068C00510D4306840F48070306074
:10095000FFF7C2FD009005E0FFF7BEFD0099401AC9
:10096000022851D83068C005F6D54A4EA8686836C6
:1009700001280FD00528306810D020F00100306029
:10098000306820F004003060A868B8B1FFF7A4FD1B
:1009900000900FE0306840F00100F4E740F0040000
:1009A0003060F7E7FFF798FD0099411A41F288306F
:1009B000814264D830688007F4D50EE0FFF78CFDE3
:1009C000009007E0FFF788FD0099411A41F2883056
:1009D000814254D830688007F4D42FB1DAF800107F
:1009E00021F08051CAF80010A869C0B3DBF80010EC
:1009F000C1F3810102294AD00228484607D0C8F82D
:100A00006000FFF769FD00E039E005463AE047463F
:100A1000C8F86000FFF760FD064604E0FFF75CFDE4
:100A2000801B02282BD820688001F7D4D5E9070164
:100A30000843A96A1C4A490802EB01416A6A41EA73
:100A40008211084395F82C1040EA01611148001FFB
:100A5000016001203866FFF73FFD054605E014E020
:100A6000FFF73AFD401B022809D820688001F7D51E
:100A70000BE000BFFFF730FD401B022802D9032026
:100A8000BDE8F88F20688001F4D40020F8E7012049
:100A9000F6E70000083802400038024000004742F4
:100AA000800E4742007000400000FFFF10B5401E5E
:100AB000B0F1807F01D3012010BD4FF0E0246061D0
:100AC0000F21601700F0B5F80020A0610720206119
:100AD000002010BDFEE7000070B586B01421684606
:100AE000FFF7B8FB16480024016841F0800101605F
:100AF000016801F080010591016841F00201016087
:100B0000016801F002010591016841F008010160EE
:100B100000680C4E00F008004FF48055059000224C
:100B200029463046FFF7D3FC01200095CDE90104AA
:100B3000694630460394FFF7DDFB06B070BD000048
:100B400030380240000C0240FEE7704770477047A3
:100B5000FFF7C8BC30B593B030216846FFF77AFB89
:100B600014210CA8FFF776FB1A480025016841F014
:100B700080510160006800F08050119016480168B3
:100B800041F4404101600068022400F440401190AB
:100B900001200090000401908001CDE90640192059
:100BA00008904FF4A870CDE9090407200B9068461F
:100BB000FFF7EEFD0CA90F2081E831004FF4A050A3
:100BC0000F90E002109005210CA8FFF717FD13B05D
:100BD00030BD0000403802400070004010480168FD
:100BE00041F4700101600F48016841F001010160AA
:100BF0000C4A00210832116002680B4B1A40026057
:100C0000031D0A4A1A60026822F480220260054825
:100C10000C300160024958068039086070470000B6
:100C200088ED00E000380240FFFFF6FE103000249F
:100C3000FEE70907090E002804DB00F1E02080F838
:100C40000014704700F00F0000F1E02080F8141D40
:100C5000704702E008C8121F08C1002AFAD1704785
:100C60007047002001E001C1121F002AFBD170472C
:100C7000134912480860FFF73DFCFFF76BFFFFF7D1
:100C80002BFF104D4FF48054002221462846FFF7D9
:100C90001EFC0D4800224FF4672100BF50F822309F
:100CA0001A44521C8A42F9D34FF4FA762146284658
:100CB000FFF706FC3046FFF70BFBF7E700000108E3
:100CC00008ED00E0000C0240CC0C01082BA0450D03
:100CD0002BA0450D2BA0450D2BA0450D2BA0450DA0
:100CE0002BA0450D2BA0450D2BA0450D2BA0450D90
:100CF0002BA0450D2BA0450D2BA0450D2BA0450D80
:100D00002BA0450D2BA0450D2BA0450D2BA0450D6F
:100D10002BA0450D2BA0450D2BA0450D2BA0450D5F
:100D20002BA0450D2BA0450D2BA0450D2BA0450D4F
:100D30002BA0450D2BA0450D2BA0450D2BA0450D3F
:100D40002BA0450D2BA0450D2BA0450D2BA0450D2F
:100D50002BA0450D2BA0450D2BA0450D2BA0450D1F
:100D60002BA0450D2BA0450D2BA0450D2BA0450D0F
:100D70002BA0450D2BA0450D2BA0450D2BA0450DFF
:100D80002BA0450D2BA0450D2BA0450D2BA0450DEF
:100D90002BA0450D2BA0450D2BA0450D2BA0450DDF
:100DA0002BA0450D2BA0450D2BA0450D2BA0450DCF
:100DB0002BA0450D2BA0450D2BA0450DFFFFFF0DD2
:100DC000FFFFFF0DFFFFFF0DFFFFFF0DFFFFFF0DFB
:100DD000FFFFFF0DFFFFFF0DFFFFFF0DFFFFFF0DEB
:100DE000FFFFFF0DFFFFFF0DFFFFFF0DFFFFFF0DDB
:100DF000FFFFFF0DFFFFFF0DFFFFFF0DFFFFFF0DCB
:100E0000FFFFFF0DFFFFFF0DFFFFFF0DFFFFFF0DBA
:100E1000FFFFFF0DFFFFFF0DFFFFFF0DFFFFFF0DAA
:100E2000FFFFFF0DFFFFFF0DFFFFFF0DFFFFFF0D9A
:100E3000FFFFFF0DFFFFFF0DFFFFFF0DFFFFFF0D8A
:100E4000FFFFFF0DFFFFFF0DFFFFFF0DFFFFFF0D7A
:100E5000FFFFFF0DFFFFFF0DFFFFFF0DFFFFFF0D6A
:100E6000FFFFFF0DFFFFFF0DFFFFFF0DFFFFFF0D5A
:100E7000FFFFFF0DFFFFFF0DFFFFFF0DFFFFFF0D4A
:100E8000FFFFFF0DFFFFFF0DFFFFFF0DFFFFFF0D3A
:100E9000FFFFFF0DFFFFFF0DFFFFFF0DFFFFFF0D2A
:100EA000FFFFFF0DFFFFFF0DFFFFFF0DFFFFFF0D1A
:100EB000FFFFFF0DFFFFFF0DFFFFFF0DFFFFFF0D0A
:100EC000FFFFFF0DFFFFFF0DFFFFFF0DFFFFFF0DFA
:100ED000FFFFFF0DFFFFFF0DFFFFFF0DFFFFFF0DEA
:100EE000FFFFFF0DFFFFFF0DFFFFFF0DFFFFFF0DDA
:100EF000FFFFFF0DFFFFFF0DFFFFFF0DFFFFFF0DCA
:100F0000FFFFFF0DFFFFFF0DFFFFFF0DFFFFFF0DB9
:100F1000FFFFFF0DFFFFFF0DFFFFFF0DFFFFFF0DA9
:100F2000FFFFFF0DFFFFFF0DFFFFFF0DFFFFFF0D99
:100F3000FFFFFF0DFFFFFF0DFFFFFF0DFFFFFF0D89
:100F4000FFFFFF0DFFFFFF0DFFFFFF0DFFFFFF0D79
:100F5000FFFFFF0DFFFFFF0DFFFFFF0DFFFFFF0D69
:100F6000FFFFFF0DFFFFFF0DFFFFFF0DFFFFFF0D59
:100F7000FFFFFF0DFFFFFF0DFFFFFF0DFFFFFF0D49
:100F8000FFFFFF0DFFFFFF0DFFFFFF0D63B9760DA4
:100F90000A91280D2BA0450D2BA0450D2BA0450D2A
:100FA0002BA0450D2BA0450D2BA0450D2BA0450DCD
:100FB0002BA0450D2BA0450D2BA0450D2BA0450DBD
:100FC0002BA0450D2BA0450D2BA0450D2BA0450DAD
:100FD0002BA0450D2BA0450D2BA0450D2BA0450D9D
:101490002BA0450D2BA0450D2BA0450DFFFFFF0DEB
:1014A000FFFFFF0DFFFFFF0DFFFFFF0DFFFFFF0D14
:1014B000FFFFFF0DFFFFFF0DFFFFFF0DFFFFFF0D04
:1014C000FFFFFF0DFFFFFF0DFFFFFF0DFFFFFF0DF4
:1014D000FFFFFF0DFFFFFF0DFFFFFF0DFFFFFF0DE4
:1014E000FFFFFF0DFFFFFF0DFFFFFF0DFFFFFF0DD4
:1014F000FFFFFF0DFFFFFF0DFFFFFF0DFFFFFF0DC4
:10150000FFFFFF0DFFFFFF0DFFFFFF0DFFFFFF0DB3
:10151000FFFFFF0DFFFFFF0DFFFFFF0DFFFFFF0DA3
:10152000FFFFFF0DFFFFFF0DFFFFFF0DFFFFFF0D93
:10153000FFFFFF0DFFFFFF0DFFFFFF0DFFFFFF0D83
:10154000FFFFFF0DFFFFFF0DFFFFFF0DFFFFFF0D73
:10155000FFFFFF0DFFFFFF0DFFFFFF0DFFFFFF0D63
:10156000FFFFFF0DFFFFFF0DFFFFFF0DFFFFFF0D53
:10157000FFFFFF0DFFFFFF0DFFFFFF0DFFFFFF0D43
:10158000FFFFFF0DFFFFFF0DFFFFFF0DFFFFFF0D33
:10159000FFFFFF0DFFFFFF0DFFFFFF0DFFFFFF0D23
:1015A000FFFFFF0DFFFFFF0DFFFFFF0DFFFFFF0D13
:1015B000FFFFFF0DFFFFFF0DFFFFFF0DFFFFFF0D03
:1015C000FFFFFF0DFFFFFF0DFFFFFF0DFFFFFF0DF3
:1015D000FFFFFF0DFFFFFF0DFFFFFF0DFFFFFF0DE3
:1015E000FFFFFF0DFFFFFF0DFFFFFF0DFFFFFF0DD3
:1015F000FFFFFF0DFFFFFF0DFFFFFF0DFFFFFF0DC3
:10160000FFFFFF0DFFFFFF0DFFFFFF0DFFFFFF0DB2
:10161000FFFFFF0DFFFFFF0DFFFFFF0D63B9760D0D
:101620000A91280D2BA0450D2BA0450D2BA0450D93
:101630002BA0450D2BA0450D2BA0450D2BA0450D36
:101640002BA0450D2BA0450D2BA0450D2BA0450D26
:101650002BA0450D2BA0450D2BA0450D2BA0450D16
:101660002BA0450D2BA0450D2BA0450D2BA0450D06
:101B20002BA0450D2BA0450D2BA0450DFFFFFF0D54
:101B3000FFFFFF0DFFFFFF0DFFFFFF0DFFFFFF0D7D
:101B4000FFFFFF0DFFFFFF0DFFFFFF0DFFFFFF0D6D
:101B5000FFFFFF0DFFFFFF0DFFFFFF0DFFFFFF0D5D
:101B6000FFFFFF0DFFFFFF0DFFFFFF0DFFFFFF0D4D
:101B7000FFFFFF0DFFFFFF0DFFFFFF0DFFFFFF0D3D
:101B8000FFFFFF0DFFFFFF0DFFFFFF0DFFFFFF0D2D
:101B9000FFFFFF0DFFFFFF0DFFFFFF0DFFFFFF0D1D
:101BA000FFFFFF0DFFFFFF0DFFFFFF0DFFFFFF0D0D
:101BB000FFFFFF0DFFFFFF0DFFFFFF0DFFFFFF0DFD
:101BC000FFFFFF0DFFFFFF0DFFFFFF0DFFFFFF0DED
:101BD000FFFFFF0DFFFFFF0DFFFFFF0DFFFFFF0DDD
:101BE000FFFFFF0DFFFFFF0DFFFFFF0DFFFFFF0DCD
:101BF000FFFFFF0DFFFFFF0DFFFFFF0DFFFFFF0DBD
:101C0000FFFFFF0DFFFFFF0DFFFFFF0DFFFFFF0DAC
:101C1000FFFFFF0DFFFFFF0DFFFFFF0DFFFFFF0D9C
:101C2000FFFFFF0DFFFFFF0DFFFFFF0DFFFFFF0D8C
:101C3000FFFFFF0DFFFFFF0DFFFFFF0DFFFFFF0D7C
:101C4000FFFFFF0DFFFFFF0DFFFFFF0DFFFFFF0D6C
:101C5000FFFFFF0DFFFFFF0DFFFFFF0DFFFFFF0D5C
:101C6000FFFFFF0DFFFFFF0DFFFFFF0DFFFFFF0D4C
:101C7000FFFFFF0DFFFFFF0DFFFFFF0DFFFFFF0D3C
:101C8000FFFFFF0DFFFFFF0DFFFFFF0DFFFFFF0D2C
:101C9000FFFFFF0DFFFFFF0DFFFFFF0DFFFFFF0D1C
:101CA000FFFFFF0DFFFFFF0DFFFFFF0DFFFFFF0D0C
:101CB000FFFFFF0DFFFFFF0DFFFFFF0DFFFFFF0DFC
:101CC000FFFFFF0DFFFFFF0DFFFFFF0DFFFFFF0DEC
:101CD000FFFFFF0DFFFFFF0DFFFFFF0DFFFFFF0DDC
:101CE000FFFFFF0DFFFFFF0DFFFFFF0DFFFFFF0DCC
:101CF000FFFFFF0DFFFFFF0DFFFFFF0D63B9760D27
:101D00000A91280D2BA0450D2BA0450D2BA0450DAC
:101D10002BA0450D2BA0450D2BA0450D2BA0450D4F
:101D20002BA0450D2BA0450D2BA0450D2BA0450D3F
:101D30002BA0450D2BA0450D2BA0450D2BA0450D2F
:101D40002BA0450D2BA0450D2BA0450D2BA0450D1F
:102200002BA0450D2BA0450D2BA0450DFFFFFF0D6D
:10221000FFFFFF0DFFFFFF0DFFFFFF0DFFFFFF0D96
:10222000FFFFFF0DFFFFFF0DFFFFFF0DFFFFFF0D86
:10223000FFFFFF0DFFFFFF0DFFFFFF0DFFFFFF0D76
:10224000FFFFFF0DFFFFFF0DFFFFFF0DFFFFFF0D66
:10225000FFFFFF0DFFFFFF0DFFFFFF0DFFFFFF0D56
:10226000FFFFFF0DFFFFFF0DFFFFFF0DFFFFFF0D46
:10227000FFFFFF0DFFFFFF0DFFFFFF0DFFFFFF0D36
:10228000FFFFFF0DFFFFFF0DFFFFFF0DFFFFFF0D26
:10229000FFFFFF0DFFFFFF0DFFFFFF0DFFFFFF0D16
:1022A000FFFFFF0DFFFFFF0DFFFFFF0DFFFFFF0D06
:1022B000FFFFFF0DFFFFFF0DFFFFFF0DFFFFFF0DF6
:1022C000FFFFFF0DFFFFFF0DFFFFFF0DFFFFFF0DE6
:1022D000FFFFFF0DFFFFFF0DFFFFFF0DFFFFFF0DD6
:1022E000FFFFFF0DFFFFFF0DFFFFFF0DFFFFFF0DC6
:1022F000FFFFFF0DFFFFFF0DFFFFFF0DFFFFFF0DB6
:10230000FFFFFF0DFFFFFF0DFFFFFF0DFFFFFF0DA5
:10231000FFFFFF0DFFFFFF0DFFFFFF0DFFFFFF0D95
:10232000FFFFFF0DFFFFFF0DFFFFFF0DFFFFFF0D85
:10233000FFFFFF0DFFFFFF0DFFFFFF0D63B9760DE0
:102340000A91280D2BA0450D2BA0450D2BA0450D66
:102350002BA0450D2BA0450D2BA0450D2BA0450D09
:102360002BA0450D2BA0450D2BA0450D2BA0450DF9
:102370002BA0450D2BA0450D2BA0450D2BA0450DE9
:102380002BA0450D2BA0450D2BA0450D2BA0450DD9
:102840002BA0450D2BA0450D2BA0450DFFFFFF0D27
:10285000FFFFFF0DFFFFFF0DFFFFFF0DFFFFFF0D50
:10286000FFFFFF0DFFFFFF0DFFFFFF0DFFFFFF0D40
:10287000FFFFFF0DFFFFFF0DFFFFFF0DFFFFFF0D30
:10288000FFFFFF0DFFFFFF0DFFFFFF0DFFFFFF0D20
:10289000FFFFFF0DFFFFFF0DFFFFFF0DFFFFFF0D10
:1028A000FFFFFF0DFFFFFF0DFFFFFF0DFFFFFF0D00
:1028B000FFFFFF0DFFFFFF0DFFFFFF0DFFFFFF0DF0
:1028C000FFFFFF0DFFFFFF0DFFFFFF0DFFFFFF0DE0
:1028D000FFFFFF0DFFFFFF0DFFFFFF0DFFFFFF0DD0
:1028E000FFFFFF0DFFFFFF0DFFFFFF0DFFFFFF0DC0
:1028F000FFFFFF0DFFFFFF0DFFFFFF0DFFFFFF0DB0
:10290000FFFFFF0DFFFFFF0DFFFFFF0DFFFFFF0D9F
:10291000FFFFFF0DFFFFFF0DFFFFFF0DFFFFFF0D8F
:10292000FFFFFF0DFFFFFF0DFFFFFF0DFFFFFF0D7F
:10293000FFFFFF0DFFFFFF0DFFFFFF0DFFFFFF0D6F
:10294000FFFFFF0DFFFFFF0DFFFFFF0DFFFFFF0D5F
:10295000FFFFFF0DFFFFFF0DFFFFFF0DFFFFFF0D4F
:10296000FFFFFF0DFFFFFF0DFFFFFF0DFFFFFF0D3F
:10297000FFFFFF0DFFFFFF0DFFFFFF0DFFFFFF0D2F
:10298000FFFFFF0DFFFFFF0DFFFFFF0DFFFFFF0D1F
:10299000FFFFFF0DFFFFFF0DFFFFFF0DFFFFFF0D0F
:1029A000FFFFFF0DFFFFFF0DFFFFFF0DFFFFFF0DFF
:1029B000FFFFFF0DFFFFFF0DFFFFFF0DFFFFFF0DEF
:1029C000FFFFFF0DFFFFFF0DFFFFFF0DFFFFFF0DDF
:1029D000FFFFFF0DFFFFFF0DFFFFFF0DFFFFFF0DCF
:1029E000FFFFFF0DFFFFFF0DFFFFFF0DFFFFFF0DBF
:1029F000FFFFFF0DFFFFFF0DFFFFFF0DFFFFFF0DAF
:102A0000FFFFFF0DFFFFFF0DFFFFFF0DFFFFFF0D9E
:102A1000FFFFFF0DFFFFFF0DFFFFFF0D63B9760DF9
:102A20000A91280D2BA0450D2BA0450D2BA0450D7F
:102A30002BA0450D2BA0450D2BA0450D2BA0450D22
:102A40002BA0450D2BA0450D2BA0450D2BA0450D12
:102A50002BA0450D2BA0450D2BA0450D2BA0450D02
:102A60002BA0450D2BA0450D2BA0450D2BA0450DF2
:102F20002BA0450D2BA0450D2BA0450DFFFFFF0D40
:102F3000FFFFFF0DFFFFFF0DFFFFFF0DFFFFFF0D69
:102F4000FFFFFF0DFFFFFF0DFFFFFF0DFFFFFF0D59
:102F5000FFFFFF0DFFFFFF0DFFFFFF0DFFFFFF0D49
:102F6000FFFFFF0DFFFFFF0DFFFFFF0DFFFFFF0D39
:102F7000FFFFFF0DFFFFFF0DFFFFFF0DFFFFFF0D29
:102F8000FFFFFF0DFFFFFF0DFFFFFF0DFFFFFF0D19
:102F9000FFFFFF0DFFFFFF0DFFFFFF0DFFFFFF0D09
:102FA000FFFFFF0DFFFFFF0DFFFFFF0DFFFFFF0DF9
:102FB000FFFFFF0DFFFFFF0DFFFFFF0DFFFFFF0DE9
:102FC000FFFFFF0DFFFFFF0DFFFFFF0DFFFFFF0DD9
:102FD000FFFFFF0DFFFFFF0DFFFFFF0DFFFFFF0DC9
:102FE000FFFFFF0DFFFFFF0DFFFFFF0DFFFFFF0DB9
:102FF000FFFFFF0DFFFFFF0DFFFFFF0DFFFFFF0DA9
:10300000FFFFFF0DFFFFFF0DFFFFFF0DFFFFFF0D98
:10301000FFFFFF0DFFFFFF0DFFFFFF0DFFFFFF0D88
:10302000FFFFFF0DFFFFFF0DFFFFFF0DFFFFFF0D78
:10303000FFFFFF0DFFFFFF0DFFFFFF0DFFFFFF0D68
:10304000FFFFFF0DFFFFFF0DFFFFFF0DFFFFFF0D58
:10305000FFFFFF0DFFFFFF0DFFFFFF0DFFFFFF0D48
:10306000FFFFFF0DFFFFFF0DFFFFFF0DFFFFFF0D38
:10307000FFFFFF0DFFFFFF0DFFFFFF0DFFFFFF0D28
:10308000FFFFFF0DFFFFFF0DFFFFFF0DFFFFFF0D18
:10309000FFFFFF0DFFFFFF0DFFFFFF0DFFFFFF0D08
:1030A000FFFFFF0DFFFFFF0DFFFFFF0D63B9760D63
:1030B0000A91280D2BA0450D2BA0450D2BA0450DE9
:1030C0002BA0450D2BA0450D2BA0450D2BA0450D8C
:1030D0002BA0450D2BA0450D2BA0450D2BA0450D7C
:1030E0002BA0450D2BA0450D2BA0450D2BA0450D6C
:1030F0002BA0450D2BA0450D2BA0450D2BA0450D5C
:1035B0002BA0450D2BA0450D2BA0450DFFFFFF0DAA
:1035C000FFFFFF0DFFFFFF0DFFFFFF0DFFFFFF0DD3
:1035D000FFFFFF0DFFFFFF0DFFFFFF0DFFFFFF0DC3
:1035E000FFFFFF0DFFFFFF0DFFFFFF0DFFFFFF0DB3
:1035F000FFFFFF0DFFFFFF0DFFFFFF0DFFFFFF0DA3
:10360000FFFFFF0DFFFFFF0DFFFFFF0DFFFFFF0D92
:10361000FFFFFF0DFFFFFF0DFFFFFF0DFFFFFF0D82
:10362000FFFFFF0DFFFFFF0DFFFFFF0DFFFFFF0D72
:10363000FFFFFF0DFFFFFF0DFFFFFF0DFFFFFF0D62
:10364000FFFFFF0DFFFFFF0DFFFFFF0DFFFFFF0D52
:10365000FFFFFF0DFFFFFF0DFFFFFF0DFFFFFF0D42
:10366000FFFFFF0DFFFFFF0DFFFFFF0DFFFFFF0D32
:10367000FFFFFF0DFFFFFF0DFFFFFF0DFFFFFF0D22
:10368000FFFFFF0DFFFFFF0DFFFFFF0DFFFFFF0D12
:10369000FFFFFF0DFFFFFF0DFFFFFF0DFFFFFF0D02
:1036A000FFFFFF0DFFFFFF0DFFFFFF0DFFFFFF0DF2
:1036B000FFFFFF0DFFFFFF0DFFFFFF0DFFFFFF0DE2
:1036C000FFFFFF0DFFFFFF0DFFFFFF0DFFFFFF0DD2
:1036D000FFFFFF0DFFFFFF0DFFFFFF0DFFFFFF0DC2
:1036E000FFFFFF0DFFFFFF0DFFFFFF0DFFFFFF0DB2
:1036F000FFFFFF0DFFFFFF0DFFFFFF0DFFFFFF0DA2
:10370000FFFFFF0DFFFFFF0DFFFFFF0DFFFFFF0D91
:10371000FFFFFF0DFFFFFF0DFFFFFF0DFFFFFF0D81
:10372000FFFFFF0DFFFFFF0DFFFFFF0DFFFFFF0D71
:10373000FFFFFF0DFFFFFF0DFFFFFF0DFFFFFF0D61
:10374000FFFFFF0DFFFFFF0DFFFFFF0DFFFFFF0D51
:10375000FFFFFF0DFFFFFF0DFFFFFF0DFFFFFF0D41
:10376000FFFFFF0DFFFFFF0DFFFFFF0DFFFFFF0D31
:10377000FFFFFF0DFFFFFF0DFFFFFF0DFFFFFF0D21
:10378000FFFFFF0DFFFFFF0DFFFFFF0D63B9760D7C
:103790000A91280D2BA0450D2BA0450D2BA0450D02
:1037A0002BA0450D2BA0450D2BA0450D2BA0450DA5
:1037B0002BA0450D2BA0450D2BA0450D2BA0450D95
:1037C0002BA0450D2BA0450D2BA0450D2BA0450D85
:1037D0002BA0450D2BA0450D2BA0450D2BA0450D75
:103C90002BA0450D2BA0450D2BA0450DFFFFFF0DC3
:103CA000FFFFFF0DFFFFFF0DFFFFFF0DFFFFFF0DEC
:103CB000FFFFFF0DFFFFFF0DFFFFFF0DFFFFFF0DDC
:103CC000FFFFFF0DFFFFFF0DFFFFFF0DFFFFFF0DCC
:103CD000FFFFFF0DFFFFFF0DFFFFFF0DFFFFFF0DBC
:103CE000FFFFFF0DFFFFFF0DFFFFFF0DFFFFFF0DAC
:103CF000FFFFFF0DFFFFFF0DFFFFFF0DFFFFFF0D9C
:103D0000FFFFFF0DFFFFFF0DFFFFFF0DFFFFFF0D8B
:103D1000FFFFFF0DFFFFFF0DFFFFFF0DFFFFFF0D7B
:103D2000FFFFFF0DFFFFFF0DFFFFFF0DFFFFFF0D6B
:103D3000FFFFFF0DFFFFFF0DFFFFFF0DFFFFFF0D5B
:103D4000FFFFFF0DFFFFFF0DFFFFFF0DFFFFFF0D4B
:103D5000FFFFFF0DFFFFFF0DFFFFFF0DFFFFFF0D3B
:103D6000FFFFFF0DFFFFFF0DFFFFFF0DFFFFFF0D2B
:103D7000FFFFFF0DFFFFFF0DFFFFFF0DFFFFFF0D1B
:103D8000FFFFFF0DFFFFFF0DFFFFFF0DFFFFFF0D0B
:103D9000FFFFFF0DFFFFFF0DFFFFFF0DFFFFFF0DFB
:103DA000FFFFFF0DFFFFFF0DFFFFFF0DFFFFFF0DEB
:103DB000FFFFFF0DFFFFFF0DFFFFFF0DFFFFFF0DDB
:103DC000FFFFFF0DFFFFFF0DFFFFFF0D63B9760D36
:103DD0000A91280D2BA0450D2BA0450D2BA0450DBC
:103DE0002BA0450D2BA0450D2BA0450D2BA0450D5F
:103DF0002BA0450D2BA0450D2BA0450D2BA0450D4F
:103E00002BA0450D2BA0450D2BA0450D2BA0450D3E
:103E10002BA0450D2BA0450D2BA0450D2BA0450D2E
:1042D0002BA0450D2BA0450D2BA0450DFFFFFF0D7D
:1042E000FFFFFF0DFFFFFF0DFFFFFF0DFFFFFF0DA6
:1042F000FFFFFF0DFFFFFF0DFFFFFF0DFFFFFF0D96
:10430000FFFFFF0DFFFFFF0DFFFFFF0DFFFFFF0D85
:10431000FFFFFF0DFFFFFF0DFFFFFF0DFFFFFF0D75
:10432000FFFFFF0DFFFFFF0DFFFFFF0DFFFFFF0D65
:10433000FFFFFF0DFFFFFF0DFFFFFF0DFFFFFF0D55
:10434000FFFFFF0DFFFFFF0DFFFFFF0DFFFFFF0D45
:10435000FFFFFF0DFFFFFF0DFFFFFF0DFFFFFF0D35
:10436000FFFFFF0DFFFFFF0DFFFFFF0DFFFFFF0D25
:10437000FFFFFF0DFFFFFF0DFFFFFF0DFFFFFF0D15
:10438000FFFFFF0DFFFFFF0DFFFFFF0DFFFFFF0D05
:10439000FFFFFF0DFFFFFF0DFFFFFF0DFFFFFF0DF5
:1043A000FFFFFF0DFFFFFF0DFFFFFF0DFFFFFF0DE5
:1043B000FFFFFF0DFFFFFF0DFFFFFF0DFFFFFF0DD5
:1043C000FFFFFF0DFFFFFF0DFFFFFF0DFFFFFF0DC5
:1043D000FFFFFF0DFFFFFF0DFFFFFF0DFFFFFF0DB5
:1043E000FFFFFF0DFFFFFF0DFFFFFF0DFFFFFF0DA5
:1043F000FFFFFF0DFFFFFF0DFFFFFF0DFFFFFF0D95
:10440000FFFFFF0DFFFFFF0DFFFFFF0DFFFFFF0D84
:10441000FFFFFF0DFFFFFF0DFFFFFF0DFFFFFF0D74
:10442000FFFFFF0DFFFFFF0DFFFFFF0DFFFFFF0D64
:10443000FFFFFF0DFFFFFF0DFFFFFF0DFFFFFF0D54
:10444000FFFFFF0DFFFFFF0DFFFFFF0DFFFFFF0D44
:10445000FFFFFF0DFFFFFF0DFFFFFF0DFFFFFF0D34
:10446000FFFFFF0DFFFFFF0DFFFFFF0DFFFFFF0D24
:10447000FFFFFF0DFFFFFF0DFFFFFF0DFFFFFF0D14
:10448000FFFFFF0DFFFFFF0DFFFFFF0DFFFFFF0D04
:10449000FFFFFF0DFFFFFF0DFFFFFF0DFFFFFF0DF4
:1044A000FFFFFF0DFFFFFF0DFFFFFF0D63B9760D4F
:1044B0000A91280D2BA0450D2BA0450D2BA0450DD5
:1044C0002BA0450D2BA0450D2BA0450D2BA0450D78
:1044D0002BA0450D2BA0450D2BA0450D2BA0450D68
:1044E0002BA0450D2BA0450D2BA0450D2BA0450D58
:1044F0002BA0450D2BA0450D2BA0450D2BA0450D48
:1049B0002BA0450D2BA0450D2BA0450DFFFFFF0D96
:1049C000FFFFFF0DFFFFFF0DFFFFFF0DFFFFFF0DBF
:1049D000FFFFFF0DFFFFFF0DFFFFFF0DFFFFFF0DAF
:1049E000FFFFFF0DFFFFFF0DFFFFFF0DFFFFFF0D9F
:1049F000FFFFFF0DFFFFFF0DFFFFFF0DFFFFFF0D8F
:104A0000FFFFFF0DFFFFFF0DFFFFFF0DFFFFFF0D7E
:104A1000FFFFFF0DFFFFFF0DFFFFFF0DFFFFFF0D6E
:104A2000FFFFFF0DFFFFFF0DFFFFFF0DFFFFFF0D5E
:104A3000FFFFFF0DFFFFFF0DFFFFFF0DFFFFFF0D4E
:104A4000FFFFFF0DFFFFFF0DFFFFFF0DFFFFFF0D3E
:104A5000FFFFFF0DFFFFFF0DFFFFFF0DFFFFFF0D2E
:104A6000FFFFFF0DFFFFFF0DFFFFFF0DFFFFFF0D1E
:104A7000FFFFFF0DFFFFFF0DFFFFFF0DFFFFFF0D0E
:104A8000FFFFFF0DFFFFFF0DFFFFFF0DFFFFFF0DFE
:104A9000FFFFFF0DFFFFFF0DFFFFFF0DFFFFFF0DEE
:104AA000FFFFFF0DFFFFFF0DFFFFFF0DFFFFFF0DDE
:104AB000FFFFFF0DFFFFFF0DFFFFFF0DFFFFFF0DCE
:104AC000FFFFFF0DFFFFFF0DFFFFFF0DFFFFFF0DBE
:104AD000FFFFFF0DFFFFFF0DFFFFFF0DFFFFFF0DAE
:104AE000FFFFFF0DFFFFFF0DFFFFFF0DFFFFFF0D9E
:104AF000FFFFFF0DFFFFFF0DFFFFFF0DFFFFFF0D8E
:104B0000FFFFFF0DFFFFFF0DFFFFFF0DFFFFFF0D7D
:104B1000FFFFFF0DFFFFFF0DFFFFFF0DFFFFFF0D6D
:104B2000FFFFFF0DFFFFFF0DFFFFFF0DFFFFFF0D5D
:104B3000FFFFFF0DFFFFFF0DFFFFFF0D63B9760DB8
:104B40000A91280D2BA0450D2BA0450D2BA0450D3E
:104B50002BA0450D2BA0450D2BA0450D2BA0450DE1
:104B60002BA0450D2BA0450D2BA0450D2BA0450DD1
:104B70002BA0450D2BA0450D2BA0450D2BA0450DC1
:104B80002BA0450D2BA0450D2BA0450D2BA0450DB1
:105040002BA0450D2BA0450D2BA0450DFFFFFF0DFF
:10505000FFFFFF0DFFFFFF0DFFFFFF0DFFFFFF0D28
:10506000FFFFFF0DFFFFFF0DFFFFFF0DFFFFFF0D18
:10507000FFFFFF0DFFFFFF0DFFFFFF0DFFFFFF0D08
:10508000FFFFFF0DFFFFFF0DFFFFFF0DFFFFFF0DF8
:10509000FFFFFF0DFFFFFF0DFFFFFF0DFFFFFF0DE8
:1050A000FFFFFF0DFFFFFF0DFFFFFF0DFFFFFF0DD8
:1050B000FFFFFF0DFFFFFF0DFFFFFF0DFFFFFF0DC8
:1050C000FFFFFF0DFFFFFF0DFFFFFF0DFFFFFF0DB8
:1050D000FFFFFF0DFFFFFF0DFFFFFF0DFFFFFF0DA8
:1050E000FFFFFF0DFFFFFF0DFFFFFF0DFFFFFF0D98
:1050F000FFFFFF0DFFFFFF0DFFFFFF0DFFFFFF0D88
:10510000FFFFFF0DFFFFFF0DFFFFFF0DFFFFFF0D77
:10511000FFFFFF0DFFFFFF0DFFFFFF0DFFFFFF0D67
:10512000FFFFFF0DFFFFFF0DFFFFFF0DFFFFFF0D57
:10513000FFFFFF0DFFFFFF0DFFFFFF0DFFFFFF0D47
:10514000FFFFFF0DFFFFFF0DFFFFFF0DFFFFFF0D37
:10515000FFFFFF0DFFFFFF0DFFFFFF0DFFFFFF0D27
:10516000FFFFFF0DFFFFFF0DFFFFFF0DFFFFFF0D17
:10517000FFFFFF0DFFFFFF0DFFFFFF0DFFFFFF0D07
:10518000FFFFFF0DFFFFFF0DFFFFFF0DFFFFFF0DF7
:10519000FFFFFF0DFFFFFF0DFFFFFF0DFFFFFF0DE7
:1051A000FFFFFF0DFFFFFF0DFFFFFF0DFFFFFF0DD7
:1051B000FFFFFF0DFFFFFF0DFFFFFF0DFFFFFF0DC7
:1051C000FFFFFF0DFFFFFF0DFFFFFF0DFFFFFF0DB7
:1051D000FFFFFF0DFFFFFF0DFFFFFF0DFFFFFF0DA7
:1051E000FFFFFF0DFFFFFF0DFFFFFF0DFFFFFF0D97
:1051F000FFFFFF0DFFFFFF0DFFFFFF0DFFFFFF0D87
:10520000FFFFFF0DFFFFFF0DFFFFFF0DFFFFFF0D76
:10521000FFFFFF0DFFFFFF0DFFFFFF0D63B9760DD1
:105220000A91280D2BA0450D2BA0450D2BA0450D57
:105230002BA0450D2BA0450D2BA0450D2BA0450DFA
:105240002BA0450D2BA0450D2BA0450D2BA0450DEA
:105250002BA0450D2BA0450D2BA0450D2BA0450DDA
:105260002BA0450D2BA0450D2BA0450D2BA0450DCA
:105720002BA0450D2BA0450D2BA0450DFFFFFF0D18
:10573000FFFFFF0DFFFFFF0DFFFFFF0DFFFFFF0D41
:10574000FFFFFF0DFFFFFF0DFFFFFF0DFFFFFF0D31
:10575000FFFFFF0DFFFFFF0DFFFFFF0DFFFFFF0D21
:10576000FFFFFF0DFFFFFF0DFFFFFF0DFFFFFF0D11
:10577000FFFFFF0DFFFFFF0DFFFFFF0DFFFFFF0D01
:10578000FFFFFF0DFFFFFF0DFFFFFF0DFFFFFF0DF1
:10579000FFFFFF0DFFFFFF0DFFFFFF0DFFFFFF0DE1
:1057A000FFFFFF0DFFFFFF0DFFFFFF0DFFFFFF0DD1
:1057B000FFFFFF0DFFFFFF0DFFFFFF0DFFFFFF0DC1
:1057C000FFFFFF0DFFFFFF0DFFFFFF0DFFFFFF0DB1
:1057D000FFFFFF0DFFFFFF0DFFFFFF0DFFFFFF0DA1
:1057E000FFFFFF0DFFFFFF0DFFFFFF0DFFFFFF0D91
:1057F000FFFFFF0DFFFFFF0DFFFFFF0DFFFFFF0D81
:10580000FFFFFF0DFFFFFF0DFFFFFF0DFFFFFF0D70
:10581000FFFFFF0DFFFFFF0DFFFFFF0DFFFFFF0D60
:10582000FFFFFF0DFFFFFF0DFFFFFF0DFFFFFF0D50
:10583000FFFFFF0DFFFFFF0DFFFFFF0DFFFFFF0D40
:10584000FFFFFF0DFFFFFF0DFFFFFF0DFFFFFF0D30
:10585000FFFFFF0DFFFFFF0DFFFFFF0D63B9760D8B
:105860000A91280D2BA0450D2BA0450D2BA0450D11
:105870002BA0450D2BA0450D2BA0450D2BA0450DB4
:105880002BA0450D2BA0450D2BA0450D2BA0450DA4
:105890002BA0450D2BA0450D2BA0450D2BA0450D94
:1058A0002BA0450D2BA0450D2BA0450D2BA0450D84
:105D60002BA0450D2BA0450D2BA0450DFFFFFF0DD2
:105D7000FFFFFF0DFFFFFF0DFFFFFF0DFFFFFF0DFB
:105D8000FFFFFF0DFFFFFF0DFFFFFF0DFFFFFF0DEB
:105D9000FFFFFF0DFFFFFF0DFFFFFF0DFFFFFF0DDB
:105DA000FFFFFF0DFFFFFF0DFFFFFF0DFFFFFF0DCB
:105DB000FFFFFF0DFFFFFF0DFFFFFF0DFFFFFF0DBB
:105DC000FFFFFF0DFFFFFF0DFFFFFF0DFFFFFF0DAB
:105DD000FFFFFF0DFFFFFF0DFFFFFF0DFFFFFF0D9B
:105DE000FFFFFF0DFFFFFF0DFFFFFF0DFFFFFF0D8B
:105DF000FFFFFF0DFFFFFF0DFFFFFF0DFFFFFF0D7B
:105E0000FFFFFF0DFFFFFF0DFFFFFF0DFFFFFF0D6A
:105E1000FFFFFF0DFFFFFF0DFFFFFF0DFFFFFF0D5A
:105E2000FFFFFF0DFFFFFF0DFFFFFF0DFFFFFF0D4A
:105E3000FFFFFF0DFFFFFF0DFFFFFF0DFFFFFF0D3A
:105E4000FFFFFF0DFFFFFF0DFFFFFF0DFFFFFF0D2A
:105E5000FFFFFF0DFFFFFF0DFFFFFF0DFFFFFF0D1A
:105E6000FFFFFF0DFFFFFF0DFFFFFF0DFFFFFF0D0A
:105E7000FFFFFF0DFFFFFF0DFFFFFF0DFFFFFF0DFA
:105E8000FFFFFF0DFFFFFF0DFFFFFF0DFFFFFF0DEA
:105E9000FFFFFF0DFFFFFF0DFFFFFF0DFFFFFF0DDA
:105EA000FFFFFF0DFFFFFF0DFFFFFF0DFFFFFF0DCA
:105EB000FFFFFF0DFFFFFF0DFFFFFF0DFFFFFF0DBA
:105EC000FFFFFF0DFFFFFF0DFFFFFF0DFFFFFF0DAA
:105ED000FFFFFF0DFFFFFF0DFFFFFF0DFFFFFF0D9A
:105EE000FFFFFF0DFFFFFF0DFFFFFF0DFFFFFF0D8A
:105EF000FFFFFF0DFFFFFF0DFFFFFF0DFFFFFF0D7A
:105F0000FFFFFF0DFFFFFF0DFFFFFF0DFFFFFF0D69
:105F1000FFFFFF0DFFFFFF0DFFFFFF0DFFFFFF0D59
:105F2000FFFFFF0DFFFFFF0DFFFFFF0DFFFFFF0D49
:105F3000FFFFFF0DFFFFFF0DFFFFFF0D63B9760DA4
:105F40000A91280D2BA0450D2BA0450D2BA0450D2A
:105F50002BA0450D2BA0450D2BA0450D2BA0450DCD
:105F60002BA0450D2BA0450D2BA0450D2BA0450DBD
:105F70002BA0450D2BA0450D2BA0450D2BA0450DAD
:105F80002BA0450D2BA0450D2BA0450D2BA0450D9D
:106440002BA0450D2BA0450D2BA0450DFFFFFF0DEB
:10645000FFFFFF0DFFFFFF0DFFFFFF0DFFFFFF0D14
:10646000FFFFFF0DFFFFFF0DFFFFFF0DFFFFFF0D04
:10647000FFFFFF0DFFFFFF0DFFFFFF0DFFFFFF0DF4
:10648000FFFFFF0DFFFFFF0DFFFFFF0DFFFFFF0DE4
:10649000FFFFFF0DFFFFFF0DFFFFFF0DFFFFFF0DD4
:1064A000FFFFFF0DFFFFFF0DFFFFFF0DFFFFFF0DC4
:1064B000FFFFFF0DFFFFFF0DFFFFFF0DFFFFFF0DB4
:1064C000FFFFFF0DFFFFFF0DFFFFFF0DFFFFFF0DA4
:1064D000FFFFFF0DFFFFFF0DFFFFFF0DFFFFFF0D94
:1064E000FFFFFF0DFFFFFF0DFFFFFF0DFFFFFF0D84
:1064F000FFFFFF0DFFFFFF0DFFFFFF0DFFFFFF0D74
:10650000FFFFFF0DFFFFFF0DFFFFFF0DFFFFFF0D63
:10651000FFFFFF0DFFFFFF0DFFFFFF0DFFFFFF0D53
:10652000FFFFFF0DFFFFFF0DFFFFFF0DFFFFFF0D43
:10653000FFFFFF0DFFFFFF0DFFFFFF0DFFFFFF0D33
:10654000FFFFFF0DFFFFFF0DFFFFFF0DFFFFFF0D23
:10655000FFFFFF0DFFFFFF0DFFFFFF0DFFFFFF0D13
:10656000FFFFFF0DFFFFFF0DFFFFFF0DFFFFFF0D03
:10657000FFFFFF0DFFFFFF0DFFFFFF0DFFFFFF0DF3
:10658000FFFFFF0DFFFFFF0DFFFFFF0DFFFFFF0DE3
:10659000FFFFFF0DFFFFFF0DFFFFFF0DFFFFFF0DD3
:1065A000FFFFFF0DFFFFFF0DFFFFFF0DFFFFFF0DC3
:1065B000FFFFFF0DFFFFFF0DFFFFFF0DFFFFFF0DB3
:1065C000FFFFFF0DFFFFFF0DFFFFFF0D63B9760D0E
:1065D0000A91280D2BA0450D2BA0450D2BA0450D94
:1065E0002BA0450D2BA0450D2BA0450D2BA0450D37
:1065F0002BA0450D2BA0450D2BA0450D2BA0450D27
:106600002BA0450D2BA0450D2BA0450D2BA0450D16
:106610002BA0450D2BA0450D2BA0450D2BA0450D06
:106AD0002BA0450D2BA0450D2BA0450DFFFFFF0D55
:106AE000FFFFFF0DFFFFFF0DFFFFFF0DFFFFFF0D7E
:106AF000FFFFFF0DFFFFFF0DFFFFFF0DFFFFFF0D6E
:106B0000FFFFFF0DFFFFFF0DFFFFFF0DFFFFFF0D5D
:106B1000FFFFFF0DFFFFFF0DFFFFFF0DFFFFFF0D4D
:106B2000FFFFFF0DFFFFFF0DFFFFFF0DFFFFFF0D3D
:106B3000FFFFFF0DFFFFFF0DFFFFFF0DFFFFFF0D2D
:106B4000FFFFFF0DFFFFFF0DFFFFFF0DFFFFFF0D1D
:106B5000FFFFFF0DFFFFFF0DFFFFFF0DFFFFFF0D0D
:106B6000FFFFFF0DFFFFFF0DFFFFFF0DFFFFFF0DFD
:106B7000FFFFFF0DFFFFFF0DFFFFFF0DFFFFFF0DED
:106B8000FFFFFF0DFFFFFF0DFFFFFF0DFFFFFF0DDD
:106B9000FFFFFF0DFFFFFF0DFFFFFF0DFFFFFF0DCD
:106BA000FFFFFF0DFFFFFF0DFFFFFF0DFFFFFF0DBD
:106BB000FFFFFF0DFFFFFF0DFFFFFF0DFFFFFF0DAD
:106BC000FFFFFF0DFFFFFF0DFFFFFF0DFFFFFF0D9D
:106BD000FFFFFF0DFFFFFF0DFFFFFF0DFFFFFF0D8D
:106BE000FFFFFF0DFFFFFF0DFFFFFF0DFFFFFF0D7D
:106BF000FFFFFF0DFFFFFF0DFFFFFF0DFFFFFF0D6D
:106C0000FFFFFF0DFFFFFF0DFFFFFF0DFFFFFF0D5C
:106C1000FFFFFF0DFFFFFF0DFFFFFF0DFFFFFF0D4C
:106C2000FFFFFF0DFFFFFF0DFFFFFF0DFFFFFF0D3C
:106C3000FFFFFF0DFFFFFF0DFFFFFF0DFFFFFF0D2C
:106C4000FFFFFF0DFFFFFF0DFFFFFF0DFFFFFF0D1C
:106C5000FFFFFF0DFFFFFF0DFFFFFF0DFFFFFF0D0C
:106C6000FFFFFF0DFFFFFF0DFFFFFF0DFFFFFF0DFC
:106C7000FFFFFF0DFFFFFF0DFFFFFF0DFFFFFF0DEC
:106C8000FFFFFF0DFFFFFF0DFFFFFF0DFFFFFF0DDC
:106C9000FFFFFF0DFFFFFF0DFFFFFF0DFFFFFF0DCC
:106CA000FFFFFF0DFFFFFF0DFFFFFF0D63B9760D27
:106CB0000A91280D2BA0450D2BA0450D2BA0450DAD
:106CC0002BA0450D2BA0450D2BA0450D2BA0450D50
:106CD0002BA0450D2BA0450D2BA0450D2BA0450D40
:106CE0002BA0450D2BA0450D2BA0450D2BA0450D30
:106CF0002BA0450D2BA0450D2BA0450D2BA0450D20
:1071B0002BA0450D2BA0450D2BA0450DFFFFFF0D6E
:1071C000FFFFFF0DFFFFFF0DFFFFFF0DFFFFFF0D97
:1071D000FFFFFF0DFFFFFF0DFFFFFF0DFFFFFF0D87
:1071E000FFFFFF0DFFFFFF0DFFFFFF0DFFFFFF0D77
:1071F000FFFFFF0DFFFFFF0DFFFFFF0DFFFFFF0D67
:10720000FFFFFF0DFFFFFF0DFFFFFF0DFFFFFF0D56
:10721000FFFFFF0DFFFFFF0DFFFFFF0DFFFFFF0D46
:10722000FFFFFF0DFFFFFF0DFFFFFF0DFFFFFF0D36
:10723000FFFFFF0DFFFFFF0DFFFFFF0DFFFFFF0D26
:10724000FFFFFF0DFFFFFF0DFFFFFF0DFFFFFF0D16
:10725000FFFFFF0DFFFFFF0DFFFFFF0DFFFFFF0D06
:10726000FFFFFF0DFFFFFF0DFFFFFF0DFFFFFF0DF6
:10727000FFFFFF0DFFFFFF0DFFFFFF0DFFFFFF0DE6
:10728000FFFFFF0DFFFFFF0DFFFFFF0DFFFFFF0DD6
:10729000FFFFFF0DFFFFFF0DFFFFFF0DFFFFFF0DC6
:1072A000FFFFFF0DFFFFFF0DFFFFFF0DFFFFFF0DB6
:1072B000FFFFFF0DFFFFFF0DFFFFFF0DFFFFFF0DA6
:1072C000FFFFFF0DFFFFFF0DFFFFFF0DFFFFFF0D96
:1072D000FFFFFF0DFFFFFF0DFFFFFF0DFFFFFF0D86
:1072E000FFFFFF0DFFFFFF0DFFFFFF0D63B9760DE1
:1072F0000A91280D2BA0450D2BA0450D2BA0450D67
:107300002BA0450D2BA0450D2BA0450D2BA0450D09
:107310002BA0450D2BA0450D2BA0450D2BA0450DF9
:107320002BA0450D2BA0450D2BA0450D2BA0450DE9
:107330002BA0450D2BA0450D2BA0450D2BA0450DD9
:1077F0002BA0450D2BA0450D2BA0450DFFFFFF0D28
:10780000FFFFFF0DFFFFFF0DFFFFFF0DFFFFFF0D50
:10781000FFFFFF0DFFFFFF0DFFFFFF0DFFFFFF0D40
:10782000FFFFFF0DFFFFFF0DFFFFFF0DFFFFFF0D30
:10783000FFFFFF0DFFFFFF0DFFFFFF0DFFFFFF0D20
:10784000FFFFFF0DFFFFFF0DFFFFFF0DFFFFFF0D10
:10785000FFFFFF0DFFFFFF0DFFFFFF0DFFFFFF0D00
:10786000FFFFFF0DFFFFFF0DFFFFFF0DFFFFFF0DF0
:10787000FFFFFF0DFFFFFF0DFFFFFF0DFFFFFF0DE0
:10788000FFFFFF0DFFFFFF0DFFFFFF0DFFFFFF0DD0
:10789000FFFFFF0DFFFFFF0DFFFFFF0DFFFFFF0DC0
:1078A000FFFFFF0DFFFFFF0DFFFFFF0DFFFFFF0DB0
:1078B000FFFFFF0DFFFFFF0DFFFFFF0DFFFFFF0DA0
:1078C000FFFFFF0DFFFFFF0DFFFFFF0DFFFFFF0D90
:1078D000FFFFFF0DFFFFFF0DFFFFFF0DFFFFFF0D80
:1078E000FFFFFF0DFFFFFF0DFFFFFF0DFFFFFF0D70
:1078F000FFFFFF0DFFFFFF0DFFFFFF0DFFFFFF0D60
:10790000FFFFFF0DFFFFFF0DFFFFFF0DFFFFFF0D4F
:10791000FFFFFF0DFFFFFF0DFFFFFF0DFFFFFF0D3F
:10792000FFFFFF0DFFFFFF0DFFFFFF0DFFFFFF0D2F
:10793000FFFFFF0DFFFFFF0DFFFFFF0DFFFFFF0D1F
:10794000FFFFFF0DFFFFFF0DFFFFFF0DFFFFFF0D0F
:10795000FFFFFF0DFFFFFF0DFFFFFF0DFFFFFF0DFF
:10796000FFFFFF0DFFFFFF0DFFFFFF0DFFFFFF0DEF
:10797000FFFFFF0DFFFFFF0DFFFFFF0DFFFFFF0DDF
:10798000FFFFFF0DFFFFFF0DFFFFFF0DFFFFFF0DCF
:10799000FFFFFF0DFFFFFF0DFFFFFF0DFFFFFF0DBF
:1079A000FFFFFF0DFFFFFF0DFFFFFF0DFFFFFF0DAF
:1079B000FFFFFF0DFFFFFF0DFFFFFF0DFFFFFF0D9F
:1079C000FFFFFF0DFFFFFF0DFFFFFF0D63B9760DFA
:1079D0000A91280D2BA0450D2BA0450D2BA0450D80
:1079E0002BA0450D2BA0450D2BA0450D2BA0450D23
:1079F0002BA0450D2BA0450D2BA0450D2BA0450D13
:107A00002BA0450D2BA0450D2BA0450D2BA0450D02
:107A10002BA0450D2BA0450D2BA0450D2BA0450DF2
:107ED0002BA0450D2BA0450D2BA0450DFFFFFF0D41
:107EE000FFFFFF0DFFFFFF0DFFFFFF0DFFFFFF0D6A
:107EF000FFFFFF0DFFFFFF0DFFFFFF0DFFFFFF0D5A
:107F0000FFFFFF0DFFFFFF0DFFFFFF0DFFFFFF0D49
:107F1000FFFFFF0DFFFFFF0DFFFFFF0DFFFFFF0D39
:107F2000FFFFFF0DFFFFFF0DFFFFFF0DFFFFFF0D29
:107F3000FFFFFF0DFFFFFF0DFFFFFF0DFFFFFF0D19
:107F4000FFFFFF0DFFFFFF0DFFFFFF0DFFFFFF0D09
:107F5000FFFFFF0DFFFFFF0DFFFFFF0DFFFFFF0DF9
:107F6000FFFFFF0DFFFFFF0DFFFFFF0DFFFFFF0DE9
:107F7000FFFFFF0DFFFFFF0DFFFFFF0DFFFFFF0DD9
:107F8000FFFFFF0DFFFFFF0DFFFFFF0DFFFFFF0DC9
:107F9000FFFFFF0DFFFFFF0DFFFFFF0DFFFFFF0DB9
:107FA000FFFFFF0DFFFFFF0DFFFFFF0DFFFFFF0DA9
:107FB000FFFFFF0DFFFFFF0DFFFFFF0DFFFFFF0D99
:107FC000FFFFFF0DFFFFFF0DFFFFFF0DFFFFFF0D89
:107FD000FFFFFF0DFFFFFF0DFFFFFF0DFFFFFF0D79
:107FE000FFFFFF0DFFFFFF0DFFFFFF0DFFFFFF0D69
:107FF000FFFFFF0DFFFFFF0DFFFFFF0DFFFFFF0D59
:10800000FFFFFF0DFFFFFF0DFFFFFF0DFFFFFF0D48
:10801000FFFFFF0DFFFFFF0DFFFFFF0DFFFFFF0D38
:10802000FFFFFF0DFFFFFF0DFFFFFF0DFFFFFF0D28
:10803000FFFFFF0DFFFFFF0DFFFFFF0DFFFFFF0D18
:10804000FFFFFF0DFFFFFF0DFFFFFF0DFFFFFF0D08
:10805000FFFFFF0DFFFFFF0DFFFFFF0D63B9760D63
:108060000A91280D2BA0450D2BA0450D2BA0450DE9
:108070002BA0450D2BA0450D2BA0450D2BA0450D8C
:108080002BA0450D2BA0450D2BA0450D2BA0450D7C
:108090002BA0450D2BA0450D2BA0450D2BA0450D6C
:1080A0002BA0450D2BA0450D2BA0450D2BA0450D5C
:108560002BA0450D2BA0450D2BA0450DFFFFFF0DAA
:10857000FFFFFF0DFFFFFF0DFFFFFF0DFFFFFF0DD3
:10858000FFFFFF0DFFFFFF0DFFFFFF0DFFFFFF0DC3
:10859000FFFFFF0DFFFFFF0DFFFFFF0DFFFFFF0DB3
:1085A000FFFFFF0DFFFFFF0DFFFFFF0DFFFFFF0DA3
:1085B000FFFFFF0DFFFFFF0DFFFFFF0DFFFFFF0D93
:1085C000FFFFFF0DFFFFFF0DFFFFFF0DFFFFFF0D83
:1085D000FFFFFF0DFFFFFF0DFFFFFF0DFFFFFF0D73
:1085E000FFFFFF0DFFFFFF0DFFFFFF0DFFFFFF0D63
:1085F000FFFFFF0DFFFFFF0DFFFFFF0DFFFFFF0D53
:10860000FFFFFF0DFFFFFF0DFFFFFF0DFFFFFF0D42
:10861000FFFFFF0DFFFFFF0DFFFFFF0DFFFFFF0D32
:10862000FFFFFF0DFFFFFF0DFFFFFF0DFFFFFF0D22
:10863000FFFFFF0DFFFFFF0DFFFFFF0DFFFFFF0D12
:10864000FFFFFF0DFFFFFF0DFFFFFF0DFFFFFF0D02
:10865000FFFFFF0DFFFFFF0DFFFFFF0DFFFFFF0DF2
:10866000FFFFFF0DFFFFFF0DFFFFFF0DFFFFFF0DE2
:10867000FFFFFF0DFFFFFF0DFFFFFF0DFFFFFF0DD2
:10868000FFFFFF0DFFFFFF0DFFFFFF0DFFFFFF0DC2
:10869000FFFFFF0DFFFFFF0DFFFFFF0DFFFFFF0DB2
:1086A000FFFFFF0DFFFFFF0DFFFFFF0DFFFFFF0DA2
:1086B000FFFFFF0DFFFFFF0DFFFFFF0DFFFFFF0D92
:1086C000FFFFFF0DFFFFFF0DFFFFFF0DFFFFFF0D82
:1086D000FFFFFF0DFFFFFF0DFFFFFF0DFFFFFF0D72
:1086E000FFFFFF0DFFFFFF0DFFFFFF0DFFFFFF0D62
:1086F000FFFFFF0DFFFFFF0DFFFFFF0DFFFFFF0D52
:10870000FFFFFF0DFFFFFF0DFFFFFF0DFFFFFF0D41
:10871000FFFFFF0DFFFFFF0DFFFFFF0DFFFFFF0D31
:10872000FFFFFF0DFFFFFF0DFFFFFF0DFFFFFF0D21
:10873000FFFFFF0DFFFFFF0DFFFFFF0D63B9760D7C
:108740000A91280D2BA0450D2BA0450D2BA0450D02
:108750002BA0450D2BA0450D2BA0450D2BA0450DA5
:108760002BA0450D2BA0450D2BA0450D2BA0450D95
:108770002BA0450D2BA0450D2BA0450D2BA0450D85
:108780002BA0450D2BA0450D2BA0450D2BA0450D75
:108C40002BA0450D2BA0450D2BA0450DFFFFFF0DC3
:108C5000FFFFFF0DFFFFFF0DFFFFFF0DFFFFFF0DEC
:108C6000FFFFFF0DFFFFFF0DFFFFFF0DFFFFFF0DDC
:108C7000FFFFFF0DFFFFFF0DFFFFFF0DFFFFFF0DCC
:108C8000FFFFFF0DFFFFFF0DFFFFFF0DFFFFFF0DBC
:108C9000FFFFFF0DFFFFFF0DFFFFFF0DFFFFFF0DAC
:108CA000FFFFFF0DFFFFFF0DFFFFFF0DFFFFFF0D9C
:108CB000FFFFFF0DFFFFFF0DFFFFFF0DFFFFFF0D8C
:108CC000FFFFFF0DFFFFFF0DFFFFFF0DFFFFFF0D7C
:108CD000FFFFFF0DFFFFFF0DFFFFFF0DFFFFFF0D6C
:108CE000FFFFFF0DFFFFFF0DFFFFFF0DFFFFFF0D5C
:108CF000FFFFFF0DFFFFFF0DFFFFFF0DFFFFFF0D4C
:108D0000FFFFFF0DFFFFFF0DFFFFFF0DFFFFFF0D3B
:108D1000FFFFFF0DFFFFFF0DFFFFFF0DFFFFFF0D2B
:108D2000FFFFFF0DFFFFFF0DFFFFFF0DFFFFFF0D1B
:108D3000FFFFFF0DFFFFFF0DFFFFFF0DFFFFFF0D0B
:108D4000FFFFFF0DFFFFFF0DFFFFFF0DFFFFFF0DFB
:108D5000FFFFFF0DFFFFFF0DFFFFFF0DFFFFFF0DEB
:108D6000FFFFFF0DFFFFFF0DFFFFFF0DFFFFFF0DDB
:108D7000FFFFFF0DFFFFFF0DFFFFFF0D63B9760D36
:108D80000A91280D2BA0450D2BA0450D2BA0450DBC
:108D90002BA0450D2BA0450D2BA0450D2BA0450D5F
:108DA0002BA0450D2BA0450D2BA0450D2BA0450D4F
:108DB0002BA0450D2BA0450D2BA0450D2BA0450D3F
:108DC0002BA0450D2BA0450D2BA0450D2BA0450D2F
:109280002BA0450D2BA0450D2BA0450DFFFFFF0D7D
:10929000FFFFFF0DFFFFFF0DFFFFFF0DFFFFFF0DA6
:1092A000FFFFFF0DFFFFFF0DFFFFFF0DFFFFFF0D96
:1092B000FFFFFF0DFFFFFF0DFFFFFF0DFFFFFF0D86
:1092C000FFFFFF0DFFFFFF0DFFFFFF0DFFFFFF0D76
:1092D000FFFFFF0DFFFFFF0DFFFFFF0DFFFFFF0D66
:1092E000FFFFFF0DFFFFFF0DFFFFFF0DFFFFFF0D56
:1092F000FFFFFF0DFFFFFF0DFFFFFF0DFFFFFF0D46
:10930000FFFFFF0DFFFFFF0DFFFFFF0DFFFFFF0D35
:10931000FFFFFF0DFFFFFF0DFFFFFF0DFFFFFF0D25
:10932000FFFFFF0DFFFFFF0DFFFFFF0DFFFFFF0D15
:10933000FFFFFF0DFFFFFF0DFFFFFF0DFFFFFF0D05
:10934000FFFFFF0DFFFFFF0DFFFFFF0DFFFFFF0DF5
:10935000FFFFFF0DFFFFFF0DFFFFFF0DFFFFFF0DE5
:10936000FFFFFF0DFFFFFF0DFFFFFF0DFFFFFF0DD5
:10937000FFFFFF0DFFFFFF0DFFFFFF0DFFFFFF0DC5
:10938000FFFFFF0DFFFFFF0DFFFFFF0DFFFFFF0DB5
:10939000FFFFFF0DFFFFFF0DFFFFFF0DFFFFFF0DA5
:1093A000FFFFFF0DFFFFFF0DFFFFFF0DFFFFFF0D95
:1093B000FFFFFF0DFFFFFF0DFFFFFF0DFFFFFF0D85
:1093C000FFFFFF0DFFFFFF0DFFFFFF0DFFFFFF0D75
:1093D000FFFFFF0DFFFFFF0DFFFFFF0DFFFFFF0D65
:1093E000FFFFFF0DFFFFFF0DFFFFFF0DFFFFFF0D55
:1093F000FFFFFF0DFFFFFF0DFFFFFF0DFFFFFF0D45
:10940000FFFFFF0DFFFFFF0DFFFFFF0DFFFFFF0D34
:10941000FFFFFF0DFFFFFF0DFFFFFF0DFFFFFF0D24
:10942000FFFFFF0DFFFFFF0DFFFFFF0DFFFFFF0D14
:10943000FFFFFF0DFFFFFF0DFFFFFF0DFFFFFF0D04
:10944000FFFFFF0DFFFFFF0DFFFFFF0DFFFFFF0DF4
:10945000FFFFFF0DFFFFFF0DFFFFFF0D63B9760D4F
:109460000A91280D2BA0450D2BA0450D2BA0450DD5
:109470002BA0450D2BA0450D2BA0450D2BA0450D78
:109480002BA0450D2BA0450D2BA0450D2BA0450D68
:109490002BA0450D2BA0450D2BA0450D2BA0450D58
:1094A0002BA0450D2BA0450D2BA0450D2BA0450D48
:109960002BA0450D2BA0450D2BA0450DFFFFFF0D96
:10997000FFFFFF0DFFFFFF0DFFFFFF0DFFFFFF0DBF
:10998000FFFFFF0DFFFFFF0DFFFFFF0DFFFFFF0DAF
:10999000FFFFFF0DFFFFFF0DFFFFFF0DFFFFFF0D9F
:1099A000FFFFFF0DFFFFFF0DFFFFFF0DFFFFFF0D8F
:1099B000FFFFFF0DFFFFFF0DFFFFFF0DFFFFFF0D7F
:1099C000FFFFFF0DFFFFFF0DFFFFFF0DFFFFFF0D6F
:1099D000FFFFFF0DFFFFFF0DFFFFFF0DFFFFFF0D5F
:1099E000FFFFFF0DFFFFFF0DFFFFFF0DFFFFFF0D4F
:1099F000FFFFFF0DFFFFFF0DFFFFFF0DFFFFFF0D3F
:109A0000FFFFFF0DFFFFFF0DFFFFFF0DFFFFFF0D2E
:109A1000FFFFFF0DFFFFFF0DFFFFFF0DFFFFFF0D1E
:109A2000FFFFFF0DFFFFFF0DFFFFFF0DFFFFFF0D0E
:109A3000FFFFFF0DFFFFFF0DFFFFFF0DFFFFFF0DFE
:109A4000FFFFFF0DFFFFFF0DFFFFFF0DFFFFFF0DEE
:109A5000FFFFFF0DFFFFFF0DFFFFFF0DFFFFFF0DDE
:109A6000FFFFFF0DFFFFFF0DFFFFFF0DFFFFFF0DCE
:109A7000FFFFFF0DFFFFFF0DFFFFFF0DFFFFFF0DBE
:109A8000FFFFFF0DFFFFFF0DFFFFFF0DFFFFFF0DAE
:109A9000FFFFFF0DFFFFFF0DFFFFFF0DFFFFFF0D9E
:109AA000FFFFFF0DFFFFFF0DFFFFFF0DFFFFFF0D8E
:109AB000FFFFFF0DFFFFFF0DFFFFFF0DFFFFFF0D7E
:109AC000FFFFFF0DFFFFFF0DFFFFFF0DFFFFFF0D6E
:109AD000FFFFFF0DFFFFFF0DFFFFFF0DFFFFFF0D5E
:109AE000FFFFFF0DFFFFFF0DFFFFFF0D63B9760DB9
:109AF0000A91280D2BA0450D2BA0450D2BA0450D3F
:109B00002BA0450D2BA0450D2BA0450D2BA0450DE1
:109B10002BA0450D2BA0450D2BA0450D2BA0450DD1
:109B20002BA0450D2BA0450D2BA0450D2BA0450DC1
:109B30002BA0450D2BA0450D2BA0450D2BA0450DB1
:109FF0002BA0450D2BA0450D2BA0450DFFFFFF0D00
:10A00000FFFFFF0DFFFFFF0DFFFFFF0DFFFFFF0D28
:10A01000FFFFFF0DFFFFFF0DFFFFFF0DFFFFFF0D18
:10A02000FFFFFF0DFFFFFF0DFFFFFF0DFFFFFF0D08
:10A03000FFFFFF0DFFFFFF0DFFFFFF0DFFFFFF0DF8
:10A04000FFFFFF0DFFFFFF0DFFFFFF0DFFFFFF0DE8
:10A05000FFFFFF0DFFFFFF0DFFFFFF0DFFFFFF0DD8
:10A06000FFFFFF0DFFFFFF0DFFFFFF0DFFFFFF0DC8
:10A07000FFFFFF0DFFFFFF0DFFFFFF0DFFFFFF0DB8
:10A08000FFFFFF0DFFFFFF0DFFFFFF0DFFFFFF0DA8
:10A09000FFFFFF0DFFFFFF0DFFFFFF0DFFFFFF0D98
:10A0A000FFFFFF0DFFFFFF0DFFFFFF0DFFFFFF0D88
:10A0B000FFFFFF0DFFFFFF0DFFFFFF0DFFFFFF0D78
:10A0C000FFFFFF0DFFFFFF0DFFFFFF0DFFFFFF0D68
:10A0D000FFFFFF0DFFFFFF0DFFFFFF0DFFFFFF0D58
:10A0E000FFFFFF0DFFFFFF0DFFFFFF0DFFFFFF0D48
:10A0F000FFFFFF0DFFFFFF0DFFFFFF0DFFFFFF0D38
:10A10000FFFFFF0DFFFFFF0DFFFFFF0DFFFFFF0D27
:10A11000FFFFFF0DFFFFFF0DFFFFFF0DFFFFFF0D17
:10A12000FFFFFF0DFFFFFF0DFFFFFF0DFFFFFF0D07
:10A13000FFFFFF0DFFFFFF0DFFFFFF0DFFFFFF0DF7
:10A14000FFFFFF0DFFFFFF0DFFFFFF0DFFFFFF0DE7
:10A15000FFFFFF0DFFFFFF0DFFFFFF0DFFFFFF0DD7
:10A16000FFFFFF0DFFFFFF0DFFFFFF0DFFFFFF0DC7
:10A17000FFFFFF0DFFFFFF0DFFFFFF0DFFFFFF0DB7
:10A18000FFFFFF0DFFFFFF0DFFFFFF0DFFFFFF0DA7
:10A19000FFFFFF0DFFFFFF0DFFFFFF0DFFFFFF0D97
:10A1A000FFFFFF0DFFFFFF0DFFFFFF0DFFFFFF0D87
:10A1B000FFFFFF0DFFFFFF0DFFFFFF0DFFFFFF0D77
:10A1C000FFFFFF0DFFFFFF0DFFFFFF0D63B9760DD2
:10A1D0000A91280D2BA0450D2BA0450D2BA0450D58
:10A1E0002BA0450D2BA0450D2BA0450D2BA0450DFB
:10A1F0002BA0450D2BA0450D2BA0450D2BA0450DEB
:10A200002BA0450D2BA0450D2BA0450D2BA0450DDA
:10A210002BA0450D2BA0450D2BA0450D2BA0450DCA
:10A6D0002BA0450D2BA0450D2BA0450DFFFFFF0D19
:10A6E000FFFFFF0DFFFFFF0DFFFFFF0DFFFFFF0D42
:10A6F000FFFFFF0DFFFFFF0DFFFFFF0DFFFFFF0D32
:10A70000FFFFFF0DFFFFFF0DFFFFFF0DFFFFFF0D21
:10A71000FFFFFF0DFFFFFF0DFFFFFF0DFFFFFF0D11
:10A72000FFFFFF0DFFFFFF0DFFFFFF0DFFFFFF0D01
:10A73000FFFFFF0DFFFFFF0DFFFFFF0DFFFFFF0DF1
:10A74000FFFFFF0DFFFFFF0DFFFFFF0DFFFFFF0DE1
:10A75000FFFFFF0DFFFFFF0DFFFFFF0DFFFFFF0DD1
:10A76000FFFFFF0DFFFFFF0DFFFFFF0DFFFFFF0DC1
:10A77000FFFFFF0DFFFFFF0DFFFFFF0DFFFFFF0DB1
:10A78000FFFFFF0DFFFFFF0DFFFFFF0DFFFFFF0DA1
:10A79000FFFFFF0DFFFFFF0DFFFFFF0DFFFFFF0D91
:10A7A000FFFFFF0DFFFFFF0DFFFFFF0DFFFFFF0D81
:10A7B000FFFFFF0DFFFFFF0DFFFFFF0DFFFFFF0D71
:10A7C000FFFFFF0DFFFFFF0DFFFFFF0DFFFFFF0D61
:10A7D000FFFFFF0DFFFFFF0DFFFFFF0DFFFFFF0D51
:10A7E000FFFFFF0DFFFFFF0DFFFFFF0DFFFFFF0D41
:10A7F000FFFFFF0DFFFFFF0DFFFFFF0DFFFFFF0D31
:10A80000FFFFFF0DFFFFFF0DFFFFFF0D63B9760D8B
:10A810000A91280D2BA0450D2BA0450D2BA0450D11
:10A820002BA0450D2BA0450D2BA0450D2BA0450DB4
:10A830002BA0450D2BA0450D2BA0450D2BA0450DA4
:10A840002BA0450D2BA0450D2BA0450D2BA0450D94
:10A850002BA0450D2BA0450D2BA0450D2BA0450D84
:10AD10002BA0450D2BA0450D2BA0450DFFFFFF0DD2
:10AD2000FFFFFF0DFFFFFF0DFFFFFF0DFFFFFF0DFB
:10AD3000FFFFFF0DFFFFFF0DFFFFFF0DFFFFFF0DEB
:10AD4000FFFFFF0DFFFFFF0DFFFFFF0DFFFFFF0DDB
:10AD5000FFFFFF0DFFFFFF0DFFFFFF0DFFFFFF0DCB
:10AD6000FFFFFF0DFFFFFF0DFFFFFF0DFFFFFF0DBB
:10AD7000FFFFFF0DFFFFFF0DFFFFFF0DFFFFFF0DAB
:10AD8000FFFFFF0DFFFFFF0DFFFFFF0DFFFFFF0D9B
:10AD9000FFFFFF0DFFFFFF0DFFFFFF0DFFFFFF0D8B
:10ADA000FFFFFF0DFFFFFF0DFFFFFF0DFFFFFF0D7B
:10ADB000FFFFFF0DFFFFFF0DFFFFFF0DFFFFFF0D6B
:10ADC000FFFFFF0DFFFFFF0DFFFFFF0DFFFFFF0D5B
:10ADD000FFFFFF0DFFFFFF0DFFFFFF0DFFFFFF0D4B
:10ADE000FFFFFF0DFFFFFF0DFFFFFF0DFFFFFF0D3B
:10ADF000FFFFFF0DFFFFFF0DFFFFFF0DFFFFFF0D2B
:10AE0000FFFFFF0DFFFFFF0DFFFFFF0DFFFFFF0D1A
:10AE1000FFFFFF0DFFFFFF0DFFFFFF0DFFFFFF0D0A
:10AE2000FFFFFF0DFFFFFF0DFFFFFF0DFFFFFF0DFA
:10AE3000FFFFFF0DFFFFFF0DFFFFFF0DFFFFFF0DEA
:10AE4000FFFFFF0DFFFFFF0DFFFFFF0DFFFFFF0DDA
:10AE5000FFFFFF0DFFFFFF0DFFFFFF0DFFFFFF0DCA
:10AE6000FFFFFF0DFFFFFF0DFFFFFF0DFFFFFF0DBA
:10AE7000FFFFFF0DFFFFFF0DFFFFFF0DFFFFFF0DAA
:10AE8000FFFFFF0DFFFFFF0DFFFFFF0DFFFFFF0D9A
:10AE9000FFFFFF0DFFFFFF0DFFFFFF0DFFFFFF0D8A
:10AEA000FFFFFF0DFFFFFF0DFFFFFF0DFFFFFF0D7A
:10AEB000FFFFFF0DFFFFFF0DFFFFFF0DFFFFFF0D6A
:10AEC000FFFFFF0DFFFFFF0DFFFFFF0DFFFFFF0D5A
:10AED000FFFFFF0DFFFFFF0DFFFFFF0DFFFFFF0D4A
:10AEE000FFFFFF0DFFFFFF0DFFFFFF0D63B9760DA5
:10AEF0000A91280D2BA0450D2BA0450D2BA0450D2B
:10AF00002BA0450D2BA0450D2BA0450D2BA0450DCD
:10AF10002BA0450D2BA0450D2BA0450D2BA0450DBD
:10AF20002BA0450D2BA0450D2BA0450D2BA0450DAD
:10AF30002BA0450D2BA0450D2BA0450D2BA0450D9D
:10B3F0002BA0450D2BA0450D2BA0450DFFFFFF0DEC
:10B40000FFFFFF0DFFFFFF0DFFFFFF0DFFFFFF0D14
:10B41000FFFFFF0DFFFFFF0DFFFFFF0DFFFFFF0D04
:10B42000FFFFFF0DFFFFFF0DFFFFFF0DFFFFFF0DF4
:10B43000FFFFFF0DFFFFFF0DFFFFFF0DFFFFFF0DE4
:10B44000FFFFFF0DFFFFFF0DFFFFFF0DFFFFFF0DD4
:10B45000FFFFFF0DFFFFFF0DFFFFFF0DFFFFFF0DC4
:10B46000FFFFFF0DFFFFFF0DFFFFFF0DFFFFFF0DB4
:10B47000FFFFFF0DFFFFFF0DFFFFFF0DFFFFFF0DA4
:10B48000FFFFFF0DFFFFFF0DFFFFFF0DFFFFFF0D94
:10B49000FFFFFF0DFFFFFF0DFFFFFF0DFFFFFF0D84
:10B4A000FFFFFF0DFFFFFF0DFFFFFF0DFFFFFF0D74
:10B4B000FFFFFF0DFFFFFF0DFFFFFF0DFFFFFF0D64
:10B4C000FFFFFF0DFFFFFF0DFFFFFF0DFFFFFF0D54
:10B4D000FFFFFF0DFFFFFF0DFFFFFF0DFFFFFF0D44
:10B4E000FFFFFF0DFFFFFF0DFFFFFF0DFFFFFF0D34
:10B4F000FFFFFF0DFFFFFF0DFFFFFF0DFFFFFF0D24
:10B50000FFFFFF0DFFFFFF0DFFFFFF0DFFFFFF0D13
:10B51000FFFFFF0DFFFFFF0DFFFFFF0DFFFFFF0D03
:10B52000FFFFFF0DFFFFFF0DFFFFFF0DFFFFFF0DF3
:10B53000FFFFFF0DFFFFFF0DFFFFFF0DFFFFFF0DE3
:10B54000FFFFFF0DFFFFFF0DFFFFFF0DFFFFFF0DD3
:10B55000FFFFFF0DFFFFFF0DFFFFFF0DFFFFFF0DC3
:10B56000FFFFFF0DFFFFFF0DFFFFFF0DFFFFFF0DB3
:10B57000FFFFFF0DFFFFFF0DFFFFFF0D63B9760D0E
:10B580000A91280D2BA0450D2BA0450D2BA0450D94
:10B590002BA0450D2BA0450D2BA0450D2BA0450D37
:10B5A0002BA0450D2BA0450D2BA0450D2BA0450D27
:10B5B0002BA0450D2BA0450D2BA0450D2BA0450D17
:10B5C0002BA0450D2BA0450D2BA0450D2BA0450D07
:10BA80002BA0450D2BA0450D2BA0450DFFFFFF0D55
:10BA9000FFFFFF0DFFFFFF0DFFFFFF0DFFFFFF0D7E
:10BAA000FFFFFF0DFFFFFF0DFFFFFF0DFFFFFF0D6E
:10BAB000FFFFFF0DFFFFFF0DFFFFFF0DFFFFFF0D5E
:10BAC000FFFFFF0DFFFFFF0DFFFFFF0DFFFFFF0D4E
:10BAD000FFFFFF0DFFFFFF0DFFFFFF0DFFFFFF0D3E
:10BAE000FFFFFF0DFFFFFF0DFFFFFF0DFFFFFF0D2E
:10BAF000FFFFFF0DFFFFFF0DFFFFFF0DFFFFFF0D1E
:10BB0000FFFFFF0DFFFFFF0DFFFFFF0DFFFFFF0D0D
:10BB1000FFFFFF0DFFFFFF0DFFFFFF0DFFFFFF0DFD
:10BB2000FFFFFF0DFFFFFF0DFFFFFF0DFFFFFF0DED
:10BB3000FFFFFF0DFFFFFF0DFFFFFF0DFFFFFF0DDD
:10BB4000FFFFFF0DFFFFFF0DFFFFFF0DFFFFFF0DCD
:10BB5000FFFFFF0DFFFFFF0DFFFFFF0DFFFFFF0DBD
:10BB6000FFFFFF0DFFFFFF0DFFFFFF0DFFFFFF0DAD
:10BB7000FFFFFF0DFFFFFF0DFFFFFF0DFFFFFF0D9D
:10BB8000FFFFFF0DFFFFFF0DFFFFFF0DFFFFFF0D8D
:10BB9000FFFFFF0DFFFFFF0DFFFFFF0DFFFFFF0D7D
:10BBA000FFFFFF0DFFFFFF0DFFFFFF0DFFFFFF0D6D
:10BBB000FFFFFF0DFFFFFF0DFFFFFF0DFFFFFF0D5D
:10BBC000FFFFFF0DFFFFFF0DFFFFFF0DFFFFFF0D4D
:10BBD000FFFFFF0DFFFFFF0DFFFFFF0DFFFFFF0D3D
:10BBE000FFFFFF0DFFFFFF0DFFFFFF0DFFFFFF0D2D
:10BBF000FFFFFF0DFFFFFF0DFFFFFF0DFFFFFF0D1D
:10BC0000FFFFFF0DFFFFFF0DFFFFFF0DFFFFFF0D0C
:10BC1000FFFFFF0DFFFFFF0DFFFFFF0DFFFFFF0DFC
:10BC2000FFFFFF0DFFFFFF0DFFFFFF0DFFFFFF0DEC
:10BC3000FFFFFF0DFFFFFF0DFFFFFF0DFFFFFF0DDC
:10BC4000FFFFFF0DFFFFFF0DFFFFFF0DFFFFFF0DCC
:10BC5000FFFFFF0DFFFFFF0DFFFFFF0D63B9760D27
:10BC60000A91280D2BA0450D2BA0450D2BA0450DAD
:10BC70002BA0450D2BA0450D2BA0450D2BA0450D50
:10BC80002BA0450D2BA0450D2BA0450D2BA0450D40
:10BC90002BA0450D2BA0450D2BA0450D2BA0450D30
:10BCA0002BA0450D2BA0450D2BA0450D2BA0450D20
:10C160002BA0450D2BA0450D2BA0450DFFFFFF0D6E
:10C17000FFFFFF0DFFFFFF0DFFFFFF0DFFFFFF0D97
:10C18000FFFFFF0DFFFFFF0DFFFFFF0DFFFFFF0D87
:10C19000FFFFFF0DFFFFFF0DFFFFFF0DFFFFFF0D77
:10C1A000FFFFFF0DFFFFFF0DFFFFFF0DFFFFFF0D67
:10C1B000FFFFFF0DFFFFFF0DFFFFFF0DFFFFFF0D57
:10C1C000FFFFFF0DFFFFFF0DFFFFFF0DFFFFFF0D47
:10C1D000FFFFFF0DFFFFFF0DFFFFFF0DFFFFFF0D37
:10C1E000FFFFFF0DFFFFFF0DFFFFFF0DFFFFFF0D27
:10C1F000FFFFFF0DFFFFFF0DFFFFFF0DFFFFFF0D17
:10C20000FFFFFF0DFFFFFF0DFFFFFF0DFFFFFF0D06
:10C21000FFFFFF0DFFFFFF0DFFFFFF0DFFFFFF0DF6
:10C22000FFFFFF0DFFFFFF0DFFFFFF0DFFFFFF0DE6
:10C23000FFFFFF0DFFFFFF0DFFFFFF0DFFFFFF0DD6
:10C24000FFFFFF0DFFFFFF0DFFFFFF0DFFFFFF0DC6
:10C25000FFFFFF0DFFFFFF0DFFFFFF0DFFFFFF0DB6
:10C26000FFFFFF0DFFFFFF0DFFFFFF0DFFFFFF0DA6
:10C27000FFFFFF0DFFFFFF0DFFFFFF0DFFFFFF0D96
:10C28000FFFFFF0DFFFFFF0DFFFFFF0DFFFFFF0D86
:10C29000FFFFFF0DFFFFFF0DFFFFFF0D63B9760DE1
:10C2A0000A91280D2BA0450D2BA0450D2BA0450D67
:10C2B0002BA0450D2BA0450D2BA0450D2BA0450D0A
:10C2C0002BA0450D2BA0450D2BA0450D2BA0450DFA
:10C2D0002BA0450D2BA0450D2BA0450D2BA0450DEA
:10C2E0002BA0450D2BA0450D2BA0450D2BA0450DDA
:10C7A0002BA0450D2BA0450D2BA0450DFFFFFF0D28
:10C7B000FFFFFF0DFFFFFF0DFFFFFF0DFFFFFF0D51
:10C7C000FFFFFF0DFFFFFF0DFFFFFF0DFFFFFF0D41
:10C7D000FFFFFF0DFFFFFF0DFFFFFF0DFFFFFF0D31
:10C7E000FFFFFF0DFFFFFF0DFFFFFF0DFFFFFF0D21
:10C7F000FFFFFF0DFFFFFF0DFFFFFF0DFFFFFF0D11
:10C80000FFFFFF0DFFFFFF0DFFFFFF0DFFFFFF0D00
:10C81000FFFFFF0DFFFFFF0DFFFFFF0DFFFFFF0DF0
:10C82000FFFFFF0DFFFFFF0DFFFFFF0DFFFFFF0DE0
:10C83000FFFFFF0DFFFFFF0DFFFFFF0DFFFFFF0DD0
:10C84000FFFFFF0DFFFFFF0DFFFFFF0DFFFFFF0DC0
:10C85000FFFFFF0DFFFFFF0DFFFFFF0DFFFFFF0DB0
:10C86000FFFFFF0DFFFFFF0DFFFFFF0DFFFFFF0DA0
:10C87000FFFFFF0DFFFFFF0DFFFFFF0DFFFFFF0D90
:10C88000FFFFFF0DFFFFFF0DFFFFFF0DFFFFFF0D80
:10C89000FFFFFF0DFFFFFF0DFFFFFF0DFFFFFF0D70
:10C8A000FFFFFF0DFFFFFF0DFFFFFF0DFFFFFF0D60
:10C8B000FFFFFF0DFFFFFF0DFFFFFF0DFFFFFF0D50
:10C8C000FFFFFF0DFFFFFF0DFFFFFF0DFFFFFF0D40
:10C8D000FFFFFF0DFFFFFF0DFFFFFF0DFFFFFF0D30
:10C8E000FFFFFF0DFFFFFF0DFFFFFF0DFFFFFF0D20
:10C8F000FFFFFF0DFFFFFF0DFFFFFF0DFFFFFF0D10
:10C90000FFFFFF0DFFFFFF0DFFFFFF0DFFFFFF0DFF
:10C91000FFFFFF0DFFFFFF0DFFFFFF0DFFFFFF0DEF
:10C92000FFFFFF0DFFFFFF0DFFFFFF0DFFFFFF0DDF
:10C93000FFFFFF0DFFFFFF0DFFFFFF0DFFFFFF0DCF
:10C94000FFFFFF0DFFFFFF0DFFFFFF0DFFFFFF0DBF
:10C95000FFFFFF0DFFFFFF0DFFFFFF0DFFFFFF0DAF
:10C96000FFFFFF0DFFFFFF0DFFFFFF0DFFFFFF0D9F
:10C97000FFFFFF0DFFFFFF0DFFFFFF0D63B9760DFA
:10C980000A91280D2BA0450D2BA0450D2BA0450D80
:10C990002BA0450D2BA0450D2BA0450D2BA0450D23
:10C9A0002BA0450D2BA0450D2BA0450D2BA0450D13
:10C9B0002BA0450D2BA0450D2BA0450D2BA0450D03
:10C9C0002BA0450D2BA0450D2BA0450D2BA0450DF3
:10CE80002BA0450D2BA0450D2BA0450DFFFFFF0D41
:10CE9000FFFFFF0DFFFFFF0DFFFFFF0DFFFFFF0D6A
:10CEA000FFFFFF0DFFFFFF0DFFFFFF0DFFFFFF0D5A
:10CEB000FFFFFF0DFFFFFF0DFFFFFF0DFFFFFF0D4A
:10CEC000FFFFFF0DFFFFFF0DFFFFFF0DFFFFFF0D3A
:10CED000FFFFFF0DFFFFFF0DFFFFFF0DFFFFFF0D2A
:10CEE000FFFFFF0DFFFFFF0DFFFFFF0DFFFFFF0D1A
:10CEF000FFFFFF0DFFFFFF0DFFFFFF0DFFFFFF0D0A
:10CF0000FFFFFF0DFFFFFF0DFFFFFF0DFFFFFF0DF9
:10CF1000FFFFFF0DFFFFFF0DFFFFFF0DFFFFFF0DE9
:10CF2000FFFFFF0DFFFFFF0DFFFFFF0DFFFFFF0DD9
:10CF3000FFFFFF0DFFFFFF0DFFFFFF0DFFFFFF0DC9
:10CF4000FFFFFF0DFFFFFF0DFFFFFF0DFFFFFF0DB9
:10CF5000FFFFFF0DFFFFFF0DFFFFFF0DFFFFFF0DA9
:10CF6000FFFFFF0DFFFFFF0DFFFFFF0DFFFFFF0D99
:10CF7000FFFFFF0DFFFFFF0DFFFFFF0DFFFFFF0D89
:10CF8000FFFFFF0DFFFFFF0DFFFFFF0DFFFFFF0D79
:10CF9000FFFFFF0DFFFFFF0DFFFFFF0DFFFFFF0D69
:10CFA000FFFFFF0DFFFFFF0DFFFFFF0DFFFFFF0D59
:10CFB000FFFFFF0DFFFFFF0DFFFFFF0DFFFFFF0D49
:10CFC000FFFFFF0DFFFFFF0DFFFFFF0DFFFFFF0D39
:10CFD000FFFFFF0DFFFFFF0DFFFFFF0DFFFFFF0D29
:10CFE000FFFFFF0DFFFFFF0DFFFFFF0DFFFFFF0D19
:10CFF000FFFFFF0DFFFFFF0DFFFFFF0DFFFFFF0D09
:10D00000FFFFFF0DFFFFFF0DFFFFFF0D63B9760D63
:10D010000A91280D2BA0450D2BA0450D2BA0450DE9
:10D020002BA0450D2BA0450D2BA0450D2BA0450D8C
:10D030002BA0450D2BA0450D2BA0450D2BA0450D7C
:10D040002BA0450D2BA0450D2BA0450D2BA0450D6C
:10D050002BA0450D2BA0450D2BA0450D2BA0450D5C
:10D510002BA0450D2BA0450D2BA0450DFFFFFF0DAA
:10D52000FFFFFF0DFFFFFF0DFFFFFF0DFFFFFF0DD3
:10D53000FFFFFF0DFFFFFF0DFFFFFF0DFFFFFF0DC3
:10D54000FFFFFF0DFFFFFF0DFFFFFF0DFFFFFF0DB3
:10D55000FFFFFF0DFFFFFF0DFFFFFF0DFFFFFF0DA3
:10D56000FFFFFF0DFFFFFF0DFFFFFF0DFFFFFF0D93
:10D57000FFFFFF0DFFFFFF0DFFFFFF0DFFFFFF0D83
:10D58000FFFFFF0DFFFFFF0DFFFFFF0DFFFFFF0D73
:10D59000FFFFFF0DFFFFFF0DFFFFFF0DFFFFFF0D63
:10D5A000FFFFFF0DFFFFFF0DFFFFFF0DFFFFFF0D53
:10D5B000FFFFFF0DFFFFFF0DFFFFFF0DFFFFFF0D43
:10D5C000FFFFFF0DFFFFFF0DFFFFFF0DFFFFFF0D33
:10D5D000FFFFFF0DFFFFFF0DFFFFFF0DFFFFFF0D23
:10D5E000FFFFFF0DFFFFFF0DFFFFFF0DFFFFFF0D13
:10D5F000FFFFFF0DFFFFFF0DFFFFFF0DFFFFFF0D03
:10D60000FFFFFF0DFFFFFF0DFFFFFF0DFFFFFF0DF2
:10D61000FFFFFF0DFFFFFF0DFFFFFF0DFFFFFF0DE2
:10D62000FFFFFF0DFFFFFF0DFFFFFF0DFFFFFF0DD2
:10D63000FFFFFF0DFFFFFF0DFFFFFF0DFFFFFF0DC2
:10D64000FFFFFF0DFFFFFF0DFFFFFF0DFFFFFF0DB2
:10D65000FFFFFF0DFFFFFF0DFFFFFF0DFFFFFF0DA2
:10D66000FFFFFF0DFFFFFF0DFFFFFF0DFFFFFF0D92
:10D67000FFFFFF0DFFFFFF0DFFFFFF0DFFFFFF0D82
:10D68000FFFFFF0DFFFFFF0DFFFFFF0DFFFFFF0D72
:10D69000FFFFFF0DFFFFFF0DFFFFFF0DFFFFFF0D62
:10D6A000FFFFFF0DFFFFFF0DFFFFFF0DFFFFFF0D52
:10D6B000FFFFFF0DFFFFFF0DFFFFFF0DFFFFFF0D42
:10D6C000FFFFFF0DFFFFFF0DFFFFFF0DFFFFFF0D32
:10D6D000FFFFFF0DFFFFFF0DFFFFFF0DFFFFFF0D22
:10D6E000FFFFFF0DFFFFFF0DFFFFFF0D63B9760D7D
:10D6F0000A91280D2BA0450D2BA0450D2BA0450D03
:10D700002BA0450D2BA0450D2BA0450D2BA0450DA5
:10D710002BA0450D2BA0450D2BA0450D2BA0450D95
:10D720002BA0450D2BA0450D2BA0450D2BA0450D85
:10D730002BA0450D2BA0450D2BA0450D2BA0450D75
:10DBF0002BA0450D2BA0450D2BA0450DFFFFFF0DC4
:10DC0000FFFFFF0DFFFFFF0DFFFFFF0DFFFFFF0DEC
:10DC1000FFFFFF0DFFFFFF0DFFFFFF0DFFFFFF0DDC
:10DC2000FFFFFF0DFFFFFF0DFFFFFF0DFFFFFF0DCC
:10DC3000FFFFFF0DFFFFFF0DFFFFFF0DFFFFFF0DBC
:10DC4000FFFFFF0DFFFFFF0DFFFFFF0DFFFFFF0DAC
:10DC5000FFFFFF0DFFFFFF0DFFFFFF0DFFFFFF0D9C
:10DC6000FFFFFF0DFFFFFF0DFFFFFF0DFFFFFF0D8C
:10DC7000FFFFFF0DFFFFFF0DFFFFFF0DFFFFFF0D7C
:10DC8000FFFFFF0DFFFFFF0DFFFFFF0DFFFFFF0D6C
:10DC9000FFFFFF0DFFFFFF0DFFFFFF0DFFFFFF0D5C
:10DCA000FFFFFF0DFFFFFF0DFFFFFF0DFFFFFF0D4C
:10DCB000FFFFFF0DFFFFFF0DFFFFFF0DFFFFFF0D3C
:10DCC000FFFFFF0DFFFFFF0DFFFFFF0DFFFFFF0D2C
:10DCD000FFFFFF0DFFFFFF0DFFFFFF0DFFFFFF0D1C
:10DCE000FFFFFF0DFFFFFF0DFFFFFF0DFFFFFF0D0C
:10DCF000FFFFFF0DFFFFFF0DFFFFFF0DFFFFFF0DFC
:10DD0000FFFFFF0DFFFFFF0DFFFFFF0DFFFFFF0DEB
:10DD1000FFFFFF0DFFFFFF0DFFFFFF0DFFFFFF0DDB
:10DD2000FFFFFF0DFFFFFF0DFFFFFF0D63B9760D36
:10DD30000A91280D2BA0450D2BA0450D2BA0450DBC
:10DD40002BA0450D2BA0450D2BA0450D2BA0450D5F
:10DD50002BA0450D2BA0450D2BA0450D2BA0450D4F
:10DD60002BA0450D2BA0450D2BA0450D2BA0450D3F
:10DD70002BA0450D2BA0450D2BA0450D2BA0450D2F
:10E230002BA0450D2BA0450D2BA0450DFFFFFF0D7D
:10E24000FFFFFF0DFFFFFF0DFFFFFF0DFFFFFF0DA6
:10E25000FFFFFF0DFFFFFF0DFFFFFF0DFFFFFF0D96
:10E26000FFFFFF0DFFFFFF0DFFFFFF0DFFFFFF0D86
:10E27000FFFFFF0DFFFFFF0DFFFFFF0DFFFFFF0D76
:10E28000FFFFFF0DFFFFFF0DFFFFFF0DFFFFFF0D66
:10E29000FFFFFF0DFFFFFF0DFFFFFF0DFFFFFF0D56
:10E2A000FFFFFF0DFFFFFF0DFFFFFF0DFFFFFF0D46
:10E2B000FFFFFF0DFFFFFF0DFFFFFF0DFFFFFF0D36
:10E2C000FFFFFF0DFFFFFF0DFFFFFF0DFFFFFF0D26
:10E2D000FFFFFF0DFFFFFF0DFFFFFF0DFFFFFF0D16
:10E2E000FFFFFF0DFFFFFF0DFFFFFF0DFFFFFF0D06
:10E2F000FFFFFF0DFFFFFF0DFFFFFF0DFFFFFF0DF6
:10E30000FFFFFF0DFFFFFF0DFFFFFF0DFFFFFF0DE5
:10E31000FFFFFF0DFFFFFF0DFFFFFF0DFFFFFF0DD5
:10E32000FFFFFF0DFFFFFF0DFFFFFF0DFFFFFF0DC5
:10E33000FFFFFF0DFFFFFF0DFFFFFF0DFFFFFF0DB5
:10E34000FFFFFF0DFFFFFF0DFFFFFF0DFFFFFF0DA5
:10E35000FFFFFF0DFFFFFF0DFFFFFF0DFFFFFF0D95
:10E36000FFFFFF0DFFFFFF0DFFFFFF0DFFFFFF0D85
:10E37000FFFFFF0DFFFFFF0DFFFFFF0DFFFFFF0D75
:10E38000FFFFFF0DFFFFFF0DFFFFFF0DFFFFFF0D65
:10E39000FFFFFF0DFFFFFF0DFFFFFF0DFFFFFF0D55
:10E3A000FFFFFF0DFFFFFF0DFFFFFF0DFFFFFF0D45
:10E3B000FFFFFF0DFFFFFF0DFFFFFF0DFFFFFF0D35
:10E3C000FFFFFF0DFFFFFF0DFFFFFF0DFFFFFF0D25
:10E3D000FFFFFF0DFFFFFF0DFFFFFF0DFFFFFF0D15
:10E3E000FFFFFF0DFFFFFF0DFFFFFF0DFFFFFF0D05
:10E3F000FFFFFF0DFFFFFF0DFFFFFF0DFFFFFF0DF5
:10E40000FFFFFF0DFFFFFF0DFFFFFF0D63B9760D4F
:10E410000A91280D2BA0450D2BA0450D2BA0450DD5
:10E420002BA0450D2BA0450D2BA0450D2BA0450D78
:10E430002BA0450D2BA0450D2BA0450D2BA0450D68
:10E440002BA0450D2BA0450D2BA0450D2BA0450D58
:10E450002BA0450D2BA0450D2BA0450D2BA0450D48
:10E910002BA0450D2BA0450D2BA0450DFFFFFF0D96
:10E92000FFFFFF0DFFFFFF0DFFFFFF0DFFFFFF0DBF
:10E93000FFFFFF0DFFFFFF0DFFFFFF0DFFFFFF0DAF
:10E94000FFFFFF0DFFFFFF0DFFFFFF0DFFFFFF0D9F
:10E95000FFFFFF0DFFFFFF0DFFFFFF0DFFFFFF0D8F
:10E96000FFFFFF0DFFFFFF0DFFFFFF0DFFFFFF0D7F
:10E97000FFFFFF0DFFFFFF0DFFFFFF0DFFFFFF0D6F
:10E98000FFFFFF0DFFFFFF0DFFFFFF0DFFFFFF0D5F
:10E99000FFFFFF0DFFFFFF0DFFFFFF0DFFFFFF0D4F
:10E9A000FFFFFF0DFFFFFF0DFFFFFF0DFFFFFF0D3F
:10E9B000FFFFFF0DFFFFFF0DFFFFFF0DFFFFFF0D2F
:10E9C000FFFFFF0DFFFFFF0DFFFFFF0DFFFFFF0D1F
:10E9D000FFFFFF0DFFFFFF0DFFFFFF0DFFFFFF0D0F
:10E9E000FFFFFF0DFFFFFF0DFFFFFF0DFFFFFF0DFF
:10E9F000FFFFFF0DFFFFFF0DFFFFFF0DFFFFFF0DEF
:10EA0000FFFFFF0DFFFFFF0DFFFFFF0DFFFFFF0DDE
:10EA1000FFFFFF0DFFFFFF0DFFFFFF0DFFFFFF0DCE
:10EA2000FFFFFF0DFFFFFF0DFFFFFF0DFFFFFF0DBE
:10EA3000FFFFFF0DFFFFFF0DFFFFFF0DFFFFFF0DAE
:10EA4000FFFFFF0DFFFFFF0DFFFFFF0DFFFFFF0D9E
:10EA5000FFFFFF0DFFFFFF0DFFFFFF0DFFFFFF0D8E
:10EA6000FFFFFF0DFFFFFF0DFFFFFF0DFFFFFF0D7E
:10EA7000FFFFFF0DFFFFFF0DFFFFFF0DFFFFFF0D6E
:10EA8000FFFFFF0DFFFFFF0DFFFFFF0DFFFFFF0D5E
:10EA9000FFFFFF0DFFFFFF0DFFFFFF0D63B9760DB9
:10EAA0000A91280D2BA0450D2BA0450D2BA0450D3F
:10EAB0002BA0450D2BA0450D2BA0450D2BA0450DE2
:10EAC0002BA0450D2BA0450D2BA0450D2BA0450DD2
:10EAD0002BA0450D2BA0450D2BA0450D2BA0450DC2
:10EAE0002BA0450D2BA0450D2BA0450D2BA0450DB2
:10EFA0002BA0450D2BA0450D2BA0450DFFFFFF0D00
:10EFB000FFFFFF0DFFFFFF0DFFFFFF0DFFFFFF0D29
:10EFC000FFFFFF0DFFFFFF0DFFFFFF0DFFFFFF0D19
:10EFD000FFFFFF0DFFFFFF0DFFFFFF0DFFFFFF0D09
:10EFE000FFFFFF0DFFFFFF0DFFFFFF0DFFFFFF0DF9
:10EFF000FFFFFF0DFFFFFF0DFFFFFF0DFFFFFF0DE9
:10F00000FFFFFF0DFFFFFF0DFFFFFF0DFFFFFF0DD8
:10F01000FFFFFF0DFFFFFF0DFFFFFF0DFFFFFF0DC8
:10F02000FFFFFF0DFFFFFF0DFFFFFF0DFFFFFF0DB8
:10F03000FFFFFF0DFFFFFF0DFFFFFF0DFFFFFF0DA8
:10F04000FFFFFF0DFFFFFF0DFFFFFF0DFFFFFF0D98
:10F05000FFFFFF0DFFFFFF0DFFFFFF0DFFFFFF0D88
:10F06000FFFFFF0DFFFFFF0DFFFFFF0DFFFFFF0D78
:10F07000FFFFFF0DFFFFFF0DFFFFFF0DFFFFFF0D68
:10F08000FFFFFF0DFFFFFF0DFFFFFF0DFFFFFF0D58
:10F09000FFFFFF0DFFFFFF0DFFFFFF0DFFFFFF0D48
:10F0A000FFFFFF0DFFFFFF0DFFFFFF0DFFFFFF0D38
:10F0B000FFFFFF0DFFFFFF0DFFFFFF0DFFFFFF0D28
:10F0C000FFFFFF0DFFFFFF0DFFFFFF0DFFFFFF0D18
:10F0D000FFFFFF0DFFFFFF0DFFFFFF0DFFFFFF0D08
:10F0E000FFFFFF0DFFFFFF0DFFFFFF0DFFFFFF0DF8
:10F0F000FFFFFF0DFFFFFF0DFFFFFF0DFFFFFF0DE8
:10F10000FFFFFF0DFFFFFF0DFFFFFF0DFFFFFF0DD7
:10F11000FFFFFF0DFFFFFF0DFFFFFF0DFFFFFF0DC7
:10F12000FFFFFF0DFFFFFF0DFFFFFF0DFFFFFF0DB7
:10F13000FFFFFF0DFFFFFF0DFFFFFF0DFFFFFF0DA7
:10F14000FFFFFF0DFFFFFF0DFFFFFF0DFFFFFF0D97
:10F15000FFFFFF0DFFFFFF0DFFFFFF0DFFFFFF0D87
:10F16000FFFFFF0DFFFFFF0DFFFFFF0DFFFFFF0D77
:10F17000FFFFFF0DFFFFFF0DFFFFFF0D63B9760DD2
:10F180000A91280D2BA0450D2BA0450D2BA0450D58
:10F190002BA0450D2BA0450D2BA0450D2BA0450DFB
:10F1A0002BA0450D2BA0450D2BA0450D2BA0450DEB
:10F1B0002BA0450D2BA0450D2BA0450D2BA0450DDB
:10F1C0002BA0450D2BA0450D2BA0450D2BA0450DCB
:10F680002BA0450D2BA0450D2BA0450DFFFFFF0D19
:10F69000FFFFFF0DFFFFFF0DFFFFFF0DFFFFFF0D42
:10F6A000FFFFFF0DFFFFFF0DFFFFFF0DFFFFFF0D32
:10F6B000FFFFFF0DFFFFFF0DFFFFFF0DFFFFFF0D22
:10F6C000FFFFFF0DFFFFFF0DFFFFFF0DFFFFFF0D12
:10F6D000FFFFFF0DFFFFFF0DFFFFFF0DFFFFFF0D02
:10F6E000FFFFFF0DFFFFFF0DFFFFFF0DFFFFFF0DF2
:10F6F000FFFFFF0DFFFFFF0DFFFFFF0DFFFFFF0DE2
:10F70000FFFFFF0DFFFFFF0DFFFFFF0DFFFFFF0DD1
:10F71000FFFFFF0DFFFFFF0DFFFFFF0DFFFFFF0DC1
:10F72000FFFFFF0DFFFFFF0DFFFFFF0DFFFFFF0DB1
:10F73000FFFFFF0DFFFFFF0DFFFFFF0DFFFFFF0DA1
:10F74000FFFFFF0DFFFFFF0DFFFFFF0DFFFFFF0D91
:10F75000FFFFFF0DFFFFFF0DFFFFFF0DFFFFFF0D81
:10F76000FFFFFF0DFFFFFF0DFFFFFF0DFFFFFF0D71
:10F77000FFFFFF0DFFFFFF0DFFFFFF0DFFFFFF0D61
:10F78000FFFFFF0DFFFFFF0DFFFFFF0DFFFFFF0D51
:10F79000FFFFFF0DFFFFFF0DFFFFFF0DFFFFFF0D41
:10F7A000FFFFFF0DFFFFFF0DFFFFFF0DFFFFFF0D31
:10F7B000FFFFFF0DFFFFFF0DFFFFFF0D63B9760D8C
:10F7C0000A91280D2BA0450D2BA0450D2BA0450D12
:10F7D0002BA0450D2BA0450D2BA0450D2BA0450DB5
:10F7E0002BA0450D2BA0450D2BA0450D2BA0450DA5
:10F7F0002BA0450D2BA0450D2BA0450D2BA0450D95
:10F800002BA0450D2BA0450D2BA0450D2BA0450D84
:10FCC0002BA0450D2BA0450D2BA0450DFFFFFF0DD3
:10FCD000FFFFFF0DFFFFFF0DFFFFFF0DFFFFFF0DFC
:10FCE000FFFFFF0DFFFFFF0DFFFFFF0DFFFFFF0DEC
:10FCF000FFFFFF0DFFFFFF0DFFFFFF0DFFFFFF0DDC
:10FD0000FFFFFF0DFFFFFF0DFFFFFF0DFFFFFF0DCB
:10FD1000FFFFFF0DFFFFFF0DFFFFFF0DFFFFFF0DBB
:10FD2000FFFFFF0DFFFFFF0DFFFFFF0DFFFFFF0DAB
:10FD3000FFFFFF0DFFFFFF0DFFFFFF0DFFFFFF0D9B
:10FD4000FFFFFF0DFFFFFF0DFFFFFF0DFFFFFF0D8B
:10FD5000FFFFFF0DFFFFFF0DFFFFFF0DFFFFFF0D7B
:10FD6000FFFFFF0DFFFFFF0DFFFFFF0DFFFFFF0D6B
:10FD7000FFFFFF0DFFFFFF0DFFFFFF0DFFFFFF0D5B
:10FD8000FFFFFF0DFFFFFF0DFFFFFF0DFFFFFF0D4B
:10FD9000FFFFFF0DFFFFFF0DFFFFFF0DFFFFFF0D3B
:10FDA000FFFFFF0DFFFFFF0DFFFFFF0DFFFFFF0D2B
:10FDB000FFFFFF0DFFFFFF0DFFFFFF0DFFFFFF0D1B
:10FDC000FFFFFF0DFFFFFF0DFFFFFF0DFFFFFF0D0B
:10FDD000FFFFFF0DFFFFFF0DFFFFFF0DFFFFFF0DFB
:10FDE000FFFFFF0DFFFFFF0DFFFFFF0DFFFFFF0DEB
:10FDF000FFFFFF0DFFFFFF0DFFFFFF0DFFFFFF0DDB
:10FE0000FFFFFF0DFFFFFF0DFFFFFF0DFFFFFF0DCA
:10FE1000FFFFFF0DFFFFFF0DFFFFFF0DFFFFFF0DBA
:10FE2000FFFFFF0DFFFFFF0DFFFFFF0DFFFFFF0DAA
:10FE3000FFFFFF0DFFFFFF0DFFFFFF0DFFFFFF0D9A
:10FE4000FFFFFF0DFFFFFF0DFFFFFF0DFFFFFF0D8A
:10FE5000FFFFFF0DFFFFFF0DFFFFFF0DFFFFFF0D7A
:10FE6000FFFFFF0DFFFFFF0DFFFFFF0DFFFFFF0D6A
:10FE7000FFFFFF0DFFFFFF0DFFFFFF0DFFFFFF0D5A
:10FE8000FFFFFF0DFFFFFF0DFFFFFF0DFFFFFF0D4A
:10FE9000FFFFFF0DFFFFFF0DFFFFFF0D63B9760DA5
:10FEA0000A91280D2BA0450D2BA0450D2BA0450D2B
:10FEB0002BA0450D2BA0450D2BA0450D2BA0450DCE
:10FEC0002BA0450D2BA0450D2BA0450D2BA0450DBE
:10FED0002BA0450D2BA0450D2BA0450D2BA0450DAE
:10FEE0002BA0450D2BA0450D2BA0450D2BA0450D9E
:020000040802F0
:1003A0002BA0450D2BA0450D2BA0450DFFFFFF0DEC
:1003B000FFFFFF0DFFFFFF0DFFFFFF0DFFFFFF0D15
:1003C000FFFFFF0DFFFFFF0DFFFFFF0DFFFFFF0D05
:1003D000FFFFFF0DFFFFFF0DFFFFFF0DFFFFFF0DF5
:1003E000FFFFFF0DFFFFFF0DFFFFFF0DFFFFFF0DE5
:1003F000FFFFFF0DFFFFFF0DFFFFFF0DFFFFFF0DD5
:10040000FFFFFF0DFFFFFF0DFFFFFF0DFFFFFF0DC4
:10041000FFFFFF0DFFFFFF0DFFFFFF0DFFFFFF0DB4
:10042000FFFFFF0DFFFFFF0DFFFFFF0DFFFFFF0DA4
:10043000FFFFFF0DFFFFFF0DFFFFFF0DFFFFFF0D94
:10044000FFFFFF0DFFFFFF0DFFFFFF0DFFFFFF0D84
:10045000FFFFFF0DFFFFFF0DFFFFFF0DFFFFFF0D74
:10046000FFFFFF0DFFFFFF0DFFFFFF0DFFFFFF0D64
:10047000FFFFFF0DFFFFFF0DFFFFFF0DFFFFFF0D54
:10048000FFFFFF0DFFFFFF0DFFFFFF0DFFFFFF0D44
:10049000FFFFFF0DFFFFFF0DFFFFFF0DFFFFFF0D34
:1004A000FFFFFF0DFFFFFF0DFFFFFF0DFFFFFF0D24
:1004B000FFFFFF0DFFFFFF0DFFFFFF0DFFFFFF0D14
:1004C000FFFFFF0DFFFFFF0DFFFFFF0DFFFFFF0D04
:1004D000FFFFFF0DFFFFFF0DFFFFFF0DFFFFFF0DF4
:1004E000FFFFFF0DFFFFFF0DFFFFFF0DFFFFFF0DE4
:1004F000FFFFFF0DFFFFFF0DFFFFFF0DFFFFFF0DD4
:10050000FFFFFF0DFFFFFF0DFFFFFF0DFFFFFF0DC3
:10051000FFFFFF0DFFFFFF0DFFFFFF0DFFFFFF0DB3
:10052000FFFFFF0DFFFFFF0DFFFFFF0D63B9760D0E
:100530000A91280D2BA0450D2BA0450D2BA0450D94
:100540002BA0450D2BA0450D2BA0450D2BA0450D37
:100550002BA0450D2BA0450D2BA0450D2BA0450D27
:100560002BA0450D2BA0450D2BA0450D2BA0450D17
:100570002BA0450D2BA0450D2BA0450D2BA0450D07
:100A30002BA0450D2BA0450D2BA0450DFFFFFF0D55
:100A4000FFFFFF0DFFFFFF0DFFFFFF0DFFFFFF0D7E
:100A5000FFFFFF0DFFFFFF0DFFFFFF0DFFFFFF0D6E
:100A6000FFFFFF0DFFFFFF0DFFFFFF0DFFFFFF0D5E
:100A7000FFFFFF0DFFFFFF0DFFFFFF0DFFFFFF0D4E
:100A8000FFFFFF0DFFFFFF0DFFFFFF0DFFFFFF0D3E
:100A9000FFFFFF0DFFFFFF0DFFFFFF0DFFFFFF0D2E
:100AA000FFFFFF0DFFFFFF0DFFFFFF0DFFFFFF0D1E
:100AB000FFFFFF0DFFFFFF0DFFFFFF0DFFFFFF0D0E
:100AC000FFFFFF0DFFFFFF0DFFFFFF0DFFFFFF0DFE
:100AD000FFFFFF0DFFFFFF0DFFFFFF0DFFFFFF0DEE
:100AE000FFFFFF0DFFFFFF0DFFFFFF0DFFFFFF0DDE
:100AF000FFFFFF0DFFFFFF0DFFFFFF0DFFFFFF0DCE
:100B0000FFFFFF0DFFFFFF0DFFFFFF0DFFFFFF0DBD
:100B1000FFFFFF0DFFFFFF0DFFFFFF0DFFFFFF0DAD
:100B2000FFFFFF0DFFFFFF0DFFFFFF0DFFFFFF0D9D
:100B3000FFFFFF0DFFFFFF0DFFFFFF0DFFFFFF0D8D
:100B4000FFFFFF0DFFFFFF0DFFFFFF0DFFFFFF0D7D
:100B5000FFFFFF0DFFFFFF0DFFFFFF0DFFFFFF0D6D
:100B6000FFFFFF0DFFFFFF0DFFFFFF0DFFFFFF0D5D
:100B7000FFFFFF0DFFFFFF0DFFFFFF0DFFFFFF0D4D
:100B8000FFFFFF0DFFFFFF0DFFFFFF0DFFFFFF0D3D
:100B9000FFFFFF0DFFFFFF0DFFFFFF0DFFFFFF0D2D
:100BA000FFFFFF0DFFFFFF0DFFFFFF0DFFFFFF0D1D
:100BB000FFFFFF0DFFFFFF0DFFFFFF0DFFFFFF0D0D
:100BC000FFFFFF0DFFFFFF0DFFFFFF0DFFFFFF0DFD
:100BD000FFFFFF0DFFFFFF0DFFFFFF0DFFFFFF0DED
:100BE000FFFFFF0DFFFFFF0DFFFFFF0DFFFFFF0DDD
:100BF000FFFFFF0DFFFFFF0DFFFFFF0DFFFFFF0DCD
:100C0000FFFFFF0DFFFFFF0DFFFFFF0D63B9760D27
:100C10000A91280D2BA0450D2BA0450D2BA0450DAD
:100C20002BA0450D2BA0450D2BA0450D2BA0450D50
:100C30002BA0450D2BA0450D2BA0450D2BA0450D40
:100C40002BA0450D2BA0450D2BA0450D2BA0450D30
:100C50002BA0450D2BA0450D2BA0450D2BA0450D20
:101110002BA0450D2BA0450D2BA0450DFFFFFF0D6E
:10112000FFFFFF0DFFFFFF0DFFFFFF0DFFFFFF0D97
:10113000FFFFFF0DFFFFFF0DFFFFFF0DFFFFFF0D87
:10114000FFFFFF0DFFFFFF0DFFFFFF0DFFFFFF0D77
:10115000FFFFFF0DFFFFFF0DFFFFFF0DFFFFFF0D67
:10116000FFFFFF0DFFFFFF0DFFFFFF0DFFFFFF0D57
:10117000FFFFFF0DFFFFFF0DFFFFFF0DFFFFFF0D47
:10118000FFFFFF0DFFFFFF0DFFFFFF0DFFFFFF0D37
:10119000FFFFFF0DFFFFFF0DFFFFFF0DFFFFFF0D27
:1011A000FFFFFF0DFFFFFF0DFFFFFF0DFFFFFF0D17
:1011B000FFFFFF0DFFFFFF0DFFFFFF0DFFFFFF0D07
:1011C000FFFFFF0DFFFFFF0DFFFFFF0DFFFFFF0DF7
:1011D000FFFFFF0DFFFFFF0DFFFFFF0DFFFFFF0DE7
:1011E000FFFFFF0DFFFFFF0DFFFFFF0DFFFFFF0DD7
:1011F000FFFFFF0DFFFFFF0DFFFFFF0DFFFFFF0DC7
:10120000FFFFFF0DFFFFFF0DFFFFFF0DFFFFFF0DB6
:10121000FFFFFF0DFFFFFF0DFFFFFF0DFFFFFF0DA6
:10122000FFFFFF0DFFFFFF0DFFFFFF0DFFFFFF0D96
:10123000FFFFFF0DFFFFFF0DFFFFFF0DFFFFFF0D86
:10124000FFFFFF0DFFFFFF0DFFFFFF0D63B9760DE1
:101250000A91280D2BA0450D2BA0450D2BA0450D67
:101260002BA0450D2BA0450D2BA0450D2BA0450D0A
:101270002BA0450D2BA0450D2BA0450D2BA0450DFA
:101280002BA0450D2BA0450D2BA0450D2BA0450DEA
:101290002BA0450D2BA0450D2BA0450D2BA0450DDA
:101750002BA0450D2BA0450D2BA0450DFFFFFF0D28
:10176000FFFFFF0DFFFFFF0DFFFFFF0DFFFFFF0D51
:10177000FFFFFF0DFFFFFF0DFFFFFF0DFFFFFF0D41
:10178000FFFFFF0DFFFFFF0DFFFFFF0DFFFFFF0D31
:10179000FFFFFF0DFFFFFF0DFFFFFF0DFFFFFF0D21
:1017A000FFFFFF0DFFFFFF0DFFFFFF0DFFFFFF0D11
:1017B000FFFFFF0DFFFFFF0DFFFFFF0DFFFFFF0D01
:1017C000FFFFFF0DFFFFFF0DFFFFFF0DFFFFFF0DF1
:1017D000FFFFFF0DFFFFFF0DFFFFFF0DFFFFFF0DE1
:1017E000FFFFFF0DFFFFFF0DFFFFFF0DFFFFFF0DD1
:1017F000FFFFFF0DFFFFFF0DFFFFFF0DFFFFFF0DC1
:10180000FFFFFF0DFFFFFF0DFFFFFF0DFFFFFF0DB0
:10181000FFFFFF0DFFFFFF0DFFFFFF0DFFFFFF0DA0
:10182000FFFFFF0DFFFFFF0DFFFFFF0DFFFFFF0D90
:10183000FFFFFF0DFFFFFF0DFFFFFF0DFFFFFF0D80
:10184000FFFFFF0DFFFFFF0DFFFFFF0DFFFFFF0D70
:10185000FFFFFF0DFFFFFF0DFFFFFF0DFFFFFF0D60
:10186000FFFFFF0DFFFFFF0DFFFFFF0DFFFFFF0D50
:10187000FFFFFF0DFFFFFF0DFFFFFF0DFFFFFF0D40
:10188000FFFFFF0DFFFFFF0DFFFFFF0DFFFFFF0D30
:10189000FFFFFF0DFFFFFF0DFFFFFF0DFFFFFF0D20
:1018A000FFFFFF0DFFFFFF0DFFFFFF0DFFFFFF0D10
:1018B000FFFFFF0DFFFFFF0DFFFFFF0DFFFFFF0D00
:1018C000FFFFFF0DFFFFFF0DFFFFFF0DFFFFFF0DF0
:1018D000FFFFFF0DFFFFFF0DFFFFFF0DFFFFFF0DE0
:1018E000FFFFFF0DFFFFFF0DFFFFFF0DFFFFFF0DD0
:1018F000FFFFFF0DFFFFFF0DFFFFFF0DFFFFFF0DC0
:10190000FFFFFF0DFFFFFF0DFFFFFF0DFFFFFF0DAF
:10191000FFFFFF0DFFFFFF0DFFFFFF0DFFFFFF0D9F
:10192000FFFFFF0DFFFFFF0DFFFFFF0D63B9760DFA
:101930000A91280D2BA0450D2BA0450D2BA0450D80
:101940002BA0450D2BA0450D2BA0450D2BA0450D23
:101950002BA0450D2BA0450D2BA0450D2BA0450D13
:101960002BA0450D2BA0450D2BA0450D2BA0450D03
:101970002BA0450D2BA0450D2BA0450D2BA0450DF3
:101E30002BA0450D2BA0450D2BA0450DFFFFFF0D41
:101E4000FFFFFF0DFFFFFF0DFFFFFF0DFFFFFF0D6A
:101E5000FFFFFF0DFFFFFF0DFFFFFF0DFFFFFF0D5A
:101E6000FFFFFF0DFFFFFF0DFFFFFF0DFFFFFF0D4A
:101E7000FFFFFF0DFFFFFF0DFFFFFF0DFFFFFF0D3A
:101E8000FFFFFF0DFFFFFF0DFFFFFF0DFFFFFF0D2A
:101E9000FFFFFF0DFFFFFF0DFFFFFF0DFFFFFF0D1A
:101EA000FFFFFF0DFFFFFF0DFFFFFF0DFFFFFF0D0A
:101EB000FFFFFF0DFFFFFF0DFFFFFF0DFFFFFF0DFA
:101EC000FFFFFF0DFFFFFF0DFFFFFF0DFFFFFF0DEA
:101ED000FFFFFF0DFFFFFF0DFFFFFF0DFFFFFF0DDA
:101EE000FFFFFF0DFFFFFF0DFFFFFF0DFFFFFF0DCA
:101EF000FFFFFF0DFFFFFF0DFFFFFF0DFFFFFF0DBA
:101F0000FFFFFF0DFFFFFF0DFFFFFF0DFFFFFF0DA9
:101F1000FFFFFF0DFFFFFF0DFFFFFF0DFFFFFF0D99
:101F2000FFFFFF0DFFFFFF0DFFFFFF0DFFFFFF0D89
:101F3000FFFFFF0DFFFFFF0DFFFFFF0DFFFFFF0D79
:101F4000FFFFFF0DFFFFFF0DFFFFFF0DFFFFFF0D69
:101F5000FFFFFF0DFFFFFF0DFFFFFF0DFFFFFF0D59
:101F6000FFFFFF0DFFFFFF0DFFFFFF0DFFFFFF0D49
:101F7000FFFFFF0DFFFFFF0DFFFFFF0DFFFFFF0D39
:101F8000FFFFFF0DFFFFFF0DFFFFFF0DFFFFFF0D29
:101F9000FFFFFF0DFFFFFF0DFFFFFF0DFFFFFF0D19
:101FA000FFFFFF0DFFFFFF0DFFFFFF0DFFFFFF0D09
:101FB000FFFFFF0DFFFFFF0DFFFFFF0D63B9760D64
:101FC0000A91280D2BA0450D2BA0450D2BA0450DEA
:101FD0002BA0450D2BA0450D2BA0450D2BA0450D8D
:101FE0002BA0450D2BA0450D2BA0450D2BA0450D7D
:101FF0002BA0450D2BA0450D2BA0450D2BA0450D6D
:102000002BA0450D2BA0450D2BA0450D2BA0450D5C
:1024C0002BA0450D2BA0450D2BA0450DFFFFFF0DAB
:1024D000FFFFFF0DFFFFFF0DFFFFFF0DFFFFFF0DD4
:1024E000FFFFFF0DFFFFFF0DFFFFFF0DFFFFFF0DC4
:1024F000FFFFFF0DFFFFFF0DFFFFFF0DFFFFFF0DB4
:10250000FFFFFF0DFFFFFF0DFFFFFF0DFFFFFF0DA3
:10251000FFFFFF0DFFFFFF0DFFFFFF0DFFFFFF0D93
:10252000FFFFFF0DFFFFFF0DFFFFFF0DFFFFFF0D83
:10253000FFFFFF0DFFFFFF0DFFFFFF0DFFFFFF0D73
:10254000FFFFFF0DFFFFFF0DFFFFFF0DFFFFFF0D63
:10255000FFFFFF0DFFFFFF0DFFFFFF0DFFFFFF0D53
:10256000FFFFFF0DFFFFFF0DFFFFFF0DFFFFFF0D43
:10257000FFFFFF0DFFFFFF0DFFFFFF0DFFFFFF0D33
:10258000FFFFFF0DFFFFFF0DFFFFFF0DFFFFFF0D23
:10259000FFFFFF0DFFFFFF0DFFFFFF0DFFFFFF0D13
:1025A000FFFFFF0DFFFFFF0DFFFFFF0DFFFFFF0D03
:1025B000FFFFFF0DFFFFFF0DFFFFFF0DFFFFFF0DF3
:1025C000FFFFFF0DFFFFFF0DFFFFFF0DFFFFFF0DE3
:1025D000FFFFFF0DFFFFFF0DFFFFFF0DFFFFFF0DD3
:1025E000FFFFFF0DFFFFFF0DFFFFFF0DFFFFFF0DC3
:1025F000FFFFFF0DFFFFFF0DFFFFFF0DFFFFFF0DB3
:10260000FFFFFF0DFFFFFF0DFFFFFF0DFFFFFF0DA2
:10261000FFFFFF0DFFFFFF0DFFFFFF0DFFFFFF0D92
:10262000FFFFFF0DFFFFFF0DFFFFFF0DFFFFFF0D82
:10263000FFFFFF0DFFFFFF0DFFFFFF0DFFFFFF0D72
:10264000FFFFFF0DFFFFFF0DFFFFFF0DFFFFFF0D62
:10265000FFFFFF0DFFFFFF0DFFFFFF0DFFFFFF0D52
:10266000FFFFFF0DFFFFFF0DFFFFFF0DFFFFFF0D42
:10267000FFFFFF0DFFFFFF0DFFFFFF0DFFFFFF0D32
:10268000FFFFFF0DFFFFFF0DFFFFFF0DFFFFFF0D22
:10269000FFFFFF0DFFFFFF0DFFFFFF0D63B9760D7D
:1026A0000A91280D2BA0450D2BA0450D2BA0450D03
:1026B0002BA0450D2BA0450D2BA0450D2BA0450DA6
:1026C0002BA0450D2BA0450D2BA0450D2BA0450D96
:1026D0002BA0450D2BA0450D2BA0450D2BA0450D86
:1026E0002BA0450D2BA0450D2BA0450D2BA0450D76
:102BA0002BA0450D2BA0450D2BA0450DFFFFFF0DC4
:102BB000FFFFFF0DFFFFFF0DFFFFFF0DFFFFFF0DED
:102BC000FFFFFF0DFFFFFF0DFFFFFF0DFFFFFF0DDD
:102BD000FFFFFF0DFFFFFF0DFFFFFF0DFFFFFF0DCD
:102BE000FFFFFF0DFFFFFF0DFFFFFF0DFFFFFF0DBD
:102BF000FFFFFF0DFFFFFF0DFFFFFF0DFFFFFF0DAD
:102C0000FFFFFF0DFFFFFF0DFFFFFF0DFFFFFF0D9C
:102C1000FFFFFF0DFFFFFF0DFFFFFF0DFFFFFF0D8C
:102C2000FFFFFF0DFFFFFF0DFFFFFF0DFFFFFF0D7C
:102C3000FFFFFF0DFFFFFF0DFFFFFF0DFFFFFF0D6C
:102C4000FFFFFF0DFFFFFF0DFFFFFF0DFFFFFF0D5C
:102C5000FFFFFF0DFFFFFF0DFFFFFF0DFFFFFF0D4C
:102C6000FFFFFF0DFFFFFF0DFFFFFF0DFFFFFF0D3C
:102C7000FFFFFF0DFFFFFF0DFFFFFF0DFFFFFF0D2C
:102C8000FFFFFF0DFFFFFF0DFFFFFF0DFFFFFF0D1C
:102C9000FFFFFF0DFFFFFF0DFFFFFF0DFFFFFF0D0C
:102CA000FFFFFF0DFFFFFF0DFFFFFF0DFFFFFF0DFC
:102CB000FFFFFF0DFFFFFF0DFFFFFF0DFFFFFF0DEC
:102CC000FFFFFF0DFFFFFF0DFFFFFF0DFFFFFF0DDC
:102CD000FFFFFF0DFFFFFF0DFFFFFF0D63B9760D37
:102CE0000A91280D2BA0450D2BA0450D2BA0450DBD
:102CF0002BA0450D2BA0450D2BA0450D2BA0450D60
:102D00002BA0450D2BA0450D2BA0450D2BA0450D4F
:102D10002BA0450D2BA0450D2BA0450D2BA0450D3F
:102D20002BA0450D2BA0450D2BA0450D2BA0450D2F
:1031E0002BA0450D2BA0450D2BA0450DFFFFFF0D7E
:1031F000FFFFFF0DFFFFFF0DFFFFFF0DFFFFFF0DA7
:10320000FFFFFF0DFFFFFF0DFFFFFF0DFFFFFF0D96
:10321000FFFFFF0DFFFFFF0DFFFFFF0DFFFFFF0D86
:10322000FFFFFF0DFFFFFF0DFFFFFF0DFFFFFF0D76
:10323000FFFFFF0DFFFFFF0DFFFFFF0DFFFFFF0D66
:10324000FFFFFF0DFFFFFF0DFFFFFF0DFFFFFF0D56
:10325000FFFFFF0DFFFFFF0DFFFFFF0DFFFFFF0D46
:10326000FFFFFF0DFFFFFF0DFFFFFF0DFFFFFF0D36
:10327000FFFFFF0DFFFFFF0DFFFFFF0DFFFFFF0D26
:10328000FFFFFF0DFFFFFF0DFFFFFF0DFFFFFF0D16
:10329000FFFFFF0DFFFFFF0DFFFFFF0DFFFFFF0D06
:1032A000FFFFFF0DFFFFFF0DFFFFFF0DFFFFFF0DF6
:1032B000FFFFFF0DFFFFFF0DFFFFFF0DFFFFFF0DE6
:1032C000FFFFFF0DFFFFFF0DFFFFFF0DFFFFFF0DD6
:1032D000FFFFFF0DFFFFFF0DFFFFFF0DFFFFFF0DC6
:1032E000FFFFFF0DFFFFFF0DFFFFFF0DFFFFFF0DB6
:1032F000FFFFFF0DFFFFFF0DFFFFFF0DFFFFFF0DA6
:10330000FFFFFF0DFFFFFF0DFFFFFF0DFFFFFF0D95
:10331000FFFFFF0DFFFFFF0DFFFFFF0DFFFFFF0D85
:10332000FFFFFF0DFFFFFF0DFFFFFF0DFFFFFF0D75
:10333000FFFFFF0DFFFFFF0DFFFFFF0DFFFFFF0D65
:10334000FFFFFF0DFFFFFF0DFFFFFF0DFFFFFF0D55
:10335000FFFFFF0DFFFFFF0DFFFFFF0DFFFFFF0D45
:10336000FFFFFF0DFFFFFF0DFFFFFF0DFFFFFF0D35
:10337000FFFFFF0DFFFFFF0DFFFFFF0DFFFFFF0D25
:10338000FFFFFF0DFFFFFF0DFFFFFF0DFFFFFF0D15
:10339000FFFFFF0DFFFFFF0DFFFFFF0DFFFFFF0D05
:1033A000FFFFFF0DFFFFFF0DFFFFFF0DFFFFFF0DF5
:1033B000FFFFFF0DFFFFFF0DFFFFFF0D63B9760D50
:1033C0000A91280D2BA0450D2BA0450D2BA0450DD6
:1033D0002BA0450D2BA0450D2BA0450D2BA0450D79
:1033E0002BA0450D2BA0450D2BA0450D2BA0450D69
:1033F0002BA0450D2BA0450D2BA0450D2BA0450D59
:103400002BA0450D2BA0450D2BA0450D2BA0450D48
:1038C0002BA0450D2BA0450D2BA0450DFFFFFF0D97
:1038D000FFFFFF0DFFFFFF0DFFFFFF0DFFFFFF0DC0
:1038E000FFFFFF0DFFFFFF0DFFFFFF0DFFFFFF0DB0
:1038F000FFFFFF0DFFFFFF0DFFFFFF0DFFFFFF0DA0
:10390000FFFFFF0DFFFFFF0DFFFFFF0DFFFFFF0D8F
:10391000FFFFFF0DFFFFFF0DFFFFFF0DFFFFFF0D7F
:10392000FFFFFF0DFFFFFF0DFFFFFF0DFFFFFF0D6F
:10393000FFFFFF0DFFFFFF0DFFFFFF0DFFFFFF0D5F
:10394000FFFFFF0DFFFFFF0DFFFFFF0DFFFFFF0D4F
:10395000FFFFFF0DFFFFFF0DFFFFFF0DFFFFFF0D3F
:10396000FFFFFF0DFFFFFF0DFFFFFF0DFFFFFF0D2F
:10397000FFFFFF0DFFFFFF0DFFFFFF0DFFFFFF0D1F
:10398000FFFFFF0DFFFFFF0DFFFFFF0DFFFFFF0D0F
:10399000FFFFFF0DFFFFFF0DFFFFFF0DFFFFFF0DFF
:1039A000FFFFFF0DFFFFFF0DFFFFFF0DFFFFFF0DEF
:1039B000FFFFFF0DFFFFFF0DFFFFFF0DFFFFFF0DDF
:1039C000FFFFFF0DFFFFFF0DFFFFFF0DFFFFFF0DCF
:1039D000FFFFFF0DFFFFFF0DFFFFFF0DFFFFFF0DBF
:1039E000FFFFFF0DFFFFFF0DFFFFFF0DFFFFFF0DAF
:1039F000FFFFFF0DFFFFFF0DFFFFFF0DFFFFFF0D9F
:103A0000FFFFFF0DFFFFFF0DFFFFFF0DFFFFFF0D8E
:103A1000FFFFFF0DFFFFFF0DFFFFFF0DFFFFFF0D7E
:103A2000FFFFFF0DFFFFFF0DFFFFFF0DFFFFFF0D6E
:103A3000FFFFFF0DFFFFFF0DFFFFFF0DFFFFFF0D5E
:103A4000FFFFFF0DFFFFFF0DFFFFFF0D63B9760DB9
:103A50000A91280D2BA0450D2BA0450D2BA0450D3F
:103A60002BA0450D2BA0450D2BA0450D2BA0450DE2
:103A70002BA0450D2BA0450D2BA0450D2BA0450DD2
:103A80002BA0450D2BA0450D2BA0450D2BA0450DC2
:103A90002BA0450D2BA0450D2BA0450D2BA0450DB2
:103F50002BA0450D2BA0450D2BA0450DFFFFFF0D00
:103F6000FFFFFF0DFFFFFF0DFFFFFF0DFFFFFF0D29
:103F7000FFFFFF0DFFFFFF0DFFFFFF0DFFFFFF0D19
:103F8000FFFFFF0DFFFFFF0DFFFFFF0DFFFFFF0D09
:103F9000FFFFFF0DFFFFFF0DFFFFFF0DFFFFFF0DF9
:103FA000FFFFFF0DFFFFFF0DFFFFFF0DFFFFFF0DE9
:103FB000FFFFFF0DFFFFFF0DFFFFFF0DFFFFFF0DD9
:103FC000FFFFFF0DFFFFFF0DFFFFFF0DFFFFFF0DC9
:103FD000FFFFFF0DFFFFFF0DFFFFFF0DFFFFFF0DB9
:103FE000FFFFFF0DFFFFFF0DFFFFFF0DFFFFFF0DA9
:103FF000FFFFFF0DFFFFFF0DFFFFFF0DFFFFFF0D99
:10400000FFFFFF0DFFFFFF0DFFFFFF0DFFFFFF0D88
:10401000FFFFFF0DFFFFFF0DFFFFFF0DFFFFFF0D78
:10402000FFFFFF0DFFFFFF0DFFFFFF0DFFFFFF0D68
:10403000FFFFFF0DFFFFFF0DFFFFFF0DFFFFFF0D58
:10404000FFFFFF0DFFFFFF0DFFFFFF0DFFFFFF0D48
:10405000FFFFFF0DFFFFFF0DFFFFFF0DFFFFFF0D38
:10406000FFFFFF0DFFFFFF0DFFFFFF0DFFFFFF0D28
:10407000FFFFFF0DFFFFFF0DFFFFFF0DFFFFFF0D18
:10408000FFFFFF0DFFFFFF0DFFFFFF0DFFFFFF0D08
:10409000FFFFFF0DFFFFFF0DFFFFFF0DFFFFFF0DF8
:1040A000FFFFFF0DFFFFFF0DFFFFFF0DFFFFFF0DE8
:1040B000FFFFFF0DFFFFFF0DFFFFFF0DFFFFFF0DD8
:1040C000FFFFFF0DFFFFFF0DFFFFFF0DFFFFFF0DC8
:1040D000FFFFFF0DFFFFFF0DFFFFFF0DFFFFFF0DB8
:1040E000FFFFFF0DFFFFFF0DFFFFFF0DFFFFFF0DA8
:1040F000FFFFFF0DFFFFFF0DFFFFFF0DFFFFFF0D98
:10410000FFFFFF0DFFFFFF0DFFFFFF0DFFFFFF0D87
:10411000FFFFFF0DFFFFFF0DFFFFFF0DFFFFFF0D77
:10412000FFFFFF0DFFFFFF0DFFFFFF0D63B9760DD2
:104130000A91280D2BA0450D2BA0450D2BA0450D58
:104140002BA0450D2BA0450D2BA0450D2BA0450DFB
:104150002BA0450D2BA0450D2BA0450D2BA0450DEB
:104160002BA0450D2BA0450D2BA0450D2BA0450DDB
:104170002BA0450D2BA0450D2BA0450D2BA0450DCB
:104630002BA0450D2BA0450D2BA0450DFFFFFF0D19
:10464000FFFFFF0DFFFFFF0DFFFFFF0DFFFFFF0D42
:10465000FFFFFF0DFFFFFF0DFFFFFF0DFFFFFF0D32
:10466000FFFFFF0DFFFFFF0DFFFFFF0DFFFFFF0D22
:10467000FFFFFF0DFFFFFF0DFFFFFF0DFFFFFF0D12
:10468000FFFFFF0DFFFFFF0DFFFFFF0DFFFFFF0D02
:10469000FFFFFF0DFFFFFF0DFFFFFF0DFFFFFF0DF2
:1046A000FFFFFF0DFFFFFF0DFFFFFF0DFFFFFF0DE2
:1046B000FFFFFF0DFFFFFF0DFFFFFF0DFFFFFF0DD2
:1046C000FFFFFF0DFFFFFF0DFFFFFF0DFFFFFF0DC2
:1046D000FFFFFF0DFFFFFF0DFFFFFF0DFFFFFF0DB2
:1046E000FFFFFF0DFFFFFF0DFFFFFF0DFFFFFF0DA2
:1046F000FFFFFF0DFFFFFF0DFFFFFF0DFFFFFF0D92
:10470000FFFFFF0DFFFFFF0DFFFFFF0DFFFFFF0D81
:10471000FFFFFF0DFFFFFF0DFFFFFF0DFFFFFF0D71
:10472000FFFFFF0DFFFFFF0DFFFFFF0DFFFFFF0D61
:10473000FFFFFF0DFFFFFF0DFFFFFF0DFFFFFF0D51
:10474000FFFFFF0DFFFFFF0DFFFFFF0DFFFFFF0D41
:10475000FFFFFF0DFFFFFF0DFFFFFF0DFFFFFF0D31
:10476000FFFFFF0DFFFFFF0DFFFFFF0D63B9760D8C
:104770000A91280D2BA0450D2BA0450D2BA0450D12
:104780002BA0450D2BA0450D2BA0450D2BA0450DB5
:104790002BA0450D2BA0450D2BA0450D2BA0450DA5
:1047A0002BA0450D2BA0450D2BA0450D2BA0450D95
:1047B0002BA0450D2BA0450D2BA0450D2BA0450D85
:104C70002BA0450D2BA0450D2BA0450DFFFFFF0DD3
:104C8000FFFFFF0DFFFFFF0DFFFFFF0DFFFFFF0DFC
:104C9000FFFFFF0DFFFFFF0DFFFFFF0DFFFFFF0DEC
:104CA000FFFFFF0DFFFFFF0DFFFFFF0DFFFFFF0DDC
:104CB000FFFFFF0DFFFFFF0DFFFFFF0DFFFFFF0DCC
:104CC000FFFFFF0DFFFFFF0DFFFFFF0DFFFFFF0DBC
:104CD000FFFFFF0DFFFFFF0DFFFFFF0DFFFFFF0DAC
:104CE000FFFFFF0DFFFFFF0DFFFFFF0DFFFFFF0D9C
:104CF000FFFFFF0DFFFFFF0DFFFFFF0DFFFFFF0D8C
:104D0000FFFFFF0DFFFFFF0DFFFFFF0DFFFFFF0D7B
:104D1000FFFFFF0DFFFFFF0DFFFFFF0DFFFFFF0D6B
:104D2000FFFFFF0DFFFFFF0DFFFFFF0DFFFFFF0D5B
:104D3000FFFFFF0DFFFFFF0DFFFFFF0DFFFFFF0D4B
:104D4000FFFFFF0DFFFFFF0DFFFFFF0DFFFFFF0D3B
:104D5000FFFFFF0DFFFFFF0DFFFFFF0DFFFFFF0D2B
:104D6000FFFFFF0DFFFFFF0DFFFFFF0DFFFFFF0D1B
:104D7000FFFFFF0DFFFFFF0DFFFFFF0DFFFFFF0D0B
:104D8000FFFFFF0DFFFFFF0DFFFFFF0DFFFFFF0DFB
:104D9000FFFFFF0DFFFFFF0DFFFFFF0DFFFFFF0DEB
:104DA000FFFFFF0DFFFFFF0DFFFFFF0DFFFFFF0DDB
:104DB000FFFFFF0DFFFFFF0DFFFFFF0DFFFFFF0DCB
:104DC000FFFFFF0DFFFFFF0DFFFFFF0DFFFFFF0DBB
:104DD000FFFFFF0DFFFFFF0DFFFFFF0DFFFFFF0DAB
:104DE000FFFFFF0DFFFFFF0DFFFFFF0DFFFFFF0D9B
:104DF000FFFFFF0DFFFFFF0DFFFFFF0DFFFFFF0D8B
:104E0000FFFFFF0DFFFFFF0DFFFFFF0DFFFFFF0D7A
:104E1000FFFFFF0DFFFFFF0DFFFFFF0DFFFFFF0D6A
:104E2000FFFFFF0DFFFFFF0DFFFFFF0DFFFFFF0D5A
:104E3000FFFFFF0DFFFFFF0DFFFFFF0DFFFFFF0D4A
:104E4000FFFFFF0DFFFFFF0DFFFFFF0D63B9760DA5
:104E50000A91280D2BA0450D2BA0450D2BA0450D2B
:104E60002BA0450D2BA0450D2BA0450D2BA0450DCE
:104E70002BA0450D2BA0450D2BA0450D2BA0450DBE
:104E80002BA0450D2BA0450D2BA0450D2BA0450DAE
:104E90002BA0450D2BA0450D2BA0450D2BA0450D9E
:105350002BA0450D2BA0450D2BA0450DFFFFFF0DEC
:10536000FFFFFF0DFFFFFF0DFFFFFF0DFFFFFF0D15
:10537000FFFFFF0DFFFFFF0DFFFFFF0DFFFFFF0D05
:10538000FFFFFF0DFFFFFF0DFFFFFF0DFFFFFF0DF5
:10539000FFFFFF0DFFFFFF0DFFFFFF0DFFFFFF0DE5
:1053A000FFFFFF0DFFFFFF0DFFFFFF0DFFFFFF0DD5
:1053B000FFFFFF0DFFFFFF0DFFFFFF0DFFFFFF0DC5
:1053C000FFFFFF0DFFFFFF0DFFFFFF0DFFFFFF0DB5
:1053D000FFFFFF0DFFFFFF0DFFFFFF0DFFFFFF0DA5
:1053E000FFFFFF0DFFFFFF0DFFFFFF0DFFFFFF0D95
:1053F000FFFFFF0DFFFFFF0DFFFFFF0DFFFFFF0D85
:10540000FFFFFF0DFFFFFF0DFFFFFF0DFFFFFF0D74
:10541000FFFFFF0DFFFFFF0DFFFFFF0DFFFFFF0D64
:10542000FFFFFF0DFFFFFF0DFFFFFF0DFFFFFF0D54
:10543000FFFFFF0DFFFFFF0DFFFFFF0DFFFFFF0D44
:10544000FFFFFF0DFFFFFF0DFFFFFF0DFFFFFF0D34
:10545000FFFFFF0DFFFFFF0DFFFFFF0DFFFFFF0D24
:10546000FFFFFF0DFFFFFF0DFFFFFF0DFFFFFF0D14
:10547000FFFFFF0DFFFFFF0DFFFFFF0DFFFFFF0D04
:10548000FFFFFF0DFFFFFF0DFFFFFF0DFFFFFF0DF4
:10549000FFFFFF0DFFFFFF0DFFFFFF0DFFFFFF0DE4
:1054A000FFFFFF0DFFFFFF0DFFFFFF0DFFFFFF0DD4
:1054B000FFFFFF0DFFFFFF0DFFFFFF0DFFFFFF0DC4
:1054C000FFFFFF0DFFFFFF0DFFFFFF0DFFFFFF0DB4
:1054D000FFFFFF0DFFFFFF0DFFFFFF0D63B9760D0F
:1054E0000A91280D2BA0450D2BA0450D2BA0450D95
:1054F0002BA0450D2BA0450D2BA0450D2BA0450D38
:105500002BA0450D2BA0450D2BA0450D2BA0450D27
:105510002BA0450D2BA0450D2BA0450D2BA0450D17
:105520002BA0450D2BA0450D2BA0450D2BA0450D07
:1059E0002BA0450D2BA0450D2BA0450DFFFFFF0D56
:1059F000FFFFFF0DFFFFFF0DFFFFFF0DFFFFFF0D7F
:105A0000FFFFFF0DFFFFFF0DFFFFFF0DFFFFFF0D6E
:105A1000FFFFFF0DFFFFFF0DFFFFFF0DFFFFFF0D5E
:105A2000FFFFFF0DFFFFFF0DFFFFFF0DFFFFFF0D4E
:105A3000FFFFFF0DFFFFFF0DFFFFFF0DFFFFFF0D3E
:105A4000FFFFFF0DFFFFFF0DFFFFFF0DFFFFFF0D2E
:105A5000FFFFFF0DFFFFFF0DFFFFFF0DFFFFFF0D1E
:105A6000FFFFFF0DFFFFFF0DFFFFFF0DFFFFFF0D0E
:105A7000FFFFFF0DFFFFFF0DFFFFFF0DFFFFFF0DFE
:105A8000FFFFFF0DFFFFFF0DFFFFFF0DFFFFFF0DEE
:105A9000FFFFFF0DFFFFFF0DFFFFFF0DFFFFFF0DDE
:105AA000FFFFFF0DFFFFFF0DFFFFFF0DFFFFFF0DCE
:105AB000FFFFFF0DFFFFFF0DFFFFFF0DFFFFFF0DBE
:105AC000FFFFFF0DFFFFFF0DFFFFFF0DFFFFFF0DAE
:105AD000FFFFFF0DFFFFFF0DFFFFFF0DFFFFFF0D9E
:105AE000FFFFFF0DFFFFFF0DFFFFFF0DFFFFFF0D8E
:105AF000FFFFFF0DFFFFFF0DFFFFFF0DFFFFFF0D7E
:105B0000FFFFFF0DFFFFFF0DFFFFFF0DFFFFFF0D6D
:105B1000FFFFFF0DFFFFFF0DFFFFFF0DFFFFFF0D5D
:105B2000FFFFFF0DFFFFFF0DFFFFFF0DFFFFFF0D4D
:105B3000FFFFFF0DFFFFFF0DFFFFFF0DFFFFFF0D3D
:105B4000FFFFFF0DFFFFFF0DFFFFFF0DFFFFFF0D2D
:105B5000FFFFFF0DFFFFFF0DFFFFFF0DFFFFFF0D1D
:105B6000FFFFFF0DFFFFFF0DFFFFFF0DFFFFFF0D0D
:105B7000FFFFFF0DFFFFFF0DFFFFFF0DFFFFFF0DFD
:105B8000FFFFFF0DFFFFFF0DFFFFFF0DFFFFFF0DED
:105B9000FFFFFF0DFFFFFF0DFFFFFF0DFFFFFF0DDD
:105BA000FFFFFF0DFFFFFF0DFFFFFF0DFFFFFF0DCD
:105BB000FFFFFF0DFFFFFF0DFFFFFF0D63B9760D28
:105BC0000A91280D2BA0450D2BA0450D2BA0450DAE
:105BD0002BA0450D2BA0450D2BA0450D2BA0450D51
:105BE0002BA0450D2BA0450D2BA0450D2BA0450D41
:105BF0002BA0450D2BA0450D2BA0450D2BA0450D31
:105C00002BA0450D2BA0450D2BA0450D2BA0450D20
:1060C0002BA0450D2BA0450D2BA0450DFFFFFF0D6F
:1060D000FFFFFF0DFFFFFF0DFFFFFF0DFFFFFF0D98
:1060E000FFFFFF0DFFFFFF0DFFFFFF0DFFFFFF0D88
:1060F000FFFFFF0DFFFFFF0DFFFFFF0DFFFFFF0D78
:10610000FFFFFF0DFFFFFF0DFFFFFF0DFFFFFF0D67
:10611000FFFFFF0DFFFFFF0DFFFFFF0DFFFFFF0D57
:10612000FFFFFF0DFFFFFF0DFFFFFF0DFFFFFF0D47
:10613000FFFFFF0DFFFFFF0DFFFFFF0DFFFFFF0D37
:10614000FFFFFF0DFFFFFF0DFFFFFF0DFFFFFF0D27
:10615000FFFFFF0DFFFFFF0DFFFFFF0DFFFFFF0D17
:10616000FFFFFF0DFFFFFF0DFFFFFF0DFFFFFF0D07
:10617000FFFFFF0DFFFFFF0DFFFFFF0DFFFFFF0DF7
:10618000FFFFFF0DFFFFFF0DFFFFFF0DFFFFFF0DE7
:10619000FFFFFF0DFFFFFF0DFFFFFF0DFFFFFF0DD7
:1061A000FFFFFF0DFFFFFF0DFFFFFF0DFFFFFF0DC7
:1061B000FFFFFF0DFFFFFF0DFFFFFF0DFFFFFF0DB7
:1061C000FFFFFF0DFFFFFF0DFFFFFF0DFFFFFF0DA7
:1061D000FFFFFF0DFFFFFF0DFFFFFF0DFFFFFF0D97
:1061E000FFFFFF0DFFFFFF0DFFFFFF0DFFFFFF0D87
:1061F000FFFFFF0DFFFFFF0DFFFFFF0D63B9760DE2
:106200000A91280D2BA0450D2BA0450D2BA0450D67
:106210002BA0450D2BA0450D2BA0450D2BA0450D0A
:106220002BA0450D2BA0450D2BA0450D2BA0450DFA
:106230002BA0450D2BA0450D2BA0450D2BA0450DEA
:106240002BA0450D2BA0450D2BA0450D2BA0450DDA
:106700002BA0450D2BA0450D2BA0450DFFFFFF0D28
:10671000FFFFFF0DFFFFFF0DFFFFFF0DFFFFFF0D51
:10672000FFFFFF0DFFFFFF0DFFFFFF0DFFFFFF0D41
:10673000FFFFFF0DFFFFFF0DFFFFFF0DFFFFFF0D31
:10674000FFFFFF0DFFFFFF0DFFFFFF0DFFFFFF0D21
:10675000FFFFFF0DFFFFFF0DFFFFFF0DFFFFFF0D11
:10676000FFFFFF0DFFFFFF0DFFFFFF0DFFFFFF0D01
:10677000FFFFFF0DFFFFFF0DFFFFFF0DFFFFFF0DF1
:10678000FFFFFF0DFFFFFF0DFFFFFF0DFFFFFF0DE1
:10679000FFFFFF0DFFFFFF0DFFFFFF0DFFFFFF0DD1
:1067A000FFFFFF0DFFFFFF0DFFFFFF0DFFFFFF0DC1
:1067B000FFFFFF0DFFFFFF0DFFFFFF0DFFFFFF0DB1
:1067C000FFFFFF0DFFFFFF0DFFFFFF0DFFFFFF0DA1
:1067D000FFFFFF0DFFFFFF0DFFFFFF0DFFFFFF0D91
:1067E000FFFFFF0DFFFFFF0DFFFFFF0DFFFFFF0D81
:1067F000FFFFFF0DFFFFFF0DFFFFFF0DFFFFFF0D71
:10680000FFFFFF0DFFFFFF0DFFFFFF0DFFFFFF0D60
:10681000FFFFFF0DFFFFFF0DFFFFFF0DFFFFFF0D50
:10682000FFFFFF0DFFFFFF0DFFFFFF0DFFFFFF0D40
:10683000FFFFFF0DFFFFFF0DFFFFFF0DFFFFFF0D30
:10684000FFFFFF0DFFFFFF0DFFFFFF0DFFFFFF0D20
:10685000FFFFFF0DFFFFFF0DFFFFFF0DFFFFFF0D10
:10686000FFFFFF0DFFFFFF0DFFFFFF0DFFFFFF0D00
:10687000FFFFFF0DFFFFFF0DFFFFFF0DFFFFFF0DF0
:10688000FFFFFF0DFFFFFF0DFFFFFF0DFFFFFF0DE0
:10689000FFFFFF0DFFFFFF0DFFFFFF0DFFFFFF0DD0
:1068A000FFFFFF0DFFFFFF0DFFFFFF0DFFFFFF0DC0
:1068B000FFFFFF0DFFFFFF0DFFFFFF0DFFFFFF0DB0
:1068C000FFFFFF0DFFFFFF0DFFFFFF0DFFFFFF0DA0
:1068D000FFFFFF0DFFFFFF0DFFFFFF0D63B9760DFB
:1068E0000A91280D2BA0450D2BA0450D2BA0450D81
:1068F0002BA0450D2BA0450D2BA0450D2BA0450D24
:106900002BA0450D2BA0450D2BA0450D2BA0450D13
:106910002BA0450D2BA0450D2BA0450D2BA0450D03
:106920002BA0450D2BA0450D2BA0450D2BA0450DF3
:106DE0002BA0450D2BA0450D2BA0450DFFFFFF0D42
:106DF000FFFFFF0DFFFFFF0DFFFFFF0DFFFFFF0D6B
:106E0000FFFFFF0DFFFFFF0DFFFFFF0DFFFFFF0D5A
:106E1000FFFFFF0DFFFFFF0DFFFFFF0DFFFFFF0D4A
:106E2000FFFFFF0DFFFFFF0DFFFFFF0DFFFFFF0D3A
:106E3000FFFFFF0DFFFFFF0DFFFFFF0DFFFFFF0D2A
:106E4000FFFFFF0DFFFFFF0DFFFFFF0DFFFFFF0D1A
:106E5000FFFFFF0DFFFFFF0DFFFFFF0DFFFFFF0D0A
:106E6000FFFFFF0DFFFFFF0DFFFFFF0DFFFFFF0DFA
:106E7000FFFFFF0DFFFFFF0DFFFFFF0DFFFFFF0DEA
:106E8000FFFFFF0DFFFFFF0DFFFFFF0DFFFFFF0DDA
:106E9000FFFFFF0DFFFFFF0DFFFFFF0DFFFFFF0DCA
:106EA000FFFFFF0DFFFFFF0DFFFFFF0DFFFFFF0DBA
:106EB000FFFFFF0DFFFFFF0DFFFFFF0DFFFFFF0DAA
:106EC000FFFFFF0DFFFFFF0DFFFFFF0DFFFFFF0D9A
:106ED000FFFFFF0DFFFFFF0DFFFFFF0DFFFFFF0D8A
:106EE000FFFFFF0DFFFFFF0DFFFFFF0DFFFFFF0D7A
:106EF000FFFFFF0DFFFFFF0DFFFFFF0DFFFFFF0D6A
:106F0000FFFFFF0DFFFFFF0DFFFFFF0DFFFFFF0D59
:106F1000FFFFFF0DFFFFFF0DFFFFFF0DFFFFFF0D49
:106F2000FFFFFF0DFFFFFF0DFFFFFF0DFFFFFF0D39
:106F3000FFFFFF0DFFFFFF0DFFFFFF0DFFFFFF0D29
:106F4000FFFFFF0DFFFFFF0DFFFFFF0DFFFFFF0D19
:106F5000FFFFFF0DFFFFFF0DFFFFFF0DFFFFFF0D09
:106F6000FFFFFF0DFFFFFF0DFFFFFF0D63B9760D64
:106F70000A91280D2BA0450D2BA0450D2BA0450DEA
:106F80002BA0450D2BA0450D2BA0450D2BA0450D8D
:106F90002BA0450D2BA0450D2BA0450D2BA0450D7D
:106FA0002BA0450D2BA0450D2BA0450D2BA0450D6D
:106FB0002BA0450D2BA0450D2BA0450D2BA0450D5D
:107470002BA0450D2BA0450D2BA0450DFFFFFF0DAB
:10748000FFFFFF0DFFFFFF0DFFFFFF0DFFFFFF0DD4
:10749000FFFFFF0DFFFFFF0DFFFFFF0DFFFFFF0DC4
:1074A000FFFFFF0DFFFFFF0DFFFFFF0DFFFFFF0DB4
:1074B000FFFFFF0DFFFFFF0DFFFFFF0DFFFFFF0DA4
:1074C000FFFFFF0DFFFFFF0DFFFFFF0DFFFFFF0D94
:1074D000FFFFFF0DFFFFFF0DFFFFFF0DFFFFFF0D84
:1074E000FFFFFF0DFFFFFF0DFFFFFF0DFFFFFF0D74
:1074F000FFFFFF0DFFFFFF0DFFFFFF0DFFFFFF0D64
:10750000FFFFFF0DFFFFFF0DFFFFFF0DFFFFFF0D53
:10751000FFFFFF0DFFFFFF0DFFFFFF0DFFFFFF0D43
:10752000FFFFFF0DFFFFFF0DFFFFFF0DFFFFFF0D33
:10753000FFFFFF0DFFFFFF0DFFFFFF0DFFFFFF0D23
:10754000FFFFFF0DFFFFFF0DFFFFFF0DFFFFFF0D13
:10755000FFFFFF0DFFFFFF0DFFFFFF0DFFFFFF0D03
:10756000FFFFFF0DFFFFFF0DFFFFFF0DFFFFFF0DF3
:10757000FFFFFF0DFFFFFF0DFFFFFF0DFFFFFF0DE3
:10758000FFFFFF0DFFFFFF0DFFFFFF0DFFFFFF0DD3
:10759000FFFFFF0DFFFFFF0DFFFFFF0DFFFFFF0DC3
:1075A000FFFFFF0DFFFFFF0DFFFFFF0DFFFFFF0DB3
:1075B000FFFFFF0DFFFFFF0DFFFFFF0DFFFFFF0DA3
:1075C000FFFFFF0DFFFFFF0DFFFFFF0DFFFFFF0D93
:1075D000FFFFFF0DFFFFFF0DFFFFFF0DFFFFFF0D83
:1075E000FFFFFF0DFFFFFF0DFFFFFF0DFFFFFF0D73
:1075F000FFFFFF0DFFFFFF0DFFFFFF0DFFFFFF0D63
:10760000FFFFFF0DFFFFFF0DFFFFFF0DFFFFFF0D52
:10761000FFFFFF0DFFFFFF0DFFFFFF0DFFFFFF0D42
:10762000FFFFFF0DFFFFFF0DFFFFFF0DFFFFFF0D32
:10763000FFFFFF0DFFFFFF0DFFFFFF0DFFFFFF0D22
:10764000FFFFFF0DFFFFFF0DFFFFFF0D63B9760D7D
:107650000A91280D2BA0450D2BA0450D2BA0450D03
:107660002BA0450D2BA0450D2BA0450D2BA0450DA6
:107670002BA0450D2BA0450D2BA0450D2BA0450D96
:107680002BA0450D2BA0450D2BA0450D2BA0450D86
:107690002BA0450D2BA0450D2BA0450D2BA0450D76
:107B50002BA0450D2BA0450D2BA0450DFFFFFF0DC4
:107B6000FFFFFF0DFFFFFF0DFFFFFF0DFFFFFF0DED
:107B7000FFFFFF0DFFFFFF0DFFFFFF0DFFFFFF0DDD
:107B8000FFFFFF0DFFFFFF0DFFFFFF0DFFFFFF0DCD
:107B9000FFFFFF0DFFFFFF0DFFFFFF0DFFFFFF0DBD
:107BA000FFFFFF0DFFFFFF0DFFFFFF0DFFFFFF0DAD
:107BB000FFFFFF0DFFFFFF0DFFFFFF0DFFFFFF0D9D
:107BC000FFFFFF0DFFFFFF0DFFFFFF0DFFFFFF0D8D
:107BD000FFFFFF0DFFFFFF0DFFFFFF0DFFFFFF0D7D
:107BE000FFFFFF0DFFFFFF0DFFFFFF0DFFFFFF0D6D
:107BF000FFFFFF0DFFFFFF0DFFFFFF0DFFFFFF0D5D
:107C0000FFFFFF0DFFFFFF0DFFFFFF0DFFFFFF0D4C
:107C1000FFFFFF0DFFFFFF0DFFFFFF0DFFFFFF0D3C
:107C2000FFFFFF0DFFFFFF0DFFFFFF0DFFFFFF0D2C
:107C3000FFFFFF0DFFFFFF0DFFFFFF0DFFFFFF0D1C
:107C4000FFFFFF0DFFFFFF0DFFFFFF0DFFFFFF0D0C
:107C5000FFFFFF0DFFFFFF0DFFFFFF0DFFFFFF0DFC
:107C6000FFFFFF0DFFFFFF0DFFFFFF0DFFFFFF0DEC
:107C7000FFFFFF0DFFFFFF0DFFFFFF0DFFFFFF0DDC
:107C8000FFFFFF0DFFFFFF0DFFFFFF0D63B9760D37
:107C90000A91280D2BA0450D2BA0450D2BA0450DBD
:107CA0002BA0450D2BA0450D2BA0450D2BA0450D60
:107CB0002BA0450D2BA0450D2BA0450D2BA0450D50
:107CC0002BA0450D2BA0450D2BA0450D2BA0450D40
:107CD0002BA0450D2BA0450D2BA0450D2BA0450D30
:108190002BA0450D2BA0450D2BA0450DFFFFFF0D7E
:1081A000FFFFFF0DFFFFFF0DFFFFFF0DFFFFFF0DA7
:1081B000FFFFFF0DFFFFFF0DFFFFFF0DFFFFFF0D97
:1081C000FFFFFF0DFFFFFF0DFFFFFF0DFFFFFF0D87
:1081D000FFFFFF0DFFFFFF0DFFFFFF0DFFFFFF0D77
:1081E000FFFFFF0DFFFFFF0DFFFFFF0DFFFFFF0D67
:1081F000FFFFFF0DFFFFFF0DFFFFFF0DFFFFFF0D57
:10820000FFFFFF0DFFFFFF0DFFFFFF0DFFFFFF0D46
:10821000FFFFFF0DFFFFFF0DFFFFFF0DFFFFFF0D36
:10822000FFFFFF0DFFFFFF0DFFFFFF0DFFFFFF0D26
:10823000FFFFFF0DFFFFFF0DFFFFFF0DFFFFFF0D16
:10824000FFFFFF0DFFFFFF0DFFFFFF0DFFFFFF0D06
:10825000FFFFFF0DFFFFFF0DFFFFFF0DFFFFFF0DF6
:10826000FFFFFF0DFFFFFF0DFFFFFF0DFFFFFF0DE6
:10827000FFFFFF0DFFFFFF0DFFFFFF0DFFFFFF0DD6
:10828000FFFFFF0DFFFFFF0DFFFFFF0DFFFFFF0DC6
:10829000FFFFFF0DFFFFFF0DFFFFFF0DFFFFFF0DB6
:1082A000FFFFFF0DFFFFFF0DFFFFFF0DFFFFFF0DA6
:1082B000FFFFFF0DFFFFFF0DFFFFFF0DFFFFFF0D96
:1082C000FFFFFF0DFFFFFF0DFFFFFF0DFFFFFF0D86
:1082D000FFFFFF0DFFFFFF0DFFFFFF0DFFFFFF0D76
:1082E000FFFFFF0DFFFFFF0DFFFFFF0DFFFFFF0D66
:1082F000FFFFFF0DFFFFFF0DFFFFFF0DFFFFFF0D56
:10830000FFFFFF0DFFFFFF0DFFFFFF0DFFFFFF0D45
:10831000FFFFFF0DFFFFFF0DFFFFFF0DFFFFFF0D35
:10832000FFFFFF0DFFFFFF0DFFFFFF0DFFFFFF0D25
:10833000FFFFFF0DFFFFFF0DFFFFFF0DFFFFFF0D15
:10834000FFFFFF0DFFFFFF0DFFFFFF0DFFFFFF0D05
:10835000FFFFFF0DFFFFFF0DFFFFFF0DFFFFFF0DF5
:10836000FFFFFF0DFFFFFF0DFFFFFF0D63B9760D50
:108370000A91280D2BA0450D2BA0450D2BA0450DD6
:108380002BA0450D2BA0450D2BA0450D2BA0450D79
:108390002BA0450D2BA0450D2BA0450D2BA0450D69
:1083A0002BA0450D2BA0450D2BA0450D2BA0450D59
:1083B0002BA0450D2BA0450D2BA0450D2BA0450D49
:108870002BA0450D2BA0450D2BA0450DFFFFFF0D97
:10888000FFFFFF0DFFFFFF0DFFFFFF0DFFFFFF0DC0
:10889000FFFFFF0DFFFFFF0DFFFFFF0DFFFFFF0DB0
:1088A000FFFFFF0DFFFFFF0DFFFFFF0DFFFFFF0DA0
:1088B000FFFFFF0DFFFFFF0DFFFFFF0DFFFFFF0D90
:1088C000FFFFFF0DFFFFFF0DFFFFFF0DFFFFFF0D80
:1088D000FFFFFF0DFFFFFF0DFFFFFF0DFFFFFF0D70
:1088E000FFFFFF0DFFFFFF0DFFFFFF0DFFFFFF0D60
:1088F000FFFFFF0DFFFFFF0DFFFFFF0DFFFFFF0D50
:10890000FFFFFF0DFFFFFF0DFFFFFF0DFFFFFF0D3F
:10891000FFFFFF0DFFFFFF0DFFFFFF0DFFFFFF0D2F
:10892000FFFFFF0DFFFFFF0DFFFFFF0DFFFFFF0D1F
:10893000FFFFFF0DFFFFFF0DFFFFFF0DFFFFFF0D0F
:10894000FFFFFF0DFFFFFF0DFFFFFF0DFFFFFF0DFF
:10895000FFFFFF0DFFFFFF0DFFFFFF0DFFFFFF0DEF
:10896000FFFFFF0DFFFFFF0DFFFFFF0DFFFFFF0DDF
:10897000FFFFFF0DFFFFFF0DFFFFFF0DFFFFFF0DCF
:10898000FFFFFF0DFFFFFF0DFFFFFF0DFFFFFF0DBF
:10899000FFFFFF0DFFFFFF0DFFFFFF0DFFFFFF0DAF
:1089A000FFFFFF0DFFFFFF0DFFFFFF0DFFFFFF0D9F
:1089B000FFFFFF0DFFFFFF0DFFFFFF0DFFFFFF0D8F
:1089C000FFFFFF0DFFFFFF0DFFFFFF0DFFFFFF0D7F
:1089D000FFFFFF0DFFFFFF0DFFFFFF0DFFFFFF0D6F
:1089E000FFFFFF0DFFFFFF0DFFFFFF0DFFFFFF0D5F
:1089F000FFFFFF0DFFFFFF0DFFFFFF0D63B9760DBA
:108A00000A91280D2BA0450D2BA0450D2BA0450D3F
:108A10002BA0450D2BA0450D2BA0450D2BA0450DE2
:108A20002BA0450D2BA0450D2BA0450D2BA0450DD2
:108A30002BA0450D2BA0450D2BA0450D2BA0450DC2
:108A40002BA0450D2BA0450D2BA0450D2BA0450DB2
:108F00002BA0450D2BA0450D2BA0450DFFFFFF0D00
:108F1000FFFFFF0DFFFFFF0DFFFFFF0DFFFFFF0D29
:108F2000FFFFFF0DFFFFFF0DFFFFFF0DFFFFFF0D19
:108F3000FFFFFF0DFFFFFF0DFFFFFF0DFFFFFF0D09
:108F4000FFFFFF0DFFFFFF0DFFFFFF0DFFFFFF0DF9
:108F5000FFFFFF0DFFFFFF0DFFFFFF0DFFFFFF0DE9
:108F6000FFFFFF0DFFFFFF0DFFFFFF0DFFFFFF0DD9
:108F7000FFFFFF0DFFFFFF0DFFFFFF0DFFFFFF0DC9
:108F8000FFFFFF0DFFFFFF0DFFFFFF0DFFFFFF0DB9
:108F9000FFFFFF0DFFFFFF0DFFFFFF0DFFFFFF0DA9
:108FA000FFFFFF0DFFFFFF0DFFFFFF0DFFFFFF0D99
:108FB000FFFFFF0DFFFFFF0DFFFFFF0DFFFFFF0D89
:108FC000FFFFFF0DFFFFFF0DFFFFFF0DFFFFFF0D79
:108FD000FFFFFF0DFFFFFF0DFFFFFF0DFFFFFF0D69
:108FE000FFFFFF0DFFFFFF0DFFFFFF0DFFFFFF0D59
:108FF000FFFFFF0DFFFFFF0DFFFFFF0DFFFFFF0D49
:10900000FFFFFF0DFFFFFF0DFFFFFF0DFFFFFF0D38
:10901000FFFFFF0DFFFFFF0DFFFFFF0DFFFFFF0D28
:10902000FFFFFF0DFFFFFF0DFFFFFF0DFFFFFF0D18
:10903000FFFFFF0DFFFFFF0DFFFFFF0DFFFFFF0D08
:10904000FFFFFF0DFFFFFF0DFFFFFF0DFFFFFF0DF8
:10905000FFFFFF0DFFFFFF0DFFFFFF0DFFFFFF0DE8
:10906000FFFFFF0DFFFFFF0DFFFFFF0DFFFFFF0DD8
:10907000FFFFFF0DFFFFFF0DFFFFFF0DFFFFFF0DC8
:10908000FFFFFF0DFFFFFF0DFFFFFF0DFFFFFF0DB8
:10909000FFFFFF0DFFFFFF0DFFFFFF0DFFFFFF0DA8
:1090A000FFFFFF0DFFFFFF0DFFFFFF0DFFFFFF0D98
:1090B000FFFFFF0DFFFFFF0DFFFFFF0DFFFFFF0D88
:1090C000FFFFFF0DFFFFFF0DFFFFFF0DFFFFFF0D78
:1090D000FFFFFF0DFFFFFF0DFFFFFF0D63B9760DD3
:1090E0000A91280D2BA0450D2BA0450D2BA0450D59
:1090F0002BA0450D2BA0450D2BA0450D2BA0450DFC
:109100002BA0450D2BA0450D2BA0450D2BA0450DEB
:109110002BA0450D2BA0450D2BA0450D2BA0450DDB
:109120002BA0450D2BA0450D2BA0450D2BA0450DCB
:1095E0002BA0450D2BA0450D2BA0450DFFFFFF0D1A
:1095F000FFFFFF0DFFFFFF0DFFFFFF0DFFFFFF0D43
:10960000FFFFFF0DFFFFFF0DFFFFFF0DFFFFFF0D32
:10961000FFFFFF0DFFFFFF0DFFFFFF0DFFFFFF0D22
:10962000FFFFFF0DFFFFFF0DFFFFFF0DFFFFFF0D12
:10963000FFFFFF0DFFFFFF0DFFFFFF0DFFFFFF0D02
:10964000FFFFFF0DFFFFFF0DFFFFFF0DFFFFFF0DF2
:10965000FFFFFF0DFFFFFF0DFFFFFF0DFFFFFF0DE2
:10966000FFFFFF0DFFFFFF0DFFFFFF0DFFFFFF0DD2
:10967000FFFFFF0DFFFFFF0DFFFFFF0DFFFFFF0DC2
:10968000FFFFFF0DFFFFFF0DFFFFFF0DFFFFFF0DB2
:10969000FFFFFF0DFFFFFF0DFFFFFF0DFFFFFF0DA2
:1096A000FFFFFF0DFFFFFF0DFFFFFF0DFFFFFF0D92
:1096B000FFFFFF0DFFFFFF0DFFFFFF0DFFFFFF0D82
:1096C000FFFFFF0DFFFFFF0DFFFFFF0DFFFFFF0D72
:1096D000FFFFFF0DFFFFFF0DFFFFFF0DFFFFFF0D62
:1096E000FFFFFF0DFFFFFF0DFFFFFF0DFFFFFF0D52
:1096F000FFFFFF0DFFFFFF0DFFFFFF0DFFFFFF0D42
:10970000FFFFFF0DFFFFFF0DFFFFFF0DFFFFFF0D31
:10971000FFFFFF0DFFFFFF0DFFFFFF0D63B9760D8C
:109720000A91280D2BA0450D2BA0450D2BA0450D12
:109730002BA0450D2BA0450D2BA0450D2BA0450DB5
:109740002BA0450D2BA0450D2BA0450D2BA0450DA5
:109750002BA0450D2BA0450D2BA0450D2BA0450D95
:109760002BA0450D2BA0450D2BA0450D2BA0450D85
:109C20002BA0450D2BA0450D2BA0450DFFFFFF0DD3
:109C3000FFFFFF0DFFFFFF0DFFFFFF0DFFFFFF0DFC
:109C4000FFFFFF0DFFFFFF0DFFFFFF0DFFFFFF0DEC
:109C5000FFFFFF0DFFFFFF0DFFFFFF0DFFFFFF0DDC
:109C6000FFFFFF0DFFFFFF0DFFFFFF0DFFFFFF0DCC
:109C7000FFFFFF0DFFFFFF0DFFFFFF0DFFFFFF0DBC
:109C8000FFFFFF0DFFFFFF0DFFFFFF0DFFFFFF0DAC
:109C9000FFFFFF0DFFFFFF0DFFFFFF0DFFFFFF0D9C
:109CA000FFFFFF0DFFFFFF0DFFFFFF0DFFFFFF0D8C
:109CB000FFFFFF0DFFFFFF0DFFFFFF0DFFFFFF0D7C
:109CC000FFFFFF0DFFFFFF0DFFFFFF0DFFFFFF0D6C
:109CD000FFFFFF0DFFFFFF0DFFFFFF0DFFFFFF0D5C
:109CE000FFFFFF0DFFFFFF0DFFFFFF0DFFFFFF0D4C
:109CF000FFFFFF0DFFFFFF0DFFFFFF0DFFFFFF0D3C
:109D0000FFFFFF0DFFFFFF0DFFFFFF0DFFFFFF0D2B
:109D1000FFFFFF0DFFFFFF0DFFFFFF0DFFFFFF0D1B
:109D2000FFFFFF0DFFFFFF0DFFFFFF0DFFFFFF0D0B
:109D3000FFFFFF0DFFFFFF0DFFFFFF0DFFFFFF0DFB
:109D4000FFFFFF0DFFFFFF0DFFFFFF0DFFFFFF0DEB
:109D5000FFFFFF0DFFFFFF0DFFFFFF0DFFFFFF0DDB
:109D6000FFFFFF0DFFFFFF0DFFFFFF0DFFFFFF0DCB
:109D7000FFFFFF0DFFFFFF0DFFFFFF0DFFFFFF0DBB
:109D8000FFFFFF0DFFFFFF0DFFFFFF0DFFFFFF0DAB
:109D9000FFFFFF0DFFFFFF0DFFFFFF0DFFFFFF0D9B
:109DA000FFFFFF0DFFFFFF0DFFFFFF0DFFFFFF0D8B
:109DB000FFFFFF0DFFFFFF0DFFFFFF0DFFFFFF0D7B
:109DC000FFFFFF0DFFFFFF0DFFFFFF0DFFFFFF0D6B
:109DD000FFFFFF0DFFFFFF0DFFFFFF0DFFFFFF0D5B
:109DE000FFFFFF0DFFFFFF0DFFFFFF0DFFFFFF0D4B
:109DF000FFFFFF0DFFFFFF0DFFFFFF0D63B9760DA6
:109E00000A91280D2BA0450D2BA0450D2BA0450D2B
:109E10002BA0450D2BA0450D2BA0450D2BA0450DCE
:109E20002BA0450D2BA0450D2BA0450D2BA0450DBE
:109E30002BA0450D2BA0450D2BA0450D2BA0450DAE
:109E40002BA0450D2BA0450D2BA0450D2BA0450D9E
:10A300002BA0450D2BA0450D2BA0450DFFFFFF0DEC
:10A31000FFFFFF0DFFFFFF0DFFFFFF0DFFFFFF0D15
:10A32000FFFFFF0DFFFFFF0DFFFFFF0DFFFFFF0D05
:10A33000FFFFFF0DFFFFFF0DFFFFFF0DFFFFFF0DF5
:10A34000FFFFFF0DFFFFFF0DFFFFFF0DFFFFFF0DE5
:10A35000FFFFFF0DFFFFFF0DFFFFFF0DFFFFFF0DD5
:10A36000FFFFFF0DFFFFFF0DFFFFFF0DFFFFFF0DC5
:10A37000FFFFFF0DFFFFFF0DFFFFFF0DFFFFFF0DB5
:10A38000FFFFFF0DFFFFFF0DFFFFFF0DFFFFFF0DA5
:10A39000FFFFFF0DFFFFFF0DFFFFFF0DFFFFFF0D95
:10A3A000FFFFFF0DFFFFFF0DFFFFFF0DFFFFFF0D85
:10A3B000FFFFFF0DFFFFFF0DFFFFFF0DFFFFFF0D75
:10A3C000FFFFFF0DFFFFFF0DFFFFFF0DFFFFFF0D65
:10A3D000FFFFFF0DFFFFFF0DFFFFFF0DFFFFFF0D55
:10A3E000FFFFFF0DFFFFFF0DFFFFFF0DFFFFFF0D45
:10A3F000FFFFFF0DFFFFFF0DFFFFFF0DFFFFFF0D35
:10A40000FFFFFF0DFFFFFF0DFFFFFF0DFFFFFF0D24
:10A41000FFFFFF0DFFFFFF0DFFFFFF0DFFFFFF0D14
:10A42000FFFFFF0DFFFFFF0DFFFFFF0DFFFFFF0D04
:10A43000FFFFFF0DFFFFFF0DFFFFFF0DFFFFFF0DF4
:10A44000FFFFFF0DFFFFFF0DFFFFFF0DFFFFFF0DE4
:10A45000FFFFFF0DFFFFFF0DFFFFFF0DFFFFFF0DD4
:10A46000FFFFFF0DFFFFFF0DFFFFFF0DFFFFFF0DC4
:10A47000FFFFFF0DFFFFFF0DFFFFFF0DFFFFFF0DB4
:10A48000FFFFFF0DFFFFFF0DFFFFFF0D63B9760D0F
:10A490000A91280D2BA0450D2BA0450D2BA0450D95
:10A4A0002BA0450D2BA0450D2BA0450D2BA0450D38
:10A4B0002BA0450D2BA0450D2BA0450D2BA0450D28
:10A4C0002BA0450D2BA0450D2BA0450D2BA0450D18
:10A4D0002BA0450D2BA0450D2BA0450D2BA0450D08
:10A990002BA0450D2BA0450D2BA0450DFFFFFF0D56
:10A9A000FFFFFF0DFFFFFF0DFFFFFF0DFFFFFF0D7F
:10A9B000FFFFFF0DFFFFFF0DFFFFFF0DFFFFFF0D6F
:10A9C000FFFFFF0DFFFFFF0DFFFFFF0DFFFFFF0D5F
:10A9D000FFFFFF0DFFFFFF0DFFFFFF0DFFFFFF0D4F
:10A9E000FFFFFF0DFFFFFF0DFFFFFF0DFFFFFF0D3F
:10A9F000FFFFFF0DFFFFFF0DFFFFFF0DFFFFFF0D2F
:10AA0000FFFFFF0DFFFFFF0DFFFFFF0DFFFFFF0D1E
:10AA1000FFFFFF0DFFFFFF0DFFFFFF0DFFFFFF0D0E
:10AA2000FFFFFF0DFFFFFF0DFFFFFF0DFFFFFF0DFE
:10AA3000FFFFFF0DFFFFFF0DFFFFFF0DFFFFFF0DEE
:10AA4000FFFFFF0DFFFFFF0DFFFFFF0DFFFFFF0DDE
:10AA5000FFFFFF0DFFFFFF0DFFFFFF0DFFFFFF0DCE
:10AA6000FFFFFF0DFFFFFF0DFFFFFF0DFFFFFF0DBE
:10AA7000FFFFFF0DFFFFFF0DFFFFFF0DFFFFFF0DAE
:10AA8000FFFFFF0DFFFFFF0DFFFFFF0DFFFFFF0D9E
:10AA9000FFFFFF0DFFFFFF0DFFFFFF0DFFFFFF0D8E
:10AAA000FFFFFF0DFFFFFF0DFFFFFF0DFFFFFF0D7E
:10AAB000FFFFFF0DFFFFFF0DFFFFFF0DFFFFFF0D6E
:10AAC000FFFFFF0DFFFFFF0DFFFFFF0DFFFFFF0D5E
:10AAD000FFFFFF0DFFFFFF0DFFFFFF0DFFFFFF0D4E
:10AAE000FFFFFF0DFFFFFF0DFFFFFF0DFFFFFF0D3E
:10AAF000FFFFFF0DFFFFFF0DFFFFFF0DFFFFFF0D2E
:10AB0000FFFFFF0DFFFFFF0DFFFFFF0DFFFFFF0D1D
:10AB1000FFFFFF0DFFFFFF0DFFFFFF0DFFFFFF0D0D
:10AB2000FFFFFF0DFFFFFF0DFFFFFF0DFFFFFF0DFD
:10AB3000FFFFFF0DFFFFFF0DFFFFFF0DFFFFFF0DED
:10AB4000FFFFFF0DFFFFFF0DFFFFFF0DFFFFFF0DDD
:10AB5000FFFFFF0DFFFFFF0DFFFFFF0DFFFFFF0DCD
:10AB6000FFFFFF0DFFFFFF0DFFFFFF0D63B9760D28
:10AB70000A91280D2BA0450D2BA0450D2BA0450DAE
:10AB80002BA0450D2BA0450D2BA0450D2BA0450D51
:10AB90002BA0450D2BA0450D2BA0450D2BA0450D41
:10ABA0002BA0450D2BA0450D2BA0450D2BA0450D31
:10ABB0002BA0450D2BA0450D2BA0450D2BA0450D21
:10B070002BA0450D2BA0450D2BA0450DFFFFFF0D6F
:10B08000FFFFFF0DFFFFFF0DFFFFFF0DFFFFFF0D98
:10B09000FFFFFF0DFFFFFF0DFFFFFF0DFFFFFF0D88
:10B0A000FFFFFF0DFFFFFF0DFFFFFF0DFFFFFF0D78
:10B0B000FFFFFF0DFFFFFF0DFFFFFF0DFFFFFF0D68
:10B0C000FFFFFF0DFFFFFF0DFFFFFF0DFFFFFF0D58
:10B0D000FFFFFF0DFFFFFF0DFFFFFF0DFFFFFF0D48
:10B0E000FFFFFF0DFFFFFF0DFFFFFF0DFFFFFF0D38
:10B0F000FFFFFF0DFFFFFF0DFFFFFF0DFFFFFF0D28
:10B10000FFFFFF0DFFFFFF0DFFFFFF0DFFFFFF0D17
:10B11000FFFFFF0DFFFFFF0DFFFFFF0DFFFFFF0D07
:10B12000FFFFFF0DFFFFFF0DFFFFFF0DFFFFFF0DF7
:10B13000FFFFFF0DFFFFFF0DFFFFFF0DFFFFFF0DE7
:10B14000FFFFFF0DFFFFFF0DFFFFFF0DFFFFFF0DD7
:10B15000FFFFFF0DFFFFFF0DFFFFFF0DFFFFFF0DC7
:10B16000FFFFFF0DFFFFFF0DFFFFFF0DFFFFFF0DB7
:10B17000FFFFFF0DFFFFFF0DFFFFFF0DFFFFFF0DA7
:10B18000FFFFFF0DFFFFFF0DFFFFFF0DFFFFFF0D97
:10B19000FFFFFF0DFFFFFF0DFFFFFF0DFFFFFF0D87
:10B1A000FFFFFF0DFFFFFF0DFFFFFF0D63B9760DE2
:10B1B0000A91280D2BA0450D2BA0450D2BA0450D68
:10B1C0002BA0450D2BA0450D2BA0450D2BA0450D0B
:10B1D0002BA0450D2BA0450D2BA0450D2BA0450DFB
:10B1E0002BA0450D2BA0450D2BA0450D2BA0450DEB
:10B1F0002BA0450D2BA0450D2BA0450D2BA0450DDB
:10B6B0002BA0450D2BA0450D2BA0450DFFFFFF0D29
:10B6C000FFFFFF0DFFFFFF0DFFFFFF0DFFFFFF0D52
:10B6D000FFFFFF0DFFFFFF0DFFFFFF0DFFFFFF0D42
:10B6E000FFFFFF0DFFFFFF0DFFFFFF0DFFFFFF0D32
:10B6F000FFFFFF0DFFFFFF0DFFFFFF0DFFFFFF0D22
:10B70000FFFFFF0DFFFFFF0DFFFFFF0DFFFFFF0D11
:10B71000FFFFFF0DFFFFFF0DFFFFFF0DFFFFFF0D01
:10B72000FFFFFF0DFFFFFF0DFFFFFF0DFFFFFF0DF1
:10B73000FFFFFF0DFFFFFF0DFFFFFF0DFFFFFF0DE1
:10B74000FFFFFF0DFFFFFF0DFFFFFF0DFFFFFF0DD1
:10B75000FFFFFF0DFFFFFF0DFFFFFF0DFFFFFF0DC1
:10B76000FFFFFF0DFFFFFF0DFFFFFF0DFFFFFF0DB1
:10B77000FFFFFF0DFFFFFF0DFFFFFF0DFFFFFF0DA1
:10B78000FFFFFF0DFFFFFF0DFFFFFF0DFFFFFF0D91
:10B79000FFFFFF0DFFFFFF0DFFFFFF0DFFFFFF0D81
:10B7A000FFFFFF0DFFFFFF0DFFFFFF0DFFFFFF0D71
:10B7B000FFFFFF0DFFFFFF0DFFFFFF0DFFFFFF0D61
:10B7C000FFFFFF0DFFFFFF0DFFFFFF0DFFFFFF0D51
:10B7D000FFFFFF0DFFFFFF0DFFFFFF0DFFFFFF0D41
:10B7E000FFFFFF0DFFFFFF0DFFFFFF0DFFFFFF0D31
:10B7F000FFFFFF0DFFFFFF0DFFFFFF0DFFFFFF0D21
:10B80000FFFFFF0DFFFFFF0DFFFFFF0DFFFFFF0D10
:10B81000FFFFFF0DFFFFFF0DFFFFFF0DFFFFFF0D00
:10B82000FFFFFF0DFFFFFF0DFFFFFF0DFFFFFF0DF0
:10B83000FFFFFF0DFFFFFF0DFFFFFF0DFFFFFF0DE0
:10B84000FFFFFF0DFFFFFF0DFFFFFF0DFFFFFF0DD0
:10B85000FFFFFF0DFFFFFF0DFFFFFF0DFFFFFF0DC0
:10B86000FFFFFF0DFFFFFF0DFFFFFF0DFFFFFF0DB0
:10B87000FFFFFF0DFFFFFF0DFFFFFF0DFFFFFF0DA0
:10B88000FFFFFF0DFFFFFF0DFFFFFF0D63B9760DFB
:10B890000A91280D2BA0450D2BA0450D2BA0450D81
:10B8A0002BA0450D2BA0450D2BA0450D2BA0450D24
:10B8B0002BA0450D2BA0450D2BA0450D2BA0450D14
:10B8C0002BA0450D2BA0450D2BA0450D2BA0450D04
:10B8D0002BA0450D2BA0450D2BA0450D2BA0450DF4
:10BD90002BA0450D2BA0450D2BA0450DFFFFFF0D42
:10BDA000FFFFFF0DFFFFFF0DFFFFFF0DFFFFFF0D6B
:10BDB000FFFFFF0DFFFFFF0DFFFFFF0DFFFFFF0D5B
:10BDC000FFFFFF0DFFFFFF0DFFFFFF0DFFFFFF0D4B
:10BDD000FFFFFF0DFFFFFF0DFFFFFF0DFFFFFF0D3B
:10BDE000FFFFFF0DFFFFFF0DFFFFFF0DFFFFFF0D2B
:10BDF000FFFFFF0DFFFFFF0DFFFFFF0DFFFFFF0D1B
:10BE0000FFFFFF0DFFFFFF0DFFFFFF0DFFFFFF0D0A
:10BE1000FFFFFF0DFFFFFF0DFFFFFF0DFFFFFF0DFA
:10BE2000FFFFFF0DFFFFFF0DFFFFFF0DFFFFFF0DEA
:10BE3000FFFFFF0DFFFFFF0DFFFFFF0DFFFFFF0DDA
:10BE4000FFFFFF0DFFFFFF0DFFFFFF0DFFFFFF0DCA
:10BE5000FFFFFF0DFFFFFF0DFFFFFF0DFFFFFF0DBA
:10BE6000FFFFFF0DFFFFFF0DFFFFFF0DFFFFFF0DAA
:10BE7000FFFFFF0DFFFFFF0DFFFFFF0DFFFFFF0D9A
:10BE8000FFFFFF0DFFFFFF0DFFFFFF0DFFFFFF0D8A
:10BE9000FFFFFF0DFFFFFF0DFFFFFF0DFFFFFF0D7A
:10BEA000FFFFFF0DFFFFFF0DFFFFFF0DFFFFFF0D6A
:10BEB000FFFFFF0DFFFFFF0DFFFFFF0DFFFFFF0D5A
:10BEC000FFFFFF0DFFFFFF0DFFFFFF0DFFFFFF0D4A
:10BED000FFFFFF0DFFFFFF0DFFFFFF0DFFFFFF0D3A
:10BEE000FFFFFF0DFFFFFF0DFFFFFF0DFFFFFF0D2A
:10BEF000FFFFFF0DFFFFFF0DFFFFFF0DFFFFFF0D1A
:10BF0000FFFFFF0DFFFFFF0DFFFFFF0DFFFFFF0D09
:10BF1000FFFFFF0DFFFFFF0DFFFFFF0D63B9760D64
:10BF20000A91280D2BA0450D2BA0450D2BA0450DEA
:10BF30002BA0450D2BA0450D2BA0450D2BA0450D8D
:10BF40002BA0450D2BA0450D2BA0450D2BA0450D7D
:10BF50002BA0450D2BA0450D2BA0450D2BA0450D6D
:10BF60002BA0450D2BA0450D2BA0450D2BA0450D5D
:10C420002BA0450D2BA0450D2BA0450DFFFFFF0DAB
:10C43000FFFFFF0DFFFFFF0DFFFFFF0DFFFFFF0DD4
:10C44000FFFFFF0DFFFFFF0DFFFFFF0DFFFFFF0DC4
:10C45000FFFFFF0DFFFFFF0DFFFFFF0DFFFFFF0DB4
:10C46000FFFFFF0DFFFFFF0DFFFFFF0DFFFFFF0DA4
:10C47000FFFFFF0DFFFFFF0DFFFFFF0DFFFFFF0D94
:10C48000FFFFFF0DFFFFFF0DFFFFFF0DFFFFFF0D84
:10C49000FFFFFF0DFFFFFF0DFFFFFF0DFFFFFF0D74
:10C4A000FFFFFF0DFFFFFF0DFFFFFF0DFFFFFF0D64
:10C4B000FFFFFF0DFFFFFF0DFFFFFF0DFFFFFF0D54
:10C4C000FFFFFF0DFFFFFF0DFFFFFF0DFFFFFF0D44
:10C4D000FFFFFF0DFFFFFF0DFFFFFF0DFFFFFF0D34
:10C4E000FFFFFF0DFFFFFF0DFFFFFF0DFFFFFF0D24
:10C4F000FFFFFF0DFFFFFF0DFFFFFF0DFFFFFF0D14
:10C50000FFFFFF0DFFFFFF0DFFFFFF0DFFFFFF0D03
:10C51000FFFFFF0DFFFFFF0DFFFFFF0DFFFFFF0DF3
:10C52000FFFFFF0DFFFFFF0DFFFFFF0DFFFFFF0DE3
:10C53000FFFFFF0DFFFFFF0DFFFFFF0DFFFFFF0DD3
:10C54000FFFFFF0DFFFFFF0DFFFFFF0DFFFFFF0DC3
:10C55000FFFFFF0DFFFFFF0DFFFFFF0DFFFFFF0DB3
:10C56000FFFFFF0DFFFFFF0DFFFFFF0DFFFFFF0DA3
:10C57000FFFFFF0DFFFFFF0DFFFFFF0DFFFFFF0D93
:10C58000FFFFFF0DFFFFFF0DFFFFFF0DFFFFFF0D83
:10C59000FFFFFF0DFFFFFF0DFFFFFF0DFFFFFF0D73
:10C5A000FFFFFF0DFFFFFF0DFFFFFF0DFFFFFF0D63
:10C5B000FFFFFF0DFFFFFF0DFFFFFF0DFFFFFF0D53
:10C5C000FFFFFF0DFFFFFF0DFFFFFF0DFFFFFF0D43
:10C5D000FFFFFF0DFFFFFF0DFFFFFF0DFFFFFF0D33
:10C5E000FFFFFF0DFFFFFF0DFFFFFF0DFFFFFF0D23
:10C5F000FFFFFF0DFFFFFF0DFFFFFF0D63B9760D7E
:10C600000A91280D2BA0450D2BA0450D2BA0450D03
:10C610002BA0450D2BA0450D2BA0450D2BA0450DA6
:10C620002BA0450D2BA0450D2BA0450D2BA0450D96
:10C630002BA0450D2BA0450D2BA0450D2BA0450D86
:10C640002BA0450D2BA0450D2BA0450D2BA0450D76
:10CB00002BA0450D2BA0450D2BA0450DFFFFFF0DC4
:10CB1000FFFFFF0DFFFFFF0DFFFFFF0DFFFFFF0DED
:10CB2000FFFFFF0DFFFFFF0DFFFFFF0DFFFFFF0DDD
:10CB3000FFFFFF0DFFFFFF0DFFFFFF0DFFFFFF0DCD
:10CB4000FFFFFF0DFFFFFF0DFFFFFF0DFFFFFF0DBD
:10CB5000FFFFFF0DFFFFFF0DFFFFFF0DFFFFFF0DAD
:10CB6000FFFFFF0DFFFFFF0DFFFFFF0DFFFFFF0D9D
:10CB7000FFFFFF0DFFFFFF0DFFFFFF0DFFFFFF0D8D
:10CB8000FFFFFF0DFFFFFF0DFFFFFF0DFFFFFF0D7D
:10CB9000FFFFFF0DFFFFFF0DFFFFFF0DFFFFFF0D6D
:10CBA000FFFFFF0DFFFFFF0DFFFFFF0DFFFFFF0D5D
:10CBB000FFFFFF0DFFFFFF0DFFFFFF0DFFFFFF0D4D
:10CBC000FFFFFF0DFFFFFF0DFFFFFF0DFFFFFF0D3D
:10CBD000FFFFFF0DFFFFFF0DFFFFFF0DFFFFFF0D2D
:10CBE000FFFFFF0DFFFFFF0DFFFFFF0DFFFFFF0D1D
:10CBF000FFFFFF0DFFFFFF0DFFFFFF0DFFFFFF0D0D
:10CC0000FFFFFF0DFFFFFF0DFFFFFF0DFFFFFF0DFC
:10CC1000FFFFFF0DFFFFFF0DFFFFFF0DFFFFFF0DEC
:10CC2000FFFFFF0DFFFFFF0DFFFFFF0DFFFFFF0DDC
:10CC3000FFFFFF0DFFFFFF0DFFFFFF0D63B9760D37
:10CC40000A91280D2BA0450D2BA0450D2BA0450DBD
:10CC50002BA0450D2BA0450D2BA0450D2BA0450D60
:10CC60002BA0450D2BA0450D2BA0450D2BA0450D50
:10CC70002BA0450D2BA0450D2BA0450D2BA0450D40
:10CC80002BA0450D2BA0450D2BA0450D2BA0450D30
:10D140002BA0450D2BA0450D2BA0450DFFFFFF0D7E
:10D15000FFFFFF0DFFFFFF0DFFFFFF0DFFFFFF0DA7
:10D16000FFFFFF0DFFFFFF0DFFFFFF0DFFFFFF0D97
:10D17000FFFFFF0DFFFFFF0DFFFFFF0DFFFFFF0D87
:10D18000FFFFFF0DFFFFFF0DFFFFFF0DFFFFFF0D77
:10D19000FFFFFF0DFFFFFF0DFFFFFF0DFFFFFF0D67
:10D1A000FFFFFF0DFFFFFF0DFFFFFF0DFFFFFF0D57
:10D1B000FFFFFF0DFFFFFF0DFFFFFF0DFFFFFF0D47
:10D1C000FFFFFF0DFFFFFF0DFFFFFF0DFFFFFF0D37
:10D1D000FFFFFF0DFFFFFF0DFFFFFF0DFFFFFF0D27
:10D1E000FFFFFF0DFFFFFF0DFFFFFF0DFFFFFF0D17
:10D1F000FFFFFF0DFFFFFF0DFFFFFF0DFFFFFF0D07
:10D20000FFFFFF0DFFFFFF0DFFFFFF0DFFFFFF0DF6
:10D21000FFFFFF0DFFFFFF0DFFFFFF0DFFFFFF0DE6
:10D22000FFFFFF0DFFFFFF0DFFFFFF0DFFFFFF0DD6
:10D23000FFFFFF0DFFFFFF0DFFFFFF0DFFFFFF0DC6
:10D24000FFFFFF0DFFFFFF0DFFFFFF0DFFFFFF0DB6
:10D25000FFFFFF0DFFFFFF0DFFFFFF0DFFFFFF0DA6
:10D26000FFFFFF0DFFFFFF0DFFFFFF0DFFFFFF0D96
:10D27000FFFFFF0DFFFFFF0DFFFFFF0DFFFFFF0D86
:10D28000FFFFFF0DFFFFFF0DFFFFFF0DFFFFFF0D76
:10D29000FFFFFF0DFFFFFF0DFFFFFF0DFFFFFF0D66
:10D2A000FFFFFF0DFFFFFF0DFFFFFF0DFFFFFF0D56
:10D2B000FFFFFF0DFFFFFF0DFFFFFF0DFFFFFF0D46
:10D2C000FFFFFF0DFFFFFF0DFFFFFF0DFFFFFF0D36
:10D2D000FFFFFF0DFFFFFF0DFFFFFF0DFFFFFF0D26
:10D2E000FFFFFF0DFFFFFF0DFFFFFF0DFFFFFF0D16
:10D2F000FFFFFF0DFFFFFF0DFFFFFF0DFFFFFF0D06
:10D30000FFFFFF0DFFFFFF0DFFFFFF0DFFFFFF0DF5
:10D31000FFFFFF0DFFFFFF0DFFFFFF0D63B9760D50
:10D320000A91280D2BA0450D2BA0450D2BA0450DD6
:10D330002BA0450D2BA0450D2BA0450D2BA0450D79
:10D340002BA0450D2BA0450D2BA0450D2BA0450D69
:10D350002BA0450D2BA0450D2BA0450D2BA0450D59
:10D360002BA0450D2BA0450D2BA0450D2BA0450D49
:10D820002BA0450D2BA0450D2BA0450DFFFFFF0D97
:10D83000FFFFFF0DFFFFFF0DFFFFFF0DFFFFFF0DC0
:10D84000FFFFFF0DFFFFFF0DFFFFFF0DFFFFFF0DB0
:10D85000FFFFFF0DFFFFFF0DFFFFFF0DFFFFFF0DA0
:10D86000FFFFFF0DFFFFFF0DFFFFFF0DFFFFFF0D90
:10D87000FFFFFF0DFFFFFF0DFFFFFF0DFFFFFF0D80
:10D88000FFFFFF0DFFFFFF0DFFFFFF0DFFFFFF0D70
:10D89000FFFFFF0DFFFFFF0DFFFFFF0DFFFFFF0D60
:10D8A000FFFFFF0DFFFFFF0DFFFFFF0DFFFFFF0D50
:10D8B000FFFFFF0DFFFFFF0DFFFFFF0DFFFFFF0D40
:10D8C000FFFFFF0DFFFFFF0DFFFFFF0DFFFFFF0D30
:10D8D000FFFFFF0DFFFFFF0DFFFFFF0DFFFFFF0D20
:10D8E000FFFFFF0DFFFFFF0DFFFFFF0DFFFFFF0D10
:10D8F000FFFFFF0DFFFFFF0DFFFFFF0DFFFFFF0D00
:10D90000FFFFFF0DFFFFFF0DFFFFFF0DFFFFFF0DEF
:10D91000FFFFFF0DFFFFFF0DFFFFFF0DFFFFFF0DDF
:10D92000FFFFFF0DFFFFFF0DFFFFFF0DFFFFFF0DCF
:10D93000FFFFFF0DFFFFFF0DFFFFFF0DFFFFFF0DBF
:10D94000FFFFFF0DFFFFFF0DFFFFFF0DFFFFFF0DAF
:10D95000FFFFFF0DFFFFFF0DFFFFFF0DFFFFFF0D9F
:10D96000FFFFFF0DFFFFFF0DFFFFFF0DFFFFFF0D8F
:10D97000FFFFFF0DFFFFFF0DFFFFFF0DFFFFFF0D7F
:10D98000FFFFFF0DFFFFFF0DFFFFFF0DFFFFFF0D6F
:10D99000FFFFFF0DFFFFFF0DFFFFFF0DFFFFFF0D5F
:10D9A000FFFFFF0DFFFFFF0DFFFFFF0D63B9760DBA
:10D9B0000A91280D2BA0450D2BA0450D2BA0450D40
:10D9C0002BA0450D2BA0450D2BA0450D2BA0450DE3
:10D9D0002BA0450D2BA0450D2BA0450D2BA0450DD3
:10D9E0002BA0450D2BA0450D2BA0450D2BA0450DC3
:10D9F0002BA0450D2BA0450D2BA0450D2BA0450DB3
:10DEB0002BA0450D2BA0450D2BA0450DFFFFFF0D01
:10DEC000FFFFFF0DFFFFFF0DFFFFFF0DFFFFFF0D2A
:10DED000FFFFFF0DFFFFFF0DFFFFFF0DFFFFFF0D1A
:10DEE000FFFFFF0DFFFFFF0DFFFFFF0DFFFFFF0D0A
:10DEF000FFFFFF0DFFFFFF0DFFFFFF0DFFFFFF0DFA
:10DF0000FFFFFF0DFFFFFF0DFFFFFF0DFFFFFF0DE9
:10DF1000FFFFFF0DFFFFFF0DFFFFFF0DFFFFFF0DD9
:10DF2000FFFFFF0DFFFFFF0DFFFFFF0DFFFFFF0DC9
:10DF3000FFFFFF0DFFFFFF0DFFFFFF0DFFFFFF0DB9
:10DF4000FFFFFF0DFFFFFF0DFFFFFF0DFFFFFF0DA9
:10DF5000FFFFFF0DFFFFFF0DFFFFFF0DFFFFFF0D99
:10DF6000FFFFFF0DFFFFFF0DFFFFFF0DFFFFFF0D89
:10DF7000FFFFFF0DFFFFFF0DFFFFFF0DFFFFFF0D79
:10DF8000FFFFFF0DFFFFFF0DFFFFFF0DFFFFFF0D69
:10DF9000FFFFFF0DFFFFFF0DFFFFFF0DFFFFFF0D59
:10DFA000FFFFFF0DFFFFFF0DFFFFFF0DFFFFFF0D49
:10DFB000FFFFFF0DFFFFFF0DFFFFFF0DFFFFFF0D39
:10DFC000FFFFFF0DFFFFFF0DFFFFFF0DFFFFFF0D29
:10DFD000FFFFFF0DFFFFFF0DFFFFFF0DFFFFFF0D19
:10DFE000FFFFFF0DFFFFFF0DFFFFFF0DFFFFFF0D09
:10DFF000FFFFFF0DFFFFFF0DFFFFFF0DFFFFFF0DF9
:10E00000FFFFFF0DFFFFFF0DFFFFFF0DFFFFFF0DE8
:10E01000FFFFFF0DFFFFFF0DFFFFFF0DFFFFFF0DD8
:10E02000FFFFFF0DFFFFFF0DFFFFFF0DFFFFFF0DC8
:10E03000FFFFFF0DFFFFFF0DFFFFFF0DFFFFFF0DB8
:10E04000FFFFFF0DFFFFFF0DFFFFFF0DFFFFFF0DA8
:10E05000FFFFFF0DFFFFFF0DFFFFFF0DFFFFFF0D98
:10E06000FFFFFF0DFFFFFF0DFFFFFF0DFFFFFF0D88
:10E07000FFFFFF0DFFFFFF0DFFFFFF0DFFFFFF0D78
:10E08000FFFFFF0DFFFFFF0DFFFFFF0D63B9760DD3
:10E090000A91280D2BA0450D2BA0450D2BA0450D59
:10E0A0002BA0450D2BA0450D2BA0450D2BA0450DFC
:10E0B0002BA0450D2BA0450D2BA0450D2BA0450DEC
:10E0C0002BA0450D2BA0450D2BA0450D2BA0450DDC
:10E0D0002BA0450D2BA0450D2BA0450D2BA0450DCC
:10E590002BA0450D2BA0450D2BA0450DFFFFFF0D1A
:10E5A000FFFFFF0DFFFFFF0DFFFFFF0DFFFFFF0D43
:10E5B000FFFFFF0DFFFFFF0DFFFFFF0DFFFFFF0D33
:10E5C000FFFFFF0DFFFFFF0DFFFFFF0DFFFFFF0D23
:10E5D000FFFFFF0DFFFFFF0DFFFFFF0DFFFFFF0D13
:10E5E000FFFFFF0DFFFFFF0DFFFFFF0DFFFFFF0D03
:10E5F000FFFFFF0DFFFFFF0DFFFFFF0DFFFFFF0DF3
:10E60000FFFFFF0DFFFFFF0DFFFFFF0DFFFFFF0DE2
:10E61000FFFFFF0DFFFFFF0DFFFFFF0DFFFFFF0DD2
:10E62000FFFFFF0DFFFFFF0DFFFFFF0DFFFFFF0DC2
:10E63000FFFFFF0DFFFFFF0DFFFFFF0DFFFFFF0DB2
:10E64000FFFFFF0DFFFFFF0DFFFFFF0DFFFFFF0DA2
:10E65000FFFFFF0DFFFFFF0DFFFFFF0DFFFFFF0D92
:10E66000FFFFFF0DFFFFFF0DFFFFFF0DFFFFFF0D82
:10E67000FFFFFF0DFFFFFF0DFFFFFF0DFFFFFF0D72
:10E68000FFFFFF0DFFFFFF0DFFFFFF0DFFFFFF0D62
:10E69000FFFFFF0DFFFFFF0DFFFFFF0DFFFFFF0D52
:10E6A000FFFFFF0DFFFFFF0DFFFFFF0DFFFFFF0D42
:10E6B000FFFFFF0DFFFFFF0DFFFFFF0DFFFFFF0D32
:10E6C000FFFFFF0DFFFFFF0DFFFFFF0D63B9760D8D
:10E6D0000A91280D2BA0450D2BA0450D2BA0450D13
:10E6E0002BA0450D2BA0450D2BA0450D2BA0450DB6
:10E6F0002BA0450D2BA0450D2BA0450D2BA0450DA6
:10E700002BA0450D2BA0450D2BA0450D2BA0450D95
:10E710002BA0450D2BA0450D2BA0450D2BA0450D85
:10EBD0002BA0450D2BA0450D2BA0450DFFFFFF0DD4
:10EBE000FFFFFF0DFFFFFF0DFFFFFF0DFFFFFF0DFD
:10EBF000FFFFFF0DFFFFFF0DFFFFFF0DFFFFFF0DED
:10EC0000FFFFFF0DFFFFFF0DFFFFFF0DFFFFFF0DDC
:10EC1000FFFFFF0DFFFFFF0DFFFFFF0DFFFFFF0DCC
:10EC2000FFFFFF0DFFFFFF0DFFFFFF0DFFFFFF0DBC
:10EC3000FFFFFF0DFFFFFF0DFFFFFF0DFFFFFF0DAC
:10EC4000FFFFFF0DFFFFFF0DFFFFFF0DFFFFFF0D9C
:10EC5000FFFFFF0DFFFFFF0DFFFFFF0DFFFFFF0D8C
:10EC6000FFFFFF0DFFFFFF0DFFFFFF0DFFFFFF0D7C
:10EC7000FFFFFF0DFFFFFF0DFFFFFF0DFFFFFF0D6C
:10EC8000FFFFFF0DFFFFFF0DFFFFFF0DFFFFFF0D5C
:10EC9000FFFFFF0DFFFFFF0DFFFFFF0DFFFFFF0D4C
:10ECA000FFFFFF0DFFFFFF0DFFFFFF0DFFFFFF0D3C
:10ECB000FFFFFF0DFFFFFF0DFFFFFF0DFFFFFF0D2C
:10ECC000FFFFFF0DFFFFFF0DFFFFFF0DFFFFFF0D1C
:10ECD000FFFFFF0DFFFFFF0DFFFFFF0DFFFFFF0D0C
:10ECE000FFFFFF0DFFFFFF0DFFFFFF0DFFFFFF0DFC
:10ECF000FFFFFF0DFFFFFF0DFFFFFF0DFFFFFF0DEC
:10ED0000FFFFFF0DFFFFFF0DFFFFFF0DFFFFFF0DDB
:10ED1000FFFFFF0DFFFFFF0DFFFFFF0DFFFFFF0DCB
:10ED2000FFFFFF0DFFFFFF0DFFFFFF0DFFFFFF0DBB
:10ED3000FFFFFF0DFFFFFF0DFFFFFF0DFFFFFF0DAB
:10ED4000FFFFFF0DFFFFFF0DFFFFFF0DFFFFFF0D9B
:10ED5000FFFFFF0DFFFFFF0DFFFFFF0DFFFFFF0D8B
:10ED6000FFFFFF0DFFFFFF0DFFFFFF0DFFFFFF0D7B
:10ED7000FFFFFF0DFFFFFF0DFFFFFF0DFFFFFF0D6B
:10ED8000FFFFFF0DFFFFFF0DFFFFFF0DFFFFFF0D5B
:10ED9000FFFFFF0DFFFFFF0DFFFFFF0DFFFFFF0D4B
:10EDA000FFFFFF0DFFFFFF0DFFFFFF0D63B9760DA6
:10EDB0000A91280D2BA0450D2BA0450D2BA0450D2C
:10EDC0002BA0450D2BA0450D2BA0450D2BA0450DCF
:10EDD0002BA0450D2BA0450D2BA0450D2BA0450DBF
:10EDE0002BA0450D2BA0450D2BA0450D2BA0450DAF
:10EDF0002BA0450D2BA0450D2BA0450D2BA0450D9F
:10F2B0002BA0450D2BA0450D2BA0450DFFFFFF0DED
:10F2C000FFFFFF0DFFFFFF0DFFFFFF0DFFFFFF0D16
:10F2D000FFFFFF0DFFFFFF0DFFFFFF0DFFFFFF0D06
:10F2E000FFFFFF0DFFFFFF0DFFFFFF0DFFFFFF0DF6
:10F2F000FFFFFF0DFFFFFF0DFFFFFF0DFFFFFF0DE6
:10F30000FFFFFF0DFFFFFF0DFFFFFF0DFFFFFF0DD5
:10F31000FFFFFF0DFFFFFF0DFFFFFF0DFFFFFF0DC5
:10F32000FFFFFF0DFFFFFF0DFFFFFF0DFFFFFF0DB5
:10F33000FFFFFF0DFFFFFF0DFFFFFF0DFFFFFF0DA5
:10F34000FFFFFF0DFFFFFF0DFFFFFF0DFFFFFF0D95
:10F35000FFFFFF0DFFFFFF0DFFFFFF0DFFFFFF0D85
:10F36000FFFFFF0DFFFFFF0DFFFFFF0DFFFFFF0D75
:10F37000FFFFFF0DFFFFFF0DFFFFFF0DFFFFFF0D65
:10F38000FFFFFF0DFFFFFF0DFFFFFF0DFFFFFF0D55
:10F39000FFFFFF0DFFFFFF0DFFFFFF0DFFFFFF0D45
:10F3A000FFFFFF0DFFFFFF0DFFFFFF0DFFFFFF0D35
:10F3B000FFFFFF0DFFFFFF0DFFFFFF0DFFFFFF0D25
:10F3C000FFFFFF0DFFFFFF0DFFFFFF0DFFFFFF0D15
:10F3D000FFFFFF0DFFFFFF0DFFFFFF0DFFFFFF0D05
:10F3E000FFFFFF0DFFFFFF0DFFFFFF0DFFFFFF0DF5
:10F3F000FFFFFF0DFFFFFF0DFFFFFF0DFFFFFF0DE5
:10F40000FFFFFF0DFFFFFF0DFFFFFF0DFFFFFF0DD4
:10F41000FFFFFF0DFFFFFF0DFFFFFF0DFFFFFF0DC4
:10F42000FFFFFF0DFFFFFF0DFFFFFF0DFFFFFF0DB4
:10F43000FFFFFF0DFFFFFF0DFFFFFF0D63B9760D0F
:10F440000A91280D2BA0450D2BA0450D2BA0450D95
:10F450002BA0450D2BA0450D2BA0450D2BA0450D38
:10F460002BA0450D2BA0450D2BA0450D2BA0450D28
:10F470002BA0450D2BA0450D2BA0450D2BA0450D18
:10F480002BA0450D2BA0450D2BA0450D2BA0450D08
:10F940002BA0450D2BA0450D2BA0450DFFFFFF0D56
:10F95000FFFFFF0DFFFFFF0DFFFFFF0DFFFFFF0D7F
:10F96000FFFFFF0DFFFFFF0DFFFFFF0DFFFFFF0D6F
:10F97000FFFFFF0DFFFFFF0DFFFFFF0DFFFFFF0D5F
:10F98000FFFFFF0DFFFFFF0DFFFFFF0DFFFFFF0D4F
:10F99000FFFFFF0DFFFFFF0DFFFFFF0DFFFFFF0D3F
:10F9A000FFFFFF0DFFFFFF0DFFFFFF0DFFFFFF0D2F
:10F9B000FFFFFF0DFFFFFF0DFFFFFF0DFFFFFF0D1F
:10F9C000FFFFFF0DFFFFFF0DFFFFFF0DFFFFFF0D0F
:10F9D000FFFFFF0DFFFFFF0DFFFFFF0DFFFFFF0DFF
:10F9E000FFFFFF0DFFFFFF0DFFFFFF0DFFFFFF0DEF
:10F9F000FFFFFF0DFFFFFF0DFFFFFF0DFFFFFF0DDF
:10FA0000FFFFFF0DFFFFFF0DFFFFFF0DFFFFFF0DCE
:10FA1000FFFFFF0DFFFFFF0DFFFFFF0DFFFFFF0DBE
:10FA2000FFFFFF0DFFFFFF0DFFFFFF0DFFFFFF0DAE
:10FA3000FFFFFF0DFFFFFF0DFFFFFF0DFFFFFF0D9E
:10FA4000FFFFFF0DFFFFFF0DFFFFFF0DFFFFFF0D8E
:10FA5000FFFFFF0DFFFFFF0DFFFFFF0DFFFFFF0D7E
:10FA6000FFFFFF0DFFFFFF0DFFFFFF0DFFFFFF0D6E
:10FA7000FFFFFF0DFFFFFF0DFFFFFF0DFFFFFF0D5E
:10FA8000FFFFFF0DFFFFFF0DFFFFFF0DFFFFFF0D4E
:10FA9000FFFFFF0DFFFFFF0DFFFFFF0DFFFFFF0D3E
:10FAA000FFFFFF0DFFFFFF0DFFFFFF0DFFFFFF0D2E
:10FAB000FFFFFF0DFFFFFF0DFFFFFF0DFFFFFF0D1E
:10FAC000FFFFFF0DFFFFFF0DFFFFFF0DFFFFFF0D0E
:10FAD000FFFFFF0DFFFFFF0DFFFFFF0DFFFFFF0DFE
:10FAE000FFFFFF0DFFFFFF0DFFFFFF0DFFFFFF0DEE
:10FAF000FFFFFF0DFFFFFF0DFFFFFF0DFFFFFF0DDE
:10FB0000FFFFFF0DFFFFFF0DFFFFFF0DFFFFFF0DCD
:10FB1000FFFFFF0DFFFFFF0DFFFFFF0D63B9760D28
:10FB20000A91280D2BA0450D2BA0450D2BA0450DAE
:10FB30002BA0450D2BA0450D2BA0450D2BA0450D51
:10FB40002BA0450D2BA0450D2BA0450D2BA0450D41
:10FB50002BA0450D2BA0450D2BA0450D2BA0450D31
:10FB60002BA0450D2BA0450D2BA0450D2BA0450D21
:020000040803EF
:100020002BA0450D2BA0450D2BA0450DFFFFFF0D6F
:10003000FFFFFF0DFFFFFF0DFFFFFF0DFFFFFF0D98
:10004000FFFFFF0DFFFFFF0DFFFFFF0DFFFFFF0D88
:10005000FFFFFF0DFFFFFF0DFFFFFF0DFFFFFF0D78
:10006000FFFFFF0DFFFFFF0DFFFFFF0DFFFFFF0D68
:10007000FFFFFF0DFFFFFF0DFFFFFF0DFFFFFF0D58
:10008000FFFFFF0DFFFFFF0DFFFFFF0DFFFFFF0D48
:10009000FFFFFF0DFFFFFF0DFFFFFF0DFFFFFF0D38
:1000A000FFFFFF0DFFFFFF0DFFFFFF0DFFFFFF0D28
:1000B000FFFFFF0DFFFFFF0DFFFFFF0DFFFFFF0D18
:1000C000FFFFFF0DFFFFFF0DFFFFFF0DFFFFFF0D08
:1000D000FFFFFF0DFFFFFF0DFFFFFF0DFFFFFF0DF8
:1000E000FFFFFF0DFFFFFF0DFFFFFF0DFFFFFF0DE8
:1000F000FFFFFF0DFFFFFF0DFFFFFF0DFFFFFF0DD8
:10010000FFFFFF0DFFFFFF0DFFFFFF0DFFFFFF0DC7
:10011000FFFFFF0DFFFFFF0DFFFFFF0DFFFFFF0DB7
:10012000FFFFFF0DFFFFFF0DFFFFFF0DFFFFFF0DA7
:10013000FFFFFF0DFFFFFF0DFFFFFF0DFFFFFF0D97
:10014000FFFFFF0DFFFFFF0DFFFFFF0DFFFFFF0D87
:10015000FFFFFF0DFFFFFF0DFFFFFF0D63B9760DE2
:100160000A91280D2BA0450D2BA0450D2BA0450D68
:100170002BA0450D2BA0450D2BA0450D2BA0450D0B
:100180002BA0450D2BA0450D2BA0450D2BA0450DFB
:100190002BA0450D2BA0450D2BA0450D2BA0450DEB
:1001A0002BA0450D2BA0450D2BA0450D2BA0450DDB
:100660002BA0450D2BA0450D2BA0450DFFFFFF0D29
:10067000FFFFFF0DFFFFFF0DFFFFFF0DFFFFFF0D52
:10068000FFFFFF0DFFFFFF0DFFFFFF0DFFFFFF0D42
:10069000FFFFFF0DFFFFFF0DFFFFFF0DFFFFFF0D32
:1006A000FFFFFF0DFFFFFF0DFFFFFF0DFFFFFF0D22
:1006B000FFFFFF0DFFFFFF0DFFFFFF0DFFFFFF0D12
:1006C000FFFFFF0DFFFFFF0DFFFFFF0DFFFFFF0D02
:1006D000FFFFFF0DFFFFFF0DFFFFFF0DFFFFFF0DF2
:1006E000FFFFFF0DFFFFFF0DFFFFFF0DFFFFFF0DE2
:1006F000FFFFFF0DFFFFFF0DFFFFFF0DFFFFFF0DD2
:10070000FFFFFF0DFFFFFF0DFFFFFF0DFFFFFF0DC1
:10071000FFFFFF0DFFFFFF0DFFFFFF0DFFFFFF0DB1
:10072000FFFFFF0DFFFFFF0DFFFFFF0DFFFFFF0DA1
:10073000FFFFFF0DFFFFFF0DFFFFFF0DFFFFFF0D91
:10074000FFFFFF0DFFFFFF0DFFFFFF0DFFFFFF0D81
:10075000FFFFFF0DFFFFFF0DFFFFFF0DFFFFFF0D71
:10076000FFFFFF0DFFFFFF0DFFFFFF0DFFFFFF0D61
:10077000FFFFFF0DFFFFFF0DFFFFFF0DFFFFFF0D51
:10078000FFFFFF0DFFFFFF0DFFFFFF0DFFFFFF0D41
:10079000FFFFFF0DFFFFFF0DFFFFFF0DFFFFFF0D31
:1007A000FFFFFF0DFFFFFF0DFFFFFF0DFFFFFF0D21
:1007B000FFFFFF0DFFFFFF0DFFFFFF0DFFFFFF0D11
:1007C000FFFFFF0DFFFFFF0DFFFFFF0DFFFFFF0D01
:1007D000FFFFFF0DFFFFFF0DFFFFFF0DFFFFFF0DF1
:1007E000FFFFFF0DFFFFFF0DFFFFFF0DFFFFFF0DE1
:1007F000FFFFFF0DFFFFFF0DFFFFFF0DFFFFFF0DD1
:10080000FFFFFF0DFFFFFF0DFFFFFF0DFFFFFF0DC0
:10081000FFFFFF0DFFFFFF0DFFFFFF0DFFFFFF0DB0
:10082000FFFFFF0DFFFFFF0DFFFFFF0DFFFFFF0DA0
:10083000FFFFFF0DFFFFFF0DFFFFFF0D63B9760DFB
:100840000A91280D2BA0450D2BA0450D2BA0450D81
:100850002BA0450D2BA0450D2BA0450D2BA0450D24
:100860002BA0450D2BA0450D2BA0450D2BA0450D14
:100870002BA0450D2BA0450D2BA0450D2BA0450D04
:100880002BA0450D2BA0450D2BA0450D2BA0450DF4
:100D40002BA0450D2BA0450D2BA0450DFFFFFF0D42
:100D5000FFFFFF0DFFFFFF0DFFFFFF0DFFFFFF0D6B
:100D6000FFFFFF0DFFFFFF0DFFFFFF0DFFFFFF0D5B
:100D7000FFFFFF0DFFFFFF0DFFFFFF0DFFFFFF0D4B
:100D8000FFFFFF0DFFFFFF0DFFFFFF0DFFFFFF0D3B
:100D9000FFFFFF0DFFFFFF0DFFFFFF0DFFFFFF0D2B
:100DA000FFFFFF0DFFFFFF0DFFFFFF0DFFFFFF0D1B
:100DB000FFFFFF0DFFFFFF0DFFFFFF0DFFFFFF0D0B
:100DC000FFFFFF0DFFFFFF0DFFFFFF0DFFFFFF0DFB
:100DD000FFFFFF0DFFFFFF0DFFFFFF0DFFFFFF0DEB
:100DE000FFFFFF0DFFFFFF0DFFFFFF0DFFFFFF0DDB
:100DF000FFFFFF0DFFFFFF0DFFFFFF0DFFFFFF0DCB
:100E0000FFFFFF0DFFFFFF0DFFFFFF0DFFFFFF0DBA
:100E1000FFFFFF0DFFFFFF0DFFFFFF0DFFFFFF0DAA
:100E2000FFFFFF0DFFFFFF0DFFFFFF0DFFFFFF0D9A
:100E3000FFFFFF0DFFFFFF0DFFFFFF0DFFFFFF0D8A
:100E4000FFFFFF0DFFFFFF0DFFFFFF0DFFFFFF0D7A
:100E5000FFFFFF0DFFFFFF0DFFFFFF0DFFFFFF0D6A
:100E6000FFFFFF0DFFFFFF0DFFFFFF0DFFFFFF0D5A
:100E7000FFFFFF0DFFFFFF0DFFFFFF0DFFFFFF0D4A
:100E8000FFFFFF0DFFFFFF0DFFFFFF0DFFFFFF0D3A
:100E9000FFFFFF0DFFFFFF0DFFFFFF0DFFFFFF0D2A
:100EA000FFFFFF0DFFFFFF0DFFFFFF0DFFFFFF0D1A
:100EB000FFFFFF0DFFFFFF0DFFFFFF0DFFFFFF0D0A
:100EC000FFFFFF0DFFFFFF0DFFFFFF0D63B9760D65
:100ED0000A91280D2BA0450D2BA0450D2BA0450DEB
:100EE0002BA0450D2BA0450D2BA0450D2BA0450D8E
:100EF0002BA0450D2BA0450D2BA0450D2BA0450D7E
:100F00002BA0450D2BA0450D2BA0450D2BA0450D6D
:100F10002BA0450D2BA0450D2BA0450D2BA0450D5D
:1013D0002BA0450D2BA0450D2BA0450DFFFFFF0DAC
:1013E000FFFFFF0DFFFFFF0DFFFFFF0DFFFFFF0DD5
:1013F000FFFFFF0DFFFFFF0DFFFFFF0DFFFFFF0DC5
:10140000FFFFFF0DFFFFFF0DFFFFFF0DFFFFFF0DB4
:10141000FFFFFF0DFFFFFF0DFFFFFF0DFFFFFF0DA4
:10142000FFFFFF0DFFFFFF0DFFFFFF0DFFFFFF0D94
:10143000FFFFFF0DFFFFFF0DFFFFFF0DFFFFFF0D84
:10144000FFFFFF0DFFFFFF0DFFFFFF0DFFFFFF0D74
:10145000FFFFFF0DFFFFFF0DFFFFFF0DFFFFFF0D64
:10146000FFFFFF0DFFFFFF0DFFFFFF0DFFFFFF0D54
:10147000FFFFFF0DFFFFFF0DFFFFFF0DFFFFFF0D44
:10148000FFFFFF0DFFFFFF0DFFFFFF0DFFFFFF0D34
:10149000FFFFFF0DFFFFFF0DFFFFFF0DFFFFFF0D24
:1014A000FFFFFF0DFFFFFF0DFFFFFF0DFFFFFF0D14
:1014B000FFFFFF0DFFFFFF0DFFFFFF0DFFFFFF0D04
:1014C000FFFFFF0DFFFFFF0DFFFFFF0DFFFFFF0DF4
:1014D000FFFFFF0DFFFFFF0DFFFFFF0DFFFFFF0DE4
:1014E000FFFFFF0DFFFFFF0DFFFFFF0DFFFFFF0DD4
:1014F000FFFFFF0DFFFFFF0DFFFFFF0DFFFFFF0DC4
:10150000FFFFFF0DFFFFFF0DFFFFFF0DFFFFFF0DB3
:10151000FFFFFF0DFFFFFF0DFFFFFF0DFFFFFF0DA3
:10152000FFFFFF0DFFFFFF0DFFFFFF0DFFFFFF0D93
:10153000FFFFFF0DFFFFFF0DFFFFFF0DFFFFFF0D83
:10154000FFFFFF0DFFFFFF0DFFFFFF0DFFFFFF0D73
:10155000FFFFFF0DFFFFFF0DFFFFFF0DFFFFFF0D63
:10156000FFFFFF0DFFFFFF0DFFFFFF0DFFFFFF0D53
:10157000FFFFFF0DFFFFFF0DFFFFFF0DFFFFFF0D43
:10158000FFFFFF0DFFFFFF0DFFFFFF0DFFFFFF0D33
:10159000FFFFFF0DFFFFFF0DFFFFFF0DFFFFFF0D23
:1015A000FFFFFF0DFFFFFF0DFFFFFF0D63B9760D7E
:1015B0000A91280D2BA0450D2BA0450D2BA0450D04
:1015C0002BA0450D2BA0450D2BA0450D2BA0450DA7
:1015D0002BA0450D2BA0450D2BA0450D2BA0450D97
:1015E0002BA0450D2BA0450D2BA0450D2BA0450D87
:1015F0002BA0450D2BA0450D2BA0450D2BA0450D77
:101AB0002BA0450D2BA0450D2BA0450DFFFFFF0DC5
:101AC000FFFFFF0DFFFFFF0DFFFFFF0DFFFFFF0DEE
:101AD000FFFFFF0DFFFFFF0DFFFFFF0DFFFFFF0DDE
:101AE000FFFFFF0DFFFFFF0DFFFFFF0DFFFFFF0DCE
:101AF000FFFFFF0DFFFFFF0DFFFFFF0DFFFFFF0DBE
:101B0000FFFFFF0DFFFFFF0DFFFFFF0DFFFFFF0DAD
:101B1000FFFFFF0DFFFFFF0DFFFFFF0DFFFFFF0D9D
:101B2000FFFFFF0DFFFFFF0DFFFFFF0DFFFFFF0D8D
:101B3000FFFFFF0DFFFFFF0DFFFFFF0DFFFFFF0D7D
:101B4000FFFFFF0DFFFFFF0DFFFFFF0DFFFFFF0D6D
:101B5000FFFFFF0DFFFFFF0DFFFFFF0DFFFFFF0D5D
:101B6000FFFFFF0DFFFFFF0DFFFFFF0DFFFFFF0D4D
:101B7000FFFFFF0DFFFFFF0DFFFFFF0DFFFFFF0D3D
:101B8000FFFFFF0DFFFFFF0DFFFFFF0DFFFFFF0D2D
:101B9000FFFFFF0DFFFFFF0DFFFFFF0DFFFFFF0D1D
:101BA000FFFFFF0DFFFFFF0DFFFFFF0DFFFFFF0D0D
:101BB000FFFFFF0DFFFFFF0DFFFFFF0DFFFFFF0DFD
:101BC000FFFFFF0DFFFFFF0DFFFFFF0DFFFFFF0DED
:101BD000FFFFFF0DFFFFFF0DFFFFFF0DFFFFFF0DDD
:101BE000FFFFFF0DFFFFFF0DFFFFFF0D63B9760D38
:101BF0000A91280D2BA0450D2BA0450D2BA0450DBE
:101C00002BA0450D2BA0450D2BA0450D2BA0450D60
:101C10002BA0450D2BA0450D2BA0450D2BA0450D50
:101C20002BA0450D2BA0450D2BA0450D2BA0450D40
:101C30002BA0450D2BA0450D2BA0450D2BA0450D30
:1020F0002BA0450D2BA0450D2BA0450DFFFFFF0D7F
:10210000FFFFFF0DFFFFFF0DFFFFFF0DFFFFFF0DA7
:10211000FFFFFF0DFFFFFF0DFFFFFF0DFFFFFF0D97
:10212000FFFFFF0DFFFFFF0DFFFFFF0DFFFFFF0D87
:10213000FFFFFF0DFFFFFF0DFFFFFF0DFFFFFF0D77
:10214000FFFFFF0DFFFFFF0DFFFFFF0DFFFFFF0D67
:10215000FFFFFF0DFFFFFF0DFFFFFF0DFFFFFF0D57
:10216000FFFFFF0DFFFFFF0DFFFFFF0DFFFFFF0D47
:10217000FFFFFF0DFFFFFF0DFFFFFF0DFFFFFF0D37
:10218000FFFFFF0DFFFFFF0DFFFFFF0DFFFFFF0D27
:10219000FFFFFF0DFFFFFF0DFFFFFF0DFFFFFF0D17
:1021A000FFFFFF0DFFFFFF0DFFFFFF0DFFFFFF0D07
:1021B000FFFFFF0DFFFFFF0DFFFFFF0DFFFFFF0DF7
:1021C000FFFFFF0DFFFFFF0DFFFFFF0DFFFFFF0DE7
:1021D000FFFFFF0DFFFFFF0DFFFFFF0DFFFFFF0DD7
:1021E000FFFFFF0DFFFFFF0DFFFFFF0DFFFFFF0DC7
:1021F000FFFFFF0DFFFFFF0DFFFFFF0DFFFFFF0DB7
:10220000FFFFFF0DFFFFFF0DFFFFFF0DFFFFFF0DA6
:10221000FFFFFF0DFFFFFF0DFFFFFF0DFFFFFF0D96
:10222000FFFFFF0DFFFFFF0DFFFFFF0DFFFFFF0D86
:10223000FFFFFF0DFFFFFF0DFFFFFF0DFFFFFF0D76
:10224000FFFFFF0DFFFFFF0DFFFFFF0DFFFFFF0D66
:10225000FFFFFF0DFFFFFF0DFFFFFF0DFFFFFF0D56
:10226000FFFFFF0DFFFFFF0DFFFFFF0DFFFFFF0D46
:10227000FFFFFF0DFFFFFF0DFFFFFF0DFFFFFF0D36
:10228000FFFFFF0DFFFFFF0DFFFFFF0DFFFFFF0D26
:10229000FFFFFF0DFFFFFF0DFFFFFF0DFFFFFF0D16
:1022A000FFFFFF0DFFFFFF0DFFFFFF0DFFFFFF0D06
:1022B000FFFFFF0DFFFFFF0DFFFFFF0DFFFFFF0DF6
:1022C000FFFFFF0DFFFFFF0DFFFFFF0D63B9760D51
:1022D0000A91280D2BA0450D2BA0450D2BA0450DD7
:1022E0002BA0450D2BA0450D2BA0450D2BA0450D7A
:1022F0002BA0450D2BA0450D2BA0450D2BA0450D6A
:102300002BA0450D2BA0450D2BA0450D2BA0450D59
:102310002BA0450D2BA0450D2BA0450D2BA0450D49
:1027D0002BA0450D2BA0450D2BA0450DFFFFFF0D98
:1027E000FFFFFF0DFFFFFF0DFFFFFF0DFFFFFF0DC1
:1027F000FFFFFF0DFFFFFF0DFFFFFF0DFFFFFF0DB1
:10280000FFFFFF0DFFFFFF0DFFFFFF0DFFFFFF0DA0
:10281000FFFFFF0DFFFFFF0DFFFFFF0DFFFFFF0D90
:10282000FFFFFF0DFFFFFF0DFFFFFF0DFFFFFF0D80
:10283000FFFFFF0DFFFFFF0DFFFFFF0DFFFFFF0D70
:10284000FFFFFF0DFFFFFF0DFFFFFF0DFFFFFF0D60
:10285000FFFFFF0DFFFFFF0DFFFFFF0DFFFFFF0D50
:10286000FFFFFF0DFFFFFF0DFFFFFF0DFFFFFF0D40
:10287000FFFFFF0DFFFFFF0DFFFFFF0DFFFFFF0D30
:10288000FFFFFF0DFFFFFF0DFFFFFF0DFFFFFF0D20
:10289000FFFFFF0DFFFFFF0DFFFFFF0DFFFFFF0D10
:1028A000FFFFFF0DFFFFFF0DFFFFFF0DFFFFFF0D00
:1028B000FFFFFF0DFFFFFF0DFFFFFF0DFFFFFF0DF0
:1028C000FFFFFF0DFFFFFF0DFFFFFF0DFFFFFF0DE0
:1028D000FFFFFF0DFFFFFF0DFFFFFF0DFFFFFF0DD0
:1028E000FFFFFF0DFFFFFF0DFFFFFF0DFFFFFF0DC0
:1028F000FFFFFF0DFFFFFF0DFFFFFF0DFFFFFF0DB0
:10290000FFFFFF0DFFFFFF0DFFFFFF0DFFFFFF0D9F
:10291000FFFFFF0DFFFFFF0DFFFFFF0DFFFFFF0D8F
:10292000FFFFFF0DFFFFFF0DFFFFFF0DFFFFFF0D7F
:10293000FFFFFF0DFFFFFF0DFFFFFF0DFFFFFF0D6F
:10294000FFFFFF0DFFFFFF0DFFFFFF0DFFFFFF0D5F
:10295000FFFFFF0DFFFFFF0DFFFFFF0D63B9760DBA
:102960000A91280D2BA0450D2BA0450D2BA0450D40
:102970002BA0450D2BA0450D2BA0450D2BA0450DE3
:102980002BA0450D2BA0450D2BA0450D2BA0450DD3
:102990002BA0450D2BA0450D2BA0450D2BA0450DC3
:1029A0002BA0450D2BA0450D2BA0450D2BA0450DB3
:102E60002BA0450D2BA0450D2BA0450DFFFFFF0D01
:102E7000FFFFFF0DFFFFFF0DFFFFFF0DFFFFFF0D2A
:102E8000FFFFFF0DFFFFFF0DFFFFFF0DFFFFFF0D1A
:102E9000FFFFFF0DFFFFFF0DFFFFFF0DFFFFFF0D0A
:102EA000FFFFFF0DFFFFFF0DFFFFFF0DFFFFFF0DFA
:102EB000FFFFFF0DFFFFFF0DFFFFFF0DFFFFFF0DEA
:102EC000FFFFFF0DFFFFFF0DFFFFFF0DFFFFFF0DDA
:102ED000FFFFFF0DFFFFFF0DFFFFFF0DFFFFFF0DCA
:102EE000FFFFFF0DFFFFFF0DFFFFFF0DFFFFFF0DBA
:102EF000FFFFFF0DFFFFFF0DFFFFFF0DFFFFFF0DAA
:102F0000FFFFFF0DFFFFFF0DFFFFFF0DFFFFFF0D99
:102F1000FFFFFF0DFFFFFF0DFFFFFF0DFFFFFF0D89
:102F2000FFFFFF0DFFFFFF0DFFFFFF0DFFFFFF0D79
:102F3000FFFFFF0DFFFFFF0DFFFFFF0DFFFFFF0D69
:102F4000FFFFFF0DFFFFFF0DFFFFFF0DFFFFFF0D59
:102F5000FFFFFF0DFFFFFF0DFFFFFF0DFFFFFF0D49
:102F6000FFFFFF0DFFFFFF0DFFFFFF0DFFFFFF0D39
:102F7000FFFFFF0DFFFFFF0DFFFFFF0DFFFFFF0D29
:102F8000FFFFFF0DFFFFFF0DFFFFFF0DFFFFFF0D19
:102F9000FFFFFF0DFFFFFF0DFFFFFF0DFFFFFF0D09
:102FA000FFFFFF0DFFFFFF0DFFFFFF0DFFFFFF0DF9
:102FB000FFFFFF0DFFFFFF0DFFFFFF0DFFFFFF0DE9
:102FC000FFFFFF0DFFFFFF0DFFFFFF0DFFFFFF0DD9
:102FD000FFFFFF0DFFFFFF0DFFFFFF0DFFFFFF0DC9
:102FE000FFFFFF0DFFFFFF0DFFFFFF0DFFFFFF0DB9
:102FF000FFFFFF0DFFFFFF0DFFFFFF0DFFFFFF0DA9
:10300000FFFFFF0DFFFFFF0DFFFFFF0DFFFFFF0D98
:10301000FFFFFF0DFFFFFF0DFFFFFF0DFFFFFF0D88
:10302000FFFFFF0DFFFFFF0DFFFFFF0DFFFFFF0D78
:10303000FFFFFF0DFFFFFF0DFFFFFF0D63B9760DD3
:103040000A91280D2BA0450D2BA0450D2BA0450D59
:103050002BA0450D2BA0450D2BA0450D2BA0450DFC
:103060002BA0450D2BA0450D2BA0450D2BA0450DEC
:103070002BA0450D2BA0450D2BA0450D2BA0450DDC
:103080002BA0450D2BA0450D2BA0450D2BA0450DCC
:103540002BA0450D2BA0450D2BA0450DFFFFFF0D1A
:10355000FFFFFF0DFFFFFF0DFFFFFF0DFFFFFF0D43
:10356000FFFFFF0DFFFFFF0DFFFFFF0DFFFFFF0D33
:10357000FFFFFF0DFFFFFF0DFFFFFF0DFFFFFF0D23
:10358000FFFFFF0DFFFFFF0DFFFFFF0DFFFFFF0D13
:10359000FFFFFF0DFFFFFF0DFFFFFF0DFFFFFF0D03
:1035A000FFFFFF0DFFFFFF0DFFFFFF0DFFFFFF0DF3
:1035B000FFFFFF0DFFFFFF0DFFFFFF0DFFFFFF0DE3
:1035C000FFFFFF0DFFFFFF0DFFFFFF0DFFFFFF0DD3
:1035D000FFFFFF0DFFFFFF0DFFFFFF0DFFFFFF0DC3
:1035E000FFFFFF0DFFFFFF0DFFFFFF0DFFFFFF0DB3
:1035F000FFFFFF0DFFFFFF0DFFFFFF0DFFFFFF0DA3
:10360000FFFFFF0DFFFFFF0DFFFFFF0DFFFFFF0D92
:10361000FFFFFF0DFFFFFF0DFFFFFF0DFFFFFF0D82
:10362000FFFFFF0DFFFFFF0DFFFFFF0DFFFFFF0D72
:10363000FFFFFF0DFFFFFF0DFFFFFF0DFFFFFF0D62
:10364000FFFFFF0DFFFFFF0DFFFFFF0DFFFFFF0D52
:10365000FFFFFF0DFFFFFF0DFFFFFF0DFFFFFF0D42
:10366000FFFFFF0DFFFFFF0DFFFFFF0DFFFFFF0D32
:10367000FFFFFF0DFFFFFF0DFFFFFF0D63B9760D8D
:103680000A91280D2BA0450D2BA0450D2BA0450D13
:103690002BA0450D2BA0450D2BA0450D2BA0450DB6
:1036A0002BA0450D2BA0450D2BA0450D2BA0450DA6
:1036B0002BA0450D2BA0450D2BA0450D2BA0450D96
:1036C0002BA0450D2BA0450D2BA0450D2BA0450D86
:103B80002BA0450D2BA0450D2BA0450DFFFFFF0DD4
:103B9000FFFFFF0DFFFFFF0DFFFFFF0DFFFFFF0DFD
:103BA000FFFFFF0DFFFFFF0DFFFFFF0DFFFFFF0DED
:103BB000FFFFFF0DFFFFFF0DFFFFFF0DFFFFFF0DDD
:103BC000FFFFFF0DFFFFFF0DFFFFFF0DFFFFFF0DCD
:103BD000FFFFFF0DFFFFFF0DFFFFFF0DFFFFFF0DBD
:103BE000FFFFFF0DFFFFFF0DFFFFFF0DFFFFFF0DAD
:103BF000FFFFFF0DFFFFFF0DFFFFFF0DFFFFFF0D9D
:103C0000FFFFFF0DFFFFFF0DFFFFFF0DFFFFFF0D8C
:103C1000FFFFFF0DFFFFFF0DFFFFFF0DFFFFFF0D7C
:103C2000FFFFFF0DFFFFFF0DFFFFFF0DFFFFFF0D6C
:103C3000FFFFFF0DFFFFFF0DFFFFFF0DFFFFFF0D5C
:103C4000FFFFFF0DFFFFFF0DFFFFFF0DFFFFFF0D4C
:103C5000FFFFFF0DFFFFFF0DFFFFFF0DFFFFFF0D3C
:103C6000FFFFFF0DFFFFFF0DFFFFFF0DFFFFFF0D2C
:103C7000FFFFFF0DFFFFFF0DFFFFFF0DFFFFFF0D1C
:103C8000FFFFFF0DFFFFFF0DFFFFFF0DFFFFFF0D0C
:103C9000FFFFFF0DFFFFFF0DFFFFFF0DFFFFFF0DFC
:103CA000FFFFFF0DFFFFFF0DFFFFFF0DFFFFFF0DEC
:103CB000FFFFFF0DFFFFFF0DFFFFFF0DFFFFFF0DDC
:103CC000FFFFFF0DFFFFFF0DFFFFFF0DFFFFFF0DCC
:103CD000FFFFFF0DFFFFFF0DFFFFFF0DFFFFFF0DBC
:103CE000FFFFFF0DFFFFFF0DFFFFFF0DFFFFFF0DAC
:103CF000FFFFFF0DFFFFFF0DFFFFFF0DFFFFFF0D9C
:103D0000FFFFFF0DFFFFFF0DFFFFFF0DFFFFFF0D8B
:103D1000FFFFFF0DFFFFFF0DFFFFFF0DFFFFFF0D7B
:103D2000FFFFFF0DFFFFFF0DFFFFFF0DFFFFFF0D6B
:103D3000FFFFFF0DFFFFFF0DFFFFFF0DFFFFFF0D5B
:103D4000FFFFFF0DFFFFFF0DFFFFFF0DFFFFFF0D4B
:103D5000FFFFFF0DFFFFFF0DFFFFFF0D63B9760DA6
:103D60000A91280D2BA0450D2BA0450D2BA0450D2C
:103D70002BA0450D2BA0450D2BA0450D2BA0450DCF
:103D80002BA0450D2BA0450D2BA0450D2BA0450DBF
:103D90002BA0450D2BA0450D2BA0450D2BA0450DAF
:103DA0002BA0450D2BA0450D2BA0450D2BA0450D9F
:104260002BA0450D2BA0450D2BA0450DFFFFFF0DED
:10427000FFFFFF0DFFFFFF0DFFFFFF0DFFFFFF0D16
:10428000FFFFFF0DFFFFFF0DFFFFFF0DFFFFFF0D06
:10429000FFFFFF0DFFFFFF0DFFFFFF0DFFFFFF0DF6
:1042A000FFFFFF0DFFFFFF0DFFFFFF0DFFFFFF0DE6
:1042B000FFFFFF0DFFFFFF0DFFFFFF0DFFFFFF0DD6
:1042C000FFFFFF0DFFFFFF0DFFFFFF0DFFFFFF0DC6
:1042D000FFFFFF0DFFFFFF0DFFFFFF0DFFFFFF0DB6
:1042E000FFFFFF0DFFFFFF0DFFFFFF0DFFFFFF0DA6
:1042F000FFFFFF0DFFFFFF0DFFFFFF0DFFFFFF0D96
:10430000FFFFFF0DFFFFFF0DFFFFFF0DFFFFFF0D85
:10431000FFFFFF0DFFFFFF0DFFFFFF0DFFFFFF0D75
:10432000FFFFFF0DFFFFFF0DFFFFFF0DFFFFFF0D65
:10433000FFFFFF0DFFFFFF0DFFFFFF0DFFFFFF0D55
:10434000FFFFFF0DFFFFFF0DFFFFFF0DFFFFFF0D45
:10435000FFFFFF0DFFFFFF0DFFFFFF0DFFFFFF0D35
:10436000FFFFFF0DFFFFFF0DFFFFFF0DFFFFFF0D25
:10437000FFFFFF0DFFFFFF0DFFFFFF0DFFFFFF0D15
:10438000FFFFFF0DFFFFFF0DFFFFFF0DFFFFFF0D05
:10439000FFFFFF0DFFFFFF0DFFFFFF0DFFFFFF0DF5
:1043A000FFFFFF0DFFFFFF0DFFFFFF0DFFFFFF0DE5
:1043B000FFFFFF0DFFFFFF0DFFFFFF0DFFFFFF0DD5
:1043C000FFFFFF0DFFFFFF0DFFFFFF0DFFFFFF0DC5
:1043D000FFFFFF0DFFFFFF0DFFFFFF0DFFFFFF0DB5
:1043E000FFFFFF0DFFFFFF0DFFFFFF0D63B9760D10
:1043F0000A91280D2BA0450D2BA0450D2BA0450D96
:104400002BA0450D2BA0450D2BA0450D2BA0450D38
:104410002BA0450D2BA0450D2BA0450D2BA0450D28
:104420002BA0450D2BA0450D2BA0450D2BA0450D18
:104430002BA0450D2BA0450D2BA0450D2BA0450D08
:1048F0002BA0450D2BA0450D2BA0450DFFFFFF0D57
:10490000FFFFFF0DFFFFFF0DFFFFFF0DFFFFFF0D7F
:10491000FFFFFF0DFFFFFF0DFFFFFF0DFFFFFF0D6F
:10492000FFFFFF0DFFFFFF0DFFFFFF0DFFFFFF0D5F
:10493000FFFFFF0DFFFFFF0DFFFFFF0DFFFFFF0D4F
:10494000FFFFFF0DFFFFFF0DFFFFFF0DFFFFFF0D3F
:10495000FFFFFF0DFFFFFF0DFFFFFF0DFFFFFF0D2F
:10496000FFFFFF0DFFFFFF0DFFFFFF0DFFFFFF0D1F
:10497000FFFFFF0DFFFFFF0DFFFFFF0DFFFFFF0D0F
:10498000FFFFFF0DFFFFFF0DFFFFFF0DFFFFFF0DFF
:10499000FFFFFF0DFFFFFF0DFFFFFF0DFFFFFF0DEF
:1049A000FFFFFF0DFFFFFF0DFFFFFF0DFFFFFF0DDF
:1049B000FFFFFF0DFFFFFF0DFFFFFF0DFFFFFF0DCF
:1049C000FFFFFF0DFFFFFF0DFFFFFF0DFFFFFF0DBF
:1049D000FFFFFF0DFFFFFF0DFFFFFF0DFFFFFF0DAF
:1049E000FFFFFF0DFFFFFF0DFFFFFF0DFFFFFF0D9F
:1049F000FFFFFF0DFFFFFF0DFFFFFF0DFFFFFF0D8F
:104A0000FFFFFF0DFFFFFF0DFFFFFF0DFFFFFF0D7E
:104A1000FFFFFF0DFFFFFF0DFFFFFF0DFFFFFF0D6E
:104A2000FFFFFF0DFFFFFF0DFFFFFF0DFFFFFF0D5E
:104A3000FFFFFF0DFFFFFF0DFFFFFF0DFFFFFF0D4E
:104A4000FFFFFF0DFFFFFF0DFFFFFF0DFFFFFF0D3E
:104A5000FFFFFF0DFFFFFF0DFFFFFF0DFFFFFF0D2E
:104A6000FFFFFF0DFFFFFF0DFFFFFF0DFFFFFF0D1E
:104A7000FFFFFF0DFFFFFF0DFFFFFF0DFFFFFF0D0E
:104A8000FFFFFF0DFFFFFF0DFFFFFF0DFFFFFF0DFE
:104A9000FFFFFF0DFFFFFF0DFFFFFF0DFFFFFF0DEE
:104AA000FFFFFF0DFFFFFF0DFFFFFF0DFFFFFF0DDE
:104AB000FFFFFF0DFFFFFF0DFFFFFF0DFFFFFF0DCE
:104AC000FFFFFF0DFFFFFF0DFFFFFF0D63B9760D29
:104AD0000A91280D2BA0450D2BA0450D2BA0450DAF
:104AE0002BA0450D2BA0450D2BA0450D2BA0450D52
:104AF0002BA0450D2BA0450D2BA0450D2BA0450D42
:104B00002BA0450D2BA0450D2BA0450D2BA0450D31
:104B10002BA0450D2BA0450D2BA0450D2BA0450D21
:104FD0002BA0450D2BA0450D2BA0450DFFFFFF0D70
:104FE000FFFFFF0DFFFFFF0DFFFFFF0DFFFFFF0D99
:104FF000FFFFFF0DFFFFFF0DFFFFFF0DFFFFFF0D89
:10500000FFFFFF0DFFFFFF0DFFFFFF0DFFFFFF0D78
:10501000FFFFFF0DFFFFFF0DFFFFFF0DFFFFFF0D68
:10502000FFFFFF0DFFFFFF0DFFFFFF0DFFFFFF0D58
:10503000FFFFFF0DFFFFFF0DFFFFFF0DFFFFFF0D48
:10504000FFFFFF0DFFFFFF0DFFFFFF0DFFFFFF0D38
:10505000FFFFFF0DFFFFFF0DFFFFFF0DFFFFFF0D28
:10506000FFFFFF0DFFFFFF0DFFFFFF0DFFFFFF0D18
:10507000FFFFFF0DFFFFFF0DFFFFFF0DFFFFFF0D08
:10508000FFFFFF0DFFFFFF0DFFFFFF0DFFFFFF0DF8
:10509000FFFFFF0DFFFFFF0DFFFFFF0DFFFFFF0DE8
:1050A000FFFFFF0DFFFFFF0DFFFFFF0DFFFFFF0DD8
:1050B000FFFFFF0DFFFFFF0DFFFFFF0DFFFFFF0DC8
:1050C000FFFFFF0DFFFFFF0DFFFFFF0DFFFFFF0DB8
:1050D000FFFFFF0DFFFFFF0DFFFFFF0DFFFFFF0DA8
:1050E000FFFFFF0DFFFFFF0DFFFFFF0DFFFFFF0D98
:1050F000FFFFFF0DFFFFFF0DFFFFFF0DFFFFFF0D88
:10510000FFFFFF0DFFFFFF0DFFFFFF0D63B9760DE2
:105110000A91280D2BA0450D2BA0450D2BA0450D68
:105120002BA0450D2BA0450D2BA0450D2BA0450D0B
:105130002BA0450D2BA0450D2BA0450D2BA0450DFB
:105140002BA0450D2BA0450D2BA0450D2BA0450DEB
:105150002BA0450D2BA0450D2BA0450D2BA0450DDB
:105610002BA0450D2BA0450D2BA0450DFFFFFF0D29
:10562000FFFFFF0DFFFFFF0DFFFFFF0DFFFFFF0D52
:10563000FFFFFF0DFFFFFF0DFFFFFF0DFFFFFF0D42
:10564000FFFFFF0DFFFFFF0DFFFFFF0DFFFFFF0D32
:10565000FFFFFF0DFFFFFF0DFFFFFF0DFFFFFF0D22
:10566000FFFFFF0DFFFFFF0DFFFFFF0DFFFFFF0D12
:10567000FFFFFF0DFFFFFF0DFFFFFF0DFFFFFF0D02
:10568000FFFFFF0DFFFFFF0DFFFFFF0DFFFFFF0DF2
:10569000FFFFFF0DFFFFFF0DFFFFFF0DFFFFFF0DE2
:1056A000FFFFFF0DFFFFFF0DFFFFFF0DFFFFFF0DD2
:1056B000FFFFFF0DFFFFFF0DFFFFFF0DFFFFFF0DC2
:1056C000FFFFFF0DFFFFFF0DFFFFFF0DFFFFFF0DB2
:1056D000FFFFFF0DFFFFFF0DFFFFFF0DFFFFFF0DA2
:1056E000FFFFFF0DFFFFFF0DFFFFFF0DFFFFFF0D92
:1056F000FFFFFF0DFFFFFF0DFFFFFF0DFFFFFF0D82
:10570000FFFFFF0DFFFFFF0DFFFFFF0DFFFFFF0D71
:10571000FFFFFF0DFFFFFF0DFFFFFF0DFFFFFF0D61
:10572000FFFFFF0DFFFFFF0DFFFFFF0DFFFFFF0D51
:10573000FFFFFF0DFFFFFF0DFFFFFF0DFFFFFF0D41
:10574000FFFFFF0DFFFFFF0DFFFFFF0DFFFFFF0D31
:10575000FFFFFF0DFFFFFF0DFFFFFF0DFFFFFF0D21
:10576000FFFFFF0DFFFFFF0DFFFFFF0DFFFFFF0D11
:10577000FFFFFF0DFFFFFF0DFFFFFF0DFFFFFF0D01
:10578000FFFFFF0DFFFFFF0DFFFFFF0DFFFFFF0DF1
:10579000FFFFFF0DFFFFFF0DFFFFFF0DFFFFFF0DE1
:1057A000FFFFFF0DFFFFFF0DFFFFFF0DFFFFFF0DD1
:1057B000FFFFFF0DFFFFFF0DFFFFFF0DFFFFFF0DC1
:1057C000FFFFFF0DFFFFFF0DFFFFFF0DFFFFFF0DB1
:1057D000FFFFFF0DFFFFFF0DFFFFFF0DFFFFFF0DA1
:1057E000FFFFFF0DFFFFFF0DFFFFFF0D63B9760DFC
:1057F0000A91280D2BA0450D2BA0450D2BA0450D82
:105800002BA0450D2BA0450D2BA0450D2BA0450D24
:105810002BA0450D2BA0450D2BA0450D2BA0450D14
:105820002BA0450D2BA0450D2BA0450D2BA0450D04
:105830002BA0450D2BA0450D2BA0450D2BA0450DF4
:105CF0002BA0450D2BA0450D2BA0450DFFFFFF0D43
:105D0000FFFFFF0DFFFFFF0DFFFFFF0DFFFFFF0D6B
:105D1000FFFFFF0DFFFFFF0DFFFFFF0DFFFFFF0D5B
:105D2000FFFFFF0DFFFFFF0DFFFFFF0DFFFFFF0D4B
:105D3000FFFFFF0DFFFFFF0DFFFFFF0DFFFFFF0D3B
:105D4000FFFFFF0DFFFFFF0DFFFFFF0DFFFFFF0D2B
:105D5000FFFFFF0DFFFFFF0DFFFFFF0DFFFFFF0D1B
:105D6000FFFFFF0DFFFFFF0DFFFFFF0DFFFFFF0D0B
:105D7000FFFFFF0DFFFFFF0DFFFFFF0DFFFFFF0DFB
:105D8000FFFFFF0DFFFFFF0DFFFFFF0DFFFFFF0DEB
:105D9000FFFFFF0DFFFFFF0DFFFFFF0DFFFFFF0DDB
:105DA000FFFFFF0DFFFFFF0DFFFFFF0DFFFFFF0DCB
:105DB000FFFFFF0DFFFFFF0DFFFFFF0DFFFFFF0DBB
:105DC000FFFFFF0DFFFFFF0DFFFFFF0DFFFFFF0DAB
:105DD000FFFFFF0DFFFFFF0DFFFFFF0DFFFFFF0D9B
:105DE000FFFFFF0DFFFFFF0DFFFFFF0DFFFFFF0D8B
:105DF000FFFFFF0DFFFFFF0DFFFFFF0DFFFFFF0D7B
:105E0000FFFFFF0DFFFFFF0DFFFFFF0DFFFFFF0D6A
:105E1000FFFFFF0DFFFFFF0DFFFFFF0DFFFFFF0D5A
:105E2000FFFFFF0DFFFFFF0DFFFFFF0DFFFFFF0D4A
:105E3000FFFFFF0DFFFFFF0DFFFFFF0DFFFFFF0D3A
:105E4000FFFFFF0DFFFFFF0DFFFFFF0DFFFFFF0D2A
:105E5000FFFFFF0DFFFFFF0DFFFFFF0DFFFFFF0D1A
:105E6000FFFFFF0DFFFFFF0DFFFFFF0DFFFFFF0D0A
:105E7000FFFFFF0DFFFFFF0DFFFFFF0D63B9760D65
:105E80000A91280D2BA0450D2BA0450D2BA0450DEB
:105E90002BA0450D2BA0450D2BA0450D2BA0450D8E
:105EA0002BA0450D2BA0450D2BA0450D2BA0450D7E
:105EB0002BA0450D2BA0450D2BA0450D2BA0450D6E
:105EC0002BA0450D2BA0450D2BA0450D2BA0450D5E
:106380002BA0450D2BA0450D2BA0450DFFFFFF0DAC
:10639000FFFFFF0DFFFFFF0DFFFFFF0DFFFFFF0DD5
:1063A000FFFFFF0DFFFFFF0DFFFFFF0DFFFFFF0DC5
:1063B000FFFFFF0DFFFFFF0DFFFFFF0DFFFFFF0DB5
:1063C000FFFFFF0DFFFFFF0DFFFFFF0DFFFFFF0DA5
:1063D000FFFFFF0DFFFFFF0DFFFFFF0DFFFFFF0D95
:1063E000FFFFFF0DFFFFFF0DFFFFFF0DFFFFFF0D85
:1063F000FFFFFF0DFFFFFF0DFFFFFF0DFFFFFF0D75
:10640000FFFFFF0DFFFFFF0DFFFFFF0DFFFFFF0D64
:10641000FFFFFF0DFFFFFF0DFFFFFF0DFFFFFF0D54
:10642000FFFFFF0DFFFFFF0DFFFFFF0DFFFFFF0D44
:10643000FFFFFF0DFFFFFF0DFFFFFF0DFFFFFF0D34
:10644000FFFFFF0DFFFFFF0DFFFFFF0DFFFFFF0D24
:10645000FFFFFF0DFFFFFF0DFFFFFF0DFFFFFF0D14
:10646000FFFFFF0DFFFFFF0DFFFFFF0DFFFFFF0D04
:10647000FFFFFF0DFFFFFF0DFFFFFF0DFFFFFF0DF4
:10648000FFFFFF0DFFFFFF0DFFFFFF0DFFFFFF0DE4
:10649000FFFFFF0DFFFFFF0DFFFFFF0DFFFFFF0DD4
:1064A000FFFFFF0DFFFFFF0DFFFFFF0DFFFFFF0DC4
:1064B000FFFFFF0DFFFFFF0DFFFFFF0DFFFFFF0DB4
:1064C000FFFFFF0DFFFFFF0DFFFFFF0DFFFFFF0DA4
:1064D000FFFFFF0DFFFFFF0DFFFFFF0DFFFFFF0D94
:1064E000FFFFFF0DFFFFFF0DFFFFFF0DFFFFFF0D84
:1064F000FFFFFF0DFFFFFF0DFFFFFF0DFFFFFF0D74
:10650000FFFFFF0DFFFFFF0DFFFFFF0DFFFFFF0D63
:10651000FFFFFF0DFFFFFF0DFFFFFF0DFFFFFF0D53
:10652000FFFFFF0DFFFFFF0DFFFFFF0DFFFFFF0D43
:10653000FFFFFF0DFFFFFF0DFFFFFF0DFFFFFF0D33
:10654000FFFFFF0DFFFFFF0DFFFFFF0DFFFFFF0D23
:10655000FFFFFF0DFFFFFF0DFFFFFF0D63B9760D7E
:106560000A91280D2BA0450D2BA0450D2BA0450D04
:106570002BA0450D2BA0450D2BA0450D2BA0450DA7
:106580002BA0450D2BA0450D2BA0450D2BA0450D97
:106590002BA0450D2BA0450D2BA0450D2BA0450D87
:1065A0002BA0450D2BA0450D2BA0450D2BA0450D77
:106A60002BA0450D2BA0450D2BA0450DFFFFFF0DC5
:106A7000FFFFFF0DFFFFFF0DFFFFFF0DFFFFFF0DEE
:106A8000FFFFFF0DFFFFFF0DFFFFFF0DFFFFFF0DDE
:106A9000FFFFFF0DFFFFFF0DFFFFFF0DFFFFFF0DCE
:106AA000FFFFFF0DFFFFFF0DFFFFFF0DFFFFFF0DBE
:106AB000FFFFFF0DFFFFFF0DFFFFFF0DFFFFFF0DAE
:106AC000FFFFFF0DFFFFFF0DFFFFFF0DFFFFFF0D9E
:106AD000FFFFFF0DFFFFFF0DFFFFFF0DFFFFFF0D8E
:106AE000FFFFFF0DFFFFFF0DFFFFFF0DFFFFFF0D7E
:106AF000FFFFFF0DFFFFFF0DFFFFFF0DFFFFFF0D6E
:106B0000FFFFFF0DFFFFFF0DFFFFFF0DFFFFFF0D5D
:106B1000FFFFFF0DFFFFFF0DFFFFFF0DFFFFFF0D4D
:106B2000FFFFFF0DFFFFFF0DFFFFFF0DFFFFFF0D3D
:106B3000FFFFFF0DFFFFFF0DFFFFFF0DFFFFFF0D2D
:106B4000FFFFFF0DFFFFFF0DFFFFFF0DFFFFFF0D1D
:106B5000FFFFFF0DFFFFFF0DFFFFFF0DFFFFFF0D0D
:106B6000FFFFFF0DFFFFFF0DFFFFFF0DFFFFFF0DFD
:106B7000FFFFFF0DFFFFFF0DFFFFFF0DFFFFFF0DED
:106B8000FFFFFF0DFFFFFF0DFFFFFF0DFFFFFF0DDD
:106B9000FFFFFF0DFFFFFF0DFFFFFF0D63B9760D38
:106BA0000A91280D2BA0450D2BA0450D2BA0450DBE
:106BB0002BA0450D2BA0450D2BA0450D2BA0450D61
:106BC0002BA0450D2BA0450D2BA0450D2BA0450D51
:106BD0002BA0450D2BA0450D2BA0450D2BA0450D41
:106BE0002BA0450D2BA0450D2BA0450D2BA0450D31
:1070A0002BA0450D2BA0450D2BA0450DFFFFFF0D7F
:1070B000FFFFFF0DFFFFFF0DFFFFFF0DFFFFFF0DA8
:1070C000FFFFFF0DFFFFFF0DFFFFFF0DFFFFFF0D98
:1070D000FFFFFF0DFFFFFF0DFFFFFF0DFFFFFF0D88
:1070E000FFFFFF0DFFFFFF0DFFFFFF0DFFFFFF0D78
:1070F000FFFFFF0DFFFFFF0DFFFFFF0DFFFFFF0D68
:10710000FFFFFF0DFFFFFF0DFFFFFF0DFFFFFF0D57
:10711000FFFFFF0DFFFFFF0DFFFFFF0DFFFFFF0D47
:10712000FFFFFF0DFFFFFF0DFFFFFF0DFFFFFF0D37
:10713000FFFFFF0DFFFFFF0DFFFFFF0DFFFFFF0D27
:10714000FFFFFF0DFFFFFF0DFFFFFF0DFFFFFF0D17
:10715000FFFFFF0DFFFFFF0DFFFFFF0DFFFFFF0D07
:10716000FFFFFF0DFFFFFF0DFFFFFF0DFFFFFF0DF7
:10717000FFFFFF0DFFFFFF0DFFFFFF0DFFFFFF0DE7
:10718000FFFFFF0DFFFFFF0DFFFFFF0DFFFFFF0DD7
:10719000FFFFFF0DFFFFFF0DFFFFFF0DFFFFFF0DC7
:1071A000FFFFFF0DFFFFFF0DFFFFFF0DFFFFFF0DB7
:1071B000FFFFFF0DFFFFFF0DFFFFFF0DFFFFFF0DA7
:1071C000FFFFFF0DFFFFFF0DFFFFFF0DFFFFFF0D97
:1071D000FFFFFF0DFFFFFF0DFFFFFF0DFFFFFF0D87
:1071E000FFFFFF0DFFFFFF0DFFFFFF0DFFFFFF0D77
:1071F000FFFFFF0DFFFFFF0DFFFFFF0DFFFFFF0D67
:10720000FFFFFF0DFFFFFF0DFFFFFF0DFFFFFF0D56
:10721000FFFFFF0DFFFFFF0DFFFFFF0DFFFFFF0D46
:10722000FFFFFF0DFFFFFF0DFFFFFF0DFFFFFF0D36
:10723000FFFFFF0DFFFFFF0DFFFFFF0DFFFFFF0D26
:10724000FFFFFF0DFFFFFF0DFFFFFF0DFFFFFF0D16
:10725000FFFFFF0DFFFFFF0DFFFFFF0DFFFFFF0D06
:10726000FFFFFF0DFFFFFF0DFFFFFF0DFFFFFF0DF6
:10727000FFFFFF0DFFFFFF0DFFFFFF0D63B9760D51
:107280000A91280D2BA0450D2BA0450D2BA0450DD7
:107290002BA0450D2BA0450D2BA0450D2BA0450D7A
:1072A0002BA0450D2BA0450D2BA0450D2BA0450D6A
:1072B0002BA0450D2BA0450D2BA0450D2BA0450D5A
:1072C0002BA0450D2BA0450D2BA0450D2BA0450D4A
:107780002BA0450D2BA0450D2BA0450DFFFFFF0D98
:10779000FFFFFF0DFFFFFF0DFFFFFF0DFFFFFF0DC1
:1077A000FFFFFF0DFFFFFF0DFFFFFF0DFFFFFF0DB1
:1077B000FFFFFF0DFFFFFF0DFFFFFF0DFFFFFF0DA1
:1077C000FFFFFF0DFFFFFF0DFFFFFF0DFFFFFF0D91
:1077D000FFFFFF0DFFFFFF0DFFFFFF0DFFFFFF0D81
:1077E000FFFFFF0DFFFFFF0DFFFFFF0DFFFFFF0D71
:1077F000FFFFFF0DFFFFFF0DFFFFFF0DFFFFFF0D61
:10780000FFFFFF0DFFFFFF0DFFFFFF0DFFFFFF0D50
:10781000FFFFFF0DFFFFFF0DFFFFFF0DFFFFFF0D40
:10782000FFFFFF0DFFFFFF0DFFFFFF0DFFFFFF0D30
:10783000FFFFFF0DFFFFFF0DFFFFFF0DFFFFFF0D20
:10784000FFFFFF0DFFFFFF0DFFFFFF0DFFFFFF0D10
:10785000FFFFFF0DFFFFFF0DFFFFFF0DFFFFFF0D00
:10786000FFFFFF0DFFFFFF0DFFFFFF0DFFFFFF0DF0
:10787000FFFFFF0DFFFFFF0DFFFFFF0DFFFFFF0DE0
:10788000FFFFFF0DFFFFFF0DFFFFFF0DFFFFFF0DD0
:10789000FFFFFF0DFFFFFF0DFFFFFF0DFFFFFF0DC0
:1078A000FFFFFF0DFFFFFF0DFFFFFF0DFFFFFF0DB0
:1078B000FFFFFF0DFFFFFF0DFFFFFF0DFFFFFF0DA0
:1078C000FFFFFF0DFFFFFF0DFFFFFF0DFFFFFF0D90
:1078D000FFFFFF0DFFFFFF0DFFFFFF0DFFFFFF0D80
:1078E000FFFFFF0DFFFFFF0DFFFFFF0DFFFFFF0D70
:1078F000FFFFFF0DFFFFFF0DFFFFFF0DFFFFFF0D60
:10790000FFFFFF0DFFFFFF0DFFFFFF0D63B9760DBA
:107910000A91280D2BA0450D2BA0450D2BA0450D40
:107920002BA0450D2BA0450D2BA0450D2BA0450DE3
:107930002BA0450D2BA0450D2BA0450D2BA0450DD3
:107940002BA0450D2BA0450D2BA0450D2BA0450DC3
:107950002BA0450D2BA0450D2BA0450D2BA0450DB3
:107E10002BA0450D2BA0450D2BA0450DFFFFFF0D01
:107E2000FFFFFF0DFFFFFF0DFFFFFF0DFFFFFF0D2A
:107E3000FFFFFF0DFFFFFF0DFFFFFF0DFFFFFF0D1A
:107E4000FFFFFF0DFFFFFF0DFFFFFF0DFFFFFF0D0A
:107E5000FFFFFF0DFFFFFF0DFFFFFF0DFFFFFF0DFA
:107E6000FFFFFF0DFFFFFF0DFFFFFF0DFFFFFF0DEA
:107E7000FFFFFF0DFFFFFF0DFFFFFF0DFFFFFF0DDA
:107E8000FFFFFF0DFFFFFF0DFFFFFF0DFFFFFF0DCA
:107E9000FFFFFF0DFFFFFF0DFFFFFF0DFFFFFF0DBA
:107EA000FFFFFF0DFFFFFF0DFFFFFF0DFFFFFF0DAA
:107EB000FFFFFF0DFFFFFF0DFFFFFF0DFFFFFF0D9A
:107EC000FFFFFF0DFFFFFF0DFFFFFF0DFFFFFF0D8A
:107ED000FFFFFF0DFFFFFF0DFFFFFF0DFFFFFF0D7A
:107EE000FFFFFF0DFFFFFF0DFFFFFF0DFFFFFF0D6A
:107EF000FFFFFF0DFFFFFF0DFFFFFF0DFFFFFF0D5A
:107F0000FFFFFF0DFFFFFF0DFFFFFF0DFFFFFF0D49
:107F1000FFFFFF0DFFFFFF0DFFFFFF0DFFFFFF0D39
:107F2000FFFFFF0DFFFFFF0DFFFFFF0DFFFFFF0D29
:107F3000FFFFFF0DFFFFFF0DFFFFFF0DFFFFFF0D19
:107F4000FFFFFF0DFFFFFF0DFFFFFF0DFFFFFF0D09
:107F5000FFFFFF0DFFFFFF0DFFFFFF0DFFFFFF0DF9
:107F6000FFFFFF0DFFFFFF0DFFFFFF0DFFFFFF0DE9
:107F7000FFFFFF0DFFFFFF0DFFFFFF0DFFFFFF0DD9
:107F8000FFFFFF0DFFFFFF0DFFFFFF0DFFFFFF0DC9
:107F9000FFFFFF0DFFFFFF0DFFFFFF0DFFFFFF0DB9
:107FA000FFFFFF0DFFFFFF0DFFFFFF0DFFFFFF0DA9
:107FB000FFFFFF0DFFFFFF0DFFFFFF0DFFFFFF0D99
:107FC000FFFFFF0DFFFFFF0DFFFFFF0DFFFFFF0D89
:107FD000FFFFFF0DFFFFFF0DFFFFFF0DFFFFFF0D79
:107FE000FFFFFF0DFFFFFF0DFFFFFF0D63B9760DD4
:107FF0000A91280D2BA0450D2BA0450D2BA0450D5A
:108000002BA0450D2BA0450D2BA0450D2BA0450DFC
:108010002BA0450D2BA0450D2BA0450D2BA0450DEC
:108020002BA0450D2BA0450D2BA0450D2BA0450DDC
:108030002BA0450D2BA0450D2BA0450D2BA0450DCC
:1084F0002BA0450D2BA0450D2BA0450DFFFFFF0D1B
:10850000FFFFFF0DFFFFFF0DFFFFFF0DFFFFFF0D43
:10851000FFFFFF0DFFFFFF0DFFFFFF0DFFFFFF0D33
:10852000FFFFFF0DFFFFFF0DFFFFFF0DFFFFFF0D23
:10853000FFFFFF0DFFFFFF0DFFFFFF0DFFFFFF0D13
:10854000FFFFFF0DFFFFFF0DFFFFFF0DFFFFFF0D03
:10855000FFFFFF0DFFFFFF0DFFFFFF0DFFFFFF0DF3
:10856000FFFFFF0DFFFFFF0DFFFFFF0DFFFFFF0DE3
:10857000FFFFFF0DFFFFFF0DFFFFFF0DFFFFFF0DD3
:10858000FFFFFF0DFFFFFF0DFFFFFF0DFFFFFF0DC3
:10859000FFFFFF0DFFFFFF0DFFFFFF0DFFFFFF0DB3
:1085A000FFFFFF0DFFFFFF0DFFFFFF0DFFFFFF0DA3
:1085B000FFFFFF0DFFFFFF0DFFFFFF0DFFFFFF0D93
:1085C000FFFFFF0DFFFFFF0DFFFFFF0DFFFFFF0D83
:1085D000FFFFFF0DFFFFFF0DFFFFFF0DFFFFFF0D73
:1085E000FFFFFF0DFFFFFF0DFFFFFF0DFFFFFF0D63
:1085F000FFFFFF0DFFFFFF0DFFFFFF0DFFFFFF0D53
:10860000FFFFFF0DFFFFFF0DFFFFFF0DFFFFFF0D42
:10861000FFFFFF0DFFFFFF0DFFFFFF0DFFFFFF0D32
:10862000FFFFFF0DFFFFFF0DFFFFFF0D63B9760D8D
:108630000A91280D2BA0450D2BA0450D2BA0450D13
:108640002BA0450D2BA0450D2BA0450D2BA0450DB6
:108650002BA0450D2BA0450D2BA0450D2BA0450DA6
:108660002BA0450D2BA0450D2BA0450D2BA0450D96
:108670002BA0450D2BA0450D2BA0450D2BA0450D86
:108B30002BA0450D2BA0450D2BA0450DFFFFFF0DD4
:108B4000FFFFFF0DFFFFFF0DFFFFFF0DFFFFFF0DFD
:108B5000FFFFFF0DFFFFFF0DFFFFFF0DFFFFFF0DED
:108B6000FFFFFF0DFFFFFF0DFFFFFF0DFFFFFF0DDD
:108B7000FFFFFF0DFFFFFF0DFFFFFF0DFFFFFF0DCD
:108B8000FFFFFF0DFFFFFF0DFFFFFF0DFFFFFF0DBD
:108B9000FFFFFF0DFFFFFF0DFFFFFF0DFFFFFF0DAD
:108BA000FFFFFF0DFFFFFF0DFFFFFF0DFFFFFF0D9D
:108BB000FFFFFF0DFFFFFF0DFFFFFF0DFFFFFF0D8D
:108BC000FFFFFF0DFFFFFF0DFFFFFF0DFFFFFF0D7D
:108BD000FFFFFF0DFFFFFF0DFFFFFF0DFFFFFF0D6D
:108BE000FFFFFF0DFFFFFF0DFFFFFF0DFFFFFF0D5D
:108BF000FFFFFF0DFFFFFF0DFFFFFF0DFFFFFF0D4D
:108C0000FFFFFF0DFFFFFF0DFFFFFF0DFFFFFF0D3C
:108C1000FFFFFF0DFFFFFF0DFFFFFF0DFFFFFF0D2C
:108C2000FFFFFF0DFFFFFF0DFFFFFF0DFFFFFF0D1C
:108C3000FFFFFF0DFFFFFF0DFFFFFF0DFFFFFF0D0C
:108C4000FFFFFF0DFFFFFF0DFFFFFF0DFFFFFF0DFC
:108C5000FFFFFF0DFFFFFF0DFFFFFF0DFFFFFF0DEC
:108C6000FFFFFF0DFFFFFF0DFFFFFF0DFFFFFF0DDC
:108C7000FFFFFF0DFFFFFF0DFFFFFF0DFFFFFF0DCC
:108C8000FFFFFF0DFFFFFF0DFFFFFF0DFFFFFF0DBC
:108C9000FFFFFF0DFFFFFF0DFFFFFF0DFFFFFF0DAC
:108CA000FFFFFF0DFFFFFF0DFFFFFF0DFFFFFF0D9C
:108CB000FFFFFF0DFFFFFF0DFFFFFF0DFFFFFF0D8C
:108CC000FFFFFF0DFFFFFF0DFFFFFF0DFFFFFF0D7C
:108CD000FFFFFF0DFFFFFF0DFFFFFF0DFFFFFF0D6C
:108CE000FFFFFF0DFFFFFF0DFFFFFF0DFFFFFF0D5C
:108CF000FFFFFF0DFFFFFF0DFFFFFF0DFFFFFF0D4C
:108D0000FFFFFF0DFFFFFF0DFFFFFF0D63B9760DA6
:108D10000A91280D2BA0450D2BA0450D2BA0450D2C
:108D20002BA0450D2BA0450D2BA0450D2BA0450DCF
:108D30002BA0450D2BA0450D2BA0450D2BA0450DBF
:108D40002BA0450D2BA0450D2BA0450D2BA0450DAF
:108D50002BA0450D2BA0450D2BA0450D2BA0450D9F
:109210002BA0450D2BA0450D2BA0450DFFFFFF0DED
:10922000FFFFFF0DFFFFFF0DFFFFFF0DFFFFFF0D16
:10923000FFFFFF0DFFFFFF0DFFFFFF0DFFFFFF0D06
:10924000FFFFFF0DFFFFFF0DFFFFFF0DFFFFFF0DF6
:10925000FFFFFF0DFFFFFF0DFFFFFF0DFFFFFF0DE6
:10926000FFFFFF0DFFFFFF0DFFFFFF0DFFFFFF0DD6
:10927000FFFFFF0DFFFFFF0DFFFFFF0DFFFFFF0DC6
:10928000FFFFFF0DFFFFFF0DFFFFFF0DFFFFFF0DB6
:10929000FFFFFF0DFFFFFF0DFFFFFF0DFFFFFF0DA6
:1092A000FFFFFF0DFFFFFF0DFFFFFF0DFFFFFF0D96
:1092B000FFFFFF0DFFFFFF0DFFFFFF0DFFFFFF0D86
:1092C000FFFFFF0DFFFFFF0DFFFFFF0DFFFFFF0D76
:1092D000FFFFFF0DFFFFFF0DFFFFFF0DFFFFFF0D66
:1092E000FFFFFF0DFFFFFF0DFFFFFF0DFFFFFF0D56
:1092F000FFFFFF0DFFFFFF0DFFFFFF0DFFFFFF0D46
:10930000FFFFFF0DFFFFFF0DFFFFFF0DFFFFFF0D35
:10931000FFFFFF0DFFFFFF0DFFFFFF0DFFFFFF0D25
:10932000FFFFFF0DFFFFFF0DFFFFFF0DFFFFFF0D15
:10933000FFFFFF0DFFFFFF0DFFFFFF0DFFFFFF0D05
:10934000FFFFFF0DFFFFFF0DFFFFFF0DFFFFFF0DF5
:10935000FFFFFF0DFFFFFF0DFFFFFF0DFFFFFF0DE5
:10936000FFFFFF0DFFFFFF0DFFFFFF0DFFFFFF0DD5
:10937000FFFFFF0DFFFFFF0DFFFFFF0DFFFFFF0DC5
:10938000FFFFFF0DFFFFFF0DFFFFFF0DFFFFFF0DB5
:10939000FFFFFF0DFFFFFF0DFFFFFF0D63B9760D10
:1093A0000A91280D2BA0450D2BA0450D2BA0450D96
:1093B0002BA0450D2BA0450D2BA0450D2BA0450D39
:1093C0002BA0450D2BA0450D2BA0450D2BA0450D29
:1093D0002BA0450D2BA0450D2BA0450D2BA0450D19
:1093E0002BA0450D2BA0450D2BA0450D2BA0450D09
:1098A0002BA0450D2BA0450D2BA0450DFFFFFF0D57
:1098B000FFFFFF0DFFFFFF0DFFFFFF0DFFFFFF0D80
:1098C000FFFFFF0DFFFFFF0DFFFFFF0DFFFFFF0D70
:1098D000FFFFFF0DFFFFFF0DFFFFFF0DFFFFFF0D60
:1098E000FFFFFF0DFFFFFF0DFFFFFF0DFFFFFF0D50
:1098F000FFFFFF0DFFFFFF0DFFFFFF0DFFFFFF0D40
:10990000FFFFFF0DFFFFFF0DFFFFFF0DFFFFFF0D2F
:10991000FFFFFF0DFFFFFF0DFFFFFF0DFFFFFF0D1F
:10992000FFFFFF0DFFFFFF0DFFFFFF0DFFFFFF0D0F
:10993000FFFFFF0DFFFFFF0DFFFFFF0DFFFFFF0DFF
:10994000FFFFFF0DFFFFFF0DFFFFFF0DFFFFFF0DEF
:10995000FFFFFF0DFFFFFF0DFFFFFF0DFFFFFF0DDF
:10996000FFFFFF0DFFFFFF0DFFFFFF0DFFFFFF0DCF
:10997000FFFFFF0DFFFFFF0DFFFFFF0DFFFFFF0DBF
:10998000FFFFFF0DFFFFFF0DFFFFFF0DFFFFFF0DAF
:10999000FFFFFF0DFFFFFF0DFFFFFF0DFFFFFF0D9F
:1099A000FFFFFF0DFFFFFF0DFFFFFF0DFFFFFF0D8F
:1099B000FFFFFF0DFFFFFF0DFFFFFF0DFFFFFF0D7F
:1099C000FFFFFF0DFFFFFF0DFFFFFF0DFFFFFF0D6F
:1099D000FFFFFF0DFFFFFF0DFFFFFF0DFFFFFF0D5F
:1099E000FFFFFF0DFFFFFF0DFFFFFF0DFFFFFF0D4F
:1099F000FFFFFF0DFFFFFF0DFFFFFF0DFFFFFF0D3F
:109A0000FFFFFF0DFFFFFF0DFFFFFF0DFFFFFF0D2E
:109A1000FFFFFF0DFFFFFF0DFFFFFF0DFFFFFF0D1E
:109A2000FFFFFF0DFFFFFF0DFFFFFF0DFFFFFF0D0E
:109A3000FFFFFF0DFFFFFF0DFFFFFF0DFFFFFF0DFE
:109A4000FFFFFF0DFFFFFF0DFFFFFF0DFFFFFF0DEE
:109A5000FFFFFF0DFFFFFF0DFFFFFF0DFFFFFF0DDE
:109A6000FFFFFF0DFFFFFF0DFFFFFF0DFFFFFF0DCE
:109A7000FFFFFF0DFFFFFF0DFFFFFF0D63B9760D29
:109A80000A91280D2BA0450D2BA0450D2BA0450DAF
:109A90002BA0450D2BA0450D2BA0450D2BA0450D52
:109AA0002BA0450D2BA0450D2BA0450D2BA0450D42
:109AB0002BA0450D2BA0450D2BA0450D2BA0450D32
:109AC0002BA0450D2BA0450D2BA0450D2BA0450D22
:109F80002BA0450D2BA0450D2BA0450DFFFFFF0D70
:109F9000FFFFFF0DFFFFFF0DFFFFFF0DFFFFFF0D99
:109FA000FFFFFF0DFFFFFF0DFFFFFF0DFFFFFF0D89
:109FB000FFFFFF0DFFFFFF0DFFFFFF0DFFFFFF0D79
:109FC000FFFFFF0DFFFFFF0DFFFFFF0DFFFFFF0D69
:109FD000FFFFFF0DFFFFFF0DFFFFFF0DFFFFFF0D59
:109FE000FFFFFF0DFFFFFF0DFFFFFF0DFFFFFF0D49
:109FF000FFFFFF0DFFFFFF0DFFFFFF0DFFFFFF0D39
:10A00000FFFFFF0DFFFFFF0DFFFFFF0DFFFFFF0D28
:10A01000FFFFFF0DFFFFFF0DFFFFFF0DFFFFFF0D18
:10A02000FFFFFF0DFFFFFF0DFFFFFF0DFFFFFF0D08
:10A03000FFFFFF0DFFFFFF0DFFFFFF0DFFFFFF0DF8
:10A04000FFFFFF0DFFFFFF0DFFFFFF0DFFFFFF0DE8
:10A05000FFFFFF0DFFFFFF0DFFFFFF0DFFFFFF0DD8
:10A06000FFFFFF0DFFFFFF0DFFFFFF0DFFFFFF0DC8
:10A07000FFFFFF0DFFFFFF0DFFFFFF0DFFFFFF0DB8
:10A08000FFFFFF0DFFFFFF0DFFFFFF0DFFFFFF0DA8
:10A09000FFFFFF0DFFFFFF0DFFFFFF0DFFFFFF0D98
:10A0A000FFFFFF0DFFFFFF0DFFFFFF0DFFFFFF0D88
:10A0B000FFFFFF0DFFFFFF0DFFFFFF0D63B9760DE3
:10A0C0000A91280D2BA0450D2BA0450D2BA0450D69
:10A0D0002BA0450D2BA0450D2BA0450D2BA0450D0C
:10A0E0002BA0450D2BA0450D2BA0450D2BA0450DFC
:10A0F0002BA0450D2BA0450D2BA0450D2BA0450DEC
:10A100002BA0450D2BA0450D2BA0450D2BA0450DDB
:10A5C0002BA0450D2BA0450D2BA0450DFFFFFF0D2A
:10A5D000FFFFFF0DFFFFFF0DFFFFFF0DFFFFFF0D53
:10A5E000FFFFFF0DFFFFFF0DFFFFFF0DFFFFFF0D43
:10A5F000FFFFFF0DFFFFFF0DFFFFFF0DFFFFFF0D33
:10A60000FFFFFF0DFFFFFF0DFFFFFF0DFFFFFF0D22
:10A61000FFFFFF0DFFFFFF0DFFFFFF0DFFFFFF0D12
:10A62000FFFFFF0DFFFFFF0DFFFFFF0DFFFFFF0D02
:10A63000FFFFFF0DFFFFFF0DFFFFFF0DFFFFFF0DF2
:10A64000FFFFFF0DFFFFFF0DFFFFFF0DFFFFFF0DE2
:10A65000FFFFFF0DFFFFFF0DFFFFFF0DFFFFFF0DD2
:10A66000FFFFFF0DFFFFFF0DFFFFFF0DFFFFFF0DC2
:10A67000FFFFFF0DFFFFFF0DFFFFFF0DFFFFFF0DB2
:10A68000FFFFFF0DFFFFFF0DFFFFFF0DFFFFFF0DA2
:10A69000FFFFFF0DFFFFFF0DFFFFFF0DFFFFFF0D92
:10A6A000FFFFFF0DFFFFFF0DFFFFFF0DFFFFFF0D82
:10A6B000FFFFFF0DFFFFFF0DFFFFFF0DFFFFFF0D72
:10A6C000FFFFFF0DFFFFFF0DFFFFFF0DFFFFFF0D62
:10A6D000FFFFFF0DFFFFFF0DFFFFFF0DFFFFFF0D52
:10A6E000FFFFFF0DFFFFFF0DFFFFFF0DFFFFFF0D42
:10A6F000FFFFFF0DFFFFFF0DFFFFFF0DFFFFFF0D32
:10A70000FFFFFF0DFFFFFF0DFFFFFF0DFFFFFF0D21
:10A71000FFFFFF0DFFFFFF0DFFFFFF0DFFFFFF0D11
:10A72000FFFFFF0DFFFFFF0DFFFFFF0DFFFFFF0D01
:10A73000FFFFFF0DFFFFFF0DFFFFFF0DFFFFFF0DF1
:10A74000FFFFFF0DFFFFFF0DFFFFFF0DFFFFFF0DE1
:10A75000FFFFFF0DFFFFFF0DFFFFFF0DFFFFFF0DD1
:10A76000FFFFFF0DFFFFFF0DFFFFFF0DFFFFFF0DC1
:10A77000FFFFFF0DFFFFFF0DFFFFFF0DFFFFFF0DB1
:10A78000FFFFFF0DFFFFFF0DFFFFFF0DFFFFFF0DA1
:10A79000FFFFFF0DFFFFFF0DFFFFFF0D63B9760DFC
:10A7A0000A91280D2BA0450D2BA0450D2BA0450D82
:10A7B0002BA0450D2BA0450D2BA0450D2BA0450D25
:10A7C0002BA0450D2BA0450D2BA0450D2BA0450D15
:10A7D0002BA0450D2BA0450D2BA0450D2BA0450D05
:10A7E0002BA0450D2BA0450D2BA0450D2BA0450DF5
:10ACA0002BA0450D2BA0450D2BA0450DFFFFFF0D43
:10ACB000FFFFFF0DFFFFFF0DFFFFFF0DFFFFFF0D6C
:10ACC000FFFFFF0DFFFFFF0DFFFFFF0DFFFFFF0D5C
:10ACD000FFFFFF0DFFFFFF0DFFFFFF0DFFFFFF0D4C
:10ACE000FFFFFF0DFFFFFF0DFFFFFF0DFFFFFF0D3C
:10ACF000FFFFFF0DFFFFFF0DFFFFFF0DFFFFFF0D2C
:10AD0000FFFFFF0DFFFFFF0DFFFFFF0DFFFFFF0D1B
:10AD1000FFFFFF0DFFFFFF0DFFFFFF0DFFFFFF0D0B
:10AD2000FFFFFF0DFFFFFF0DFFFFFF0DFFFFFF0DFB
:10AD3000FFFFFF0DFFFFFF0DFFFFFF0DFFFFFF0DEB
:10AD4000FFFFFF0DFFFFFF0DFFFFFF0DFFFFFF0DDB
:10AD5000FFFFFF0DFFFFFF0DFFFFFF0DFFFFFF0DCB
:10AD6000FFFFFF0DFFFFFF0DFFFFFF0DFFFFFF0DBB
:10AD7000FFFFFF0DFFFFFF0DFFFFFF0DFFFFFF0DAB
:10AD8000FFFFFF0DFFFFFF0DFFFFFF0DFFFFFF0D9B
:10AD9000FFFFFF0DFFFFFF0DFFFFFF0DFFFFFF0D8B
:10ADA000FFFFFF0DFFFFFF0DFFFFFF0DFFFFFF0D7B
:10ADB000FFFFFF0DFFFFFF0DFFFFFF0DFFFFFF0D6B
:10ADC000FFFFFF0DFFFFFF0DFFFFFF0DFFFFFF0D5B
:10ADD000FFFFFF0DFFFFFF0DFFFFFF0DFFFFFF0D4B
:10ADE000FFFFFF0DFFFFFF0DFFFFFF0DFFFFFF0D3B
:10ADF000FFFFFF0DFFFFFF0DFFFFFF0DFFFFFF0D2B
:10AE0000FFFFFF0DFFFFFF0DFFFFFF0DFFFFFF0D1A
:10AE1000FFFFFF0DFFFFFF0DFFFFFF0DFFFFFF0D0A
:10AE2000FFFFFF0DFFFFFF0DFFFFFF0D63B9760D65
:10AE30000A91280D2BA0450D2BA0450D2BA0450DEB
:10AE40002BA0450D2BA0450D2BA0450D2BA0450D8E
:10AE50002BA0450D2BA0450D2BA0450D2BA0450D7E
:10AE60002BA0450D2BA0450D2BA0450D2BA0450D6E
:10AE70002BA0450D2BA0450D2BA0450D2BA0450D5E
:10B330002BA0450D2BA0450D2BA0450DFFFFFF0DAC
:10B34000FFFFFF0DFFFFFF0DFFFFFF0DFFFFFF0DD5
:10B35000FFFFFF0DFFFFFF0DFFFFFF0DFFFFFF0DC5
:10B36000FFFFFF0DFFFFFF0DFFFFFF0DFFFFFF0DB5
:10B37000FFFFFF0DFFFFFF0DFFFFFF0DFFFFFF0DA5
:10B38000FFFFFF0DFFFFFF0DFFFFFF0DFFFFFF0D95
:10B39000FFFFFF0DFFFFFF0DFFFFFF0DFFFFFF0D85
:10B3A000FFFFFF0DFFFFFF0DFFFFFF0DFFFFFF0D75
:10B3B000FFFFFF0DFFFFFF0DFFFFFF0DFFFFFF0D65
:10B3C000FFFFFF0DFFFFFF0DFFFFFF0DFFFFFF0D55
:10B3D000FFFFFF0DFFFFFF0DFFFFFF0DFFFFFF0D45
:10B3E000FFFFFF0DFFFFFF0DFFFFFF0DFFFFFF0D35
:10B3F000FFFFFF0DFFFFFF0DFFFFFF0DFFFFFF0D25
:10B40000FFFFFF0DFFFFFF0DFFFFFF0DFFFFFF0D14
:10B41000FFFFFF0DFFFFFF0DFFFFFF0DFFFFFF0D04
:10B42000FFFFFF0DFFFFFF0DFFFFFF0DFFFFFF0DF4
:10B43000FFFFFF0DFFFFFF0DFFFFFF0DFFFFFF0DE4
:10B44000FFFFFF0DFFFFFF0DFFFFFF0DFFFFFF0DD4
:10B45000FFFFFF0DFFFFFF0DFFFFFF0DFFFFFF0DC4
:10B46000FFFFFF0DFFFFFF0DFFFFFF0DFFFFFF0DB4
:10B47000FFFFFF0DFFFFFF0DFFFFFF0DFFFFFF0DA4
:10B48000FFFFFF0DFFFFFF0DFFFFFF0DFFFFFF0D94
:10B49000FFFFFF0DFFFFFF0DFFFFFF0DFFFFFF0D84
:10B4A000FFFFFF0DFFFFFF0DFFFFFF0DFFFFFF0D74
:10B4B000FFFFFF0DFFFFFF0DFFFFFF0DFFFFFF0D64
:10B4C000FFFFFF0DFFFFFF0DFFFFFF0DFFFFFF0D54
:10B4D000FFFFFF0DFFFFFF0DFFFFFF0DFFFFFF0D44
:10B4E000FFFFFF0DFFFFFF0DFFFFFF0DFFFFFF0D34
:10B4F000FFFFFF0DFFFFFF0DFFFFFF0DFFFFFF0D24
:10B50000FFFFFF0DFFFFFF0DFFFFFF0D63B9760D7E
:10B510000A91280D2BA0450D2BA0450D2BA0450D04
:10B520002BA0450D2BA0450D2BA0450D2BA0450DA7
:10B530002BA0450D2BA0450D2BA0450D2BA0450D97
:10B540002BA0450D2BA0450D2BA0450D2BA0450D87
:10B550002BA0450D2BA0450D2BA0450D2BA0450D77
:10BA10002BA0450D2BA0450D2BA0450DFFFFFF0DC5
:10BA2000FFFFFF0DFFFFFF0DFFFFFF0DFFFFFF0DEE
:10BA3000FFFFFF0DFFFFFF0DFFFFFF0DFFFFFF0DDE
:10BA4000FFFFFF0DFFFFFF0DFFFFFF0DFFFFFF0DCE
:10BA5000FFFFFF0DFFFFFF0DFFFFFF0DFFFFFF0DBE
:10BA6000FFFFFF0DFFFFFF0DFFFFFF0DFFFFFF0DAE
:10BA7000FFFFFF0DFFFFFF0DFFFFFF0DFFFFFF0D9E
:10BA8000FFFFFF0DFFFFFF0DFFFFFF0DFFFFFF0D8E
:10BA9000FFFFFF0DFFFFFF0DFFFFFF0DFFFFFF0D7E
:10BAA000FFFFFF0DFFFFFF0DFFFFFF0DFFFFFF0D6E
:10BAB000FFFFFF0DFFFFFF0DFFFFFF0DFFFFFF0D5E
:10BAC000FFFFFF0DFFFFFF0DFFFFFF0DFFFFFF0D4E
:10BAD000FFFFFF0DFFFFFF0DFFFFFF0DFFFFFF0D3E
:10BAE000FFFFFF0DFFFFFF0DFFFFFF0DFFFFFF0D2E
:10BAF000FFFFFF0DFFFFFF0DFFFFFF0DFFFFFF0D1E
:10BB0000FFFFFF0DFFFFFF0DFFFFFF0DFFFFFF0D0D
:10BB1000FFFFFF0DFFFFFF0DFFFFFF0DFFFFFF0DFD
:10BB2000FFFFFF0DFFFFFF0DFFFFFF0DFFFFFF0DED
:10BB3000FFFFFF0DFFFFFF0DFFFFFF0DFFFFFF0DDD
:10BB4000FFFFFF0DFFFFFF0DFFFFFF0D63B9760D38
:10BB50000A91280D2BA0450D2BA0450D2BA0450DBE
:10BB60002BA0450D2BA0450D2BA0450D2BA0450D61
:10BB70002BA0450D2BA0450D2BA0450D2BA0450D51
:10BB80002BA0450D2BA0450D2BA0450D2BA0450D41
:10BB90002BA0450D2BA0450D2BA0450D2BA0450D31
:10C050002BA0450D2BA0450D2BA0450DFFFFFF0D7F
:10C06000FFFFFF0DFFFFFF0DFFFFFF0DFFFFFF0DA8
:10C07000FFFFFF0DFFFFFF0DFFFFFF0DFFFFFF0D98
:10C08000FFFFFF0DFFFFFF0DFFFFFF0DFFFFFF0D88
:10C09000FFFFFF0DFFFFFF0DFFFFFF0DFFFFFF0D78
:10C0A000FFFFFF0DFFFFFF0DFFFFFF0DFFFFFF0D68
:10C0B000FFFFFF0DFFFFFF0DFFFFFF0DFFFFFF0D58
:10C0C000FFFFFF0DFFFFFF0DFFFFFF0DFFFFFF0D48
:10C0D000FFFFFF0DFFFFFF0DFFFFFF0DFFFFFF0D38
:10C0E000FFFFFF0DFFFFFF0DFFFFFF0DFFFFFF0D28
:10C0F000FFFFFF0DFFFFFF0DFFFFFF0DFFFFFF0D18
:10C10000FFFFFF0DFFFFFF0DFFFFFF0DFFFFFF0D07
:10C11000FFFFFF0DFFFFFF0DFFFFFF0DFFFFFF0DF7
:10C12000FFFFFF0DFFFFFF0DFFFFFF0DFFFFFF0DE7
:10C13000FFFFFF0DFFFFFF0DFFFFFF0DFFFFFF0DD7
:10C14000FFFFFF0DFFFFFF0DFFFFFF0DFFFFFF0DC7
:10C15000FFFFFF0DFFFFFF0DFFFFFF0DFFFFFF0DB7
:10C16000FFFFFF0DFFFFFF0DFFFFFF0DFFFFFF0DA7
:10C17000FFFFFF0DFFFFFF0DFFFFFF0DFFFFFF0D97
:10C18000FFFFFF0DFFFFFF0DFFFFFF0DFFFFFF0D87
:10C19000FFFFFF0DFFFFFF0DFFFFFF0DFFFFFF0D77
:10C1A000FFFFFF0DFFFFFF0DFFFFFF0DFFFFFF0D67
:10C1B000FFFFFF0DFFFFFF0DFFFFFF0DFFFFFF0D57
:10C1C000FFFFFF0DFFFFFF0DFFFFFF0DFFFFFF0D47
:10C1D000FFFFFF0DFFFFFF0DFFFFFF0DFFFFFF0D37
:10C1E000FFFFFF0DFFFFFF0DFFFFFF0DFFFFFF0D27
:10C1F000FFFFFF0DFFFFFF0DFFFFFF0DFFFFFF0D17
:10C20000FFFFFF0DFFFFFF0DFFFFFF0DFFFFFF0D06
:10C21000FFFFFF0DFFFFFF0DFFFFFF0DFFFFFF0DF6
:10C22000FFFFFF0DFFFFFF0DFFFFFF0D63B9760D51
:10C230000A91280D2BA0450D2BA0450D2BA0450DD7
:10C240002BA0450D2BA0450D2BA0450D2BA0450D7A
:10C250002BA0450D2BA0450D2BA0450D2BA0450D6A
:10C260002BA0450D2BA0450D2BA0450D2BA0450D5A
:10C270002BA0450D2BA0450D2BA0450D2BA0450D4A
:10C730002BA0450D2BA0450D2BA0450DFFFFFF0D98
:10C74000FFFFFF0DFFFFFF0DFFFFFF0DFFFFFF0DC1
:10C75000FFFFFF0DFFFFFF0DFFFFFF0DFFFFFF0DB1
:10C76000FFFFFF0DFFFFFF0DFFFFFF0DFFFFFF0DA1
:10C77000FFFFFF0DFFFFFF0DFFFFFF0DFFFFFF0D91
:10C78000FFFFFF0DFFFFFF0DFFFFFF0DFFFFFF0D81
:10C79000FFFFFF0DFFFFFF0DFFFFFF0DFFFFFF0D71
:10C7A000FFFFFF0DFFFFFF0DFFFFFF0DFFFFFF0D61
:10C7B000FFFFFF0DFFFFFF0DFFFFFF0DFFFFFF0D51
:10C7C000FFFFFF0DFFFFFF0DFFFFFF0DFFFFFF0D41
:10C7D000FFFFFF0DFFFFFF0DFFFFFF0DFFFFFF0D31
:10C7E000FFFFFF0DFFFFFF0DFFFFFF0DFFFFFF0D21
:10C7F000FFFFFF0DFFFFFF0DFFFFFF0DFFFFFF0D11
:10C80000FFFFFF0DFFFFFF0DFFFFFF0DFFFFFF0D00
:10C81000FFFFFF0DFFFFFF0DFFFFFF0DFFFFFF0DF0
:10C82000FFFFFF0DFFFFFF0DFFFFFF0DFFFFFF0DE0
:10C83000FFFFFF0DFFFFFF0DFFFFFF0DFFFFFF0DD0
:10C84000FFFFFF0DFFFFFF0DFFFFFF0DFFFFFF0DC0
:10C85000FFFFFF0DFFFFFF0DFFFFFF0DFFFFFF0DB0
:10C86000FFFFFF0DFFFFFF0DFFFFFF0DFFFFFF0DA0
:10C87000FFFFFF0DFFFFFF0DFFFFFF0DFFFFFF0D90
:10C88000FFFFFF0DFFFFFF0DFFFFFF0DFFFFFF0D80
:10C89000FFFFFF0DFFFFFF0DFFFFFF0DFFFFFF0D70
:10C8A000FFFFFF0DFFFFFF0DFFFFFF0DFFFFFF0D60
:10C8B000FFFFFF0DFFFFFF0DFFFFFF0D63B9760DBB
:10C8C0000A91280D2BA0450D2BA0450D2BA0450D41
:10C8D0002BA0450D2BA0450D2BA0450D2BA0450DE4
:10C8E0002BA0450D2BA0450D2BA0450D2BA0450DD4
:10C8F0002BA0450D2BA0450D2BA0450D2BA0450DC4
:10C900002BA0450D2BA0450D2BA0450D2BA0450DB3
:10CDC0002BA0450D2BA0450D2BA0450DFFFFFF0D02
:10CDD000FFFFFF0DFFFFFF0DFFFFFF0DFFFFFF0D2B
:10CDE000FFFFFF0DFFFFFF0DFFFFFF0DFFFFFF0D1B
:10CDF000FFFFFF0DFFFFFF0DFFFFFF0DFFFFFF0D0B
:10CE0000FFFFFF0DFFFFFF0DFFFFFF0DFFFFFF0DFA
:10CE1000FFFFFF0DFFFFFF0DFFFFFF0DFFFFFF0DEA
:10CE2000FFFFFF0DFFFFFF0DFFFFFF0DFFFFFF0DDA
:10CE3000FFFFFF0DFFFFFF0DFFFFFF0DFFFFFF0DCA
:10CE4000FFFFFF0DFFFFFF0DFFFFFF0DFFFFFF0DBA
:10CE5000FFFFFF0DFFFFFF0DFFFFFF0DFFFFFF0DAA
:10CE6000FFFFFF0DFFFFFF0DFFFFFF0DFFFFFF0D9A
:10CE7000FFFFFF0DFFFFFF0DFFFFFF0DFFFFFF0D8A
:10CE8000FFFFFF0DFFFFFF0DFFFFFF0DFFFFFF0D7A
:10CE9000FFFFFF0DFFFFFF0DFFFFFF0DFFFFFF0D6A
:10CEA000FFFFFF0DFFFFFF0DFFFFFF0DFFFFFF0D5A
:10CEB000FFFFFF0DFFFFFF0DFFFFFF0DFFFFFF0D4A
:10CEC000FFFFFF0DFFFFFF0DFFFFFF0DFFFFFF0D3A
:10CED000FFFFFF0DFFFFFF0DFFFFFF0DFFFFFF0D2A
:10CEE000FFFFFF0DFFFFFF0DFFFFFF0DFFFFFF0D1A
:10CEF000FFFFFF0DFFFFFF0DFFFFFF0DFFFFFF0D0A
:10CF0000FFFFFF0DFFFFFF0DFFFFFF0DFFFFFF0DF9
:10CF1000FFFFFF0DFFFFFF0DFFFFFF0DFFFFFF0DE9
:10CF2000FFFFFF0DFFFFFF0DFFFFFF0DFFFFFF0DD9
:10CF3000FFFFFF0DFFFFFF0DFFFFFF0DFFFFFF0DC9
:10CF4000FFFFFF0DFFFFFF0DFFFFFF0DFFFFFF0DB9
:10CF5000FFFFFF0DFFFFFF0DFFFFFF0DFFFFFF0DA9
:10CF6000FFFFFF0DFFFFFF0DFFFFFF0DFFFFFF0D99
:10CF7000FFFFFF0DFFFFFF0DFFFFFF0DFFFFFF0D89
:10CF8000FFFFFF0DFFFFFF0DFFFFFF0DFFFFFF0D79
:10CF9000FFFFFF0DFFFFFF0DFFFFFF0D63B9760DD4
:10CFA0000A91280D2BA0450D2BA0450D2BA0450D5A
:10CFB0002BA0450D2BA0450D2BA0450D2BA0450DFD
:10CFC0002BA0450D2BA0450D2BA0450D2BA0450DED
:10CFD0002BA0450D2BA0450D2BA0450D2BA0450DDD
:10CFE0002BA0450D2BA0450D2BA0450D2BA0450DCD
:10D4A0002BA0450D2BA0450D2BA0450DFFFFFF0D1B
:10D4B000FFFFFF0DFFFFFF0DFFFFFF0DFFFFFF0D44
:10D4C000FFFFFF0DFFFFFF0DFFFFFF0DFFFFFF0D34
:10D4D000FFFFFF0DFFFFFF0DFFFFFF0DFFFFFF0D24
:10D4E000FFFFFF0DFFFFFF0DFFFFFF0DFFFFFF0D14
:10D4F000FFFFFF0DFFFFFF0DFFFFFF0DFFFFFF0D04
:10D50000FFFFFF0DFFFFFF0DFFFFFF0DFFFFFF0DF3
:10D51000FFFFFF0DFFFFFF0DFFFFFF0DFFFFFF0DE3
:10D52000FFFFFF0DFFFFFF0DFFFFFF0DFFFFFF0DD3
:10D53000FFFFFF0DFFFFFF0DFFFFFF0DFFFFFF0DC3
:10D54000FFFFFF0DFFFFFF0DFFFFFF0DFFFFFF0DB3
:10D55000FFFFFF0DFFFFFF0DFFFFFF0DFFFFFF0DA3
:10D56000FFFFFF0DFFFFFF0DFFFFFF0DFFFFFF0D93
:10D57000FFFFFF0DFFFFFF0DFFFFFF0DFFFFFF0D83
:10D58000FFFFFF0DFFFFFF0DFFFFFF0DFFFFFF0D73
:10D59000FFFFFF0DFFFFFF0DFFFFFF0DFFFFFF0D63
:10D5A000FFFFFF0DFFFFFF0DFFFFFF0DFFFFFF0D53
:10D5B000FFFFFF0DFFFFFF0DFFFFFF0DFFFFFF0D43
:10D5C000FFFFFF0DFFFFFF0DFFFFFF0DFFFFFF0D33
:10D5D000FFFFFF0DFFFFFF0DFFFFFF0D63B9760D8E
:10D5E0000A91280D2BA0450D2BA0450D2BA0450D14
:10D5F0002BA0450D2BA0450D2BA0450D2BA0450DB7
:10D600002BA0450D2BA0450D2BA0450D2BA0450DA6
:10D610002BA0450D2BA0450D2BA0450D2BA0450D96
:10D620002BA0450D2BA0450D2BA0450D2BA0450D86
:10DAE0002BA0450D2BA0450D2BA0450DFFFFFF0DD5
:10DAF000FFFFFF0DFFFFFF0DFFFFFF0DFFFFFF0DFE
:10DB0000FFFFFF0DFFFFFF0DFFFFFF0DFFFFFF0DED
:10DB1000FFFFFF0DFFFFFF0DFFFFFF0DFFFFFF0DDD
:10DB2000FFFFFF0DFFFFFF0DFFFFFF0DFFFFFF0DCD
:10DB3000FFFFFF0DFFFFFF0DFFFFFF0DFFFFFF0DBD
:10DB4000FFFFFF0DFFFFFF0DFFFFFF0DFFFFFF0DAD
:10DB5000FFFFFF0DFFFFFF0DFFFFFF0DFFFFFF0D9D
:10DB6000FFFFFF0DFFFFFF0DFFFFFF0DFFFFFF0D8D
:10DB7000FFFFFF0DFFFFFF0DFFFFFF0DFFFFFF0D7D
:10DB8000FFFFFF0DFFFFFF0DFFFFFF0DFFFFFF0D6D
:10DB9000FFFFFF0DFFFFFF0DFFFFFF0DFFFFFF0D5D
:10DBA000FFFFFF0DFFFFFF0DFFFFFF0DFFFFFF0D4D
:10DBB000FFFFFF0DFFFFFF0DFFFFFF0DFFFFFF0D3D
:10DBC000FFFFFF0DFFFFFF0DFFFFFF0DFFFFFF0D2D
:10DBD000FFFFFF0DFFFFFF0DFFFFFF0DFFFFFF0D1D
:10DBE000FFFFFF0DFFFFFF0DFFFFFF0DFFFFFF0D0D
:10DBF000FFFFFF0DFFFFFF0DFFFFFF0DFFFFFF0DFD
:10DC0000FFFFFF0DFFFFFF0DFFFFFF0DFFFFFF0DEC
:10DC1000FFFFFF0DFFFFFF0DFFFFFF0DFFFFFF0DDC
:10DC2000FFFFFF0DFFFFFF0DFFFFFF0DFFFFFF0DCC
:10DC3000FFFFFF0DFFFFFF0DFFFFFF0DFFFFFF0DBC
:10DC4000FFFFFF0DFFFFFF0DFFFFFF0DFFFFFF0DAC
:10DC5000FFFFFF0DFFFFFF0DFFFFFF0DFFFFFF0D9C
:10DC6000FFFFFF0DFFFFFF0DFFFFFF0DFFFFFF0D8C
:10DC7000FFFFFF0DFFFFFF0DFFFFFF0DFFFFFF0D7C
:10DC8000FFFFFF0DFFFFFF0DFFFFFF0DFFFFFF0D6C
:10DC9000FFFFFF0DFFFFFF0DFFFFFF0DFFFFFF0D5C
:10DCA000FFFFFF0DFFFFFF0DFFFFFF0DFFFFFF0D4C
:10DCB000FFFFFF0DFFFFFF0DFFFFFF0D63B9760DA7
:10DCC0000A91280D2BA0450D2BA0450D2BA0450D2D
:10DCD0002BA0450D2BA0450D2BA0450D2BA0450DD0
:10DCE0002BA0450D2BA0450D2BA0450D2BA0450DC0
:10DCF0002BA0450D2BA0450D2BA0450D2BA0450DB0
:10DD00002BA0450D2BA0450D2BA0450D2BA0450D9F
:10E1C0002BA0450D2BA0450D2BA0450DFFFFFF0DEE
:10E1D000FFFFFF0DFFFFFF0DFFFFFF0DFFFFFF0D17
:10E1E000FFFFFF0DFFFFFF0DFFFFFF0DFFFFFF0D07
:10E1F000FFFFFF0DFFFFFF0DFFFFFF0DFFFFFF0DF7
:10E20000FFFFFF0DFFFFFF0DFFFFFF0DFFFFFF0DE6
:10E21000FFFFFF0DFFFFFF0DFFFFFF0DFFFFFF0DD6
:10E22000FFFFFF0DFFFFFF0DFFFFFF0DFFFFFF0DC6
:10E23000FFFFFF0DFFFFFF0DFFFFFF0DFFFFFF0DB6
:10E24000FFFFFF0DFFFFFF0DFFFFFF0DFFFFFF0DA6
:10E25000FFFFFF0DFFFFFF0DFFFFFF0DFFFFFF0D96
:10E26000FFFFFF0DFFFFFF0DFFFFFF0DFFFFFF0D86
:10E27000FFFFFF0DFFFFFF0DFFFFFF0DFFFFFF0D76
:10E28000FFFFFF0DFFFFFF0DFFFFFF0DFFFFFF0D66
:10E29000FFFFFF0DFFFFFF0DFFFFFF0DFFFFFF0D56
:10E2A000FFFFFF0DFFFFFF0DFFFFFF0DFFFFFF0D46
:10E2B000FFFFFF0DFFFFFF0DFFFFFF0DFFFFFF0D36
:10E2C000FFFFFF0DFFFFFF0DFFFFFF0DFFFFFF0D26
:10E2D000FFFFFF0DFFFFFF0DFFFFFF0DFFFFFF0D16
:10E2E000FFFFFF0DFFFFFF0DFFFFFF0DFFFFFF0D06
:10E2F000FFFFFF0DFFFFFF0DFFFFFF0DFFFFFF0DF6
:10E30000FFFFFF0DFFFFFF0DFFFFFF0DFFFFFF0DE5
:10E31000FFFFFF0DFFFFFF0DFFFFFF0DFFFFFF0DD5
:10E32000FFFFFF0DFFFFFF0DFFFFFF0DFFFFFF0DC5
:10E33000FFFFFF0DFFFFFF0DFFFFFF0DFFFFFF0DB5
:10E34000FFFFFF0DFFFFFF0DFFFFFF0D63B9760D10
:10E350000A91280D2BA0450D2BA0450D2BA0450D96
:10E360002BA0450D2BA0450D2BA0450D2BA0450D39
:10E370002BA0450D2BA0450D2BA0450D2BA0450D29
:10E380002BA0450D2BA0450D2BA0450D2BA0450D19
:10E390002BA0450D2BA0450D2BA0450D2BA0450D09
:10E850002BA0450D2BA0450D2BA0450DFFFFFF0D57
:10E86000FFFFFF0DFFFFFF0DFFFFFF0DFFFFFF0D80
:10E87000FFFFFF0DFFFFFF0DFFFFFF0DFFFFFF0D70
:10E88000FFFFFF0DFFFFFF0DFFFFFF0DFFFFFF0D60
:10E89000FFFFFF0DFFFFFF0DFFFFFF0DFFFFFF0D50
:10E8A000FFFFFF0DFFFFFF0DFFFFFF0DFFFFFF0D40
:10E8B000FFFFFF0DFFFFFF0DFFFFFF0DFFFFFF0D30
:10E8C000FFFFFF0DFFFFFF0DFFFFFF0DFFFFFF0D20
:10E8D000FFFFFF0DFFFFFF0DFFFFFF0DFFFFFF0D10
:10E8E000FFFFFF0DFFFFFF0DFFFFFF0DFFFFFF0D00
:10E8F000FFFFFF0DFFFFFF0DFFFFFF0DFFFFFF0DF0
:10E90000FFFFFF0DFFFFFF0DFFFFFF0DFFFFFF0DDF
:10E91000FFFFFF0DFFFFFF0DFFFFFF0DFFFFFF0DCF
:10E92000FFFFFF0DFFFFFF0DFFFFFF0DFFFFFF0DBF
:10E93000FFFFFF0DFFFFFF0DFFFFFF0DFFFFFF0DAF
:10E94000FFFFFF0DFFFFFF0DFFFFFF0DFFFFFF0D9F
:10E95000FFFFFF0DFFFFFF0DFFFFFF0DFFFFFF0D8F
:10E96000FFFFFF0DFFFFFF0DFFFFFF0DFFFFFF0D7F
:10E97000FFFFFF0DFFFFFF0DFFFFFF0DFFFFFF0D6F
:10E98000FFFFFF0DFFFFFF0DFFFFFF0DFFFFFF0D5F
:10E99000FFFFFF0DFFFFFF0DFFFFFF0DFFFFFF0D4F
:10E9A000FFFFFF0DFFFFFF0DFFFFFF0DFFFFFF0D3F
:10E9B000FFFFFF0DFFFFFF0DFFFFFF0DFFFFFF0D2F
:10E9C000FFFFFF0DFFFFFF0DFFFFFF0DFFFFFF0D1F
:10E9D000FFFFFF0DFFFFFF0DFFFFFF0DFFFFFF0D0F
:10E9E000FFFFFF0DFFFFFF0DFFFFFF0DFFFFFF0DFF
:10E9F000FFFFFF0DFFFFFF0DFFFFFF0DFFFFFF0DEF
:10EA0000FFFFFF0DFFFFFF0DFFFFFF0DFFFFFF0DDE
:10EA1000FFFFFF0DFFFFFF0DFFFFFF0DFFFFFF0DCE
:10EA2000FFFFFF0DFFFFFF0DFFFFFF0D63B9760D29
:10EA30000A91280D2BA0450D2BA0450D2BA0450DAF
:10EA40002BA0450D2BA0450D2BA0450D2BA0450D52
:10EA50002BA0450D2BA0450D2BA0450D2BA0450D42
:10EA60002BA0450D2BA0450D2BA0450D2BA0450D32
:10EA70002BA0450D2BA0450D2BA0450D2BA0450D22
:10EF30002BA0450D2BA0450D2BA0450DFFFFFF0D70
:10EF4000FFFFFF0DFFFFFF0DFFFFFF0DFFFFFF0D99
:10EF5000FFFFFF0DFFFFFF0DFFFFFF0DFFFFFF0D89
:10EF6000FFFFFF0DFFFFFF0DFFFFFF0DFFFFFF0D79
:10EF7000FFFFFF0DFFFFFF0DFFFFFF0DFFFFFF0D69
:10EF8000FFFFFF0DFFFFFF0DFFFFFF0DFFFFFF0D59
:10EF9000FFFFFF0DFFFFFF0DFFFFFF0DFFFFFF0D49
:10EFA000FFFFFF0DFFFFFF0DFFFFFF0DFFFFFF0D39
:10EFB000FFFFFF0DFFFFFF0DFFFFFF0DFFFFFF0D29
:10EFC000FFFFFF0DFFFFFF0DFFFFFF0DFFFFFF0D19
:10EFD000FFFFFF0DFFFFFF0DFFFFFF0DFFFFFF0D09
:10EFE000FFFFFF0DFFFFFF0DFFFFFF0DFFFFFF0DF9
:10EFF000FFFFFF0DFFFFFF0DFFFFFF0DFFFFFF0DE9
:10F00000FFFFFF0DFFFFFF0DFFFFFF0DFFFFFF0DD8
:10F01000FFFFFF0DFFFFFF0DFFFFFF0DFFFFFF0DC8
:10F02000FFFFFF0DFFFFFF0DFFFFFF0DFFFFFF0DB8
:10F03000FFFFFF0DFFFFFF0DFFFFFF0DFFFFFF0DA8
:10F04000FFFFFF0DFFFFFF0DFFFFFF0DFFFFFF0D98
:10F05000FFFFFF0DFFFFFF0DFFFFFF0DFFFFFF0D88
:10F06000FFFFFF0DFFFFFF0DFFFFFF0D63B9760DE3
:10F070000A91280D2BA0450D2BA0450D2BA0450D69
:10F080002BA0450D2BA0450D2BA0450D2BA0450D0C
:10F090002BA0450D2BA0450D2BA0450D2BA0450DFC
:10F0A0002BA0450D2BA0450D2BA0450D2BA0450DEC
:10F0B0002BA0450D2BA0450D2BA0450D2BA0450DDC
:10F570002BA0450D2BA0450D2BA0450DFFFFFF0D2A
:10F58000FFFFFF0DFFFFFF0DFFFFFF0DFFFFFF0D53
:10F59000FFFFFF0DFFFFFF0DFFFFFF0DFFFFFF0D43
:10F5A000FFFFFF0DFFFFFF0DFFFFFF0DFFFFFF0D33
:10F5B000FFFFFF0DFFFFFF0DFFFFFF0DFFFFFF0D23
:10F5C000FFFFFF0DFFFFFF0DFFFFFF0DFFFFFF0D13
:10F5D000FFFFFF0DFFFFFF0DFFFFFF0DFFFFFF0D03
:10F5E000FFFFFF0DFFFFFF0DFFFFFF0DFFFFFF0DF3
:10F5F000FFFFFF0DFFFFFF0DFFFFFF0DFFFFFF0DE3
:10F60000FFFFFF0DFFFFFF0DFFFFFF0DFFFFFF0DD2
:10F61000FFFFFF0DFFFFFF0DFFFFFF0DFFFFFF0DC2
:10F62000FFFFFF0DFFFFFF0DFFFFFF0DFFFFFF0DB2
:10F63000FFFFFF0DFFFFFF0DFFFFFF0DFFFFFF0DA2
:10F64000FFFFFF0DFFFFFF0DFFFFFF0DFFFFFF0D92
:10F65000FFFFFF0DFFFFFF0DFFFFFF0DFFFFFF0D82
:10F66000FFFFFF0DFFFFFF0DFFFFFF0DFFFFFF0D72
:10F67000FFFFFF0DFFFFFF0DFFFFFF0DFFFFFF0D62
:10F68000FFFFFF0DFFFFFF0DFFFFFF0DFFFFFF0D52
:10F69000FFFFFF0DFFFFFF0DFFFFFF0DFFFFFF0D42
:10F6A000FFFFFF0DFFFFFF0DFFFFFF0DFFFFFF0D32
:10F6B000FFFFFF0DFFFFFF0DFFFFFF0DFFFFFF0D22
:10F6C000FFFFFF0DFFFFFF0DFFFFFF0DFFFFFF0D12
:10F6D000FFFFFF0DFFFFFF0DFFFFFF0DFFFFFF0D02
:10F6E000FFFFFF0DFFFFFF0DFFFFFF0DFFFFFF0DF2
:10F6F000FFFFFF0DFFFFFF0DFFFFFF0DFFFFFF0DE2
:10F70000FFFFFF0DFFFFFF0DFFFFFF0DFFFFFF0DD1
:10F71000FFFFFF0DFFFFFF0DFFFFFF0DFFFFFF0DC1
:10F72000FFFFFF0DFFFFFF0DFFFFFF0DFFFFFF0DB1
:10F73000FFFFFF0DFFFFFF0DFFFFFF0DFFFFFF0DA1
:10F74000FFFFFF0DFFFFFF0DFFFFFF0D63B9760DFC
:10F750000A91280D2BA0450D2BA0450D2BA0450D82
:10F760002BA0450D2BA0450D2BA0450D2BA0450D25
:10F770002BA0450D2BA0450D2BA0450D2BA0450D15
:10F780002BA0450D2BA0450D2BA0450D2BA0450D05
:10F790002BA0450D2BA0450D2BA0450D2BA0450DF5
:10FC50002BA0450D2BA0450D2BA0450DFFFFFF0D43
:10FC6000FFFFFF0DFFFFFF0DFFFFFF0DFFFFFF0D6C
:10FC7000FFFFFF0DFFFFFF0DFFFFFF0DFFFFFF0D5C
:10FC8000FFFFFF0DFFFFFF0DFFFFFF0DFFFFFF0D4C
:10FC9000FFFFFF0DFFFFFF0DFFFFFF0DFFFFFF0D3C
:10FCA000FFFFFF0DFFFFFF0DFFFFFF0DFFFFFF0D2C
:10FCB000FFFFFF0DFFFFFF0DFFFFFF0DFFFFFF0D1C
:10FCC000FFFFFF0DFFFFFF0DFFFFFF0DFFFFFF0D0C
:10FCD000FFFFFF0DFFFFFF0DFFFFFF0DFFFFFF0DFC
:10FCE000FFFFFF0DFFFFFF0DFFFFFF0DFFFFFF0DEC
:10FCF000FFFFFF0DFFFFFF0DFFFFFF0DFFFFFF0DDC
:10FD0000FFFFFF0DFFFFFF0DFFFFFF0DFFFFFF0DCB
:10FD1000FFFFFF0DFFFFFF0DFFFFFF0DFFFFFF0DBB
:10FD2000FFFFFF0DFFFFFF0DFFFFFF0DFFFFFF0DAB
:10FD3000FFFFFF0DFFFFFF0DFFFFFF0DFFFFFF0D9B
:10FD4000FFFFFF0DFFFFFF0DFFFFFF0DFFFFFF0D8B
:10FD5000FFFFFF0DFFFFFF0DFFFFFF0DFFFFFF0D7B
:10FD6000FFFFFF0DFFFFFF0DFFFFFF0DFFFFFF0D6B
:10FD7000FFFFFF0DFFFFFF0DFFFFFF0DFFFFFF0D5B
:10FD8000FFFFFF0DFFFFFF0DFFFFFF0DFFFFFF0D4B
:10FD9000FFFFFF0DFFFFFF0DFFFFFF0DFFFFFF0D3B
:10FDA000FFFFFF0DFFFFFF0DFFFFFF0DFFFFFF0D2B
:10FDB000FFFFFF0DFFFFFF0DFFFFFF0DFFFFFF0D1B
:10FDC000FFFFFF0DFFFFFF0DFFFFFF0DFFFFFF0D0B
:10FDD000FFFFFF0DFFFFFF0DFFFFFF0D63B9760D66
:10FDE0000A91280D2BA0450D2BA0450D2BA0450DEC
:10FDF0002BA0450D2BA0450D2BA0450D2BA0450D8F
:10FE00002BA0450D2BA0450D2BA0450D2BA0450D7E
:10FE10002BA0450D2BA0450D2BA0450D2BA0450D6E
:10FE20002BA0450D2BA0450D2BA0450D2BA0450D5E
:020000040804EE
:1002E0002BA0450D2BA0450D2BA0450DFFFFFF0DAD
:1002F000FFFFFF0DFFFFFF0DFFFFFF0DFFFFFF0DD6
:10030000FFFFFF0DFFFFFF0DFFFFFF0DFFFFFF0DC5
:10031000FFFFFF0DFFFFFF0DFFFFFF0DFFFFFF0DB5
:10032000FFFFFF0DFFFFFF0DFFFFFF0DFFFFFF0DA5
:10033000FFFFFF0DFFFFFF0DFFFFFF0DFFFFFF0D95
:10034000FFFFFF0DFFFFFF0DFFFFFF0DFFFFFF0D85
:10035000FFFFFF0DFFFFFF0DFFFFFF0DFFFFFF0D75
:10036000FFFFFF0DFFFFFF0DFFFFFF0DFFFFFF0D65
:10037000FFFFFF0DFFFFFF0DFFFFFF0DFFFFFF0D55
:10038000FFFFFF0DFFFFFF0DFFFFFF0DFFFFFF0D45
:10039000FFFFFF0DFFFFFF0DFFFFFF0DFFFFFF0D35
:1003A000FFFFFF0DFFFFFF0DFFFFFF0DFFFFFF0D25
:1003B000FFFFFF0DFFFFFF0DFFFFFF0DFFFFFF0D15
:1003C000FFFFFF0DFFFFFF0DFFFFFF0DFFFFFF0D05
:1003D000FFFFFF0DFFFFFF0DFFFFFF0DFFFFFF0DF5
:1003E000FFFFFF0DFFFFFF0DFFFFFF0DFFFFFF0DE5
:1003F000FFFFFF0DFFFFFF0DFFFFFF0DFFFFFF0DD5
:10040000FFFFFF0DFFFFFF0DFFFFFF0DFFFFFF0DC4
:10041000FFFFFF0DFFFFFF0DFFFFFF0DFFFFFF0DB4
:10042000FFFFFF0DFFFFFF0DFFFFFF0DFFFFFF0DA4
:10043000FFFFFF0DFFFFFF0DFFFFFF0DFFFFFF0D94
:10044000FFFFFF0DFFFFFF0DFFFFFF0DFFFFFF0D84
:10045000FFFFFF0DFFFFFF0DFFFFFF0DFFFFFF0D74
:10046000FFFFFF0DFFFFFF0DFFFFFF0DFFFFFF0D64
:10047000FFFFFF0DFFFFFF0DFFFFFF0DFFFFFF0D54
:10048000FFFFFF0DFFFFFF0DFFFFFF0DFFFFFF0D44
:10049000FFFFFF0DFFFFFF0DFFFFFF0DFFFFFF0D34
:1004A000FFFFFF0DFFFFFF0DFFFFFF0DFFFFFF0D24
:1004B000FFFFFF0DFFFFFF0DFFFFFF0D63B9760D7F
:1004C0000A91280D2BA0450D2BA0450D2BA0450D05
:1004D0002BA0450D2BA0450D2BA0450D2BA0450DA8
:1004E0002BA0450D2BA0450D2BA0450D2BA0450D98
:1004F0002BA0450D2BA0450D2BA0450D2BA0450D88
:100500002BA0450D2BA0450D2BA0450D2BA0450D77
:1009C0002BA0450D2BA0450D2BA0450DFFFFFF0DC6
:1009D000FFFFFF0DFFFFFF0DFFFFFF0DFFFFFF0DEF
:1009E000FFFFFF0DFFFFFF0DFFFFFF0DFFFFFF0DDF
:1009F000FFFFFF0DFFFFFF0DFFFFFF0DFFFFFF0DCF
:100A0000FFFFFF0DFFFFFF0DFFFFFF0DFFFFFF0DBE
:100A1000FFFFFF0DFFFFFF0DFFFFFF0DFFFFFF0DAE
:100A2000FFFFFF0DFFFFFF0DFFFFFF0DFFFFFF0D9E
:100A3000FFFFFF0DFFFFFF0DFFFFFF0DFFFFFF0D8E
:100A4000FFFFFF0DFFFFFF0DFFFFFF0DFFFFFF0D7E
:100A5000FFFFFF0DFFFFFF0DFFFFFF0DFFFFFF0D6E
:100A6000FFFFFF0DFFFFFF0DFFFFFF0DFFFFFF0D5E
:100A7000FFFFFF0DFFFFFF0DFFFFFF0DFFFFFF0D4E
:100A8000FFFFFF0DFFFFFF0DFFFFFF0DFFFFFF0D3E
:100A9000FFFFFF0DFFFFFF0DFFFFFF0DFFFFFF0D2E
:100AA000FFFFFF0DFFFFFF0DFFFFFF0DFFFFFF0D1E
:100AB000FFFFFF0DFFFFFF0DFFFFFF0DFFFFFF0D0E
:100AC000FFFFFF0DFFFFFF0DFFFFFF0DFFFFFF0DFE
:100AD000FFFFFF0DFFFFFF0DFFFFFF0DFFFFFF0DEE
:100AE000FFFFFF0DFFFFFF0DFFFFFF0DFFFFFF0DDE
:100AF000FFFFFF0DFFFFFF0DFFFFFF0D63B9760D39
:100B00000A91280D2BA0450D2BA0450D2BA0450DBE
:100B10002BA0450D2BA0450D2BA0450D2BA0450D61
:100B20002BA0450D2BA0450D2BA0450D2BA0450D51
:100B30002BA0450D2BA0450D2BA0450D2BA0450D41
:100B40002BA0450D2BA0450D2BA0450D2BA0450D31
:101000002BA0450D2BA0450D2BA0450DFFFFFF0D7F
:10101000FFFFFF0DFFFFFF0DFFFFFF0DFFFFFF0DA8
:10102000FFFFFF0DFFFFFF0DFFFFFF0DFFFFFF0D98
:10103000FFFFFF0DFFFFFF0DFFFFFF0DFFFFFF0D88
:10104000FFFFFF0DFFFFFF0DFFFFFF0DFFFFFF0D78
:10105000FFFFFF0DFFFFFF0DFFFFFF0DFFFFFF0D68
:10106000FFFFFF0DFFFFFF0DFFFFFF0DFFFFFF0D58
:10107000FFFFFF0DFFFFFF0DFFFFFF0DFFFFFF0D48
:10108000FFFFFF0DFFFFFF0DFFFFFF0DFFFFFF0D38
:10109000FFFFFF0DFFFFFF0DFFFFFF0DFFFFFF0D28
:1010A000FFFFFF0DFFFFFF0DFFFFFF0DFFFFFF0D18
:1010B000FFFFFF0DFFFFFF0DFFFFFF0DFFFFFF0D08
:1010C000FFFFFF0DFFFFFF0DFFFFFF0DFFFFFF0DF8
:1010D000FFFFFF0DFFFFFF0DFFFFFF0DFFFFFF0DE8
:1010E000FFFFFF0DFFFFFF0DFFFFFF0DFFFFFF0DD8
:1010F000FFFFFF0DFFFFFF0DFFFFFF0DFFFFFF0DC8
:10110000FFFFFF0DFFFFFF0DFFFFFF0DFFFFFF0DB7
:10111000FFFFFF0DFFFFFF0DFFFFFF0DFFFFFF0DA7
:10112000FFFFFF0DFFFFFF0DFFFFFF0DFFFFFF0D97
:10113000FFFFFF0DFFFFFF0DFFFFFF0DFFFFFF0D87
:10114000FFFFFF0DFFFFFF0DFFFFFF0DFFFFFF0D77
:10115000FFFFFF0DFFFFFF0DFFFFFF0DFFFFFF0D67
:10116000FFFFFF0DFFFFFF0DFFFFFF0DFFFFFF0D57
:10117000FFFFFF0DFFFFFF0DFFFFFF0DFFFFFF0D47
:10118000FFFFFF0DFFFFFF0DFFFFFF0DFFFFFF0D37
:10119000FFFFFF0DFFFFFF0DFFFFFF0DFFFFFF0D27
:1011A000FFFFFF0DFFFFFF0DFFFFFF0DFFFFFF0D17
:1011B000FFFFFF0DFFFFFF0DFFFFFF0DFFFFFF0D07
:1011C000FFFFFF0DFFFFFF0DFFFFFF0DFFFFFF0DF7
:1011D000FFFFFF0DFFFFFF0DFFFFFF0D63B9760D52
:1011E0000A91280D2BA0450D2BA0450D2BA0450DD8
:1011F0002BA0450D2BA0450D2BA0450D2BA0450D7B
:101200002BA0450D2BA0450D2BA0450D2BA0450D6A
:101210002BA0450D2BA0450D2BA0450D2BA0450D5A
:101220002BA0450D2BA0450D2BA0450D2BA0450D4A
:1016E0002BA0450D2BA0450D2BA0450DFFFFFF0D99
:1016F000FFFFFF0DFFFFFF0DFFFFFF0DFFFFFF0DC2
:10170000FFFFFF0DFFFFFF0DFFFFFF0DFFFFFF0DB1
:10171000FFFFFF0DFFFFFF0DFFFFFF0DFFFFFF0DA1
:10172000FFFFFF0DFFFFFF0DFFFFFF0DFFFFFF0D91
:10173000FFFFFF0DFFFFFF0DFFFFFF0DFFFFFF0D81
:10174000FFFFFF0DFFFFFF0DFFFFFF0DFFFFFF0D71
:10175000FFFFFF0DFFFFFF0DFFFFFF0DFFFFFF0D61
:10176000FFFFFF0DFFFFFF0DFFFFFF0DFFFFFF0D51
:10177000FFFFFF0DFFFFFF0DFFFFFF0DFFFFFF0D41
:10178000FFFFFF0DFFFFFF0DFFFFFF0DFFFFFF0D31
:10179000FFFFFF0DFFFFFF0DFFFFFF0DFFFFFF0D21
:1017A000FFFFFF0DFFFFFF0DFFFFFF0DFFFFFF0D11
:1017B000FFFFFF0DFFFFFF0DFFFFFF0DFFFFFF0D01
:1017C000FFFFFF0DFFFFFF0DFFFFFF0DFFFFFF0DF1
:1017D000FFFFFF0DFFFFFF0DFFFFFF0DFFFFFF0DE1
:1017E000FFFFFF0DFFFFFF0DFFFFFF0DFFFFFF0DD1
:1017F000FFFFFF0DFFFFFF0DFFFFFF0DFFFFFF0DC1
:10180000FFFFFF0DFFFFFF0DFFFFFF0DFFFFFF0DB0
:10181000FFFFFF0DFFFFFF0DFFFFFF0DFFFFFF0DA0
:10182000FFFFFF0DFFFFFF0DFFFFFF0DFFFFFF0D90
:10183000FFFFFF0DFFFFFF0DFFFFFF0DFFFFFF0D80
:10184000FFFFFF0DFFFFFF0DFFFFFF0DFFFFFF0D70
:10185000FFFFFF0DFFFFFF0DFFFFFF0DFFFFFF0D60
:10186000FFFFFF0DFFFFFF0DFFFFFF0D63B9760DBB
:101870000A91280D2BA0450D2BA0450D2BA0450D41
:101880002BA0450D2BA0450D2BA0450D2BA0450DE4
:101890002BA0450D2BA0450D2BA0450D2BA0450DD4
:1018A0002BA0450D2BA0450D2BA0450D2BA0450DC4
:1018B0002BA0450D2BA0450D2BA0450D2BA0450DB4
:101D70002BA0450D2BA0450D2BA0450DFFFFFF0D02
:101D8000FFFFFF0DFFFFFF0DFFFFFF0DFFFFFF0D2B
:101D9000FFFFFF0DFFFFFF0DFFFFFF0DFFFFFF0D1B
:101DA000FFFFFF0DFFFFFF0DFFFFFF0DFFFFFF0D0B
:101DB000FFFFFF0DFFFFFF0DFFFFFF0DFFFFFF0DFB
:101DC000FFFFFF0DFFFFFF0DFFFFFF0DFFFFFF0DEB
:101DD000FFFFFF0DFFFFFF0DFFFFFF0DFFFFFF0DDB
:101DE000FFFFFF0DFFFFFF0DFFFFFF0DFFFFFF0DCB
:101DF000FFFFFF0DFFFFFF0DFFFFFF0DFFFFFF0DBB
:101E0000FFFFFF0DFFFFFF0DFFFFFF0DFFFFFF0DAA
:101E1000FFFFFF0DFFFFFF0DFFFFFF0DFFFFFF0D9A
:101E2000FFFFFF0DFFFFFF0DFFFFFF0DFFFFFF0D8A
:101E3000FFFFFF0DFFFFFF0DFFFFFF0DFFFFFF0D7A
:101E4000FFFFFF0DFFFFFF0DFFFFFF0DFFFFFF0D6A
:101E5000FFFFFF0DFFFFFF0DFFFFFF0DFFFFFF0D5A
:101E6000FFFFFF0DFFFFFF0DFFFFFF0DFFFFFF0D4A
:101E7000FFFFFF0DFFFFFF0DFFFFFF0DFFFFFF0D3A
:101E8000FFFFFF0DFFFFFF0DFFFFFF0DFFFFFF0D2A
:101E9000FFFFFF0DFFFFFF0DFFFFFF0DFFFFFF0D1A
:101EA000FFFFFF0DFFFFFF0DFFFFFF0DFFFFFF0D0A
:101EB000FFFFFF0DFFFFFF0DFFFFFF0DFFFFFF0DFA
:101EC000FFFFFF0DFFFFFF0DFFFFFF0DFFFFFF0DEA
:101ED000FFFFFF0DFFFFFF0DFFFFFF0DFFFFFF0DDA
:101EE000FFFFFF0DFFFFFF0DFFFFFF0DFFFFFF0DCA
:101EF000FFFFFF0DFFFFFF0DFFFFFF0DFFFFFF0DBA
:101F0000FFFFFF0DFFFFFF0DFFFFFF0DFFFFFF0DA9
:101F1000FFFFFF0DFFFFFF0DFFFFFF0DFFFFFF0D99
:101F2000FFFFFF0DFFFFFF0DFFFFFF0DFFFFFF0D89
:101F3000FFFFFF0DFFFFFF0DFFFFFF0DFFFFFF0D79
:101F4000FFFFFF0DFFFFFF0DFFFFFF0D63B9760DD4
:101F50000A91280D2BA0450D2BA0450D2BA0450D5A
:101F60002BA0450D2BA0450D2BA0450D2BA0450DFD
:101F70002BA0450D2BA0450D2BA0450D2BA0450DED
:101F80002BA0450D2BA0450D2BA0450D2BA0450DDD
:101F90002BA0450D2BA0450D2BA0450D2BA0450DCD
:102450002BA0450D2BA0450D2BA0450DFFFFFF0D1B
:10246000FFFFFF0DFFFFFF0DFFFFFF0DFFFFFF0D44
:10247000FFFFFF0DFFFFFF0DFFFFFF0DFFFFFF0D34
:10248000FFFFFF0DFFFFFF0DFFFFFF0DFFFFFF0D24
:10249000FFFFFF0DFFFFFF0DFFFFFF0DFFFFFF0D14
:1024A000FFFFFF0DFFFFFF0DFFFFFF0DFFFFFF0D04
:1024B000FFFFFF0DFFFFFF0DFFFFFF0DFFFFFF0DF4
:1024C000FFFFFF0DFFFFFF0DFFFFFF0DFFFFFF0DE4
:1024D000FFFFFF0DFFFFFF0DFFFFFF0DFFFFFF0DD4
:1024E000FFFFFF0DFFFFFF0DFFFFFF0DFFFFFF0DC4
:1024F000FFFFFF0DFFFFFF0DFFFFFF0DFFFFFF0DB4
:10250000FFFFFF0DFFFFFF0DFFFFFF0DFFFFFF0DA3
:10251000FFFFFF0DFFFFFF0DFFFFFF0DFFFFFF0D93
:10252000FFFFFF0DFFFFFF0DFFFFFF0DFFFFFF0D83
:10253000FFFFFF0DFFFFFF0DFFFFFF0DFFFFFF0D73
:10254000FFFFFF0DFFFFFF0DFFFFFF0DFFFFFF0D63
:10255000FFFFFF0DFFFFFF0DFFFFFF0DFFFFFF0D53
:10256000FFFFFF0DFFFFFF0DFFFFFF0DFFFFFF0D43
:10257000FFFFFF0DFFFFFF0DFFFFFF0DFFFFFF0D33
:10258000FFFFFF0DFFFFFF0DFFFFFF0D63B9760D8E
:102590000A91280D2BA0450D2BA0450D2BA0450D14
:1025A0002BA0450D2BA0450D2BA0450D2BA0450DB7
:1025B0002BA0450D2BA0450D2BA0450D2BA0450DA7
:1025C0002BA0450D2BA0450D2BA0450D2BA0450D97
:1025D0002BA0450D2BA0450D2BA0450D2BA0450D87
:102A90002BA0450D2BA0450D2BA0450DFFFFFF0DD5
:102AA000FFFFFF0DFFFFFF0DFFFFFF0DFFFFFF0DFE
:102AB000FFFFFF0DFFFFFF0DFFFFFF0DFFFFFF0DEE
:102AC000FFFFFF0DFFFFFF0DFFFFFF0DFFFFFF0DDE
:102AD000FFFFFF0DFFFFFF0DFFFFFF0DFFFFFF0DCE
:102AE000FFFFFF0DFFFFFF0DFFFFFF0DFFFFFF0DBE
:102AF000FFFFFF0DFFFFFF0DFFFFFF0DFFFFFF0DAE
:102B0000FFFFFF0DFFFFFF0DFFFFFF0DFFFFFF0D9D
:102B1000FFFFFF0DFFFFFF0DFFFFFF0DFFFFFF0D8D
:102B2000FFFFFF0DFFFFFF0DFFFFFF0DFFFFFF0D7D
:102B3000FFFFFF0DFFFFFF0DFFFFFF0DFFFFFF0D6D
:102B4000FFFFFF0DFFFFFF0DFFFFFF0DFFFFFF0D5D
:102B5000FFFFFF0DFFFFFF0DFFFFFF0DFFFFFF0D4D
:102B6000FFFFFF0DFFFFFF0DFFFFFF0DFFFFFF0D3D
:102B7000FFFFFF0DFFFFFF0DFFFFFF0DFFFFFF0D2D
:102B8000FFFFFF0DFFFFFF0DFFFFFF0DFFFFFF0D1D
:102B9000FFFFFF0DFFFFFF0DFFFFFF0DFFFFFF0D0D
:102BA000FFFFFF0DFFFFFF0DFFFFFF0DFFFFFF0DFD
:102BB000FFFFFF0DFFFFFF0DFFFFFF0DFFFFFF0DED
:102BC000FFFFFF0DFFFFFF0DFFFFFF0DFFFFFF0DDD
:102BD000FFFFFF0DFFFFFF0DFFFFFF0DFFFFFF0DCD
:102BE000FFFFFF0DFFFFFF0DFFFFFF0DFFFFFF0DBD
:102BF000FFFFFF0DFFFFFF0DFFFFFF0DFFFFFF0DAD
:102C0000FFFFFF0DFFFFFF0DFFFFFF0DFFFFFF0D9C
:102C1000FFFFFF0DFFFFFF0DFFFFFF0DFFFFFF0D8C
:102C2000FFFFFF0DFFFFFF0DFFFFFF0DFFFFFF0D7C
:102C3000FFFFFF0DFFFFFF0DFFFFFF0DFFFFFF0D6C
:102C4000FFFFFF0DFFFFFF0DFFFFFF0DFFFFFF0D5C
:102C5000FFFFFF0DFFFFFF0DFFFFFF0DFFFFFF0D4C
:102C6000FFFFFF0DFFFFFF0DFFFFFF0D63B9760DA7
:102C70000A91280D2BA0450D2BA0450D2BA0450D2D
:102C80002BA0450D2BA0450D2BA0450D2BA0450DD0
:102C90002BA0450D2BA0450D2BA0450D2BA0450DC0
:102CA0002BA0450D2BA0450D2BA0450D2BA0450DB0
:102CB0002BA0450D2BA0450D2BA0450D2BA0450DA0
:103170002BA0450D2BA0450D2BA0450DFFFFFF0DEE
:10318000FFFFFF0DFFFFFF0DFFFFFF0DFFFFFF0D17
:10319000FFFFFF0DFFFFFF0DFFFFFF0DFFFFFF0D07
:1031A000FFFFFF0DFFFFFF0DFFFFFF0DFFFFFF0DF7
:1031B000FFFFFF0DFFFFFF0DFFFFFF0DFFFFFF0DE7
:1031C000FFFFFF0DFFFFFF0DFFFFFF0DFFFFFF0DD7
:1031D000FFFFFF0DFFFFFF0DFFFFFF0DFFFFFF0DC7
:1031E000FFFFFF0DFFFFFF0DFFFFFF0DFFFFFF0DB7
:1031F000FFFFFF0DFFFFFF0DFFFFFF0DFFFFFF0DA7
:10320000FFFFFF0DFFFFFF0DFFFFFF0DFFFFFF0D96
:10321000FFFFFF0DFFFFFF0DFFFFFF0DFFFFFF0D86
:10322000FFFFFF0DFFFFFF0DFFFFFF0DFFFFFF0D76
:10323000FFFFFF0DFFFFFF0DFFFFFF0DFFFFFF0D66
:10324000FFFFFF0DFFFFFF0DFFFFFF0DFFFFFF0D56
:10325000FFFFFF0DFFFFFF0DFFFFFF0DFFFFFF0D46
:10326000FFFFFF0DFFFFFF0DFFFFFF0DFFFFFF0D36
:10327000FFFFFF0DFFFFFF0DFFFFFF0DFFFFFF0D26
:10328000FFFFFF0DFFFFFF0DFFFFFF0DFFFFFF0D16
:10329000FFFFFF0DFFFFFF0DFFFFFF0DFFFFFF0D06
:1032A000FFFFFF0DFFFFFF0DFFFFFF0DFFFFFF0DF6
:1032B000FFFFFF0DFFFFFF0DFFFFFF0DFFFFFF0DE6
:1032C000FFFFFF0DFFFFFF0DFFFFFF0DFFFFFF0DD6
:1032D000FFFFFF0DFFFFFF0DFFFFFF0DFFFFFF0DC6
:1032E000FFFFFF0DFFFFFF0DFFFFFF0DFFFFFF0DB6
:1032F000FFFFFF0DFFFFFF0DFFFFFF0D63B9760D11
:103300000A91280D2BA0450D2BA0450D2BA0450D96
:103310002BA0450D2BA0450D2BA0450D2BA0450D39
:103320002BA0450D2BA0450D2BA0450D2BA0450D29
:103330002BA0450D2BA0450D2BA0450D2BA0450D19
:103340002BA0450D2BA0450D2BA0450D2BA0450D09
:103800002BA0450D2BA0450D2BA0450DFFFFFF0D57
:10381000FFFFFF0DFFFFFF0DFFFFFF0DFFFFFF0D80
:10382000FFFFFF0DFFFFFF0DFFFFFF0DFFFFFF0D70
:10383000FFFFFF0DFFFFFF0DFFFFFF0DFFFFFF0D60
:10384000FFFFFF0DFFFFFF0DFFFFFF0DFFFFFF0D50
:10385000FFFFFF0DFFFFFF0DFFFFFF0DFFFFFF0D40
:10386000FFFFFF0DFFFFFF0DFFFFFF0DFFFFFF0D30
:10387000FFFFFF0DFFFFFF0DFFFFFF0DFFFFFF0D20
:10388000FFFFFF0DFFFFFF0DFFFFFF0DFFFFFF0D10
:10389000FFFFFF0DFFFFFF0DFFFFFF0DFFFFFF0D00
:1038A000FFFFFF0DFFFFFF0DFFFFFF0DFFFFFF0DF0
:1038B000FFFFFF0DFFFFFF0DFFFFFF0DFFFFFF0DE0
:1038C000FFFFFF0DFFFFFF0DFFFFFF0DFFFFFF0DD0
:1038D000FFFFFF0DFFFFFF0DFFFFFF0DFFFFFF0DC0
:1038E000FFFFFF0DFFFFFF0DFFFFFF0DFFFFFF0DB0
:1038F000FFFFFF0DFFFFFF0DFFFFFF0DFFFFFF0DA0
:10390000FFFFFF0DFFFFFF0DFFFFFF0DFFFFFF0D8F
:10391000FFFFFF0DFFFFFF0DFFFFFF0DFFFFFF0D7F
:10392000FFFFFF0DFFFFFF0DFFFFFF0DFFFFFF0D6F
:10393000FFFFFF0DFFFFFF0DFFFFFF0DFFFFFF0D5F
:10394000FFFFFF0DFFFFFF0DFFFFFF0DFFFFFF0D4F
:10395000FFFFFF0DFFFFFF0DFFFFFF0DFFFFFF0D3F
:10396000FFFFFF0DFFFFFF0DFFFFFF0DFFFFFF0D2F
:10397000FFFFFF0DFFFFFF0DFFFFFF0DFFFFFF0D1F
:10398000FFFFFF0DFFFFFF0DFFFFFF0DFFFFFF0D0F
:10399000FFFFFF0DFFFFFF0DFFFFFF0DFFFFFF0DFF
:1039A000FFFFFF0DFFFFFF0DFFFFFF0DFFFFFF0DEF
:1039B000FFFFFF0DFFFFFF0DFFFFFF0DFFFFFF0DDF
:1039C000FFFFFF0DFFFFFF0DFFFFFF0DFFFFFF0DCF
:1039D000FFFFFF0DFFFFFF0DFFFFFF0D63B9760D2A
:1039E0000A91280D2BA0450D2BA0450D2BA0450DB0
:1039F0002BA0450D2BA0450D2BA0450D2BA0450D53
:103A00002BA0450D2BA0450D2BA0450D2BA0450D42
:103A10002BA0450D2BA0450D2BA0450D2BA0450D32
:103A20002BA0450D2BA0450D2BA0450D2BA0450D22
:103EE0002BA0450D2BA0450D2BA0450DFFFFFF0D71
:103EF000FFFFFF0DFFFFFF0DFFFFFF0DFFFFFF0D9A
:103F0000FFFFFF0DFFFFFF0DFFFFFF0DFFFFFF0D89
:103F1000FFFFFF0DFFFFFF0DFFFFFF0DFFFFFF0D79
:103F2000FFFFFF0DFFFFFF0DFFFFFF0DFFFFFF0D69
:103F3000FFFFFF0DFFFFFF0DFFFFFF0DFFFFFF0D59
:103F4000FFFFFF0DFFFFFF0DFFFFFF0DFFFFFF0D49
:103F5000FFFFFF0DFFFFFF0DFFFFFF0DFFFFFF0D39
:103F6000FFFFFF0DFFFFFF0DFFFFFF0DFFFFFF0D29
:103F7000FFFFFF0DFFFFFF0DFFFFFF0DFFFFFF0D19
:103F8000FFFFFF0DFFFFFF0DFFFFFF0DFFFFFF0D09
:103F9000FFFFFF0DFFFFFF0DFFFFFF0DFFFFFF0DF9
:103FA000FFFFFF0DFFFFFF0DFFFFFF0DFFFFFF0DE9
:103FB000FFFFFF0DFFFFFF0DFFFFFF0DFFFFFF0DD9
:103FC000FFFFFF0DFFFFFF0DFFFFFF0DFFFFFF0DC9
:103FD000FFFFFF0DFFFFFF0DFFFFFF0DFFFFFF0DB9
:103FE000FFFFFF0DFFFFFF0DFFFFFF0DFFFFFF0DA9
:103FF000FFFFFF0DFFFFFF0DFFFFFF0DFFFFFF0D99
:10400000FFFFFF0DFFFFFF0DFFFFFF0DFFFFFF0D88
:10401000FFFFFF0DFFFFFF0DFFFFFF0D63B9760DE3
:104020000A91280D2BA0450D2BA0450D2BA0450D69
:104030002BA0450D2BA0450D2BA0450D2BA0450D0C
:104040002BA0450D2BA0450D2BA0450D2BA0450DFC
:104050002BA0450D2BA0450D2BA0450D2BA0450DEC
:104060002BA0450D2BA0450D2BA0450D2BA0450DDC
:104520002BA0450D2BA0450D2BA0450DFFFFFF0D2A
:10453000FFFFFF0DFFFFFF0DFFFFFF0DFFFFFF0D53
:10454000FFFFFF0DFFFFFF0DFFFFFF0DFFFFFF0D43
:10455000FFFFFF0DFFFFFF0DFFFFFF0DFFFFFF0D33
:10456000FFFFFF0DFFFFFF0DFFFFFF0DFFFFFF0D23
:10457000FFFFFF0DFFFFFF0DFFFFFF0DFFFFFF0D13
:10458000FFFFFF0DFFFFFF0DFFFFFF0DFFFFFF0D03
:10459000FFFFFF0DFFFFFF0DFFFFFF0DFFFFFF0DF3
:1045A000FFFFFF0DFFFFFF0DFFFFFF0DFFFFFF0DE3
:1045B000FFFFFF0DFFFFFF0DFFFFFF0DFFFFFF0DD3
:1045C000FFFFFF0DFFFFFF0DFFFFFF0DFFFFFF0DC3
:1045D000FFFFFF0DFFFFFF0DFFFFFF0DFFFFFF0DB3
:1045E000FFFFFF0DFFFFFF0DFFFFFF0DFFFFFF0DA3
:1045F000FFFFFF0DFFFFFF0DFFFFFF0DFFFFFF0D93
:10460000FFFFFF0DFFFFFF0DFFFFFF0DFFFFFF0D82
:10461000FFFFFF0DFFFFFF0DFFFFFF0DFFFFFF0D72
:10462000FFFFFF0DFFFFFF0DFFFFFF0DFFFFFF0D62
:10463000FFFFFF0DFFFFFF0DFFFFFF0DFFFFFF0D52
:10464000FFFFFF0DFFFFFF0DFFFFFF0DFFFFFF0D42
:10465000FFFFFF0DFFFFFF0DFFFFFF0DFFFFFF0D32
:10466000FFFFFF0DFFFFFF0DFFFFFF0DFFFFFF0D22
:10467000FFFFFF0DFFFFFF0DFFFFFF0DFFFFFF0D12
:10468000FFFFFF0DFFFFFF0DFFFFFF0DFFFFFF0D02
:10469000FFFFFF0DFFFFFF0DFFFFFF0DFFFFFF0DF2
:1046A000FFFFFF0DFFFFFF0DFFFFFF0DFFFFFF0DE2
:1046B000FFFFFF0DFFFFFF0DFFFFFF0DFFFFFF0DD2
:1046C000FFFFFF0DFFFFFF0DFFFFFF0DFFFFFF0DC2
:1046D000FFFFFF0DFFFFFF0DFFFFFF0DFFFFFF0DB2
:1046E000FFFFFF0DFFFFFF0DFFFFFF0DFFFFFF0DA2
:1046F000FFFFFF0DFFFFFF0DFFFFFF0D63B9760DFD
:104700000A91280D2BA0450D2BA0450D2BA0450D82
:104710002BA0450D2BA0450D2BA0450D2BA0450D25
:104720002BA0450D2BA0450D2BA0450D2BA0450D15
:104730002BA0450D2BA0450D2BA0450D2BA0450D05
:104740002BA0450D2BA0450D2BA0450D2BA0450DF5
:104C00002BA0450D2BA0450D2BA0450DFFFFFF0D43
:104C1000FFFFFF0DFFFFFF0DFFFFFF0DFFFFFF0D6C
:104C2000FFFFFF0DFFFFFF0DFFFFFF0DFFFFFF0D5C
:104C3000FFFFFF0DFFFFFF0DFFFFFF0DFFFFFF0D4C
:104C4000FFFFFF0DFFFFFF0DFFFFFF0DFFFFFF0D3C
:104C5000FFFFFF0DFFFFFF0DFFFFFF0DFFFFFF0D2C
:104C6000FFFFFF0DFFFFFF0DFFFFFF0DFFFFFF0D1C
:104C7000FFFFFF0DFFFFFF0DFFFFFF0DFFFFFF0D0C
:104C8000FFFFFF0DFFFFFF0DFFFFFF0DFFFFFF0DFC
:104C9000FFFFFF0DFFFFFF0DFFFFFF0DFFFFFF0DEC
:104CA000FFFFFF0DFFFFFF0DFFFFFF0DFFFFFF0DDC
:104CB000FFFFFF0DFFFFFF0DFFFFFF0DFFFFFF0DCC
:104CC000FFFFFF0DFFFFFF0DFFFFFF0DFFFFFF0DBC
:104CD000FFFFFF0DFFFFFF0DFFFFFF0DFFFFFF0DAC
:104CE000FFFFFF0DFFFFFF0DFFFFFF0DFFFFFF0D9C
:104CF000FFFFFF0DFFFFFF0DFFFFFF0DFFFFFF0D8C
:104D0000FFFFFF0DFFFFFF0DFFFFFF0DFFFFFF0D7B
:104D1000FFFFFF0DFFFFFF0DFFFFFF0DFFFFFF0D6B
:104D2000FFFFFF0DFFFFFF0DFFFFFF0DFFFFFF0D5B
:104D3000FFFFFF0DFFFFFF0DFFFFFF0DFFFFFF0D4B
:104D4000FFFFFF0DFFFFFF0DFFFFFF0DFFFFFF0D3B
:104D5000FFFFFF0DFFFFFF0DFFFFFF0DFFFFFF0D2B
:104D6000FFFFFF0DFFFFFF0DFFFFFF0DFFFFFF0D1B
:104D7000FFFFFF0DFFFFFF0DFFFFFF0DFFFFFF0D0B
:104D8000FFFFFF0DFFFFFF0DFFFFFF0D63B9760D66
:104D90000A91280D2BA0450D2BA0450D2BA0450DEC
:104DA0002BA0450D2BA0450D2BA0450D2BA0450D8F
:104DB0002BA0450D2BA0450D2BA0450D2BA0450D7F
:104DC0002BA0450D2BA0450D2BA0450D2BA0450D6F
:104DD0002BA0450D2BA0450D2BA0450D2BA0450D5F
:105290002BA0450D2BA0450D2BA0450DFFFFFF0DAD
:1052A000FFFFFF0DFFFFFF0DFFFFFF0DFFFFFF0DD6
:1052B000FFFFFF0DFFFFFF0DFFFFFF0DFFFFFF0DC6
:1052C000FFFFFF0DFFFFFF0DFFFFFF0DFFFFFF0DB6
:1052D000FFFFFF0DFFFFFF0DFFFFFF0DFFFFFF0DA6
:1052E000FFFFFF0DFFFFFF0DFFFFFF0DFFFFFF0D96
:1052F000FFFFFF0DFFFFFF0DFFFFFF0DFFFFFF0D86
:10530000FFFFFF0DFFFFFF0DFFFFFF0DFFFFFF0D75
:10531000FFFFFF0DFFFFFF0DFFFFFF0DFFFFFF0D65
:10532000FFFFFF0DFFFFFF0DFFFFFF0DFFFFFF0D55
:10533000FFFFFF0DFFFFFF0DFFFFFF0DFFFFFF0D45
:10534000FFFFFF0DFFFFFF0DFFFFFF0DFFFFFF0D35
:10535000FFFFFF0DFFFFFF0DFFFFFF0DFFFFFF0D25
:10536000FFFFFF0DFFFFFF0DFFFFFF0DFFFFFF0D15
:10537000FFFFFF0DFFFFFF0DFFFFFF0DFFFFFF0D05
:10538000FFFFFF0DFFFFFF0DFFFFFF0DFFFFFF0DF5
:10539000FFFFFF0DFFFFFF0DFFFFFF0DFFFFFF0DE5
:1053A000FFFFFF0DFFFFFF0DFFFFFF0DFFFFFF0DD5
:1053B000FFFFFF0DFFFFFF0DFFFFFF0DFFFFFF0DC5
:1053C000FFFFFF0DFFFFFF0DFFFFFF0DFFFFFF0DB5
:1053D000FFFFFF0DFFFFFF0DFFFFFF0DFFFFFF0DA5
:1053E000FFFFFF0DFFFFFF0DFFFFFF0DFFFFFF0D95
:1053F000FFFFFF0DFFFFFF0DFFFFFF0DFFFFFF0D85
:10540000FFFFFF0DFFFFFF0DFFFFFF0DFFFFFF0D74
:10541000FFFFFF0DFFFFFF0DFFFFFF0DFFFFFF0D64
:10542000FFFFFF0DFFFFFF0DFFFFFF0DFFFFFF0D54
:10543000FFFFFF0DFFFFFF0DFFFFFF0DFFFFFF0D44
:10544000FFFFFF0DFFFFFF0DFFFFFF0DFFFFFF0D34
:10545000FFFFFF0DFFFFFF0DFFFFFF0DFFFFFF0D24
:10546000FFFFFF0DFFFFFF0DFFFFFF0D63B9760D7F
:105470000A91280D2BA0450D2BA0450D2BA0450D05
:105480002BA0450D2BA0450D2BA0450D2BA0450DA8
:105490002BA0450D2BA0450D2BA0450D2BA0450D98
:1054A0002BA0450D2BA0450D2BA0450D2BA0450D88
:1054B0002BA0450D2BA0450D2BA0450D2BA0450D78
:105970002BA0450D2BA0450D2BA0450DFFFFFF0DC6
:10598000FFFFFF0DFFFFFF0DFFFFFF0DFFFFFF0DEF
:10599000FFFFFF0DFFFFFF0DFFFFFF0DFFFFFF0DDF
:1059A000FFFFFF0DFFFFFF0DFFFFFF0DFFFFFF0DCF
:1059B000FFFFFF0DFFFFFF0DFFFFFF0DFFFFFF0DBF
:1059C000FFFFFF0DFFFFFF0DFFFFFF0DFFFFFF0DAF
:1059D000FFFFFF0DFFFFFF0DFFFFFF0DFFFFFF0D9F
:1059E000FFFFFF0DFFFFFF0DFFFFFF0DFFFFFF0D8F
:1059F000FFFFFF0DFFFFFF0DFFFFFF0DFFFFFF0D7F
:105A0000FFFFFF0DFFFFFF0DFFFFFF0DFFFFFF0D6E
:105A1000FFFFFF0DFFFFFF0DFFFFFF0DFFFFFF0D5E
:105A2000FFFFFF0DFFFFFF0DFFFFFF0DFFFFFF0D4E
:105A3000FFFFFF0DFFFFFF0DFFFFFF0DFFFFFF0D3E
:105A4000FFFFFF0DFFFFFF0DFFFFFF0DFFFFFF0D2E
:105A5000FFFFFF0DFFFFFF0DFFFFFF0DFFFFFF0D1E
:105A6000FFFFFF0DFFFFFF0DFFFFFF0DFFFFFF0D0E
:105A7000FFFFFF0DFFFFFF0DFFFFFF0DFFFFFF0DFE
:105A8000FFFFFF0DFFFFFF0DFFFFFF0DFFFFFF0DEE
:105A9000FFFFFF0DFFFFFF0DFFFFFF0DFFFFFF0DDE
:105AA000FFFFFF0DFFFFFF0DFFFFFF0D63B9760D39
:105AB0000A91280D2BA0450D2BA0450D2BA0450DBF
:105AC0002BA0450D2BA0450D2BA0450D2BA0450D62
:105AD0002BA0450D2BA0450D2BA0450D2BA0450D52
:105AE0002BA0450D2BA0450D2BA0450D2BA0450D42
:105AF0002BA0450D2BA0450D2BA0450D2BA0450D32
:105FB0002BA0450D2BA0450D2BA0450DFFFFFF0D80
:105FC000FFFFFF0DFFFFFF0DFFFFFF0DFFFFFF0DA9
:105FD000FFFFFF0DFFFFFF0DFFFFFF0DFFFFFF0D99
:105FE000FFFFFF0DFFFFFF0DFFFFFF0DFFFFFF0D89
:105FF000FFFFFF0DFFFFFF0DFFFFFF0DFFFFFF0D79
:10600000FFFFFF0DFFFFFF0DFFFFFF0DFFFFFF0D68
:10601000FFFFFF0DFFFFFF0DFFFFFF0DFFFFFF0D58
:10602000FFFFFF0DFFFFFF0DFFFFFF0DFFFFFF0D48
:10603000FFFFFF0DFFFFFF0DFFFFFF0DFFFFFF0D38
:10604000FFFFFF0DFFFFFF0DFFFFFF0DFFFFFF0D28
:10605000FFFFFF0DFFFFFF0DFFFFFF0DFFFFFF0D18
:10606000FFFFFF0DFFFFFF0DFFFFFF0DFFFFFF0D08
:10607000FFFFFF0DFFFFFF0DFFFFFF0DFFFFFF0DF8
:10608000FFFFFF0DFFFFFF0DFFFFFF0DFFFFFF0DE8
:10609000FFFFFF0DFFFFFF0DFFFFFF0DFFFFFF0DD8
:1060A000FFFFFF0DFFFFFF0DFFFFFF0DFFFFFF0DC8
:1060B000FFFFFF0DFFFFFF0DFFFFFF0DFFFFFF0DB8
:1060C000FFFFFF0DFFFFFF0DFFFFFF0DFFFFFF0DA8
:1060D000FFFFFF0DFFFFFF0DFFFFFF0DFFFFFF0D98
:1060E000FFFFFF0DFFFFFF0DFFFFFF0DFFFFFF0D88
:1060F000FFFFFF0DFFFFFF0DFFFFFF0DFFFFFF0D78
:10610000FFFFFF0DFFFFFF0DFFFFFF0DFFFFFF0D67
:10611000FFFFFF0DFFFFFF0DFFFFFF0DFFFFFF0D57
:10612000FFFFFF0DFFFFFF0DFFFFFF0DFFFFFF0D47
:10613000FFFFFF0DFFFFFF0DFFFFFF0DFFFFFF0D37
:10614000FFFFFF0DFFFFFF0DFFFFFF0DFFFFFF0D27
:10615000FFFFFF0DFFFFFF0DFFFFFF0DFFFFFF0D17
:10616000FFFFFF0DFFFFFF0DFFFFFF0DFFFFFF0D07
:10617000FFFFFF0DFFFFFF0DFFFFFF0DFFFFFF0DF7
:10618000FFFFFF0DFFFFFF0DFFFFFF0D63B9760D52
:106190000A91280D2BA0450D2BA0450D2BA0450DD8
:1061A0002BA0450D2BA0450D2BA0450D2BA0450D7B
:1061B0002BA0450D2BA0450D2BA0450D2BA0450D6B
:1061C0002BA0450D2BA0450D2BA0450D2BA0450D5B
:1061D0002BA0450D2BA0450D2BA0450D2BA0450D4B
:106690002BA0450D2BA0450D2BA0450DFFFFFF0D99
:1066A000FFFFFF0DFFFFFF0DFFFFFF0DFFFFFF0DC2
:1066B000FFFFFF0DFFFFFF0DFFFFFF0DFFFFFF0DB2
:1066C000FFFFFF0DFFFFFF0DFFFFFF0DFFFFFF0DA2
:1066D000FFFFFF0DFFFFFF0DFFFFFF0DFFFFFF0D92
:1066E000FFFFFF0DFFFFFF0DFFFFFF0DFFFFFF0D82
:1066F000FFFFFF0DFFFFFF0DFFFFFF0DFFFFFF0D72
:10670000FFFFFF0DFFFFFF0DFFFFFF0DFFFFFF0D61
:10671000FFFFFF0DFFFFFF0DFFFFFF0DFFFFFF0D51
:10672000FFFFFF0DFFFFFF0DFFFFFF0DFFFFFF0D41
:10673000FFFFFF0DFFFFFF0DFFFFFF0DFFFFFF0D31
:10674000FFFFFF0DFFFFFF0DFFFFFF0DFFFFFF0D21
:10675000FFFFFF0DFFFFFF0DFFFFFF0DFFFFFF0D11
:10676000FFFFFF0DFFFFFF0DFFFFFF0DFFFFFF0D01
:10677000FFFFFF0DFFFFFF0DFFFFFF0DFFFFFF0DF1
:10678000FFFFFF0DFFFFFF0DFFFFFF0DFFFFFF0DE1
:10679000FFFFFF0DFFFFFF0DFFFFFF0DFFFFFF0DD1
:1067A000FFFFFF0DFFFFFF0DFFFFFF0DFFFFFF0DC1
:1067B000FFFFFF0DFFFFFF0DFFFFFF0DFFFFFF0DB1
:1067C000FFFFFF0DFFFFFF0DFFFFFF0DFFFFFF0DA1
:1067D000FFFFFF0DFFFFFF0DFFFFFF0DFFFFFF0D91
:1067E000FFFFFF0DFFFFFF0DFFFFFF0DFFFFFF0D81
:1067F000FFFFFF0DFFFFFF0DFFFFFF0DFFFFFF0D71
:10680000FFFFFF0DFFFFFF0DFFFFFF0DFFFFFF0D60
:10681000FFFFFF0DFFFFFF0DFFFFFF0D63B9760DBB
:106820000A91280D2BA0450D2BA0450D2BA0450D41
:106830002BA0450D2BA0450D2BA0450D2BA0450DE4
:106840002BA0450D2BA0450D2BA0450D2BA0450DD4
:106850002BA0450D2BA0450D2BA0450D2BA0450DC4
:106860002BA0450D2BA0450D2BA0450D2BA0450DB4
:106D20002BA0450D2BA0450D2BA0450DFFFFFF0D02
:106D3000FFFFFF0DFFFFFF0DFFFFFF0DFFFFFF0D2B
:106D4000FFFFFF0DFFFFFF0DFFFFFF0DFFFFFF0D1B
:106D5000FFFFFF0DFFFFFF0DFFFFFF0DFFFFFF0D0B
:106D6000FFFFFF0DFFFFFF0DFFFFFF0DFFFFFF0DFB
:106D7000FFFFFF0DFFFFFF0DFFFFFF0DFFFFFF0DEB
:106D8000FFFFFF0DFFFFFF0DFFFFFF0DFFFFFF0DDB
:106D9000FFFFFF0DFFFFFF0DFFFFFF0DFFFFFF0DCB
:106DA000FFFFFF0DFFFFFF0DFFFFFF0DFFFFFF0DBB
:106DB000FFFFFF0DFFFFFF0DFFFFFF0DFFFFFF0DAB
:106DC000FFFFFF0DFFFFFF0DFFFFFF0DFFFFFF0D9B
:106DD000FFFFFF0DFFFFFF0DFFFFFF0DFFFFFF0D8B
:106DE000FFFFFF0DFFFFFF0DFFFFFF0DFFFFFF0D7B
:106DF000FFFFFF0DFFFFFF0DFFFFFF0DFFFFFF0D6B
:106E0000FFFFFF0DFFFFFF0DFFFFFF0DFFFFFF0D5A
:106E1000FFFFFF0DFFFFFF0DFFFFFF0DFFFFFF0D4A
:106E2000FFFFFF0DFFFFFF0DFFFFFF0DFFFFFF0D3A
:106E3000FFFFFF0DFFFFFF0DFFFFFF0DFFFFFF0D2A
:106E4000FFFFFF0DFFFFFF0DFFFFFF0DFFFFFF0D1A
:106E5000FFFFFF0DFFFFFF0DFFFFFF0DFFFFFF0D0A
:106E6000FFFFFF0DFFFFFF0DFFFFFF0DFFFFFF0DFA
:106E7000FFFFFF0DFFFFFF0DFFFFFF0DFFFFFF0DEA
:106E8000FFFFFF0DFFFFFF0DFFFFFF0DFFFFFF0DDA
:106E9000FFFFFF0DFFFFFF0DFFFFFF0DFFFFFF0DCA
:106EA000FFFFFF0DFFFFFF0DFFFFFF0DFFFFFF0DBA
:106EB000FFFFFF0DFFFFFF0DFFFFFF0DFFFFFF0DAA
:106EC000FFFFFF0DFFFFFF0DFFFFFF0DFFFFFF0D9A
:106ED000FFFFFF0DFFFFFF0DFFFFFF0DFFFFFF0D8A
:106EE000FFFFFF0DFFFFFF0DFFFFFF0DFFFFFF0D7A
:106EF000FFFFFF0DFFFFFF0DFFFFFF0D63B9760DD5
:106F00000A91280D2BA0450D2BA0450D2BA0450D5A
:106F10002BA0450D2BA0450D2BA0450D2BA0450DFD
:106F20002BA0450D2BA0450D2BA0450D2BA0450DED
:106F30002BA0450D2BA0450D2BA0450D2BA0450DDD
:106F40002BA0450D2BA0450D2BA0450D2BA0450DCD
:107400002BA0450D2BA0450D2BA0450DFFFFFF0D1B
:10741000FFFFFF0DFFFFFF0DFFFFFF0DFFFFFF0D44
:10742000FFFFFF0DFFFFFF0DFFFFFF0DFFFFFF0D34
:10743000FFFFFF0DFFFFFF0DFFFFFF0DFFFFFF0D24
:10744000FFFFFF0DFFFFFF0DFFFFFF0DFFFFFF0D14
:10745000FFFFFF0DFFFFFF0DFFFFFF0DFFFFFF0D04
:10746000FFFFFF0DFFFFFF0DFFFFFF0DFFFFFF0DF4
:10747000FFFFFF0DFFFFFF0DFFFFFF0DFFFFFF0DE4
:10748000FFFFFF0DFFFFFF0DFFFFFF0DFFFFFF0DD4
:10749000FFFFFF0DFFFFFF0DFFFFFF0DFFFFFF0DC4
:1074A000FFFFFF0DFFFFFF0DFFFFFF0DFFFFFF0DB4
:1074B000FFFFFF0DFFFFFF0DFFFFFF0DFFFFFF0DA4
:1074C000FFFFFF0DFFFFFF0DFFFFFF0DFFFFFF0D94
:1074D000FFFFFF0DFFFFFF0DFFFFFF0DFFFFFF0D84
:1074E000FFFFFF0DFFFFFF0DFFFFFF0DFFFFFF0D74
:1074F000FFFFFF0DFFFFFF0DFFFFFF0DFFFFFF0D64
:10750000FFFFFF0DFFFFFF0DFFFFFF0DFFFFFF0D53
:10751000FFFFFF0DFFFFFF0DFFFFFF0DFFFFFF0D43
:10752000FFFFFF0DFFFFFF0DFFFFFF0DFFFFFF0D33
:10753000FFFFFF0DFFFFFF0DFFFFFF0D63B9760D8E
:107540000A91280D2BA0450D2BA0450D2BA0450D14
:107550002BA0450D2BA0450D2BA0450D2BA0450DB7
:107560002BA0450D2BA0450D2BA0450D2BA0450DA7
:107570002BA0450D2BA0450D2BA0450D2BA0450D97
:107580002BA0450D2BA0450D2BA0450D2BA0450D87
:107A40002BA0450D2BA0450D2BA0450DFFFFFF0DD5
:107A5000FFFFFF0DFFFFFF0DFFFFFF0DFFFFFF0DFE
:107A6000FFFFFF0DFFFFFF0DFFFFFF0DFFFFFF0DEE
:107A7000FFFFFF0DFFFFFF0DFFFFFF0DFFFFFF0DDE
:107A8000FFFFFF0DFFFFFF0DFFFFFF0DFFFFFF0DCE
:107A9000FFFFFF0DFFFFFF0DFFFFFF0DFFFFFF0DBE
:107AA000FFFFFF0DFFFFFF0DFFFFFF0DFFFFFF0DAE
:107AB000FFFFFF0DFFFFFF0DFFFFFF0DFFFFFF0D9E
:107AC000FFFFFF0DFFFFFF0DFFFFFF0DFFFFFF0D8E
:107AD000FFFFFF0DFFFFFF0DFFFFFF0DFFFFFF0D7E
:107AE000FFFFFF0DFFFFFF0DFFFFFF0DFFFFFF0D6E
:107AF000FFFFFF0DFFFFFF0DFFFFFF0DFFFFFF0D5E
:107B0000FFFFFF0DFFFFFF0DFFFFFF0DFFFFFF0D4D
:107B1000FFFFFF0DFFFFFF0DFFFFFF0DFFFFFF0D3D
:107B2000FFFFFF0DFFFFFF0DFFFFFF0DFFFFFF0D2D
:107B3000FFFFFF0DFFFFFF0DFFFFFF0DFFFFFF0D1D
:107B4000FFFFFF0DFFFFFF0DFFFFFF0DFFFFFF0D0D
:107B5000FFFFFF0DFFFFFF0DFFFFFF0DFFFFFF0DFD
:107B6000FFFFFF0DFFFFFF0DFFFFFF0DFFFFFF0DED
:107B7000FFFFFF0DFFFFFF0DFFFFFF0DFFFFFF0DDD
:107B8000FFFFFF0DFFFFFF0DFFFFFF0DFFFFFF0DCD
:107B9000FFFFFF0DFFFFFF0DFFFFFF0DFFFFFF0DBD
:107BA000FFFFFF0DFFFFFF0DFFFFFF0DFFFFFF0DAD
:107BB000FFFFFF0DFFFFFF0DFFFFFF0DFFFFFF0D9D
:107BC000FFFFFF0DFFFFFF0DFFFFFF0DFFFFFF0D8D
:107BD000FFFFFF0DFFFFFF0DFFFFFF0DFFFFFF0D7D
:107BE000FFFFFF0DFFFFFF0DFFFFFF0DFFFFFF0D6D
:107BF000FFFFFF0DFFFFFF0DFFFFFF0DFFFFFF0D5D
:107C0000FFFFFF0DFFFFFF0DFFFFFF0DFFFFFF0D4C
:107C1000FFFFFF0DFFFFFF0DFFFFFF0D63B9760DA7
:107C20000A91280D2BA0450D2BA0450D2BA0450D2D
:107C30002BA0450D2BA0450D2BA0450D2BA0450DD0
:107C40002BA0450D2BA0450D2BA0450D2BA0450DC0
:107C50002BA0450D2BA0450D2BA0450D2BA0450DB0
:107C60002BA0450D2BA0450D2BA0450D2BA0450DA0
:108120002BA0450D2BA0450D2BA0450DFFFFFF0DEE
:10813000FFFFFF0DFFFFFF0DFFFFFF0DFFFFFF0D17
:10814000FFFFFF0DFFFFFF0DFFFFFF0DFFFFFF0D07
:10815000FFFFFF0DFFFFFF0DFFFFFF0DFFFFFF0DF7
:10816000FFFFFF0DFFFFFF0DFFFFFF0DFFFFFF0DE7
:10817000FFFFFF0DFFFFFF0DFFFFFF0DFFFFFF0DD7
:10818000FFFFFF0DFFFFFF0DFFFFFF0DFFFFFF0DC7
:10819000FFFFFF0DFFFFFF0DFFFFFF0DFFFFFF0DB7
:1081A000FFFFFF0DFFFFFF0DFFFFFF0DFFFFFF0DA7
:1081B000FFFFFF0DFFFFFF0DFFFFFF0DFFFFFF0D97
:1081C000FFFFFF0DFFFFFF0DFFFFFF0DFFFFFF0D87
:1081D000FFFFFF0DFFFFFF0DFFFFFF0DFFFFFF0D77
:1081E000FFFFFF0DFFFFFF0DFFFFFF0DFFFFFF0D67
:1081F000FFFFFF0DFFFFFF0DFFFFFF0DFFFFFF0D57
:10820000FFFFFF0DFFFFFF0DFFFFFF0DFFFFFF0D46
:10821000FFFFFF0DFFFFFF0DFFFFFF0DFFFFFF0D36
:10822000FFFFFF0DFFFFFF0DFFFFFF0DFFFFFF0D26
:10823000FFFFFF0DFFFFFF0DFFFFFF0DFFFFFF0D16
:10824000FFFFFF0DFFFFFF0DFFFFFF0DFFFFFF0D06
:10825000FFFFFF0DFFFFFF0DFFFFFF0DFFFFFF0DF6
:10826000FFFFFF0DFFFFFF0DFFFFFF0DFFFFFF0DE6
:10827000FFFFFF0DFFFFFF0DFFFFFF0DFFFFFF0DD6
:10828000FFFFFF0DFFFFFF0DFFFFFF0DFFFFFF0DC6
:10829000FFFFFF0DFFFFFF0DFFFFFF0DFFFFFF0DB6
:1082A000FFFFFF0DFFFFFF0DFFFFFF0D63B9760D11
:1082B0000A91280D2BA0450D2BA0450D2BA0450D97
:1082C0002BA0450D2BA0450D2BA0450D2BA0450D3A
:1082D0002BA0450D2BA0450D2BA0450D2BA0450D2A
:1082E0002BA0450D2BA0450D2BA0450D2BA0450D1A
:1082F0002BA0450D2BA0450D2BA0450D2BA0450D0A
:1087B0002BA0450D2BA0450D2BA0450DFFFFFF0D58
:1087C000FFFFFF0DFFFFFF0DFFFFFF0DFFFFFF0D81
:1087D000FFFFFF0DFFFFFF0DFFFFFF0DFFFFFF0D71
:1087E000FFFFFF0DFFFFFF0DFFFFFF0DFFFFFF0D61
:1087F000FFFFFF0DFFFFFF0DFFFFFF0DFFFFFF0D51
:10880000FFFFFF0DFFFFFF0DFFFFFF0DFFFFFF0D40
:10881000FFFFFF0DFFFFFF0DFFFFFF0DFFFFFF0D30
:10882000FFFFFF0DFFFFFF0DFFFFFF0DFFFFFF0D20
:10883000FFFFFF0DFFFFFF0DFFFFFF0DFFFFFF0D10
:10884000FFFFFF0DFFFFFF0DFFFFFF0DFFFFFF0D00
:10885000FFFFFF0DFFFFFF0DFFFFFF0DFFFFFF0DF0
:10886000FFFFFF0DFFFFFF0DFFFFFF0DFFFFFF0DE0
:10887000FFFFFF0DFFFFFF0DFFFFFF0DFFFFFF0DD0
:10888000FFFFFF0DFFFFFF0DFFFFFF0DFFFFFF0DC0
:10889000FFFFFF0DFFFFFF0DFFFFFF0DFFFFFF0DB0
:1088A000FFFFFF0DFFFFFF0DFFFFFF0DFFFFFF0DA0
:1088B000FFFFFF0DFFFFFF0DFFFFFF0DFFFFFF0D90
:1088C000FFFFFF0DFFFFFF0DFFFFFF0DFFFFFF0D80
:1088D000FFFFFF0DFFFFFF0DFFFFFF0DFFFFFF0D70
:1088E000FFFFFF0DFFFFFF0DFFFFFF0DFFFFFF0D60
:1088F000FFFFFF0DFFFFFF0DFFFFFF0DFFFFFF0D50
:10890000FFFFFF0DFFFFFF0DFFFFFF0DFFFFFF0D3F
:10891000FFFFFF0DFFFFFF0DFFFFFF0DFFFFFF0D2F
:10892000FFFFFF0DFFFFFF0DFFFFFF0DFFFFFF0D1F
:10893000FFFFFF0DFFFFFF0DFFFFFF0DFFFFFF0D0F
:10894000FFFFFF0DFFFFFF0DFFFFFF0DFFFFFF0DFF
:10895000FFFFFF0DFFFFFF0DFFFFFF0DFFFFFF0DEF
:10896000FFFFFF0DFFFFFF0DFFFFFF0DFFFFFF0DDF
:10897000FFFFFF0DFFFFFF0DFFFFFF0DFFFFFF0DCF
:10898000FFFFFF0DFFFFFF0DFFFFFF0D63B9760D2A
:108990000A91280D2BA0450D2BA0450D2BA0450DB0
:1089A0002BA0450D2BA0450D2BA0450D2BA0450D53
:1089B0002BA0450D2BA0450D2BA0450D2BA0450D43
:1089C0002BA0450D2BA0450D2BA0450D2BA0450D33
:1089D0002BA0450D2BA0450D2BA0450D2BA0450D23
:108E90002BA0450D2BA0450D2BA0450DFFFFFF0D71
:108EA000FFFFFF0DFFFFFF0DFFFFFF0DFFFFFF0D9A
:108EB000FFFFFF0DFFFFFF0DFFFFFF0DFFFFFF0D8A
:108EC000FFFFFF0DFFFFFF0DFFFFFF0DFFFFFF0D7A
:108ED000FFFFFF0DFFFFFF0DFFFFFF0DFFFFFF0D6A
:108EE000FFFFFF0DFFFFFF0DFFFFFF0DFFFFFF0D5A
:108EF000FFFFFF0DFFFFFF0DFFFFFF0DFFFFFF0D4A
:108F0000FFFFFF0DFFFFFF0DFFFFFF0DFFFFFF0D39
:108F1000FFFFFF0DFFFFFF0DFFFFFF0DFFFFFF0D29
:108F2000FFFFFF0DFFFFFF0DFFFFFF0DFFFFFF0D19
:108F3000FFFFFF0DFFFFFF0DFFFFFF0DFFFFFF0D09
:108F4000FFFFFF0DFFFFFF0DFFFFFF0DFFFFFF0DF9
:108F5000FFFFFF0DFFFFFF0DFFFFFF0DFFFFFF0DE9
:108F6000FFFFFF0DFFFFFF0DFFFFFF0DFFFFFF0DD9
:108F7000FFFFFF0DFFFFFF0DFFFFFF0DFFFFFF0DC9
:108F8000FFFFFF0DFFFFFF0DFFFFFF0DFFFFFF0DB9
:108F9000FFFFFF0DFFFFFF0DFFFFFF0DFFFFFF0DA9
:108FA000FFFFFF0DFFFFFF0DFFFFFF0DFFFFFF0D99
:108FB000FFFFFF0DFFFFFF0DFFFFFF0DFFFFFF0D89
:108FC000FFFFFF0DFFFFFF0DFFFFFF0D63B9760DE4
:108FD0000A91280D2BA0450D2BA0450D2BA0450D6A
:108FE0002BA0450D2BA0450D2BA0450D2BA0450D0D
:108FF0002BA0450D2BA0450D2BA0450D2BA0450DFD
:109000002BA0450D2BA0450D2BA0450D2BA0450DEC
:109010002BA0450D2BA0450D2BA0450D2BA0450DDC
:1094D0002BA0450D2BA0450D2BA0450DFFFFFF0D2B
:1094E000FFFFFF0DFFFFFF0DFFFFFF0DFFFFFF0D54
:1094F000FFFFFF0DFFFFFF0DFFFFFF0DFFFFFF0D44
:10950000FFFFFF0DFFFFFF0DFFFFFF0DFFFFFF0D33
:10951000FFFFFF0DFFFFFF0DFFFFFF0DFFFFFF0D23
:10952000FFFFFF0DFFFFFF0DFFFFFF0DFFFFFF0D13
:10953000FFFFFF0DFFFFFF0DFFFFFF0DFFFFFF0D03
:10954000FFFFFF0DFFFFFF0DFFFFFF0DFFFFFF0DF3
:10955000FFFFFF0DFFFFFF0DFFFFFF0DFFFFFF0DE3
:10956000FFFFFF0DFFFFFF0DFFFFFF0DFFFFFF0DD3
:10957000FFFFFF0DFFFFFF0DFFFFFF0DFFFFFF0DC3
:10958000FFFFFF0DFFFFFF0DFFFFFF0DFFFFFF0DB3
:10959000FFFFFF0DFFFFFF0DFFFFFF0DFFFFFF0DA3
:1095A000FFFFFF0DFFFFFF0DFFFFFF0DFFFFFF0D93
:1095B000FFFFFF0DFFFFFF0DFFFFFF0DFFFFFF0D83
:1095C000FFFFFF0DFFFFFF0DFFFFFF0DFFFFFF0D73
:1095D000FFFFFF0DFFFFFF0DFFFFFF0DFFFFFF0D63
:1095E000FFFFFF0DFFFFFF0DFFFFFF0DFFFFFF0D53
:1095F000FFFFFF0DFFFFFF0DFFFFFF0DFFFFFF0D43
:10960000FFFFFF0DFFFFFF0DFFFFFF0DFFFFFF0D32
:10961000FFFFFF0DFFFFFF0DFFFFFF0DFFFFFF0D22
:10962000FFFFFF0DFFFFFF0DFFFFFF0DFFFFFF0D12
:10963000FFFFFF0DFFFFFF0DFFFFFF0DFFFFFF0D02
:10964000FFFFFF0DFFFFFF0DFFFFFF0DFFFFFF0DF2
:10965000FFFFFF0DFFFFFF0DFFFFFF0DFFFFFF0DE2
:10966000FFFFFF0DFFFFFF0DFFFFFF0DFFFFFF0DD2
:10967000FFFFFF0DFFFFFF0DFFFFFF0DFFFFFF0DC2
:10968000FFFFFF0DFFFFFF0DFFFFFF0DFFFFFF0DB2
:10969000FFFFFF0DFFFFFF0DFFFFFF0DFFFFFF0DA2
:1096A000FFFFFF0DFFFFFF0DFFFFFF0D63B9760DFD
:1096B0000A91280D2BA0450D2BA0450D2BA0450D83
:1096C0002BA0450D2BA0450D2BA0450D2BA0450D26
:1096D0002BA0450D2BA0450D2BA0450D2BA0450D16
:1096E0002BA0450D2BA0450D2BA0450D2BA0450D06
:1096F0002BA0450D2BA0450D2BA0450D2BA0450DF6
:109BB0002BA0450D2BA0450D2BA0450DFFFFFF0D44
:109BC000FFFFFF0DFFFFFF0DFFFFFF0DFFFFFF0D6D
:109BD000FFFFFF0DFFFFFF0DFFFFFF0DFFFFFF0D5D
:109BE000FFFFFF0DFFFFFF0DFFFFFF0DFFFFFF0D4D
:109BF000FFFFFF0DFFFFFF0DFFFFFF0DFFFFFF0D3D
:109C0000FFFFFF0DFFFFFF0DFFFFFF0DFFFFFF0D2C
:109C1000FFFFFF0DFFFFFF0DFFFFFF0DFFFFFF0D1C
:109C2000FFFFFF0DFFFFFF0DFFFFFF0DFFFFFF0D0C
:109C3000FFFFFF0DFFFFFF0DFFFFFF0DFFFFFF0DFC
:109C4000FFFFFF0DFFFFFF0DFFFFFF0DFFFFFF0DEC
:109C5000FFFFFF0DFFFFFF0DFFFFFF0DFFFFFF0DDC
:109C6000FFFFFF0DFFFFFF0DFFFFFF0DFFFFFF0DCC
:109C7000FFFFFF0DFFFFFF0DFFFFFF0DFFFFFF0DBC
:109C8000FFFFFF0DFFFFFF0DFFFFFF0DFFFFFF0DAC
:109C9000FFFFFF0DFFFFFF0DFFFFFF0DFFFFFF0D9C
:109CA000FFFFFF0DFFFFFF0DFFFFFF0DFFFFFF0D8C
:109CB000FFFFFF0DFFFFFF0DFFFFFF0DFFFFFF0D7C
:109CC000FFFFFF0DFFFFFF0DFFFFFF0DFFFFFF0D6C
:109CD000FFFFFF0DFFFFFF0DFFFFFF0DFFFFFF0D5C
:109CE000FFFFFF0DFFFFFF0DFFFFFF0DFFFFFF0D4C
:109CF000FFFFFF0DFFFFFF0DFFFFFF0DFFFFFF0D3C
:109D0000FFFFFF0DFFFFFF0DFFFFFF0DFFFFFF0D2B
:109D1000FFFFFF0DFFFFFF0DFFFFFF0DFFFFFF0D1B
:109D2000FFFFFF0DFFFFFF0DFFFFFF0DFFFFFF0D0B
:109D3000FFFFFF0DFFFFFF0DFFFFFF0D63B9760D66
:109D40000A91280D2BA0450D2BA0450D2BA0450DEC
:109D50002BA0450D2BA0450D2BA0450D2BA0450D8F
:109D60002BA0450D2BA0450D2BA0450D2BA0450D7F
:109D70002BA0450D2BA0450D2BA0450D2BA0450D6F
:109D80002BA0450D2BA0450D2BA0450D2BA0450D5F
:10A240002BA0450D2BA0450D2BA0450DFFFFFF0DAD
:10A25000FFFFFF0DFFFFFF0DFFFFFF0DFFFFFF0DD6
:10A26000FFFFFF0DFFFFFF0DFFFFFF0DFFFFFF0DC6
:10A27000FFFFFF0DFFFFFF0DFFFFFF0DFFFFFF0DB6
:10A28000FFFFFF0DFFFFFF0DFFFFFF0DFFFFFF0DA6
:10A29000FFFFFF0DFFFFFF0DFFFFFF0DFFFFFF0D96
:10A2A000FFFFFF0DFFFFFF0DFFFFFF0DFFFFFF0D86
:10A2B000FFFFFF0DFFFFFF0DFFFFFF0DFFFFFF0D76
:10A2C000FFFFFF0DFFFFFF0DFFFFFF0DFFFFFF0D66
:10A2D000FFFFFF0DFFFFFF0DFFFFFF0DFFFFFF0D56
